{
	"contracts/Ejercicios/Mymodifier.sol": {
		"ModifierExample": {
			"abi": [
				{
					"inputs": [
						{
							"internalType": "address",
							"name": "",
							"type": "address"
						}
					],
					"name": "myAddresses",
					"outputs": [
						{
							"internalType": "uint256",
							"name": "",
							"type": "uint256"
						}
					],
					"stateMutability": "view",
					"type": "function"
				},
				{
					"inputs": [],
					"name": "myBoolean",
					"outputs": [
						{
							"internalType": "bool",
							"name": "",
							"type": "bool"
						}
					],
					"stateMutability": "view",
					"type": "function"
				},
				{
					"inputs": [
						{
							"internalType": "uint256",
							"name": "",
							"type": "uint256"
						}
					],
					"name": "myMapping",
					"outputs": [
						{
							"internalType": "bool",
							"name": "",
							"type": "bool"
						}
					],
					"stateMutability": "view",
					"type": "function"
				},
				{
					"inputs": [],
					"name": "myNumber",
					"outputs": [
						{
							"internalType": "uint256",
							"name": "",
							"type": "uint256"
						}
					],
					"stateMutability": "view",
					"type": "function"
				},
				{
					"inputs": [],
					"name": "myString",
					"outputs": [
						{
							"internalType": "string",
							"name": "",
							"type": "string"
						}
					],
					"stateMutability": "view",
					"type": "function"
				},
				{
					"inputs": [],
					"name": "receiveMoney",
					"outputs": [],
					"stateMutability": "payable",
					"type": "function"
				},
				{
					"inputs": [
						{
							"internalType": "address",
							"name": "wallet",
							"type": "address"
						},
						{
							"internalType": "uint256",
							"name": "amount",
							"type": "uint256"
						}
					],
					"name": "setMyAddresses",
					"outputs": [],
					"stateMutability": "nonpayable",
					"type": "function"
				},
				{
					"inputs": [
						{
							"internalType": "uint256",
							"name": "index",
							"type": "uint256"
						},
						{
							"internalType": "bool",
							"name": "value",
							"type": "bool"
						}
					],
					"name": "setValue",
					"outputs": [],
					"stateMutability": "nonpayable",
					"type": "function"
				},
				{
					"inputs": [
						{
							"internalType": "uint256",
							"name": "amount",
							"type": "uint256"
						}
					],
					"name": "withdrawMoney",
					"outputs": [],
					"stateMutability": "nonpayable",
					"type": "function"
				}
			],
			"devdoc": {
				"kind": "dev",
				"methods": {},
				"version": 1
			},
			"evm": {
				"assembly": "    /* \"contracts/Ejercicios/Mymodifier.sol\":64:801  contract ModifierExample {\r... */\n  mstore(0x40, 0x80)\n  callvalue\n  dup1\n  iszero\n  tag_1\n  jumpi\n  0x00\n  dup1\n  revert\ntag_1:\n  pop\n  dataSize(sub_0)\n  dup1\n  dataOffset(sub_0)\n  0x00\n  codecopy\n  0x00\n  return\nstop\n\nsub_0: assembly {\n        /* \"contracts/Ejercicios/Mymodifier.sol\":64:801  contract ModifierExample {\r... */\n      mstore(0x40, 0x80)\n      jumpi(tag_1, lt(calldatasize, 0x04))\n      shr(0xe0, calldataload(0x00))\n      dup1\n      0x6d26ec18\n      gt\n      tag_11\n      jumpi\n      dup1\n      0x6d26ec18\n      eq\n      tag_6\n      jumpi\n      dup1\n      0x7c668844\n      eq\n      tag_7\n      jumpi\n      dup1\n      0x82e33e82\n      eq\n      tag_8\n      jumpi\n      dup1\n      0xae454f11\n      eq\n      tag_9\n      jumpi\n      dup1\n      0xdc99be11\n      eq\n      tag_10\n      jumpi\n      jump(tag_1)\n    tag_11:\n      dup1\n      0x23fd0e40\n      eq\n      tag_2\n      jumpi\n      dup1\n      0x492bfa18\n      eq\n      tag_3\n      jumpi\n      dup1\n      0x54876921\n      eq\n      tag_4\n      jumpi\n      dup1\n      0x5d68278c\n      eq\n      tag_5\n      jumpi\n    tag_1:\n      0x00\n      dup1\n      revert\n        /* \"contracts/Ejercicios/Mymodifier.sol\":153:173  uint public myNumber */\n    tag_2:\n      callvalue\n      dup1\n      iszero\n      tag_12\n      jumpi\n      0x00\n      dup1\n      revert\n    tag_12:\n      pop\n      tag_13\n      tag_14\n      jump\t// in\n    tag_13:\n      mload(0x40)\n      tag_15\n      swap2\n      swap1\n      tag_16\n      jump\t// in\n    tag_15:\n      mload(0x40)\n      dup1\n      swap2\n      sub\n      swap1\n      return\n        /* \"contracts/Ejercicios/Mymodifier.sol\":124:146  string public myString */\n    tag_3:\n      callvalue\n      dup1\n      iszero\n      tag_17\n      jumpi\n      0x00\n      dup1\n      revert\n    tag_17:\n      pop\n      tag_18\n      tag_19\n      jump\t// in\n    tag_18:\n      mload(0x40)\n      tag_20\n      swap2\n      swap1\n      tag_21\n      jump\t// in\n    tag_20:\n      mload(0x40)\n      dup1\n      swap2\n      sub\n      swap1\n      return\n        /* \"contracts/Ejercicios/Mymodifier.sol\":381:583  function withdrawMoney(uint amount) public {\r... */\n    tag_4:\n      callvalue\n      dup1\n      iszero\n      tag_22\n      jumpi\n      0x00\n      dup1\n      revert\n    tag_22:\n      pop\n      tag_23\n      0x04\n      dup1\n      calldatasize\n      sub\n      dup2\n      add\n      swap1\n      tag_24\n      swap2\n      swap1\n      tag_25\n      jump\t// in\n    tag_24:\n      tag_26\n      jump\t// in\n    tag_23:\n      stop\n        /* \"contracts/Ejercicios/Mymodifier.sol\":691:798  function setMyAddresses(address wallet, uint amount) public {\r... */\n    tag_5:\n      callvalue\n      dup1\n      iszero\n      tag_27\n      jumpi\n      0x00\n      dup1\n      revert\n    tag_27:\n      pop\n      tag_28\n      0x04\n      dup1\n      calldatasize\n      sub\n      dup2\n      add\n      swap1\n      tag_29\n      swap2\n      swap1\n      tag_30\n      jump\t// in\n    tag_29:\n      tag_31\n      jump\t// in\n    tag_28:\n      stop\n        /* \"contracts/Ejercicios/Mymodifier.sol\":279:373  function receiveMoney() public payable {\r... */\n    tag_6:\n      tag_32\n      tag_33\n      jump\t// in\n    tag_32:\n      stop\n        /* \"contracts/Ejercicios/Mymodifier.sol\":182:220  mapping(uint => bool) public myMapping */\n    tag_7:\n      callvalue\n      dup1\n      iszero\n      tag_34\n      jumpi\n      0x00\n      dup1\n      revert\n    tag_34:\n      pop\n      tag_35\n      0x04\n      dup1\n      calldatasize\n      sub\n      dup2\n      add\n      swap1\n      tag_36\n      swap2\n      swap1\n      tag_25\n      jump\t// in\n    tag_36:\n      tag_37\n      jump\t// in\n    tag_35:\n      mload(0x40)\n      tag_38\n      swap2\n      swap1\n      tag_39\n      jump\t// in\n    tag_38:\n      mload(0x40)\n      dup1\n      swap2\n      sub\n      swap1\n      return\n        /* \"contracts/Ejercicios/Mymodifier.sol\":591:683  function setValue(uint index, bool value) public {\r... */\n    tag_8:\n      callvalue\n      dup1\n      iszero\n      tag_40\n      jumpi\n      0x00\n      dup1\n      revert\n    tag_40:\n      pop\n      tag_41\n      0x04\n      dup1\n      calldatasize\n      sub\n      dup2\n      add\n      swap1\n      tag_42\n      swap2\n      swap1\n      tag_43\n      jump\t// in\n    tag_42:\n      tag_44\n      jump\t// in\n    tag_41:\n      stop\n        /* \"contracts/Ejercicios/Mymodifier.sol\":227:270  mapping(address => uint) public myAddresses */\n    tag_9:\n      callvalue\n      dup1\n      iszero\n      tag_45\n      jumpi\n      0x00\n      dup1\n      revert\n    tag_45:\n      pop\n      tag_46\n      0x04\n      dup1\n      calldatasize\n      sub\n      dup2\n      add\n      swap1\n      tag_47\n      swap2\n      swap1\n      tag_48\n      jump\t// in\n    tag_47:\n      tag_49\n      jump\t// in\n    tag_46:\n      mload(0x40)\n      tag_50\n      swap2\n      swap1\n      tag_16\n      jump\t// in\n    tag_50:\n      mload(0x40)\n      dup1\n      swap2\n      sub\n      swap1\n      return\n        /* \"contracts/Ejercicios/Mymodifier.sol\":96:117  bool public myBoolean */\n    tag_10:\n      callvalue\n      dup1\n      iszero\n      tag_51\n      jumpi\n      0x00\n      dup1\n      revert\n    tag_51:\n      pop\n      tag_52\n      tag_53\n      jump\t// in\n    tag_52:\n      mload(0x40)\n      tag_54\n      swap2\n      swap1\n      tag_39\n      jump\t// in\n    tag_54:\n      mload(0x40)\n      dup1\n      swap2\n      sub\n      swap1\n      return\n        /* \"contracts/Ejercicios/Mymodifier.sol\":153:173  uint public myNumber */\n    tag_14:\n      sload(0x02)\n      dup2\n      jump\t// out\n        /* \"contracts/Ejercicios/Mymodifier.sol\":124:146  string public myString */\n    tag_19:\n      0x01\n      dup1\n      sload\n      tag_55\n      swap1\n      tag_56\n      jump\t// in\n    tag_55:\n      dup1\n      0x1f\n      add\n      0x20\n      dup1\n      swap2\n      div\n      mul\n      0x20\n      add\n      mload(0x40)\n      swap1\n      dup2\n      add\n      0x40\n      mstore\n      dup1\n      swap3\n      swap2\n      swap1\n      dup2\n      dup2\n      mstore\n      0x20\n      add\n      dup3\n      dup1\n      sload\n      tag_57\n      swap1\n      tag_56\n      jump\t// in\n    tag_57:\n      dup1\n      iszero\n      tag_58\n      jumpi\n      dup1\n      0x1f\n      lt\n      tag_59\n      jumpi\n      0x0100\n      dup1\n      dup4\n      sload\n      div\n      mul\n      dup4\n      mstore\n      swap2\n      0x20\n      add\n      swap2\n      jump(tag_58)\n    tag_59:\n      dup3\n      add\n      swap2\n      swap1\n      0x00\n      mstore\n      keccak256(0x00, 0x20)\n      swap1\n    tag_60:\n      dup2\n      sload\n      dup2\n      mstore\n      swap1\n      0x01\n      add\n      swap1\n      0x20\n      add\n      dup1\n      dup4\n      gt\n      tag_60\n      jumpi\n      dup3\n      swap1\n      sub\n      0x1f\n      and\n      dup3\n      add\n      swap2\n    tag_58:\n      pop\n      pop\n      pop\n      pop\n      pop\n      dup2\n      jump\t// out\n        /* \"contracts/Ejercicios/Mymodifier.sol\":381:583  function withdrawMoney(uint amount) public {\r... */\n    tag_26:\n        /* \"contracts/Ejercicios/Mymodifier.sol\":472:478  10**18 */\n      0x0de0b6b3a7640000\n        /* \"contracts/Ejercicios/Mymodifier.sol\":462:468  amount */\n      dup2\n        /* \"contracts/Ejercicios/Mymodifier.sol\":462:479  amount * (10**18) */\n      tag_62\n      swap2\n      swap1\n      tag_63\n      jump\t// in\n    tag_62:\n        /* \"contracts/Ejercicios/Mymodifier.sol\":435:446  myAddresses */\n      0x04\n        /* \"contracts/Ejercicios/Mymodifier.sol\":435:458  myAddresses[msg.sender] */\n      0x00\n        /* \"contracts/Ejercicios/Mymodifier.sol\":447:457  msg.sender */\n      caller\n        /* \"contracts/Ejercicios/Mymodifier.sol\":435:458  myAddresses[msg.sender] */\n      0xffffffffffffffffffffffffffffffffffffffff\n      and\n      0xffffffffffffffffffffffffffffffffffffffff\n      and\n      dup2\n      mstore\n      0x20\n      add\n      swap1\n      dup2\n      mstore\n      0x20\n      add\n      0x00\n      keccak256\n      0x00\n        /* \"contracts/Ejercicios/Mymodifier.sol\":435:479  myAddresses[msg.sender] -= amount * (10**18) */\n      dup3\n      dup3\n      sload\n      tag_64\n      swap2\n      swap1\n      tag_65\n      jump\t// in\n    tag_64:\n      swap3\n      pop\n      pop\n      dup2\n      swap1\n      sstore\n      pop\n        /* \"contracts/Ejercicios/Mymodifier.sol\":490:506  address myWallet */\n      0x00\n        /* \"contracts/Ejercicios/Mymodifier.sol\":509:519  msg.sender */\n      caller\n        /* \"contracts/Ejercicios/Mymodifier.sol\":490:519  address myWallet = msg.sender */\n      swap1\n      pop\n        /* \"contracts/Ejercicios/Mymodifier.sol\":538:546  myWallet */\n      dup1\n        /* \"contracts/Ejercicios/Mymodifier.sol\":530:556  payable(myWallet).transfer */\n      0xffffffffffffffffffffffffffffffffffffffff\n      and\n        /* \"contracts/Ejercicios/Mymodifier.sol\":530:575  payable(myWallet).transfer(amount * (10**18)) */\n      0x08fc\n        /* \"contracts/Ejercicios/Mymodifier.sol\":567:573  10**18 */\n      0x0de0b6b3a7640000\n        /* \"contracts/Ejercicios/Mymodifier.sol\":557:563  amount */\n      dup5\n        /* \"contracts/Ejercicios/Mymodifier.sol\":557:574  amount * (10**18) */\n      tag_66\n      swap2\n      swap1\n      tag_63\n      jump\t// in\n    tag_66:\n        /* \"contracts/Ejercicios/Mymodifier.sol\":530:575  payable(myWallet).transfer(amount * (10**18)) */\n      swap1\n      dup2\n      iszero\n      mul\n      swap1\n      mload(0x40)\n      0x00\n      mload(0x40)\n      dup1\n      dup4\n      sub\n      dup2\n      dup6\n      dup9\n      dup9\n      call\n      swap4\n      pop\n      pop\n      pop\n      pop\n      iszero\n      dup1\n      iszero\n      tag_68\n      jumpi\n      returndatasize\n      0x00\n      dup1\n      returndatacopy\n      revert(0x00, returndatasize)\n    tag_68:\n      pop\n        /* \"contracts/Ejercicios/Mymodifier.sol\":424:583  {\r... */\n      pop\n        /* \"contracts/Ejercicios/Mymodifier.sol\":381:583  function withdrawMoney(uint amount) public {\r... */\n      pop\n      jump\t// out\n        /* \"contracts/Ejercicios/Mymodifier.sol\":691:798  function setMyAddresses(address wallet, uint amount) public {\r... */\n    tag_31:\n        /* \"contracts/Ejercicios/Mymodifier.sol\":784:790  amount */\n      dup1\n        /* \"contracts/Ejercicios/Mymodifier.sol\":762:773  myAddresses */\n      0x04\n        /* \"contracts/Ejercicios/Mymodifier.sol\":762:781  myAddresses[wallet] */\n      0x00\n        /* \"contracts/Ejercicios/Mymodifier.sol\":774:780  wallet */\n      dup5\n        /* \"contracts/Ejercicios/Mymodifier.sol\":762:781  myAddresses[wallet] */\n      0xffffffffffffffffffffffffffffffffffffffff\n      and\n      0xffffffffffffffffffffffffffffffffffffffff\n      and\n      dup2\n      mstore\n      0x20\n      add\n      swap1\n      dup2\n      mstore\n      0x20\n      add\n      0x00\n      keccak256\n        /* \"contracts/Ejercicios/Mymodifier.sol\":762:790  myAddresses[wallet] = amount */\n      dup2\n      swap1\n      sstore\n      pop\n        /* \"contracts/Ejercicios/Mymodifier.sol\":691:798  function setMyAddresses(address wallet, uint amount) public {\r... */\n      pop\n      pop\n      jump\t// out\n        /* \"contracts/Ejercicios/Mymodifier.sol\":279:373  function receiveMoney() public payable {\r... */\n    tag_33:\n        /* \"contracts/Ejercicios/Mymodifier.sol\":356:365  msg.value */\n      callvalue\n        /* \"contracts/Ejercicios/Mymodifier.sol\":329:340  myAddresses */\n      0x04\n        /* \"contracts/Ejercicios/Mymodifier.sol\":329:352  myAddresses[msg.sender] */\n      0x00\n        /* \"contracts/Ejercicios/Mymodifier.sol\":341:351  msg.sender */\n      caller\n        /* \"contracts/Ejercicios/Mymodifier.sol\":329:352  myAddresses[msg.sender] */\n      0xffffffffffffffffffffffffffffffffffffffff\n      and\n      0xffffffffffffffffffffffffffffffffffffffff\n      and\n      dup2\n      mstore\n      0x20\n      add\n      swap1\n      dup2\n      mstore\n      0x20\n      add\n      0x00\n      keccak256\n      0x00\n        /* \"contracts/Ejercicios/Mymodifier.sol\":329:365  myAddresses[msg.sender] += msg.value */\n      dup3\n      dup3\n      sload\n      tag_71\n      swap2\n      swap1\n      tag_72\n      jump\t// in\n    tag_71:\n      swap3\n      pop\n      pop\n      dup2\n      swap1\n      sstore\n      pop\n        /* \"contracts/Ejercicios/Mymodifier.sol\":279:373  function receiveMoney() public payable {\r... */\n      jump\t// out\n        /* \"contracts/Ejercicios/Mymodifier.sol\":182:220  mapping(uint => bool) public myMapping */\n    tag_37:\n      mstore(0x20, 0x03)\n      dup1\n      0x00\n      mstore\n      keccak256(0x00, 0x40)\n      0x00\n      swap2\n      pop\n      sload\n      swap1\n      0x0100\n      exp\n      swap1\n      div\n      0xff\n      and\n      dup2\n      jump\t// out\n        /* \"contracts/Ejercicios/Mymodifier.sol\":591:683  function setValue(uint index, bool value) public {\r... */\n    tag_44:\n        /* \"contracts/Ejercicios/Mymodifier.sol\":670:675  value */\n      dup1\n        /* \"contracts/Ejercicios/Mymodifier.sol\":651:660  myMapping */\n      0x03\n        /* \"contracts/Ejercicios/Mymodifier.sol\":651:667  myMapping[index] */\n      0x00\n        /* \"contracts/Ejercicios/Mymodifier.sol\":661:666  index */\n      dup5\n        /* \"contracts/Ejercicios/Mymodifier.sol\":651:667  myMapping[index] */\n      dup2\n      mstore\n      0x20\n      add\n      swap1\n      dup2\n      mstore\n      0x20\n      add\n      0x00\n      keccak256\n      0x00\n        /* \"contracts/Ejercicios/Mymodifier.sol\":651:675  myMapping[index] = value */\n      0x0100\n      exp\n      dup2\n      sload\n      dup2\n      0xff\n      mul\n      not\n      and\n      swap1\n      dup4\n      iszero\n      iszero\n      mul\n      or\n      swap1\n      sstore\n      pop\n        /* \"contracts/Ejercicios/Mymodifier.sol\":591:683  function setValue(uint index, bool value) public {\r... */\n      pop\n      pop\n      jump\t// out\n        /* \"contracts/Ejercicios/Mymodifier.sol\":227:270  mapping(address => uint) public myAddresses */\n    tag_49:\n      mstore(0x20, 0x04)\n      dup1\n      0x00\n      mstore\n      keccak256(0x00, 0x40)\n      0x00\n      swap2\n      pop\n      swap1\n      pop\n      sload\n      dup2\n      jump\t// out\n        /* \"contracts/Ejercicios/Mymodifier.sol\":96:117  bool public myBoolean */\n    tag_53:\n      0x00\n      dup1\n      sload\n      swap1\n      0x0100\n      exp\n      swap1\n      div\n      0xff\n      and\n      dup2\n      jump\t// out\n        /* \"#utility.yul\":7:146   */\n    tag_75:\n        /* \"#utility.yul\":53:58   */\n      0x00\n        /* \"#utility.yul\":91:97   */\n      dup2\n        /* \"#utility.yul\":78:98   */\n      calldataload\n        /* \"#utility.yul\":69:98   */\n      swap1\n      pop\n        /* \"#utility.yul\":107:140   */\n      tag_77\n        /* \"#utility.yul\":134:139   */\n      dup2\n        /* \"#utility.yul\":107:140   */\n      tag_78\n      jump\t// in\n    tag_77:\n        /* \"#utility.yul\":7:146   */\n      swap3\n      swap2\n      pop\n      pop\n      jump\t// out\n        /* \"#utility.yul\":152:285   */\n    tag_79:\n        /* \"#utility.yul\":195:200   */\n      0x00\n        /* \"#utility.yul\":233:239   */\n      dup2\n        /* \"#utility.yul\":220:240   */\n      calldataload\n        /* \"#utility.yul\":211:240   */\n      swap1\n      pop\n        /* \"#utility.yul\":249:279   */\n      tag_81\n        /* \"#utility.yul\":273:278   */\n      dup2\n        /* \"#utility.yul\":249:279   */\n      tag_82\n      jump\t// in\n    tag_81:\n        /* \"#utility.yul\":152:285   */\n      swap3\n      swap2\n      pop\n      pop\n      jump\t// out\n        /* \"#utility.yul\":291:430   */\n    tag_83:\n        /* \"#utility.yul\":337:342   */\n      0x00\n        /* \"#utility.yul\":375:381   */\n      dup2\n        /* \"#utility.yul\":362:382   */\n      calldataload\n        /* \"#utility.yul\":353:382   */\n      swap1\n      pop\n        /* \"#utility.yul\":391:424   */\n      tag_85\n        /* \"#utility.yul\":418:423   */\n      dup2\n        /* \"#utility.yul\":391:424   */\n      tag_86\n      jump\t// in\n    tag_85:\n        /* \"#utility.yul\":291:430   */\n      swap3\n      swap2\n      pop\n      pop\n      jump\t// out\n        /* \"#utility.yul\":436:765   */\n    tag_48:\n        /* \"#utility.yul\":495:501   */\n      0x00\n        /* \"#utility.yul\":544:546   */\n      0x20\n        /* \"#utility.yul\":532:541   */\n      dup3\n        /* \"#utility.yul\":523:530   */\n      dup5\n        /* \"#utility.yul\":519:542   */\n      sub\n        /* \"#utility.yul\":515:547   */\n      slt\n        /* \"#utility.yul\":512:631   */\n      iszero\n      tag_88\n      jumpi\n        /* \"#utility.yul\":550:629   */\n      tag_89\n      tag_90\n      jump\t// in\n    tag_89:\n        /* \"#utility.yul\":512:631   */\n    tag_88:\n        /* \"#utility.yul\":670:671   */\n      0x00\n        /* \"#utility.yul\":695:748   */\n      tag_91\n        /* \"#utility.yul\":740:747   */\n      dup5\n        /* \"#utility.yul\":731:737   */\n      dup3\n        /* \"#utility.yul\":720:729   */\n      dup6\n        /* \"#utility.yul\":716:738   */\n      add\n        /* \"#utility.yul\":695:748   */\n      tag_75\n      jump\t// in\n    tag_91:\n        /* \"#utility.yul\":685:748   */\n      swap2\n      pop\n        /* \"#utility.yul\":641:758   */\n      pop\n        /* \"#utility.yul\":436:765   */\n      swap3\n      swap2\n      pop\n      pop\n      jump\t// out\n        /* \"#utility.yul\":771:1245   */\n    tag_30:\n        /* \"#utility.yul\":839:845   */\n      0x00\n        /* \"#utility.yul\":847:853   */\n      dup1\n        /* \"#utility.yul\":896:898   */\n      0x40\n        /* \"#utility.yul\":884:893   */\n      dup4\n        /* \"#utility.yul\":875:882   */\n      dup6\n        /* \"#utility.yul\":871:894   */\n      sub\n        /* \"#utility.yul\":867:899   */\n      slt\n        /* \"#utility.yul\":864:983   */\n      iszero\n      tag_93\n      jumpi\n        /* \"#utility.yul\":902:981   */\n      tag_94\n      tag_90\n      jump\t// in\n    tag_94:\n        /* \"#utility.yul\":864:983   */\n    tag_93:\n        /* \"#utility.yul\":1022:1023   */\n      0x00\n        /* \"#utility.yul\":1047:1100   */\n      tag_95\n        /* \"#utility.yul\":1092:1099   */\n      dup6\n        /* \"#utility.yul\":1083:1089   */\n      dup3\n        /* \"#utility.yul\":1072:1081   */\n      dup7\n        /* \"#utility.yul\":1068:1090   */\n      add\n        /* \"#utility.yul\":1047:1100   */\n      tag_75\n      jump\t// in\n    tag_95:\n        /* \"#utility.yul\":1037:1100   */\n      swap3\n      pop\n        /* \"#utility.yul\":993:1110   */\n      pop\n        /* \"#utility.yul\":1149:1151   */\n      0x20\n        /* \"#utility.yul\":1175:1228   */\n      tag_96\n        /* \"#utility.yul\":1220:1227   */\n      dup6\n        /* \"#utility.yul\":1211:1217   */\n      dup3\n        /* \"#utility.yul\":1200:1209   */\n      dup7\n        /* \"#utility.yul\":1196:1218   */\n      add\n        /* \"#utility.yul\":1175:1228   */\n      tag_83\n      jump\t// in\n    tag_96:\n        /* \"#utility.yul\":1165:1228   */\n      swap2\n      pop\n        /* \"#utility.yul\":1120:1238   */\n      pop\n        /* \"#utility.yul\":771:1245   */\n      swap3\n      pop\n      swap3\n      swap1\n      pop\n      jump\t// out\n        /* \"#utility.yul\":1251:1580   */\n    tag_25:\n        /* \"#utility.yul\":1310:1316   */\n      0x00\n        /* \"#utility.yul\":1359:1361   */\n      0x20\n        /* \"#utility.yul\":1347:1356   */\n      dup3\n        /* \"#utility.yul\":1338:1345   */\n      dup5\n        /* \"#utility.yul\":1334:1357   */\n      sub\n        /* \"#utility.yul\":1330:1362   */\n      slt\n        /* \"#utility.yul\":1327:1446   */\n      iszero\n      tag_98\n      jumpi\n        /* \"#utility.yul\":1365:1444   */\n      tag_99\n      tag_90\n      jump\t// in\n    tag_99:\n        /* \"#utility.yul\":1327:1446   */\n    tag_98:\n        /* \"#utility.yul\":1485:1486   */\n      0x00\n        /* \"#utility.yul\":1510:1563   */\n      tag_100\n        /* \"#utility.yul\":1555:1562   */\n      dup5\n        /* \"#utility.yul\":1546:1552   */\n      dup3\n        /* \"#utility.yul\":1535:1544   */\n      dup6\n        /* \"#utility.yul\":1531:1553   */\n      add\n        /* \"#utility.yul\":1510:1563   */\n      tag_83\n      jump\t// in\n    tag_100:\n        /* \"#utility.yul\":1500:1563   */\n      swap2\n      pop\n        /* \"#utility.yul\":1456:1573   */\n      pop\n        /* \"#utility.yul\":1251:1580   */\n      swap3\n      swap2\n      pop\n      pop\n      jump\t// out\n        /* \"#utility.yul\":1586:2054   */\n    tag_43:\n        /* \"#utility.yul\":1651:1657   */\n      0x00\n        /* \"#utility.yul\":1659:1665   */\n      dup1\n        /* \"#utility.yul\":1708:1710   */\n      0x40\n        /* \"#utility.yul\":1696:1705   */\n      dup4\n        /* \"#utility.yul\":1687:1694   */\n      dup6\n        /* \"#utility.yul\":1683:1706   */\n      sub\n        /* \"#utility.yul\":1679:1711   */\n      slt\n        /* \"#utility.yul\":1676:1795   */\n      iszero\n      tag_102\n      jumpi\n        /* \"#utility.yul\":1714:1793   */\n      tag_103\n      tag_90\n      jump\t// in\n    tag_103:\n        /* \"#utility.yul\":1676:1795   */\n    tag_102:\n        /* \"#utility.yul\":1834:1835   */\n      0x00\n        /* \"#utility.yul\":1859:1912   */\n      tag_104\n        /* \"#utility.yul\":1904:1911   */\n      dup6\n        /* \"#utility.yul\":1895:1901   */\n      dup3\n        /* \"#utility.yul\":1884:1893   */\n      dup7\n        /* \"#utility.yul\":1880:1902   */\n      add\n        /* \"#utility.yul\":1859:1912   */\n      tag_83\n      jump\t// in\n    tag_104:\n        /* \"#utility.yul\":1849:1912   */\n      swap3\n      pop\n        /* \"#utility.yul\":1805:1922   */\n      pop\n        /* \"#utility.yul\":1961:1963   */\n      0x20\n        /* \"#utility.yul\":1987:2037   */\n      tag_105\n        /* \"#utility.yul\":2029:2036   */\n      dup6\n        /* \"#utility.yul\":2020:2026   */\n      dup3\n        /* \"#utility.yul\":2009:2018   */\n      dup7\n        /* \"#utility.yul\":2005:2027   */\n      add\n        /* \"#utility.yul\":1987:2037   */\n      tag_79\n      jump\t// in\n    tag_105:\n        /* \"#utility.yul\":1977:2037   */\n      swap2\n      pop\n        /* \"#utility.yul\":1932:2047   */\n      pop\n        /* \"#utility.yul\":1586:2054   */\n      swap3\n      pop\n      swap3\n      swap1\n      pop\n      jump\t// out\n        /* \"#utility.yul\":2060:2169   */\n    tag_106:\n        /* \"#utility.yul\":2141:2162   */\n      tag_108\n        /* \"#utility.yul\":2156:2161   */\n      dup2\n        /* \"#utility.yul\":2141:2162   */\n      tag_109\n      jump\t// in\n    tag_108:\n        /* \"#utility.yul\":2136:2139   */\n      dup3\n        /* \"#utility.yul\":2129:2163   */\n      mstore\n        /* \"#utility.yul\":2060:2169   */\n      pop\n      pop\n      jump\t// out\n        /* \"#utility.yul\":2175:2539   */\n    tag_110:\n        /* \"#utility.yul\":2263:2266   */\n      0x00\n        /* \"#utility.yul\":2291:2330   */\n      tag_112\n        /* \"#utility.yul\":2324:2329   */\n      dup3\n        /* \"#utility.yul\":2291:2330   */\n      tag_113\n      jump\t// in\n    tag_112:\n        /* \"#utility.yul\":2346:2417   */\n      tag_114\n        /* \"#utility.yul\":2410:2416   */\n      dup2\n        /* \"#utility.yul\":2405:2408   */\n      dup6\n        /* \"#utility.yul\":2346:2417   */\n      tag_115\n      jump\t// in\n    tag_114:\n        /* \"#utility.yul\":2339:2417   */\n      swap4\n      pop\n        /* \"#utility.yul\":2426:2478   */\n      tag_116\n        /* \"#utility.yul\":2471:2477   */\n      dup2\n        /* \"#utility.yul\":2466:2469   */\n      dup6\n        /* \"#utility.yul\":2459:2463   */\n      0x20\n        /* \"#utility.yul\":2452:2457   */\n      dup7\n        /* \"#utility.yul\":2448:2464   */\n      add\n        /* \"#utility.yul\":2426:2478   */\n      tag_117\n      jump\t// in\n    tag_116:\n        /* \"#utility.yul\":2503:2532   */\n      tag_118\n        /* \"#utility.yul\":2525:2531   */\n      dup2\n        /* \"#utility.yul\":2503:2532   */\n      tag_119\n      jump\t// in\n    tag_118:\n        /* \"#utility.yul\":2498:2501   */\n      dup5\n        /* \"#utility.yul\":2494:2533   */\n      add\n        /* \"#utility.yul\":2487:2533   */\n      swap2\n      pop\n        /* \"#utility.yul\":2267:2539   */\n      pop\n        /* \"#utility.yul\":2175:2539   */\n      swap3\n      swap2\n      pop\n      pop\n      jump\t// out\n        /* \"#utility.yul\":2545:2663   */\n    tag_120:\n        /* \"#utility.yul\":2632:2656   */\n      tag_122\n        /* \"#utility.yul\":2650:2655   */\n      dup2\n        /* \"#utility.yul\":2632:2656   */\n      tag_123\n      jump\t// in\n    tag_122:\n        /* \"#utility.yul\":2627:2630   */\n      dup3\n        /* \"#utility.yul\":2620:2657   */\n      mstore\n        /* \"#utility.yul\":2545:2663   */\n      pop\n      pop\n      jump\t// out\n        /* \"#utility.yul\":2669:2879   */\n    tag_39:\n        /* \"#utility.yul\":2756:2760   */\n      0x00\n        /* \"#utility.yul\":2794:2796   */\n      0x20\n        /* \"#utility.yul\":2783:2792   */\n      dup3\n        /* \"#utility.yul\":2779:2797   */\n      add\n        /* \"#utility.yul\":2771:2797   */\n      swap1\n      pop\n        /* \"#utility.yul\":2807:2872   */\n      tag_125\n        /* \"#utility.yul\":2869:2870   */\n      0x00\n        /* \"#utility.yul\":2858:2867   */\n      dup4\n        /* \"#utility.yul\":2854:2871   */\n      add\n        /* \"#utility.yul\":2845:2851   */\n      dup5\n        /* \"#utility.yul\":2807:2872   */\n      tag_106\n      jump\t// in\n    tag_125:\n        /* \"#utility.yul\":2669:2879   */\n      swap3\n      swap2\n      pop\n      pop\n      jump\t// out\n        /* \"#utility.yul\":2885:3198   */\n    tag_21:\n        /* \"#utility.yul\":2998:3002   */\n      0x00\n        /* \"#utility.yul\":3036:3038   */\n      0x20\n        /* \"#utility.yul\":3025:3034   */\n      dup3\n        /* \"#utility.yul\":3021:3039   */\n      add\n        /* \"#utility.yul\":3013:3039   */\n      swap1\n      pop\n        /* \"#utility.yul\":3085:3094   */\n      dup2\n        /* \"#utility.yul\":3079:3083   */\n      dup2\n        /* \"#utility.yul\":3075:3095   */\n      sub\n        /* \"#utility.yul\":3071:3072   */\n      0x00\n        /* \"#utility.yul\":3060:3069   */\n      dup4\n        /* \"#utility.yul\":3056:3073   */\n      add\n        /* \"#utility.yul\":3049:3096   */\n      mstore\n        /* \"#utility.yul\":3113:3191   */\n      tag_127\n        /* \"#utility.yul\":3186:3190   */\n      dup2\n        /* \"#utility.yul\":3177:3183   */\n      dup5\n        /* \"#utility.yul\":3113:3191   */\n      tag_110\n      jump\t// in\n    tag_127:\n        /* \"#utility.yul\":3105:3191   */\n      swap1\n      pop\n        /* \"#utility.yul\":2885:3198   */\n      swap3\n      swap2\n      pop\n      pop\n      jump\t// out\n        /* \"#utility.yul\":3204:3426   */\n    tag_16:\n        /* \"#utility.yul\":3297:3301   */\n      0x00\n        /* \"#utility.yul\":3335:3337   */\n      0x20\n        /* \"#utility.yul\":3324:3333   */\n      dup3\n        /* \"#utility.yul\":3320:3338   */\n      add\n        /* \"#utility.yul\":3312:3338   */\n      swap1\n      pop\n        /* \"#utility.yul\":3348:3419   */\n      tag_129\n        /* \"#utility.yul\":3416:3417   */\n      0x00\n        /* \"#utility.yul\":3405:3414   */\n      dup4\n        /* \"#utility.yul\":3401:3418   */\n      add\n        /* \"#utility.yul\":3392:3398   */\n      dup5\n        /* \"#utility.yul\":3348:3419   */\n      tag_120\n      jump\t// in\n    tag_129:\n        /* \"#utility.yul\":3204:3426   */\n      swap3\n      swap2\n      pop\n      pop\n      jump\t// out\n        /* \"#utility.yul\":3513:3612   */\n    tag_113:\n        /* \"#utility.yul\":3565:3571   */\n      0x00\n        /* \"#utility.yul\":3599:3604   */\n      dup2\n        /* \"#utility.yul\":3593:3605   */\n      mload\n        /* \"#utility.yul\":3583:3605   */\n      swap1\n      pop\n        /* \"#utility.yul\":3513:3612   */\n      swap2\n      swap1\n      pop\n      jump\t// out\n        /* \"#utility.yul\":3618:3787   */\n    tag_115:\n        /* \"#utility.yul\":3702:3713   */\n      0x00\n        /* \"#utility.yul\":3736:3742   */\n      dup3\n        /* \"#utility.yul\":3731:3734   */\n      dup3\n        /* \"#utility.yul\":3724:3743   */\n      mstore\n        /* \"#utility.yul\":3776:3780   */\n      0x20\n        /* \"#utility.yul\":3771:3774   */\n      dup3\n        /* \"#utility.yul\":3767:3781   */\n      add\n        /* \"#utility.yul\":3752:3781   */\n      swap1\n      pop\n        /* \"#utility.yul\":3618:3787   */\n      swap3\n      swap2\n      pop\n      pop\n      jump\t// out\n        /* \"#utility.yul\":3793:4098   */\n    tag_72:\n        /* \"#utility.yul\":3833:3836   */\n      0x00\n        /* \"#utility.yul\":3852:3872   */\n      tag_135\n        /* \"#utility.yul\":3870:3871   */\n      dup3\n        /* \"#utility.yul\":3852:3872   */\n      tag_123\n      jump\t// in\n    tag_135:\n        /* \"#utility.yul\":3847:3872   */\n      swap2\n      pop\n        /* \"#utility.yul\":3886:3906   */\n      tag_136\n        /* \"#utility.yul\":3904:3905   */\n      dup4\n        /* \"#utility.yul\":3886:3906   */\n      tag_123\n      jump\t// in\n    tag_136:\n        /* \"#utility.yul\":3881:3906   */\n      swap3\n      pop\n        /* \"#utility.yul\":4040:4041   */\n      dup3\n        /* \"#utility.yul\":3972:4038   */\n      0xffffffffffffffffffffffffffffffffffffffffffffffffffffffffffffffff\n        /* \"#utility.yul\":3968:4042   */\n      sub\n        /* \"#utility.yul\":3965:3966   */\n      dup3\n        /* \"#utility.yul\":3962:4043   */\n      gt\n        /* \"#utility.yul\":3959:4066   */\n      iszero\n      tag_137\n      jumpi\n        /* \"#utility.yul\":4046:4064   */\n      tag_138\n      tag_139\n      jump\t// in\n    tag_138:\n        /* \"#utility.yul\":3959:4066   */\n    tag_137:\n        /* \"#utility.yul\":4090:4091   */\n      dup3\n        /* \"#utility.yul\":4087:4088   */\n      dup3\n        /* \"#utility.yul\":4083:4092   */\n      add\n        /* \"#utility.yul\":4076:4092   */\n      swap1\n      pop\n        /* \"#utility.yul\":3793:4098   */\n      swap3\n      swap2\n      pop\n      pop\n      jump\t// out\n        /* \"#utility.yul\":4104:4452   */\n    tag_63:\n        /* \"#utility.yul\":4144:4151   */\n      0x00\n        /* \"#utility.yul\":4167:4187   */\n      tag_141\n        /* \"#utility.yul\":4185:4186   */\n      dup3\n        /* \"#utility.yul\":4167:4187   */\n      tag_123\n      jump\t// in\n    tag_141:\n        /* \"#utility.yul\":4162:4187   */\n      swap2\n      pop\n        /* \"#utility.yul\":4201:4221   */\n      tag_142\n        /* \"#utility.yul\":4219:4220   */\n      dup4\n        /* \"#utility.yul\":4201:4221   */\n      tag_123\n      jump\t// in\n    tag_142:\n        /* \"#utility.yul\":4196:4221   */\n      swap3\n      pop\n        /* \"#utility.yul\":4389:4390   */\n      dup2\n        /* \"#utility.yul\":4321:4387   */\n      0xffffffffffffffffffffffffffffffffffffffffffffffffffffffffffffffff\n        /* \"#utility.yul\":4317:4391   */\n      div\n        /* \"#utility.yul\":4314:4315   */\n      dup4\n        /* \"#utility.yul\":4311:4392   */\n      gt\n        /* \"#utility.yul\":4306:4307   */\n      dup3\n        /* \"#utility.yul\":4299:4308   */\n      iszero\n        /* \"#utility.yul\":4292:4309   */\n      iszero\n        /* \"#utility.yul\":4288:4393   */\n      and\n        /* \"#utility.yul\":4285:4416   */\n      iszero\n      tag_143\n      jumpi\n        /* \"#utility.yul\":4396:4414   */\n      tag_144\n      tag_139\n      jump\t// in\n    tag_144:\n        /* \"#utility.yul\":4285:4416   */\n    tag_143:\n        /* \"#utility.yul\":4444:4445   */\n      dup3\n        /* \"#utility.yul\":4441:4442   */\n      dup3\n        /* \"#utility.yul\":4437:4446   */\n      mul\n        /* \"#utility.yul\":4426:4446   */\n      swap1\n      pop\n        /* \"#utility.yul\":4104:4452   */\n      swap3\n      swap2\n      pop\n      pop\n      jump\t// out\n        /* \"#utility.yul\":4458:4649   */\n    tag_65:\n        /* \"#utility.yul\":4498:4502   */\n      0x00\n        /* \"#utility.yul\":4518:4538   */\n      tag_146\n        /* \"#utility.yul\":4536:4537   */\n      dup3\n        /* \"#utility.yul\":4518:4538   */\n      tag_123\n      jump\t// in\n    tag_146:\n        /* \"#utility.yul\":4513:4538   */\n      swap2\n      pop\n        /* \"#utility.yul\":4552:4572   */\n      tag_147\n        /* \"#utility.yul\":4570:4571   */\n      dup4\n        /* \"#utility.yul\":4552:4572   */\n      tag_123\n      jump\t// in\n    tag_147:\n        /* \"#utility.yul\":4547:4572   */\n      swap3\n      pop\n        /* \"#utility.yul\":4591:4592   */\n      dup3\n        /* \"#utility.yul\":4588:4589   */\n      dup3\n        /* \"#utility.yul\":4585:4593   */\n      lt\n        /* \"#utility.yul\":4582:4616   */\n      iszero\n      tag_148\n      jumpi\n        /* \"#utility.yul\":4596:4614   */\n      tag_149\n      tag_139\n      jump\t// in\n    tag_149:\n        /* \"#utility.yul\":4582:4616   */\n    tag_148:\n        /* \"#utility.yul\":4641:4642   */\n      dup3\n        /* \"#utility.yul\":4638:4639   */\n      dup3\n        /* \"#utility.yul\":4634:4643   */\n      sub\n        /* \"#utility.yul\":4626:4643   */\n      swap1\n      pop\n        /* \"#utility.yul\":4458:4649   */\n      swap3\n      swap2\n      pop\n      pop\n      jump\t// out\n        /* \"#utility.yul\":4655:4751   */\n    tag_150:\n        /* \"#utility.yul\":4692:4699   */\n      0x00\n        /* \"#utility.yul\":4721:4745   */\n      tag_152\n        /* \"#utility.yul\":4739:4744   */\n      dup3\n        /* \"#utility.yul\":4721:4745   */\n      tag_153\n      jump\t// in\n    tag_152:\n        /* \"#utility.yul\":4710:4745   */\n      swap1\n      pop\n        /* \"#utility.yul\":4655:4751   */\n      swap2\n      swap1\n      pop\n      jump\t// out\n        /* \"#utility.yul\":4757:4847   */\n    tag_109:\n        /* \"#utility.yul\":4791:4798   */\n      0x00\n        /* \"#utility.yul\":4834:4839   */\n      dup2\n        /* \"#utility.yul\":4827:4840   */\n      iszero\n        /* \"#utility.yul\":4820:4841   */\n      iszero\n        /* \"#utility.yul\":4809:4841   */\n      swap1\n      pop\n        /* \"#utility.yul\":4757:4847   */\n      swap2\n      swap1\n      pop\n      jump\t// out\n        /* \"#utility.yul\":4853:4979   */\n    tag_153:\n        /* \"#utility.yul\":4890:4897   */\n      0x00\n        /* \"#utility.yul\":4930:4972   */\n      0xffffffffffffffffffffffffffffffffffffffff\n        /* \"#utility.yul\":4923:4928   */\n      dup3\n        /* \"#utility.yul\":4919:4973   */\n      and\n        /* \"#utility.yul\":4908:4973   */\n      swap1\n      pop\n        /* \"#utility.yul\":4853:4979   */\n      swap2\n      swap1\n      pop\n      jump\t// out\n        /* \"#utility.yul\":4985:5062   */\n    tag_123:\n        /* \"#utility.yul\":5022:5029   */\n      0x00\n        /* \"#utility.yul\":5051:5056   */\n      dup2\n        /* \"#utility.yul\":5040:5056   */\n      swap1\n      pop\n        /* \"#utility.yul\":4985:5062   */\n      swap2\n      swap1\n      pop\n      jump\t// out\n        /* \"#utility.yul\":5068:5375   */\n    tag_117:\n        /* \"#utility.yul\":5136:5137   */\n      0x00\n        /* \"#utility.yul\":5146:5259   */\n    tag_158:\n        /* \"#utility.yul\":5160:5166   */\n      dup4\n        /* \"#utility.yul\":5157:5158   */\n      dup2\n        /* \"#utility.yul\":5154:5167   */\n      lt\n        /* \"#utility.yul\":5146:5259   */\n      iszero\n      tag_160\n      jumpi\n        /* \"#utility.yul\":5245:5246   */\n      dup1\n        /* \"#utility.yul\":5240:5243   */\n      dup3\n        /* \"#utility.yul\":5236:5247   */\n      add\n        /* \"#utility.yul\":5230:5248   */\n      mload\n        /* \"#utility.yul\":5226:5227   */\n      dup2\n        /* \"#utility.yul\":5221:5224   */\n      dup5\n        /* \"#utility.yul\":5217:5228   */\n      add\n        /* \"#utility.yul\":5210:5249   */\n      mstore\n        /* \"#utility.yul\":5182:5184   */\n      0x20\n        /* \"#utility.yul\":5179:5180   */\n      dup2\n        /* \"#utility.yul\":5175:5185   */\n      add\n        /* \"#utility.yul\":5170:5185   */\n      swap1\n      pop\n        /* \"#utility.yul\":5146:5259   */\n      jump(tag_158)\n    tag_160:\n        /* \"#utility.yul\":5277:5283   */\n      dup4\n        /* \"#utility.yul\":5274:5275   */\n      dup2\n        /* \"#utility.yul\":5271:5284   */\n      gt\n        /* \"#utility.yul\":5268:5369   */\n      iszero\n      tag_161\n      jumpi\n        /* \"#utility.yul\":5357:5358   */\n      0x00\n        /* \"#utility.yul\":5348:5354   */\n      dup5\n        /* \"#utility.yul\":5343:5346   */\n      dup5\n        /* \"#utility.yul\":5339:5355   */\n      add\n        /* \"#utility.yul\":5332:5359   */\n      mstore\n        /* \"#utility.yul\":5268:5369   */\n    tag_161:\n        /* \"#utility.yul\":5117:5375   */\n      pop\n        /* \"#utility.yul\":5068:5375   */\n      pop\n      pop\n      pop\n      jump\t// out\n        /* \"#utility.yul\":5381:5701   */\n    tag_56:\n        /* \"#utility.yul\":5425:5431   */\n      0x00\n        /* \"#utility.yul\":5462:5463   */\n      0x02\n        /* \"#utility.yul\":5456:5460   */\n      dup3\n        /* \"#utility.yul\":5452:5464   */\n      div\n        /* \"#utility.yul\":5442:5464   */\n      swap1\n      pop\n        /* \"#utility.yul\":5509:5510   */\n      0x01\n        /* \"#utility.yul\":5503:5507   */\n      dup3\n        /* \"#utility.yul\":5499:5511   */\n      and\n        /* \"#utility.yul\":5530:5548   */\n      dup1\n        /* \"#utility.yul\":5520:5601   */\n      tag_163\n      jumpi\n        /* \"#utility.yul\":5586:5590   */\n      0x7f\n        /* \"#utility.yul\":5578:5584   */\n      dup3\n        /* \"#utility.yul\":5574:5591   */\n      and\n        /* \"#utility.yul\":5564:5591   */\n      swap2\n      pop\n        /* \"#utility.yul\":5520:5601   */\n    tag_163:\n        /* \"#utility.yul\":5648:5650   */\n      0x20\n        /* \"#utility.yul\":5640:5646   */\n      dup3\n        /* \"#utility.yul\":5637:5651   */\n      lt\n        /* \"#utility.yul\":5617:5635   */\n      dup2\n        /* \"#utility.yul\":5614:5652   */\n      eq\n        /* \"#utility.yul\":5611:5695   */\n      iszero\n      tag_164\n      jumpi\n        /* \"#utility.yul\":5667:5685   */\n      tag_165\n      tag_166\n      jump\t// in\n    tag_165:\n        /* \"#utility.yul\":5611:5695   */\n    tag_164:\n        /* \"#utility.yul\":5432:5701   */\n      pop\n        /* \"#utility.yul\":5381:5701   */\n      swap2\n      swap1\n      pop\n      jump\t// out\n        /* \"#utility.yul\":5707:5887   */\n    tag_139:\n        /* \"#utility.yul\":5755:5832   */\n      0x4e487b7100000000000000000000000000000000000000000000000000000000\n        /* \"#utility.yul\":5752:5753   */\n      0x00\n        /* \"#utility.yul\":5745:5833   */\n      mstore\n        /* \"#utility.yul\":5852:5856   */\n      0x11\n        /* \"#utility.yul\":5849:5850   */\n      0x04\n        /* \"#utility.yul\":5842:5857   */\n      mstore\n        /* \"#utility.yul\":5876:5880   */\n      0x24\n        /* \"#utility.yul\":5873:5874   */\n      0x00\n        /* \"#utility.yul\":5866:5881   */\n      revert\n        /* \"#utility.yul\":5893:6073   */\n    tag_166:\n        /* \"#utility.yul\":5941:6018   */\n      0x4e487b7100000000000000000000000000000000000000000000000000000000\n        /* \"#utility.yul\":5938:5939   */\n      0x00\n        /* \"#utility.yul\":5931:6019   */\n      mstore\n        /* \"#utility.yul\":6038:6042   */\n      0x22\n        /* \"#utility.yul\":6035:6036   */\n      0x04\n        /* \"#utility.yul\":6028:6043   */\n      mstore\n        /* \"#utility.yul\":6062:6066   */\n      0x24\n        /* \"#utility.yul\":6059:6060   */\n      0x00\n        /* \"#utility.yul\":6052:6067   */\n      revert\n        /* \"#utility.yul\":6202:6319   */\n    tag_90:\n        /* \"#utility.yul\":6311:6312   */\n      0x00\n        /* \"#utility.yul\":6308:6309   */\n      dup1\n        /* \"#utility.yul\":6301:6313   */\n      revert\n        /* \"#utility.yul\":6325:6427   */\n    tag_119:\n        /* \"#utility.yul\":6366:6372   */\n      0x00\n        /* \"#utility.yul\":6417:6419   */\n      0x1f\n        /* \"#utility.yul\":6413:6420   */\n      not\n        /* \"#utility.yul\":6408:6410   */\n      0x1f\n        /* \"#utility.yul\":6401:6406   */\n      dup4\n        /* \"#utility.yul\":6397:6411   */\n      add\n        /* \"#utility.yul\":6393:6421   */\n      and\n        /* \"#utility.yul\":6383:6421   */\n      swap1\n      pop\n        /* \"#utility.yul\":6325:6427   */\n      swap2\n      swap1\n      pop\n      jump\t// out\n        /* \"#utility.yul\":6433:6555   */\n    tag_78:\n        /* \"#utility.yul\":6506:6530   */\n      tag_174\n        /* \"#utility.yul\":6524:6529   */\n      dup2\n        /* \"#utility.yul\":6506:6530   */\n      tag_150\n      jump\t// in\n    tag_174:\n        /* \"#utility.yul\":6499:6504   */\n      dup2\n        /* \"#utility.yul\":6496:6531   */\n      eq\n        /* \"#utility.yul\":6486:6549   */\n      tag_175\n      jumpi\n        /* \"#utility.yul\":6545:6546   */\n      0x00\n        /* \"#utility.yul\":6542:6543   */\n      dup1\n        /* \"#utility.yul\":6535:6547   */\n      revert\n        /* \"#utility.yul\":6486:6549   */\n    tag_175:\n        /* \"#utility.yul\":6433:6555   */\n      pop\n      jump\t// out\n        /* \"#utility.yul\":6561:6677   */\n    tag_82:\n        /* \"#utility.yul\":6631:6652   */\n      tag_177\n        /* \"#utility.yul\":6646:6651   */\n      dup2\n        /* \"#utility.yul\":6631:6652   */\n      tag_109\n      jump\t// in\n    tag_177:\n        /* \"#utility.yul\":6624:6629   */\n      dup2\n        /* \"#utility.yul\":6621:6653   */\n      eq\n        /* \"#utility.yul\":6611:6671   */\n      tag_178\n      jumpi\n        /* \"#utility.yul\":6667:6668   */\n      0x00\n        /* \"#utility.yul\":6664:6665   */\n      dup1\n        /* \"#utility.yul\":6657:6669   */\n      revert\n        /* \"#utility.yul\":6611:6671   */\n    tag_178:\n        /* \"#utility.yul\":6561:6677   */\n      pop\n      jump\t// out\n        /* \"#utility.yul\":6683:6805   */\n    tag_86:\n        /* \"#utility.yul\":6756:6780   */\n      tag_180\n        /* \"#utility.yul\":6774:6779   */\n      dup2\n        /* \"#utility.yul\":6756:6780   */\n      tag_123\n      jump\t// in\n    tag_180:\n        /* \"#utility.yul\":6749:6754   */\n      dup2\n        /* \"#utility.yul\":6746:6781   */\n      eq\n        /* \"#utility.yul\":6736:6799   */\n      tag_181\n      jumpi\n        /* \"#utility.yul\":6795:6796   */\n      0x00\n        /* \"#utility.yul\":6792:6793   */\n      dup1\n        /* \"#utility.yul\":6785:6797   */\n      revert\n        /* \"#utility.yul\":6736:6799   */\n    tag_181:\n        /* \"#utility.yul\":6683:6805   */\n      pop\n      jump\t// out\n\n    auxdata: 0xa26469706673582212200230d5124df47403b31c233c0db54eed142a2312a8000307a179a6f80dc77f2064736f6c63430008070033\n}\n",
				"bytecode": {
					"linkReferences": {},
					"object": "608060405234801561001057600080fd5b506108e7806100206000396000f3fe6080604052600436106100865760003560e01c80636d26ec18116100595780636d26ec18146101335780637c6688441461013d57806382e33e821461017a578063ae454f11146101a3578063dc99be11146101e057610086565b806323fd0e401461008b578063492bfa18146100b657806354876921146100e15780635d68278c1461010a575b600080fd5b34801561009757600080fd5b506100a061020b565b6040516100ad9190610630565b60405180910390f35b3480156100c257600080fd5b506100cb610211565b6040516100d8919061060e565b60405180910390f35b3480156100ed57600080fd5b506101086004803603810190610103919061052f565b61029f565b005b34801561011657600080fd5b50610131600480360381019061012c91906104ef565b61036b565b005b61013b6103b3565b005b34801561014957600080fd5b50610164600480360381019061015f919061052f565b61040b565b60405161017191906105f3565b60405180910390f35b34801561018657600080fd5b506101a1600480360381019061019c919061055c565b61042b565b005b3480156101af57600080fd5b506101ca60048036038101906101c591906104c2565b61045a565b6040516101d79190610630565b60405180910390f35b3480156101ec57600080fd5b506101f5610472565b60405161020291906105f3565b60405180910390f35b60025481565b6001805461021e906107c6565b80601f016020809104026020016040519081016040528092919081815260200182805461024a906107c6565b80156102975780601f1061026c57610100808354040283529160200191610297565b820191906000526020600020905b81548152906001019060200180831161027a57829003601f168201915b505050505081565b670de0b6b3a7640000816102b391906106bd565b600460003373ffffffffffffffffffffffffffffffffffffffff1673ffffffffffffffffffffffffffffffffffffffff16815260200190815260200160002060008282546103019190610717565b9250508190555060003390508073ffffffffffffffffffffffffffffffffffffffff166108fc670de0b6b3a76400008461033b91906106bd565b9081150290604051600060405180830381858888f19350505050158015610366573d6000803e3d6000fd5b505050565b80600460008473ffffffffffffffffffffffffffffffffffffffff1673ffffffffffffffffffffffffffffffffffffffff168152602001908152602001600020819055505050565b34600460003373ffffffffffffffffffffffffffffffffffffffff1673ffffffffffffffffffffffffffffffffffffffff16815260200190815260200160002060008282546104029190610667565b92505081905550565b60036020528060005260406000206000915054906101000a900460ff1681565b806003600084815260200190815260200160002060006101000a81548160ff0219169083151502179055505050565b60046020528060005260406000206000915090505481565b60008054906101000a900460ff1681565b6000813590506104928161086c565b92915050565b6000813590506104a781610883565b92915050565b6000813590506104bc8161089a565b92915050565b6000602082840312156104d8576104d7610856565b5b60006104e684828501610483565b91505092915050565b6000806040838503121561050657610505610856565b5b600061051485828601610483565b9250506020610525858286016104ad565b9150509250929050565b60006020828403121561054557610544610856565b5b6000610553848285016104ad565b91505092915050565b6000806040838503121561057357610572610856565b5b6000610581858286016104ad565b925050602061059285828601610498565b9150509250929050565b6105a58161075d565b82525050565b60006105b68261064b565b6105c08185610656565b93506105d0818560208601610793565b6105d98161085b565b840191505092915050565b6105ed81610789565b82525050565b6000602082019050610608600083018461059c565b92915050565b6000602082019050818103600083015261062881846105ab565b905092915050565b600060208201905061064560008301846105e4565b92915050565b600081519050919050565b600082825260208201905092915050565b600061067282610789565b915061067d83610789565b9250827fffffffffffffffffffffffffffffffffffffffffffffffffffffffffffffffff038211156106b2576106b16107f8565b5b828201905092915050565b60006106c882610789565b91506106d383610789565b9250817fffffffffffffffffffffffffffffffffffffffffffffffffffffffffffffffff048311821515161561070c5761070b6107f8565b5b828202905092915050565b600061072282610789565b915061072d83610789565b9250828210156107405761073f6107f8565b5b828203905092915050565b600061075682610769565b9050919050565b60008115159050919050565b600073ffffffffffffffffffffffffffffffffffffffff82169050919050565b6000819050919050565b60005b838110156107b1578082015181840152602081019050610796565b838111156107c0576000848401525b50505050565b600060028204905060018216806107de57607f821691505b602082108114156107f2576107f1610827565b5b50919050565b7f4e487b7100000000000000000000000000000000000000000000000000000000600052601160045260246000fd5b7f4e487b7100000000000000000000000000000000000000000000000000000000600052602260045260246000fd5b600080fd5b6000601f19601f8301169050919050565b6108758161074b565b811461088057600080fd5b50565b61088c8161075d565b811461089757600080fd5b50565b6108a381610789565b81146108ae57600080fd5b5056fea26469706673582212200230d5124df47403b31c233c0db54eed142a2312a8000307a179a6f80dc77f2064736f6c63430008070033",
					"opcodes": "PUSH1 0x80 PUSH1 0x40 MSTORE CALLVALUE DUP1 ISZERO PUSH2 0x10 JUMPI PUSH1 0x0 DUP1 REVERT JUMPDEST POP PUSH2 0x8E7 DUP1 PUSH2 0x20 PUSH1 0x0 CODECOPY PUSH1 0x0 RETURN INVALID PUSH1 0x80 PUSH1 0x40 MSTORE PUSH1 0x4 CALLDATASIZE LT PUSH2 0x86 JUMPI PUSH1 0x0 CALLDATALOAD PUSH1 0xE0 SHR DUP1 PUSH4 0x6D26EC18 GT PUSH2 0x59 JUMPI DUP1 PUSH4 0x6D26EC18 EQ PUSH2 0x133 JUMPI DUP1 PUSH4 0x7C668844 EQ PUSH2 0x13D JUMPI DUP1 PUSH4 0x82E33E82 EQ PUSH2 0x17A JUMPI DUP1 PUSH4 0xAE454F11 EQ PUSH2 0x1A3 JUMPI DUP1 PUSH4 0xDC99BE11 EQ PUSH2 0x1E0 JUMPI PUSH2 0x86 JUMP JUMPDEST DUP1 PUSH4 0x23FD0E40 EQ PUSH2 0x8B JUMPI DUP1 PUSH4 0x492BFA18 EQ PUSH2 0xB6 JUMPI DUP1 PUSH4 0x54876921 EQ PUSH2 0xE1 JUMPI DUP1 PUSH4 0x5D68278C EQ PUSH2 0x10A JUMPI JUMPDEST PUSH1 0x0 DUP1 REVERT JUMPDEST CALLVALUE DUP1 ISZERO PUSH2 0x97 JUMPI PUSH1 0x0 DUP1 REVERT JUMPDEST POP PUSH2 0xA0 PUSH2 0x20B JUMP JUMPDEST PUSH1 0x40 MLOAD PUSH2 0xAD SWAP2 SWAP1 PUSH2 0x630 JUMP JUMPDEST PUSH1 0x40 MLOAD DUP1 SWAP2 SUB SWAP1 RETURN JUMPDEST CALLVALUE DUP1 ISZERO PUSH2 0xC2 JUMPI PUSH1 0x0 DUP1 REVERT JUMPDEST POP PUSH2 0xCB PUSH2 0x211 JUMP JUMPDEST PUSH1 0x40 MLOAD PUSH2 0xD8 SWAP2 SWAP1 PUSH2 0x60E JUMP JUMPDEST PUSH1 0x40 MLOAD DUP1 SWAP2 SUB SWAP1 RETURN JUMPDEST CALLVALUE DUP1 ISZERO PUSH2 0xED JUMPI PUSH1 0x0 DUP1 REVERT JUMPDEST POP PUSH2 0x108 PUSH1 0x4 DUP1 CALLDATASIZE SUB DUP2 ADD SWAP1 PUSH2 0x103 SWAP2 SWAP1 PUSH2 0x52F JUMP JUMPDEST PUSH2 0x29F JUMP JUMPDEST STOP JUMPDEST CALLVALUE DUP1 ISZERO PUSH2 0x116 JUMPI PUSH1 0x0 DUP1 REVERT JUMPDEST POP PUSH2 0x131 PUSH1 0x4 DUP1 CALLDATASIZE SUB DUP2 ADD SWAP1 PUSH2 0x12C SWAP2 SWAP1 PUSH2 0x4EF JUMP JUMPDEST PUSH2 0x36B JUMP JUMPDEST STOP JUMPDEST PUSH2 0x13B PUSH2 0x3B3 JUMP JUMPDEST STOP JUMPDEST CALLVALUE DUP1 ISZERO PUSH2 0x149 JUMPI PUSH1 0x0 DUP1 REVERT JUMPDEST POP PUSH2 0x164 PUSH1 0x4 DUP1 CALLDATASIZE SUB DUP2 ADD SWAP1 PUSH2 0x15F SWAP2 SWAP1 PUSH2 0x52F JUMP JUMPDEST PUSH2 0x40B JUMP JUMPDEST PUSH1 0x40 MLOAD PUSH2 0x171 SWAP2 SWAP1 PUSH2 0x5F3 JUMP JUMPDEST PUSH1 0x40 MLOAD DUP1 SWAP2 SUB SWAP1 RETURN JUMPDEST CALLVALUE DUP1 ISZERO PUSH2 0x186 JUMPI PUSH1 0x0 DUP1 REVERT JUMPDEST POP PUSH2 0x1A1 PUSH1 0x4 DUP1 CALLDATASIZE SUB DUP2 ADD SWAP1 PUSH2 0x19C SWAP2 SWAP1 PUSH2 0x55C JUMP JUMPDEST PUSH2 0x42B JUMP JUMPDEST STOP JUMPDEST CALLVALUE DUP1 ISZERO PUSH2 0x1AF JUMPI PUSH1 0x0 DUP1 REVERT JUMPDEST POP PUSH2 0x1CA PUSH1 0x4 DUP1 CALLDATASIZE SUB DUP2 ADD SWAP1 PUSH2 0x1C5 SWAP2 SWAP1 PUSH2 0x4C2 JUMP JUMPDEST PUSH2 0x45A JUMP JUMPDEST PUSH1 0x40 MLOAD PUSH2 0x1D7 SWAP2 SWAP1 PUSH2 0x630 JUMP JUMPDEST PUSH1 0x40 MLOAD DUP1 SWAP2 SUB SWAP1 RETURN JUMPDEST CALLVALUE DUP1 ISZERO PUSH2 0x1EC JUMPI PUSH1 0x0 DUP1 REVERT JUMPDEST POP PUSH2 0x1F5 PUSH2 0x472 JUMP JUMPDEST PUSH1 0x40 MLOAD PUSH2 0x202 SWAP2 SWAP1 PUSH2 0x5F3 JUMP JUMPDEST PUSH1 0x40 MLOAD DUP1 SWAP2 SUB SWAP1 RETURN JUMPDEST PUSH1 0x2 SLOAD DUP2 JUMP JUMPDEST PUSH1 0x1 DUP1 SLOAD PUSH2 0x21E SWAP1 PUSH2 0x7C6 JUMP JUMPDEST DUP1 PUSH1 0x1F ADD PUSH1 0x20 DUP1 SWAP2 DIV MUL PUSH1 0x20 ADD PUSH1 0x40 MLOAD SWAP1 DUP2 ADD PUSH1 0x40 MSTORE DUP1 SWAP3 SWAP2 SWAP1 DUP2 DUP2 MSTORE PUSH1 0x20 ADD DUP3 DUP1 SLOAD PUSH2 0x24A SWAP1 PUSH2 0x7C6 JUMP JUMPDEST DUP1 ISZERO PUSH2 0x297 JUMPI DUP1 PUSH1 0x1F LT PUSH2 0x26C JUMPI PUSH2 0x100 DUP1 DUP4 SLOAD DIV MUL DUP4 MSTORE SWAP2 PUSH1 0x20 ADD SWAP2 PUSH2 0x297 JUMP JUMPDEST DUP3 ADD SWAP2 SWAP1 PUSH1 0x0 MSTORE PUSH1 0x20 PUSH1 0x0 KECCAK256 SWAP1 JUMPDEST DUP2 SLOAD DUP2 MSTORE SWAP1 PUSH1 0x1 ADD SWAP1 PUSH1 0x20 ADD DUP1 DUP4 GT PUSH2 0x27A JUMPI DUP3 SWAP1 SUB PUSH1 0x1F AND DUP3 ADD SWAP2 JUMPDEST POP POP POP POP POP DUP2 JUMP JUMPDEST PUSH8 0xDE0B6B3A7640000 DUP2 PUSH2 0x2B3 SWAP2 SWAP1 PUSH2 0x6BD JUMP JUMPDEST PUSH1 0x4 PUSH1 0x0 CALLER PUSH20 0xFFFFFFFFFFFFFFFFFFFFFFFFFFFFFFFFFFFFFFFF AND PUSH20 0xFFFFFFFFFFFFFFFFFFFFFFFFFFFFFFFFFFFFFFFF AND DUP2 MSTORE PUSH1 0x20 ADD SWAP1 DUP2 MSTORE PUSH1 0x20 ADD PUSH1 0x0 KECCAK256 PUSH1 0x0 DUP3 DUP3 SLOAD PUSH2 0x301 SWAP2 SWAP1 PUSH2 0x717 JUMP JUMPDEST SWAP3 POP POP DUP2 SWAP1 SSTORE POP PUSH1 0x0 CALLER SWAP1 POP DUP1 PUSH20 0xFFFFFFFFFFFFFFFFFFFFFFFFFFFFFFFFFFFFFFFF AND PUSH2 0x8FC PUSH8 0xDE0B6B3A7640000 DUP5 PUSH2 0x33B SWAP2 SWAP1 PUSH2 0x6BD JUMP JUMPDEST SWAP1 DUP2 ISZERO MUL SWAP1 PUSH1 0x40 MLOAD PUSH1 0x0 PUSH1 0x40 MLOAD DUP1 DUP4 SUB DUP2 DUP6 DUP9 DUP9 CALL SWAP4 POP POP POP POP ISZERO DUP1 ISZERO PUSH2 0x366 JUMPI RETURNDATASIZE PUSH1 0x0 DUP1 RETURNDATACOPY RETURNDATASIZE PUSH1 0x0 REVERT JUMPDEST POP POP POP JUMP JUMPDEST DUP1 PUSH1 0x4 PUSH1 0x0 DUP5 PUSH20 0xFFFFFFFFFFFFFFFFFFFFFFFFFFFFFFFFFFFFFFFF AND PUSH20 0xFFFFFFFFFFFFFFFFFFFFFFFFFFFFFFFFFFFFFFFF AND DUP2 MSTORE PUSH1 0x20 ADD SWAP1 DUP2 MSTORE PUSH1 0x20 ADD PUSH1 0x0 KECCAK256 DUP2 SWAP1 SSTORE POP POP POP JUMP JUMPDEST CALLVALUE PUSH1 0x4 PUSH1 0x0 CALLER PUSH20 0xFFFFFFFFFFFFFFFFFFFFFFFFFFFFFFFFFFFFFFFF AND PUSH20 0xFFFFFFFFFFFFFFFFFFFFFFFFFFFFFFFFFFFFFFFF AND DUP2 MSTORE PUSH1 0x20 ADD SWAP1 DUP2 MSTORE PUSH1 0x20 ADD PUSH1 0x0 KECCAK256 PUSH1 0x0 DUP3 DUP3 SLOAD PUSH2 0x402 SWAP2 SWAP1 PUSH2 0x667 JUMP JUMPDEST SWAP3 POP POP DUP2 SWAP1 SSTORE POP JUMP JUMPDEST PUSH1 0x3 PUSH1 0x20 MSTORE DUP1 PUSH1 0x0 MSTORE PUSH1 0x40 PUSH1 0x0 KECCAK256 PUSH1 0x0 SWAP2 POP SLOAD SWAP1 PUSH2 0x100 EXP SWAP1 DIV PUSH1 0xFF AND DUP2 JUMP JUMPDEST DUP1 PUSH1 0x3 PUSH1 0x0 DUP5 DUP2 MSTORE PUSH1 0x20 ADD SWAP1 DUP2 MSTORE PUSH1 0x20 ADD PUSH1 0x0 KECCAK256 PUSH1 0x0 PUSH2 0x100 EXP DUP2 SLOAD DUP2 PUSH1 0xFF MUL NOT AND SWAP1 DUP4 ISZERO ISZERO MUL OR SWAP1 SSTORE POP POP POP JUMP JUMPDEST PUSH1 0x4 PUSH1 0x20 MSTORE DUP1 PUSH1 0x0 MSTORE PUSH1 0x40 PUSH1 0x0 KECCAK256 PUSH1 0x0 SWAP2 POP SWAP1 POP SLOAD DUP2 JUMP JUMPDEST PUSH1 0x0 DUP1 SLOAD SWAP1 PUSH2 0x100 EXP SWAP1 DIV PUSH1 0xFF AND DUP2 JUMP JUMPDEST PUSH1 0x0 DUP2 CALLDATALOAD SWAP1 POP PUSH2 0x492 DUP2 PUSH2 0x86C JUMP JUMPDEST SWAP3 SWAP2 POP POP JUMP JUMPDEST PUSH1 0x0 DUP2 CALLDATALOAD SWAP1 POP PUSH2 0x4A7 DUP2 PUSH2 0x883 JUMP JUMPDEST SWAP3 SWAP2 POP POP JUMP JUMPDEST PUSH1 0x0 DUP2 CALLDATALOAD SWAP1 POP PUSH2 0x4BC DUP2 PUSH2 0x89A JUMP JUMPDEST SWAP3 SWAP2 POP POP JUMP JUMPDEST PUSH1 0x0 PUSH1 0x20 DUP3 DUP5 SUB SLT ISZERO PUSH2 0x4D8 JUMPI PUSH2 0x4D7 PUSH2 0x856 JUMP JUMPDEST JUMPDEST PUSH1 0x0 PUSH2 0x4E6 DUP5 DUP3 DUP6 ADD PUSH2 0x483 JUMP JUMPDEST SWAP2 POP POP SWAP3 SWAP2 POP POP JUMP JUMPDEST PUSH1 0x0 DUP1 PUSH1 0x40 DUP4 DUP6 SUB SLT ISZERO PUSH2 0x506 JUMPI PUSH2 0x505 PUSH2 0x856 JUMP JUMPDEST JUMPDEST PUSH1 0x0 PUSH2 0x514 DUP6 DUP3 DUP7 ADD PUSH2 0x483 JUMP JUMPDEST SWAP3 POP POP PUSH1 0x20 PUSH2 0x525 DUP6 DUP3 DUP7 ADD PUSH2 0x4AD JUMP JUMPDEST SWAP2 POP POP SWAP3 POP SWAP3 SWAP1 POP JUMP JUMPDEST PUSH1 0x0 PUSH1 0x20 DUP3 DUP5 SUB SLT ISZERO PUSH2 0x545 JUMPI PUSH2 0x544 PUSH2 0x856 JUMP JUMPDEST JUMPDEST PUSH1 0x0 PUSH2 0x553 DUP5 DUP3 DUP6 ADD PUSH2 0x4AD JUMP JUMPDEST SWAP2 POP POP SWAP3 SWAP2 POP POP JUMP JUMPDEST PUSH1 0x0 DUP1 PUSH1 0x40 DUP4 DUP6 SUB SLT ISZERO PUSH2 0x573 JUMPI PUSH2 0x572 PUSH2 0x856 JUMP JUMPDEST JUMPDEST PUSH1 0x0 PUSH2 0x581 DUP6 DUP3 DUP7 ADD PUSH2 0x4AD JUMP JUMPDEST SWAP3 POP POP PUSH1 0x20 PUSH2 0x592 DUP6 DUP3 DUP7 ADD PUSH2 0x498 JUMP JUMPDEST SWAP2 POP POP SWAP3 POP SWAP3 SWAP1 POP JUMP JUMPDEST PUSH2 0x5A5 DUP2 PUSH2 0x75D JUMP JUMPDEST DUP3 MSTORE POP POP JUMP JUMPDEST PUSH1 0x0 PUSH2 0x5B6 DUP3 PUSH2 0x64B JUMP JUMPDEST PUSH2 0x5C0 DUP2 DUP6 PUSH2 0x656 JUMP JUMPDEST SWAP4 POP PUSH2 0x5D0 DUP2 DUP6 PUSH1 0x20 DUP7 ADD PUSH2 0x793 JUMP JUMPDEST PUSH2 0x5D9 DUP2 PUSH2 0x85B JUMP JUMPDEST DUP5 ADD SWAP2 POP POP SWAP3 SWAP2 POP POP JUMP JUMPDEST PUSH2 0x5ED DUP2 PUSH2 0x789 JUMP JUMPDEST DUP3 MSTORE POP POP JUMP JUMPDEST PUSH1 0x0 PUSH1 0x20 DUP3 ADD SWAP1 POP PUSH2 0x608 PUSH1 0x0 DUP4 ADD DUP5 PUSH2 0x59C JUMP JUMPDEST SWAP3 SWAP2 POP POP JUMP JUMPDEST PUSH1 0x0 PUSH1 0x20 DUP3 ADD SWAP1 POP DUP2 DUP2 SUB PUSH1 0x0 DUP4 ADD MSTORE PUSH2 0x628 DUP2 DUP5 PUSH2 0x5AB JUMP JUMPDEST SWAP1 POP SWAP3 SWAP2 POP POP JUMP JUMPDEST PUSH1 0x0 PUSH1 0x20 DUP3 ADD SWAP1 POP PUSH2 0x645 PUSH1 0x0 DUP4 ADD DUP5 PUSH2 0x5E4 JUMP JUMPDEST SWAP3 SWAP2 POP POP JUMP JUMPDEST PUSH1 0x0 DUP2 MLOAD SWAP1 POP SWAP2 SWAP1 POP JUMP JUMPDEST PUSH1 0x0 DUP3 DUP3 MSTORE PUSH1 0x20 DUP3 ADD SWAP1 POP SWAP3 SWAP2 POP POP JUMP JUMPDEST PUSH1 0x0 PUSH2 0x672 DUP3 PUSH2 0x789 JUMP JUMPDEST SWAP2 POP PUSH2 0x67D DUP4 PUSH2 0x789 JUMP JUMPDEST SWAP3 POP DUP3 PUSH32 0xFFFFFFFFFFFFFFFFFFFFFFFFFFFFFFFFFFFFFFFFFFFFFFFFFFFFFFFFFFFFFFFF SUB DUP3 GT ISZERO PUSH2 0x6B2 JUMPI PUSH2 0x6B1 PUSH2 0x7F8 JUMP JUMPDEST JUMPDEST DUP3 DUP3 ADD SWAP1 POP SWAP3 SWAP2 POP POP JUMP JUMPDEST PUSH1 0x0 PUSH2 0x6C8 DUP3 PUSH2 0x789 JUMP JUMPDEST SWAP2 POP PUSH2 0x6D3 DUP4 PUSH2 0x789 JUMP JUMPDEST SWAP3 POP DUP2 PUSH32 0xFFFFFFFFFFFFFFFFFFFFFFFFFFFFFFFFFFFFFFFFFFFFFFFFFFFFFFFFFFFFFFFF DIV DUP4 GT DUP3 ISZERO ISZERO AND ISZERO PUSH2 0x70C JUMPI PUSH2 0x70B PUSH2 0x7F8 JUMP JUMPDEST JUMPDEST DUP3 DUP3 MUL SWAP1 POP SWAP3 SWAP2 POP POP JUMP JUMPDEST PUSH1 0x0 PUSH2 0x722 DUP3 PUSH2 0x789 JUMP JUMPDEST SWAP2 POP PUSH2 0x72D DUP4 PUSH2 0x789 JUMP JUMPDEST SWAP3 POP DUP3 DUP3 LT ISZERO PUSH2 0x740 JUMPI PUSH2 0x73F PUSH2 0x7F8 JUMP JUMPDEST JUMPDEST DUP3 DUP3 SUB SWAP1 POP SWAP3 SWAP2 POP POP JUMP JUMPDEST PUSH1 0x0 PUSH2 0x756 DUP3 PUSH2 0x769 JUMP JUMPDEST SWAP1 POP SWAP2 SWAP1 POP JUMP JUMPDEST PUSH1 0x0 DUP2 ISZERO ISZERO SWAP1 POP SWAP2 SWAP1 POP JUMP JUMPDEST PUSH1 0x0 PUSH20 0xFFFFFFFFFFFFFFFFFFFFFFFFFFFFFFFFFFFFFFFF DUP3 AND SWAP1 POP SWAP2 SWAP1 POP JUMP JUMPDEST PUSH1 0x0 DUP2 SWAP1 POP SWAP2 SWAP1 POP JUMP JUMPDEST PUSH1 0x0 JUMPDEST DUP4 DUP2 LT ISZERO PUSH2 0x7B1 JUMPI DUP1 DUP3 ADD MLOAD DUP2 DUP5 ADD MSTORE PUSH1 0x20 DUP2 ADD SWAP1 POP PUSH2 0x796 JUMP JUMPDEST DUP4 DUP2 GT ISZERO PUSH2 0x7C0 JUMPI PUSH1 0x0 DUP5 DUP5 ADD MSTORE JUMPDEST POP POP POP POP JUMP JUMPDEST PUSH1 0x0 PUSH1 0x2 DUP3 DIV SWAP1 POP PUSH1 0x1 DUP3 AND DUP1 PUSH2 0x7DE JUMPI PUSH1 0x7F DUP3 AND SWAP2 POP JUMPDEST PUSH1 0x20 DUP3 LT DUP2 EQ ISZERO PUSH2 0x7F2 JUMPI PUSH2 0x7F1 PUSH2 0x827 JUMP JUMPDEST JUMPDEST POP SWAP2 SWAP1 POP JUMP JUMPDEST PUSH32 0x4E487B7100000000000000000000000000000000000000000000000000000000 PUSH1 0x0 MSTORE PUSH1 0x11 PUSH1 0x4 MSTORE PUSH1 0x24 PUSH1 0x0 REVERT JUMPDEST PUSH32 0x4E487B7100000000000000000000000000000000000000000000000000000000 PUSH1 0x0 MSTORE PUSH1 0x22 PUSH1 0x4 MSTORE PUSH1 0x24 PUSH1 0x0 REVERT JUMPDEST PUSH1 0x0 DUP1 REVERT JUMPDEST PUSH1 0x0 PUSH1 0x1F NOT PUSH1 0x1F DUP4 ADD AND SWAP1 POP SWAP2 SWAP1 POP JUMP JUMPDEST PUSH2 0x875 DUP2 PUSH2 0x74B JUMP JUMPDEST DUP2 EQ PUSH2 0x880 JUMPI PUSH1 0x0 DUP1 REVERT JUMPDEST POP JUMP JUMPDEST PUSH2 0x88C DUP2 PUSH2 0x75D JUMP JUMPDEST DUP2 EQ PUSH2 0x897 JUMPI PUSH1 0x0 DUP1 REVERT JUMPDEST POP JUMP JUMPDEST PUSH2 0x8A3 DUP2 PUSH2 0x789 JUMP JUMPDEST DUP2 EQ PUSH2 0x8AE JUMPI PUSH1 0x0 DUP1 REVERT JUMPDEST POP JUMP INVALID LOG2 PUSH5 0x6970667358 0x22 SLT KECCAK256 MUL ADDRESS 0xD5 SLT 0x4D DELEGATECALL PUSH21 0x3B31C233C0DB54EED142A2312A8000307A179A6F8 0xD 0xC7 PUSH32 0x2064736F6C634300080700330000000000000000000000000000000000000000 "
				},
				"gasEstimates": {
					"creation": {
						"codeDepositCost": "455800",
						"executionCost": "493",
						"totalCost": "456293"
					},
					"external": {
						"myAddresses(address)": "2880",
						"myBoolean()": "2556",
						"myMapping(uint256)": "2818",
						"myNumber()": "2430",
						"myString()": "infinite",
						"receiveMoney()": "infinite",
						"setMyAddresses(address,uint256)": "22899",
						"setValue(uint256,bool)": "24974",
						"withdrawMoney(uint256)": "infinite"
					}
				},
				"methodIdentifiers": {
					"myAddresses(address)": "ae454f11",
					"myBoolean()": "dc99be11",
					"myMapping(uint256)": "7c668844",
					"myNumber()": "23fd0e40",
					"myString()": "492bfa18",
					"receiveMoney()": "6d26ec18",
					"setMyAddresses(address,uint256)": "5d68278c",
					"setValue(uint256,bool)": "82e33e82",
					"withdrawMoney(uint256)": "54876921"
				}
			},
			"storageLayout": {
				"storage": [
					{
						"astId": 3,
						"contract": "contracts/Ejercicios/Mymodifier.sol:ModifierExample",
						"label": "myBoolean",
						"offset": 0,
						"slot": "0",
						"type": "t_bool"
					},
					{
						"astId": 5,
						"contract": "contracts/Ejercicios/Mymodifier.sol:ModifierExample",
						"label": "myString",
						"offset": 0,
						"slot": "1",
						"type": "t_string_storage"
					},
					{
						"astId": 7,
						"contract": "contracts/Ejercicios/Mymodifier.sol:ModifierExample",
						"label": "myNumber",
						"offset": 0,
						"slot": "2",
						"type": "t_uint256"
					},
					{
						"astId": 11,
						"contract": "contracts/Ejercicios/Mymodifier.sol:ModifierExample",
						"label": "myMapping",
						"offset": 0,
						"slot": "3",
						"type": "t_mapping(t_uint256,t_bool)"
					},
					{
						"astId": 15,
						"contract": "contracts/Ejercicios/Mymodifier.sol:ModifierExample",
						"label": "myAddresses",
						"offset": 0,
						"slot": "4",
						"type": "t_mapping(t_address,t_uint256)"
					}
				],
				"types": {
					"t_address": {
						"encoding": "inplace",
						"label": "address",
						"numberOfBytes": "20"
					},
					"t_bool": {
						"encoding": "inplace",
						"label": "bool",
						"numberOfBytes": "1"
					},
					"t_mapping(t_address,t_uint256)": {
						"encoding": "mapping",
						"key": "t_address",
						"label": "mapping(address => uint256)",
						"numberOfBytes": "32",
						"value": "t_uint256"
					},
					"t_mapping(t_uint256,t_bool)": {
						"encoding": "mapping",
						"key": "t_uint256",
						"label": "mapping(uint256 => bool)",
						"numberOfBytes": "32",
						"value": "t_bool"
					},
					"t_string_storage": {
						"encoding": "bytes",
						"label": "string",
						"numberOfBytes": "32"
					},
					"t_uint256": {
						"encoding": "inplace",
						"label": "uint256",
						"numberOfBytes": "32"
					}
				}
			},
			"userdoc": {
				"kind": "user",
				"methods": {},
				"version": 1
			}
		}
	}
}