{
	"contracts/Ejercicios/StructTest.sol": {
		"StructTest": {
			"abi": [
				{
					"inputs": [],
					"name": "book1",
					"outputs": [
						{
							"internalType": "string",
							"name": "title",
							"type": "string"
						},
						{
							"internalType": "string",
							"name": "author",
							"type": "string"
						},
						{
							"internalType": "uint256",
							"name": "id",
							"type": "uint256"
						},
						{
							"internalType": "bool",
							"name": "available",
							"type": "bool"
						}
					],
					"stateMutability": "view",
					"type": "function"
				},
				{
					"inputs": [],
					"name": "getTitle",
					"outputs": [
						{
							"internalType": "string",
							"name": "",
							"type": "string"
						}
					],
					"stateMutability": "view",
					"type": "function"
				},
				{
					"inputs": [],
					"name": "setTitle",
					"outputs": [],
					"stateMutability": "nonpayable",
					"type": "function"
				}
			],
			"devdoc": {
				"kind": "dev",
				"methods": {},
				"version": 1
			},
			"evm": {
				"assembly": "    /* \"contracts/Ejercicios/StructTest.sol\":64:405  contract StructTest {\r... */\n  mstore(0x40, 0x80)\n  callvalue\n  dup1\n  iszero\n  tag_1\n  jumpi\n  0x00\n  dup1\n  revert\ntag_1:\n  pop\n  dataSize(sub_0)\n  dup1\n  dataOffset(sub_0)\n  0x00\n  codecopy\n  0x00\n  return\nstop\n\nsub_0: assembly {\n        /* \"contracts/Ejercicios/StructTest.sol\":64:405  contract StructTest {\r... */\n      mstore(0x40, 0x80)\n      callvalue\n      dup1\n      iszero\n      tag_1\n      jumpi\n      0x00\n      dup1\n      revert\n    tag_1:\n      pop\n      jumpi(tag_2, lt(calldatasize, 0x04))\n      shr(0xe0, calldataload(0x00))\n      dup1\n      0xb15195ed\n      eq\n      tag_3\n      jumpi\n      dup1\n      0xfb6a8fcc\n      eq\n      tag_4\n      jumpi\n      dup1\n      0xff3c1a8f\n      eq\n      tag_5\n      jumpi\n    tag_2:\n      0x00\n      dup1\n      revert\n        /* \"contracts/Ejercicios/StructTest.sol\":335:402  function setTitle() public {\r... */\n    tag_3:\n      tag_6\n      tag_7\n      jump\t// in\n    tag_6:\n      stop\n        /* \"contracts/Ejercicios/StructTest.sol\":209:226  Book public book1 */\n    tag_4:\n      tag_8\n      tag_9\n      jump\t// in\n    tag_8:\n      mload(0x40)\n      tag_10\n      swap5\n      swap4\n      swap3\n      swap2\n      swap1\n      tag_11\n      jump\t// in\n    tag_10:\n      mload(0x40)\n      dup1\n      swap2\n      sub\n      swap1\n      return\n        /* \"contracts/Ejercicios/StructTest.sol\":235:327  function getTitle() public view returns(string memory) {\r... */\n    tag_5:\n      tag_12\n      tag_13\n      jump\t// in\n    tag_12:\n      mload(0x40)\n      tag_14\n      swap2\n      swap1\n      tag_15\n      jump\t// in\n    tag_14:\n      mload(0x40)\n      dup1\n      swap2\n      sub\n      swap1\n      return\n        /* \"contracts/Ejercicios/StructTest.sol\":335:402  function setTitle() public {\r... */\n    tag_7:\n        /* \"contracts/Ejercicios/StructTest.sol\":373:394  book1.title = \"title\" */\n      mload(0x40)\n      dup1\n      0x40\n      add\n      0x40\n      mstore\n      dup1\n      0x05\n      dup2\n      mstore\n      0x20\n      add\n      0x7469746c65000000000000000000000000000000000000000000000000000000\n      dup2\n      mstore\n      pop\n        /* \"contracts/Ejercicios/StructTest.sol\":373:378  book1 */\n      0x00\n        /* \"contracts/Ejercicios/StructTest.sol\":373:384  book1.title */\n      dup1\n      add\n        /* \"contracts/Ejercicios/StructTest.sol\":373:394  book1.title = \"title\" */\n      swap1\n      dup1\n      mload\n      swap1\n      0x20\n      add\n      swap1\n      tag_17\n      swap3\n      swap2\n      swap1\n      tag_18\n      jump\t// in\n    tag_17:\n      pop\n        /* \"contracts/Ejercicios/StructTest.sol\":335:402  function setTitle() public {\r... */\n      jump\t// out\n        /* \"contracts/Ejercicios/StructTest.sol\":209:226  Book public book1 */\n    tag_9:\n      0x00\n      dup1\n      0x00\n      add\n      dup1\n      sload\n      tag_19\n      swap1\n      tag_20\n      jump\t// in\n    tag_19:\n      dup1\n      0x1f\n      add\n      0x20\n      dup1\n      swap2\n      div\n      mul\n      0x20\n      add\n      mload(0x40)\n      swap1\n      dup2\n      add\n      0x40\n      mstore\n      dup1\n      swap3\n      swap2\n      swap1\n      dup2\n      dup2\n      mstore\n      0x20\n      add\n      dup3\n      dup1\n      sload\n      tag_21\n      swap1\n      tag_20\n      jump\t// in\n    tag_21:\n      dup1\n      iszero\n      tag_22\n      jumpi\n      dup1\n      0x1f\n      lt\n      tag_23\n      jumpi\n      0x0100\n      dup1\n      dup4\n      sload\n      div\n      mul\n      dup4\n      mstore\n      swap2\n      0x20\n      add\n      swap2\n      jump(tag_22)\n    tag_23:\n      dup3\n      add\n      swap2\n      swap1\n      0x00\n      mstore\n      keccak256(0x00, 0x20)\n      swap1\n    tag_24:\n      dup2\n      sload\n      dup2\n      mstore\n      swap1\n      0x01\n      add\n      swap1\n      0x20\n      add\n      dup1\n      dup4\n      gt\n      tag_24\n      jumpi\n      dup3\n      swap1\n      sub\n      0x1f\n      and\n      dup3\n      add\n      swap2\n    tag_22:\n      pop\n      pop\n      pop\n      pop\n      pop\n      swap1\n      dup1\n      0x01\n      add\n      dup1\n      sload\n      tag_25\n      swap1\n      tag_20\n      jump\t// in\n    tag_25:\n      dup1\n      0x1f\n      add\n      0x20\n      dup1\n      swap2\n      div\n      mul\n      0x20\n      add\n      mload(0x40)\n      swap1\n      dup2\n      add\n      0x40\n      mstore\n      dup1\n      swap3\n      swap2\n      swap1\n      dup2\n      dup2\n      mstore\n      0x20\n      add\n      dup3\n      dup1\n      sload\n      tag_26\n      swap1\n      tag_20\n      jump\t// in\n    tag_26:\n      dup1\n      iszero\n      tag_27\n      jumpi\n      dup1\n      0x1f\n      lt\n      tag_28\n      jumpi\n      0x0100\n      dup1\n      dup4\n      sload\n      div\n      mul\n      dup4\n      mstore\n      swap2\n      0x20\n      add\n      swap2\n      jump(tag_27)\n    tag_28:\n      dup3\n      add\n      swap2\n      swap1\n      0x00\n      mstore\n      keccak256(0x00, 0x20)\n      swap1\n    tag_29:\n      dup2\n      sload\n      dup2\n      mstore\n      swap1\n      0x01\n      add\n      swap1\n      0x20\n      add\n      dup1\n      dup4\n      gt\n      tag_29\n      jumpi\n      dup3\n      swap1\n      sub\n      0x1f\n      and\n      dup3\n      add\n      swap2\n    tag_27:\n      pop\n      pop\n      pop\n      pop\n      pop\n      swap1\n      dup1\n      0x02\n      add\n      sload\n      swap1\n      dup1\n      0x03\n      add\n      0x00\n      swap1\n      sload\n      swap1\n      0x0100\n      exp\n      swap1\n      div\n      0xff\n      and\n      swap1\n      pop\n      dup5\n      jump\t// out\n        /* \"contracts/Ejercicios/StructTest.sol\":235:327  function getTitle() public view returns(string memory) {\r... */\n    tag_13:\n        /* \"contracts/Ejercicios/StructTest.sol\":275:288  string memory */\n      0x60\n        /* \"contracts/Ejercicios/StructTest.sol\":308:313  book1 */\n      0x00\n        /* \"contracts/Ejercicios/StructTest.sol\":308:319  book1.title */\n      dup1\n      add\n        /* \"contracts/Ejercicios/StructTest.sol\":301:319  return book1.title */\n      dup1\n      sload\n      tag_31\n      swap1\n      tag_20\n      jump\t// in\n    tag_31:\n      dup1\n      0x1f\n      add\n      0x20\n      dup1\n      swap2\n      div\n      mul\n      0x20\n      add\n      mload(0x40)\n      swap1\n      dup2\n      add\n      0x40\n      mstore\n      dup1\n      swap3\n      swap2\n      swap1\n      dup2\n      dup2\n      mstore\n      0x20\n      add\n      dup3\n      dup1\n      sload\n      tag_32\n      swap1\n      tag_20\n      jump\t// in\n    tag_32:\n      dup1\n      iszero\n      tag_33\n      jumpi\n      dup1\n      0x1f\n      lt\n      tag_34\n      jumpi\n      0x0100\n      dup1\n      dup4\n      sload\n      div\n      mul\n      dup4\n      mstore\n      swap2\n      0x20\n      add\n      swap2\n      jump(tag_33)\n    tag_34:\n      dup3\n      add\n      swap2\n      swap1\n      0x00\n      mstore\n      keccak256(0x00, 0x20)\n      swap1\n    tag_35:\n      dup2\n      sload\n      dup2\n      mstore\n      swap1\n      0x01\n      add\n      swap1\n      0x20\n      add\n      dup1\n      dup4\n      gt\n      tag_35\n      jumpi\n      dup3\n      swap1\n      sub\n      0x1f\n      and\n      dup3\n      add\n      swap2\n    tag_33:\n      pop\n      pop\n      pop\n      pop\n      pop\n      swap1\n      pop\n        /* \"contracts/Ejercicios/StructTest.sol\":235:327  function getTitle() public view returns(string memory) {\r... */\n      swap1\n      jump\t// out\n    tag_18:\n      dup3\n      dup1\n      sload\n      tag_36\n      swap1\n      tag_20\n      jump\t// in\n    tag_36:\n      swap1\n      0x00\n      mstore\n      keccak256(0x00, 0x20)\n      swap1\n      0x1f\n      add\n      0x20\n      swap1\n      div\n      dup2\n      add\n      swap3\n      dup3\n      tag_38\n      jumpi\n      0x00\n      dup6\n      sstore\n      jump(tag_37)\n    tag_38:\n      dup3\n      0x1f\n      lt\n      tag_39\n      jumpi\n      dup1\n      mload\n      not(0xff)\n      and\n      dup4\n      dup1\n      add\n      or\n      dup6\n      sstore\n      jump(tag_37)\n    tag_39:\n      dup3\n      dup1\n      add\n      0x01\n      add\n      dup6\n      sstore\n      dup3\n      iszero\n      tag_37\n      jumpi\n      swap2\n      dup3\n      add\n    tag_40:\n      dup3\n      dup2\n      gt\n      iszero\n      tag_41\n      jumpi\n      dup3\n      mload\n      dup3\n      sstore\n      swap2\n      0x20\n      add\n      swap2\n      swap1\n      0x01\n      add\n      swap1\n      jump(tag_40)\n    tag_41:\n    tag_37:\n      pop\n      swap1\n      pop\n      tag_42\n      swap2\n      swap1\n      tag_43\n      jump\t// in\n    tag_42:\n      pop\n      swap1\n      jump\t// out\n    tag_43:\n    tag_44:\n      dup1\n      dup3\n      gt\n      iszero\n      tag_45\n      jumpi\n      0x00\n      dup2\n      0x00\n      swap1\n      sstore\n      pop\n      0x01\n      add\n      jump(tag_44)\n    tag_45:\n      pop\n      swap1\n      jump\t// out\n        /* \"#utility.yul\":7:116   */\n    tag_47:\n        /* \"#utility.yul\":88:109   */\n      tag_49\n        /* \"#utility.yul\":103:108   */\n      dup2\n        /* \"#utility.yul\":88:109   */\n      tag_50\n      jump\t// in\n    tag_49:\n        /* \"#utility.yul\":83:86   */\n      dup3\n        /* \"#utility.yul\":76:110   */\n      mstore\n        /* \"#utility.yul\":7:116   */\n      pop\n      pop\n      jump\t// out\n        /* \"#utility.yul\":122:486   */\n    tag_51:\n        /* \"#utility.yul\":210:213   */\n      0x00\n        /* \"#utility.yul\":238:277   */\n      tag_53\n        /* \"#utility.yul\":271:276   */\n      dup3\n        /* \"#utility.yul\":238:277   */\n      tag_54\n      jump\t// in\n    tag_53:\n        /* \"#utility.yul\":293:364   */\n      tag_55\n        /* \"#utility.yul\":357:363   */\n      dup2\n        /* \"#utility.yul\":352:355   */\n      dup6\n        /* \"#utility.yul\":293:364   */\n      tag_56\n      jump\t// in\n    tag_55:\n        /* \"#utility.yul\":286:364   */\n      swap4\n      pop\n        /* \"#utility.yul\":373:425   */\n      tag_57\n        /* \"#utility.yul\":418:424   */\n      dup2\n        /* \"#utility.yul\":413:416   */\n      dup6\n        /* \"#utility.yul\":406:410   */\n      0x20\n        /* \"#utility.yul\":399:404   */\n      dup7\n        /* \"#utility.yul\":395:411   */\n      add\n        /* \"#utility.yul\":373:425   */\n      tag_58\n      jump\t// in\n    tag_57:\n        /* \"#utility.yul\":450:479   */\n      tag_59\n        /* \"#utility.yul\":472:478   */\n      dup2\n        /* \"#utility.yul\":450:479   */\n      tag_60\n      jump\t// in\n    tag_59:\n        /* \"#utility.yul\":445:448   */\n      dup5\n        /* \"#utility.yul\":441:480   */\n      add\n        /* \"#utility.yul\":434:480   */\n      swap2\n      pop\n        /* \"#utility.yul\":214:486   */\n      pop\n        /* \"#utility.yul\":122:486   */\n      swap3\n      swap2\n      pop\n      pop\n      jump\t// out\n        /* \"#utility.yul\":492:610   */\n    tag_61:\n        /* \"#utility.yul\":579:603   */\n      tag_63\n        /* \"#utility.yul\":597:602   */\n      dup2\n        /* \"#utility.yul\":579:603   */\n      tag_64\n      jump\t// in\n    tag_63:\n        /* \"#utility.yul\":574:577   */\n      dup3\n        /* \"#utility.yul\":567:604   */\n      mstore\n        /* \"#utility.yul\":492:610   */\n      pop\n      pop\n      jump\t// out\n        /* \"#utility.yul\":616:929   */\n    tag_15:\n        /* \"#utility.yul\":729:733   */\n      0x00\n        /* \"#utility.yul\":767:769   */\n      0x20\n        /* \"#utility.yul\":756:765   */\n      dup3\n        /* \"#utility.yul\":752:770   */\n      add\n        /* \"#utility.yul\":744:770   */\n      swap1\n      pop\n        /* \"#utility.yul\":816:825   */\n      dup2\n        /* \"#utility.yul\":810:814   */\n      dup2\n        /* \"#utility.yul\":806:826   */\n      sub\n        /* \"#utility.yul\":802:803   */\n      0x00\n        /* \"#utility.yul\":791:800   */\n      dup4\n        /* \"#utility.yul\":787:804   */\n      add\n        /* \"#utility.yul\":780:827   */\n      mstore\n        /* \"#utility.yul\":844:922   */\n      tag_66\n        /* \"#utility.yul\":917:921   */\n      dup2\n        /* \"#utility.yul\":908:914   */\n      dup5\n        /* \"#utility.yul\":844:922   */\n      tag_51\n      jump\t// in\n    tag_66:\n        /* \"#utility.yul\":836:922   */\n      swap1\n      pop\n        /* \"#utility.yul\":616:929   */\n      swap3\n      swap2\n      pop\n      pop\n      jump\t// out\n        /* \"#utility.yul\":935:1658   */\n    tag_11:\n        /* \"#utility.yul\":1146:1150   */\n      0x00\n        /* \"#utility.yul\":1184:1187   */\n      0x80\n        /* \"#utility.yul\":1173:1182   */\n      dup3\n        /* \"#utility.yul\":1169:1188   */\n      add\n        /* \"#utility.yul\":1161:1188   */\n      swap1\n      pop\n        /* \"#utility.yul\":1234:1243   */\n      dup2\n        /* \"#utility.yul\":1228:1232   */\n      dup2\n        /* \"#utility.yul\":1224:1244   */\n      sub\n        /* \"#utility.yul\":1220:1221   */\n      0x00\n        /* \"#utility.yul\":1209:1218   */\n      dup4\n        /* \"#utility.yul\":1205:1222   */\n      add\n        /* \"#utility.yul\":1198:1245   */\n      mstore\n        /* \"#utility.yul\":1262:1340   */\n      tag_68\n        /* \"#utility.yul\":1335:1339   */\n      dup2\n        /* \"#utility.yul\":1326:1332   */\n      dup8\n        /* \"#utility.yul\":1262:1340   */\n      tag_51\n      jump\t// in\n    tag_68:\n        /* \"#utility.yul\":1254:1340   */\n      swap1\n      pop\n        /* \"#utility.yul\":1387:1396   */\n      dup2\n        /* \"#utility.yul\":1381:1385   */\n      dup2\n        /* \"#utility.yul\":1377:1397   */\n      sub\n        /* \"#utility.yul\":1372:1374   */\n      0x20\n        /* \"#utility.yul\":1361:1370   */\n      dup4\n        /* \"#utility.yul\":1357:1375   */\n      add\n        /* \"#utility.yul\":1350:1398   */\n      mstore\n        /* \"#utility.yul\":1415:1493   */\n      tag_69\n        /* \"#utility.yul\":1488:1492   */\n      dup2\n        /* \"#utility.yul\":1479:1485   */\n      dup7\n        /* \"#utility.yul\":1415:1493   */\n      tag_51\n      jump\t// in\n    tag_69:\n        /* \"#utility.yul\":1407:1493   */\n      swap1\n      pop\n        /* \"#utility.yul\":1503:1575   */\n      tag_70\n        /* \"#utility.yul\":1571:1573   */\n      0x40\n        /* \"#utility.yul\":1560:1569   */\n      dup4\n        /* \"#utility.yul\":1556:1574   */\n      add\n        /* \"#utility.yul\":1547:1553   */\n      dup6\n        /* \"#utility.yul\":1503:1575   */\n      tag_61\n      jump\t// in\n    tag_70:\n        /* \"#utility.yul\":1585:1651   */\n      tag_71\n        /* \"#utility.yul\":1647:1649   */\n      0x60\n        /* \"#utility.yul\":1636:1645   */\n      dup4\n        /* \"#utility.yul\":1632:1650   */\n      add\n        /* \"#utility.yul\":1623:1629   */\n      dup5\n        /* \"#utility.yul\":1585:1651   */\n      tag_47\n      jump\t// in\n    tag_71:\n        /* \"#utility.yul\":935:1658   */\n      swap6\n      swap5\n      pop\n      pop\n      pop\n      pop\n      pop\n      jump\t// out\n        /* \"#utility.yul\":1664:1763   */\n    tag_54:\n        /* \"#utility.yul\":1716:1722   */\n      0x00\n        /* \"#utility.yul\":1750:1755   */\n      dup2\n        /* \"#utility.yul\":1744:1756   */\n      mload\n        /* \"#utility.yul\":1734:1756   */\n      swap1\n      pop\n        /* \"#utility.yul\":1664:1763   */\n      swap2\n      swap1\n      pop\n      jump\t// out\n        /* \"#utility.yul\":1769:1938   */\n    tag_56:\n        /* \"#utility.yul\":1853:1864   */\n      0x00\n        /* \"#utility.yul\":1887:1893   */\n      dup3\n        /* \"#utility.yul\":1882:1885   */\n      dup3\n        /* \"#utility.yul\":1875:1894   */\n      mstore\n        /* \"#utility.yul\":1927:1931   */\n      0x20\n        /* \"#utility.yul\":1922:1925   */\n      dup3\n        /* \"#utility.yul\":1918:1932   */\n      add\n        /* \"#utility.yul\":1903:1932   */\n      swap1\n      pop\n        /* \"#utility.yul\":1769:1938   */\n      swap3\n      swap2\n      pop\n      pop\n      jump\t// out\n        /* \"#utility.yul\":1944:2034   */\n    tag_50:\n        /* \"#utility.yul\":1978:1985   */\n      0x00\n        /* \"#utility.yul\":2021:2026   */\n      dup2\n        /* \"#utility.yul\":2014:2027   */\n      iszero\n        /* \"#utility.yul\":2007:2028   */\n      iszero\n        /* \"#utility.yul\":1996:2028   */\n      swap1\n      pop\n        /* \"#utility.yul\":1944:2034   */\n      swap2\n      swap1\n      pop\n      jump\t// out\n        /* \"#utility.yul\":2040:2117   */\n    tag_64:\n        /* \"#utility.yul\":2077:2084   */\n      0x00\n        /* \"#utility.yul\":2106:2111   */\n      dup2\n        /* \"#utility.yul\":2095:2111   */\n      swap1\n      pop\n        /* \"#utility.yul\":2040:2117   */\n      swap2\n      swap1\n      pop\n      jump\t// out\n        /* \"#utility.yul\":2123:2430   */\n    tag_58:\n        /* \"#utility.yul\":2191:2192   */\n      0x00\n        /* \"#utility.yul\":2201:2314   */\n    tag_77:\n        /* \"#utility.yul\":2215:2221   */\n      dup4\n        /* \"#utility.yul\":2212:2213   */\n      dup2\n        /* \"#utility.yul\":2209:2222   */\n      lt\n        /* \"#utility.yul\":2201:2314   */\n      iszero\n      tag_79\n      jumpi\n        /* \"#utility.yul\":2300:2301   */\n      dup1\n        /* \"#utility.yul\":2295:2298   */\n      dup3\n        /* \"#utility.yul\":2291:2302   */\n      add\n        /* \"#utility.yul\":2285:2303   */\n      mload\n        /* \"#utility.yul\":2281:2282   */\n      dup2\n        /* \"#utility.yul\":2276:2279   */\n      dup5\n        /* \"#utility.yul\":2272:2283   */\n      add\n        /* \"#utility.yul\":2265:2304   */\n      mstore\n        /* \"#utility.yul\":2237:2239   */\n      0x20\n        /* \"#utility.yul\":2234:2235   */\n      dup2\n        /* \"#utility.yul\":2230:2240   */\n      add\n        /* \"#utility.yul\":2225:2240   */\n      swap1\n      pop\n        /* \"#utility.yul\":2201:2314   */\n      jump(tag_77)\n    tag_79:\n        /* \"#utility.yul\":2332:2338   */\n      dup4\n        /* \"#utility.yul\":2329:2330   */\n      dup2\n        /* \"#utility.yul\":2326:2339   */\n      gt\n        /* \"#utility.yul\":2323:2424   */\n      iszero\n      tag_80\n      jumpi\n        /* \"#utility.yul\":2412:2413   */\n      0x00\n        /* \"#utility.yul\":2403:2409   */\n      dup5\n        /* \"#utility.yul\":2398:2401   */\n      dup5\n        /* \"#utility.yul\":2394:2410   */\n      add\n        /* \"#utility.yul\":2387:2414   */\n      mstore\n        /* \"#utility.yul\":2323:2424   */\n    tag_80:\n        /* \"#utility.yul\":2172:2430   */\n      pop\n        /* \"#utility.yul\":2123:2430   */\n      pop\n      pop\n      pop\n      jump\t// out\n        /* \"#utility.yul\":2436:2756   */\n    tag_20:\n        /* \"#utility.yul\":2480:2486   */\n      0x00\n        /* \"#utility.yul\":2517:2518   */\n      0x02\n        /* \"#utility.yul\":2511:2515   */\n      dup3\n        /* \"#utility.yul\":2507:2519   */\n      div\n        /* \"#utility.yul\":2497:2519   */\n      swap1\n      pop\n        /* \"#utility.yul\":2564:2565   */\n      0x01\n        /* \"#utility.yul\":2558:2562   */\n      dup3\n        /* \"#utility.yul\":2554:2566   */\n      and\n        /* \"#utility.yul\":2585:2603   */\n      dup1\n        /* \"#utility.yul\":2575:2656   */\n      tag_82\n      jumpi\n        /* \"#utility.yul\":2641:2645   */\n      0x7f\n        /* \"#utility.yul\":2633:2639   */\n      dup3\n        /* \"#utility.yul\":2629:2646   */\n      and\n        /* \"#utility.yul\":2619:2646   */\n      swap2\n      pop\n        /* \"#utility.yul\":2575:2656   */\n    tag_82:\n        /* \"#utility.yul\":2703:2705   */\n      0x20\n        /* \"#utility.yul\":2695:2701   */\n      dup3\n        /* \"#utility.yul\":2692:2706   */\n      lt\n        /* \"#utility.yul\":2672:2690   */\n      dup2\n        /* \"#utility.yul\":2669:2707   */\n      eq\n        /* \"#utility.yul\":2666:2750   */\n      iszero\n      tag_83\n      jumpi\n        /* \"#utility.yul\":2722:2740   */\n      tag_84\n      tag_85\n      jump\t// in\n    tag_84:\n        /* \"#utility.yul\":2666:2750   */\n    tag_83:\n        /* \"#utility.yul\":2487:2756   */\n      pop\n        /* \"#utility.yul\":2436:2756   */\n      swap2\n      swap1\n      pop\n      jump\t// out\n        /* \"#utility.yul\":2762:2942   */\n    tag_85:\n        /* \"#utility.yul\":2810:2887   */\n      0x4e487b7100000000000000000000000000000000000000000000000000000000\n        /* \"#utility.yul\":2807:2808   */\n      0x00\n        /* \"#utility.yul\":2800:2888   */\n      mstore\n        /* \"#utility.yul\":2907:2911   */\n      0x22\n        /* \"#utility.yul\":2904:2905   */\n      0x04\n        /* \"#utility.yul\":2897:2912   */\n      mstore\n        /* \"#utility.yul\":2931:2935   */\n      0x24\n        /* \"#utility.yul\":2928:2929   */\n      0x00\n        /* \"#utility.yul\":2921:2936   */\n      revert\n        /* \"#utility.yul\":2948:3050   */\n    tag_60:\n        /* \"#utility.yul\":2989:2995   */\n      0x00\n        /* \"#utility.yul\":3040:3042   */\n      0x1f\n        /* \"#utility.yul\":3036:3043   */\n      not\n        /* \"#utility.yul\":3031:3033   */\n      0x1f\n        /* \"#utility.yul\":3024:3029   */\n      dup4\n        /* \"#utility.yul\":3020:3034   */\n      add\n        /* \"#utility.yul\":3016:3044   */\n      and\n        /* \"#utility.yul\":3006:3044   */\n      swap1\n      pop\n        /* \"#utility.yul\":2948:3050   */\n      swap2\n      swap1\n      pop\n      jump\t// out\n\n    auxdata: 0xa2646970667358221220ab30c390d6a20668df0c672d8771a412fb4cf1794ca3fb09231b7148fa46fd6464736f6c63430008070033\n}\n",
				"bytecode": {
					"linkReferences": {},
					"object": "608060405234801561001057600080fd5b5061052a806100206000396000f3fe608060405234801561001057600080fd5b50600436106100415760003560e01c8063b15195ed14610046578063fb6a8fcc14610050578063ff3c1a8f14610071575b600080fd5b61004e61008f565b005b6100586100df565b60405161006894939291906103ca565b60405180910390f35b61007961021a565b60405161008691906103a8565b60405180910390f35b6040518060400160405280600581526020017f7469746c650000000000000000000000000000000000000000000000000000008152506000800190805190602001906100dc9291906102ae565b50565b60008060000180546100f090610482565b80601f016020809104026020016040519081016040528092919081815260200182805461011c90610482565b80156101695780601f1061013e57610100808354040283529160200191610169565b820191906000526020600020905b81548152906001019060200180831161014c57829003601f168201915b50505050509080600101805461017e90610482565b80601f01602080910402602001604051908101604052809291908181526020018280546101aa90610482565b80156101f75780601f106101cc576101008083540402835291602001916101f7565b820191906000526020600020905b8154815290600101906020018083116101da57829003601f168201915b5050505050908060020154908060030160009054906101000a900460ff16905084565b606060008001805461022b90610482565b80601f016020809104026020016040519081016040528092919081815260200182805461025790610482565b80156102a45780601f10610279576101008083540402835291602001916102a4565b820191906000526020600020905b81548152906001019060200180831161028757829003601f168201915b5050505050905090565b8280546102ba90610482565b90600052602060002090601f0160209004810192826102dc5760008555610323565b82601f106102f557805160ff1916838001178555610323565b82800160010185558215610323579182015b82811115610322578251825591602001919060010190610307565b5b5090506103309190610334565b5090565b5b8082111561034d576000816000905550600101610335565b5090565b61035a81610439565b82525050565b600061036b8261041d565b6103758185610428565b935061038581856020860161044f565b61038e816104e3565b840191505092915050565b6103a281610445565b82525050565b600060208201905081810360008301526103c28184610360565b905092915050565b600060808201905081810360008301526103e48187610360565b905081810360208301526103f88186610360565b90506104076040830185610399565b6104146060830184610351565b95945050505050565b600081519050919050565b600082825260208201905092915050565b60008115159050919050565b6000819050919050565b60005b8381101561046d578082015181840152602081019050610452565b8381111561047c576000848401525b50505050565b6000600282049050600182168061049a57607f821691505b602082108114156104ae576104ad6104b4565b5b50919050565b7f4e487b7100000000000000000000000000000000000000000000000000000000600052602260045260246000fd5b6000601f19601f830116905091905056fea2646970667358221220ab30c390d6a20668df0c672d8771a412fb4cf1794ca3fb09231b7148fa46fd6464736f6c63430008070033",
					"opcodes": "PUSH1 0x80 PUSH1 0x40 MSTORE CALLVALUE DUP1 ISZERO PUSH2 0x10 JUMPI PUSH1 0x0 DUP1 REVERT JUMPDEST POP PUSH2 0x52A DUP1 PUSH2 0x20 PUSH1 0x0 CODECOPY PUSH1 0x0 RETURN INVALID PUSH1 0x80 PUSH1 0x40 MSTORE CALLVALUE DUP1 ISZERO PUSH2 0x10 JUMPI PUSH1 0x0 DUP1 REVERT JUMPDEST POP PUSH1 0x4 CALLDATASIZE LT PUSH2 0x41 JUMPI PUSH1 0x0 CALLDATALOAD PUSH1 0xE0 SHR DUP1 PUSH4 0xB15195ED EQ PUSH2 0x46 JUMPI DUP1 PUSH4 0xFB6A8FCC EQ PUSH2 0x50 JUMPI DUP1 PUSH4 0xFF3C1A8F EQ PUSH2 0x71 JUMPI JUMPDEST PUSH1 0x0 DUP1 REVERT JUMPDEST PUSH2 0x4E PUSH2 0x8F JUMP JUMPDEST STOP JUMPDEST PUSH2 0x58 PUSH2 0xDF JUMP JUMPDEST PUSH1 0x40 MLOAD PUSH2 0x68 SWAP5 SWAP4 SWAP3 SWAP2 SWAP1 PUSH2 0x3CA JUMP JUMPDEST PUSH1 0x40 MLOAD DUP1 SWAP2 SUB SWAP1 RETURN JUMPDEST PUSH2 0x79 PUSH2 0x21A JUMP JUMPDEST PUSH1 0x40 MLOAD PUSH2 0x86 SWAP2 SWAP1 PUSH2 0x3A8 JUMP JUMPDEST PUSH1 0x40 MLOAD DUP1 SWAP2 SUB SWAP1 RETURN JUMPDEST PUSH1 0x40 MLOAD DUP1 PUSH1 0x40 ADD PUSH1 0x40 MSTORE DUP1 PUSH1 0x5 DUP2 MSTORE PUSH1 0x20 ADD PUSH32 0x7469746C65000000000000000000000000000000000000000000000000000000 DUP2 MSTORE POP PUSH1 0x0 DUP1 ADD SWAP1 DUP1 MLOAD SWAP1 PUSH1 0x20 ADD SWAP1 PUSH2 0xDC SWAP3 SWAP2 SWAP1 PUSH2 0x2AE JUMP JUMPDEST POP JUMP JUMPDEST PUSH1 0x0 DUP1 PUSH1 0x0 ADD DUP1 SLOAD PUSH2 0xF0 SWAP1 PUSH2 0x482 JUMP JUMPDEST DUP1 PUSH1 0x1F ADD PUSH1 0x20 DUP1 SWAP2 DIV MUL PUSH1 0x20 ADD PUSH1 0x40 MLOAD SWAP1 DUP2 ADD PUSH1 0x40 MSTORE DUP1 SWAP3 SWAP2 SWAP1 DUP2 DUP2 MSTORE PUSH1 0x20 ADD DUP3 DUP1 SLOAD PUSH2 0x11C SWAP1 PUSH2 0x482 JUMP JUMPDEST DUP1 ISZERO PUSH2 0x169 JUMPI DUP1 PUSH1 0x1F LT PUSH2 0x13E JUMPI PUSH2 0x100 DUP1 DUP4 SLOAD DIV MUL DUP4 MSTORE SWAP2 PUSH1 0x20 ADD SWAP2 PUSH2 0x169 JUMP JUMPDEST DUP3 ADD SWAP2 SWAP1 PUSH1 0x0 MSTORE PUSH1 0x20 PUSH1 0x0 KECCAK256 SWAP1 JUMPDEST DUP2 SLOAD DUP2 MSTORE SWAP1 PUSH1 0x1 ADD SWAP1 PUSH1 0x20 ADD DUP1 DUP4 GT PUSH2 0x14C JUMPI DUP3 SWAP1 SUB PUSH1 0x1F AND DUP3 ADD SWAP2 JUMPDEST POP POP POP POP POP SWAP1 DUP1 PUSH1 0x1 ADD DUP1 SLOAD PUSH2 0x17E SWAP1 PUSH2 0x482 JUMP JUMPDEST DUP1 PUSH1 0x1F ADD PUSH1 0x20 DUP1 SWAP2 DIV MUL PUSH1 0x20 ADD PUSH1 0x40 MLOAD SWAP1 DUP2 ADD PUSH1 0x40 MSTORE DUP1 SWAP3 SWAP2 SWAP1 DUP2 DUP2 MSTORE PUSH1 0x20 ADD DUP3 DUP1 SLOAD PUSH2 0x1AA SWAP1 PUSH2 0x482 JUMP JUMPDEST DUP1 ISZERO PUSH2 0x1F7 JUMPI DUP1 PUSH1 0x1F LT PUSH2 0x1CC JUMPI PUSH2 0x100 DUP1 DUP4 SLOAD DIV MUL DUP4 MSTORE SWAP2 PUSH1 0x20 ADD SWAP2 PUSH2 0x1F7 JUMP JUMPDEST DUP3 ADD SWAP2 SWAP1 PUSH1 0x0 MSTORE PUSH1 0x20 PUSH1 0x0 KECCAK256 SWAP1 JUMPDEST DUP2 SLOAD DUP2 MSTORE SWAP1 PUSH1 0x1 ADD SWAP1 PUSH1 0x20 ADD DUP1 DUP4 GT PUSH2 0x1DA JUMPI DUP3 SWAP1 SUB PUSH1 0x1F AND DUP3 ADD SWAP2 JUMPDEST POP POP POP POP POP SWAP1 DUP1 PUSH1 0x2 ADD SLOAD SWAP1 DUP1 PUSH1 0x3 ADD PUSH1 0x0 SWAP1 SLOAD SWAP1 PUSH2 0x100 EXP SWAP1 DIV PUSH1 0xFF AND SWAP1 POP DUP5 JUMP JUMPDEST PUSH1 0x60 PUSH1 0x0 DUP1 ADD DUP1 SLOAD PUSH2 0x22B SWAP1 PUSH2 0x482 JUMP JUMPDEST DUP1 PUSH1 0x1F ADD PUSH1 0x20 DUP1 SWAP2 DIV MUL PUSH1 0x20 ADD PUSH1 0x40 MLOAD SWAP1 DUP2 ADD PUSH1 0x40 MSTORE DUP1 SWAP3 SWAP2 SWAP1 DUP2 DUP2 MSTORE PUSH1 0x20 ADD DUP3 DUP1 SLOAD PUSH2 0x257 SWAP1 PUSH2 0x482 JUMP JUMPDEST DUP1 ISZERO PUSH2 0x2A4 JUMPI DUP1 PUSH1 0x1F LT PUSH2 0x279 JUMPI PUSH2 0x100 DUP1 DUP4 SLOAD DIV MUL DUP4 MSTORE SWAP2 PUSH1 0x20 ADD SWAP2 PUSH2 0x2A4 JUMP JUMPDEST DUP3 ADD SWAP2 SWAP1 PUSH1 0x0 MSTORE PUSH1 0x20 PUSH1 0x0 KECCAK256 SWAP1 JUMPDEST DUP2 SLOAD DUP2 MSTORE SWAP1 PUSH1 0x1 ADD SWAP1 PUSH1 0x20 ADD DUP1 DUP4 GT PUSH2 0x287 JUMPI DUP3 SWAP1 SUB PUSH1 0x1F AND DUP3 ADD SWAP2 JUMPDEST POP POP POP POP POP SWAP1 POP SWAP1 JUMP JUMPDEST DUP3 DUP1 SLOAD PUSH2 0x2BA SWAP1 PUSH2 0x482 JUMP JUMPDEST SWAP1 PUSH1 0x0 MSTORE PUSH1 0x20 PUSH1 0x0 KECCAK256 SWAP1 PUSH1 0x1F ADD PUSH1 0x20 SWAP1 DIV DUP2 ADD SWAP3 DUP3 PUSH2 0x2DC JUMPI PUSH1 0x0 DUP6 SSTORE PUSH2 0x323 JUMP JUMPDEST DUP3 PUSH1 0x1F LT PUSH2 0x2F5 JUMPI DUP1 MLOAD PUSH1 0xFF NOT AND DUP4 DUP1 ADD OR DUP6 SSTORE PUSH2 0x323 JUMP JUMPDEST DUP3 DUP1 ADD PUSH1 0x1 ADD DUP6 SSTORE DUP3 ISZERO PUSH2 0x323 JUMPI SWAP2 DUP3 ADD JUMPDEST DUP3 DUP2 GT ISZERO PUSH2 0x322 JUMPI DUP3 MLOAD DUP3 SSTORE SWAP2 PUSH1 0x20 ADD SWAP2 SWAP1 PUSH1 0x1 ADD SWAP1 PUSH2 0x307 JUMP JUMPDEST JUMPDEST POP SWAP1 POP PUSH2 0x330 SWAP2 SWAP1 PUSH2 0x334 JUMP JUMPDEST POP SWAP1 JUMP JUMPDEST JUMPDEST DUP1 DUP3 GT ISZERO PUSH2 0x34D JUMPI PUSH1 0x0 DUP2 PUSH1 0x0 SWAP1 SSTORE POP PUSH1 0x1 ADD PUSH2 0x335 JUMP JUMPDEST POP SWAP1 JUMP JUMPDEST PUSH2 0x35A DUP2 PUSH2 0x439 JUMP JUMPDEST DUP3 MSTORE POP POP JUMP JUMPDEST PUSH1 0x0 PUSH2 0x36B DUP3 PUSH2 0x41D JUMP JUMPDEST PUSH2 0x375 DUP2 DUP6 PUSH2 0x428 JUMP JUMPDEST SWAP4 POP PUSH2 0x385 DUP2 DUP6 PUSH1 0x20 DUP7 ADD PUSH2 0x44F JUMP JUMPDEST PUSH2 0x38E DUP2 PUSH2 0x4E3 JUMP JUMPDEST DUP5 ADD SWAP2 POP POP SWAP3 SWAP2 POP POP JUMP JUMPDEST PUSH2 0x3A2 DUP2 PUSH2 0x445 JUMP JUMPDEST DUP3 MSTORE POP POP JUMP JUMPDEST PUSH1 0x0 PUSH1 0x20 DUP3 ADD SWAP1 POP DUP2 DUP2 SUB PUSH1 0x0 DUP4 ADD MSTORE PUSH2 0x3C2 DUP2 DUP5 PUSH2 0x360 JUMP JUMPDEST SWAP1 POP SWAP3 SWAP2 POP POP JUMP JUMPDEST PUSH1 0x0 PUSH1 0x80 DUP3 ADD SWAP1 POP DUP2 DUP2 SUB PUSH1 0x0 DUP4 ADD MSTORE PUSH2 0x3E4 DUP2 DUP8 PUSH2 0x360 JUMP JUMPDEST SWAP1 POP DUP2 DUP2 SUB PUSH1 0x20 DUP4 ADD MSTORE PUSH2 0x3F8 DUP2 DUP7 PUSH2 0x360 JUMP JUMPDEST SWAP1 POP PUSH2 0x407 PUSH1 0x40 DUP4 ADD DUP6 PUSH2 0x399 JUMP JUMPDEST PUSH2 0x414 PUSH1 0x60 DUP4 ADD DUP5 PUSH2 0x351 JUMP JUMPDEST SWAP6 SWAP5 POP POP POP POP POP JUMP JUMPDEST PUSH1 0x0 DUP2 MLOAD SWAP1 POP SWAP2 SWAP1 POP JUMP JUMPDEST PUSH1 0x0 DUP3 DUP3 MSTORE PUSH1 0x20 DUP3 ADD SWAP1 POP SWAP3 SWAP2 POP POP JUMP JUMPDEST PUSH1 0x0 DUP2 ISZERO ISZERO SWAP1 POP SWAP2 SWAP1 POP JUMP JUMPDEST PUSH1 0x0 DUP2 SWAP1 POP SWAP2 SWAP1 POP JUMP JUMPDEST PUSH1 0x0 JUMPDEST DUP4 DUP2 LT ISZERO PUSH2 0x46D JUMPI DUP1 DUP3 ADD MLOAD DUP2 DUP5 ADD MSTORE PUSH1 0x20 DUP2 ADD SWAP1 POP PUSH2 0x452 JUMP JUMPDEST DUP4 DUP2 GT ISZERO PUSH2 0x47C JUMPI PUSH1 0x0 DUP5 DUP5 ADD MSTORE JUMPDEST POP POP POP POP JUMP JUMPDEST PUSH1 0x0 PUSH1 0x2 DUP3 DIV SWAP1 POP PUSH1 0x1 DUP3 AND DUP1 PUSH2 0x49A JUMPI PUSH1 0x7F DUP3 AND SWAP2 POP JUMPDEST PUSH1 0x20 DUP3 LT DUP2 EQ ISZERO PUSH2 0x4AE JUMPI PUSH2 0x4AD PUSH2 0x4B4 JUMP JUMPDEST JUMPDEST POP SWAP2 SWAP1 POP JUMP JUMPDEST PUSH32 0x4E487B7100000000000000000000000000000000000000000000000000000000 PUSH1 0x0 MSTORE PUSH1 0x22 PUSH1 0x4 MSTORE PUSH1 0x24 PUSH1 0x0 REVERT JUMPDEST PUSH1 0x0 PUSH1 0x1F NOT PUSH1 0x1F DUP4 ADD AND SWAP1 POP SWAP2 SWAP1 POP JUMP INVALID LOG2 PUSH5 0x6970667358 0x22 SLT KECCAK256 0xAB ADDRESS 0xC3 SWAP1 0xD6 LOG2 MOD PUSH9 0xDF0C672D8771A412FB 0x4C CALL PUSH26 0x4CA3FB09231B7148FA46FD6464736F6C63430008070033000000 "
				},
				"gasEstimates": {
					"creation": {
						"codeDepositCost": "264400",
						"executionCost": "306",
						"totalCost": "264706"
					},
					"external": {
						"book1()": "infinite",
						"getTitle()": "infinite",
						"setTitle()": "infinite"
					}
				},
				"methodIdentifiers": {
					"book1()": "fb6a8fcc",
					"getTitle()": "ff3c1a8f",
					"setTitle()": "b15195ed"
				}
			},
			"storageLayout": {
				"storage": [
					{
						"astId": 13,
						"contract": "contracts/Ejercicios/StructTest.sol:StructTest",
						"label": "book1",
						"offset": 0,
						"slot": "0",
						"type": "t_struct(Book)10_storage"
					}
				],
				"types": {
					"t_bool": {
						"encoding": "inplace",
						"label": "bool",
						"numberOfBytes": "1"
					},
					"t_string_storage": {
						"encoding": "bytes",
						"label": "string",
						"numberOfBytes": "32"
					},
					"t_struct(Book)10_storage": {
						"encoding": "inplace",
						"label": "struct StructTest.Book",
						"members": [
							{
								"astId": 3,
								"contract": "contracts/Ejercicios/StructTest.sol:StructTest",
								"label": "title",
								"offset": 0,
								"slot": "0",
								"type": "t_string_storage"
							},
							{
								"astId": 5,
								"contract": "contracts/Ejercicios/StructTest.sol:StructTest",
								"label": "author",
								"offset": 0,
								"slot": "1",
								"type": "t_string_storage"
							},
							{
								"astId": 7,
								"contract": "contracts/Ejercicios/StructTest.sol:StructTest",
								"label": "id",
								"offset": 0,
								"slot": "2",
								"type": "t_uint256"
							},
							{
								"astId": 9,
								"contract": "contracts/Ejercicios/StructTest.sol:StructTest",
								"label": "available",
								"offset": 0,
								"slot": "3",
								"type": "t_bool"
							}
						],
						"numberOfBytes": "128"
					},
					"t_uint256": {
						"encoding": "inplace",
						"label": "uint256",
						"numberOfBytes": "32"
					}
				}
			},
			"userdoc": {
				"kind": "user",
				"methods": {},
				"version": 1
			}
		}
	}
}