{
	"contracts/Ejercicios/StructTest.sol": {
		"StructTest": {
			"abi": [
				{
					"inputs": [],
					"name": "book1",
					"outputs": [
						{
							"internalType": "string",
							"name": "title",
							"type": "string"
						},
						{
							"internalType": "string",
							"name": "author",
							"type": "string"
						},
						{
							"internalType": "uint256",
							"name": "id",
							"type": "uint256"
						},
						{
							"internalType": "bool",
							"name": "available",
							"type": "bool"
						}
					],
					"stateMutability": "view",
					"type": "function"
				},
				{
					"inputs": [],
					"name": "book2",
					"outputs": [
						{
							"internalType": "string",
							"name": "title",
							"type": "string"
						},
						{
							"internalType": "string",
							"name": "author",
							"type": "string"
						},
						{
							"internalType": "uint256",
							"name": "id",
							"type": "uint256"
						},
						{
							"internalType": "bool",
							"name": "available",
							"type": "bool"
						}
					],
					"stateMutability": "view",
					"type": "function"
				},
				{
					"inputs": [],
					"name": "getTitle",
					"outputs": [
						{
							"internalType": "string",
							"name": "",
							"type": "string"
						}
					],
					"stateMutability": "view",
					"type": "function"
				},
				{
					"inputs": [],
					"name": "getTitleAndIdBook2",
					"outputs": [
						{
							"internalType": "string",
							"name": "",
							"type": "string"
						},
						{
							"internalType": "uint256",
							"name": "",
							"type": "uint256"
						}
					],
					"stateMutability": "view",
					"type": "function"
				},
				{
					"inputs": [],
					"name": "setTitle",
					"outputs": [],
					"stateMutability": "nonpayable",
					"type": "function"
				}
			],
			"devdoc": {
				"kind": "dev",
				"methods": {},
				"version": 1
			},
			"evm": {
				"assembly": "    /* \"contracts/Ejercicios/StructTest.sol\":64:592  contract StructTest {\r... */\n  mstore(0x40, 0x80)\n    /* \"contracts/Ejercicios/StructTest.sol\":253:288  Book(\"title2\", \"ricardo\", 2, false) */\n  mload(0x40)\n  dup1\n  0x80\n  add\n  0x40\n  mstore\n  dup1\n  mload(0x40)\n  dup1\n  0x40\n  add\n  0x40\n  mstore\n  dup1\n  0x06\n  dup2\n  mstore\n  0x20\n  add\n  0x7469746c65320000000000000000000000000000000000000000000000000000\n  dup2\n  mstore\n  pop\n  dup2\n  mstore\n  0x20\n  add\n  mload(0x40)\n  dup1\n  0x40\n  add\n  0x40\n  mstore\n  dup1\n  0x07\n  dup2\n  mstore\n  0x20\n  add\n  0x7269636172646f00000000000000000000000000000000000000000000000000\n  dup2\n  mstore\n  pop\n  dup2\n  mstore\n  0x20\n  add\n    /* \"contracts/Ejercicios/StructTest.sol\":279:280  2 */\n  0x02\n    /* \"contracts/Ejercicios/StructTest.sol\":253:288  Book(\"title2\", \"ricardo\", 2, false) */\n  dup2\n  mstore\n  0x20\n  add\n    /* \"contracts/Ejercicios/StructTest.sol\":282:287  false */\n  0x00\n    /* \"contracts/Ejercicios/StructTest.sol\":253:288  Book(\"title2\", \"ricardo\", 2, false) */\n  iszero\n  iszero\n  dup2\n  mstore\n  pop\n    /* \"contracts/Ejercicios/StructTest.sol\":233:288  Book public book2 = Book(\"title2\", \"ricardo\", 2, false) */\n  0x04\n  0x00\n  dup3\n  add\n  mload\n  dup2\n  0x00\n  add\n  swap1\n  dup1\n  mload\n  swap1\n  0x20\n  add\n  swap1\n  tag_1\n  swap3\n  swap2\n  swap1\n  tag_2\n  jump\t// in\ntag_1:\n  pop\n  0x20\n  dup3\n  add\n  mload\n  dup2\n  0x01\n  add\n  swap1\n  dup1\n  mload\n  swap1\n  0x20\n  add\n  swap1\n  tag_3\n  swap3\n  swap2\n  swap1\n  tag_2\n  jump\t// in\ntag_3:\n  pop\n  0x40\n  dup3\n  add\n  mload\n  dup2\n  0x02\n  add\n  sstore\n  0x60\n  dup3\n  add\n  mload\n  dup2\n  0x03\n  add\n  exp(0x0100, 0x00)\n  dup2\n  sload\n  dup2\n  0xff\n  mul\n  not\n  and\n  swap1\n  dup4\n  iszero\n  iszero\n  mul\n  or\n  swap1\n  sstore\n  pop\n  pop\n  pop\n    /* \"contracts/Ejercicios/StructTest.sol\":64:592  contract StructTest {\r... */\n  callvalue\n  dup1\n  iszero\n  tag_4\n  jumpi\n  0x00\n  dup1\n  revert\ntag_4:\n  pop\n  jump(tag_5)\ntag_2:\n  dup3\n  dup1\n  sload\n  tag_6\n  swap1\n  tag_7\n  jump\t// in\ntag_6:\n  swap1\n  0x00\n  mstore\n  keccak256(0x00, 0x20)\n  swap1\n  0x1f\n  add\n  0x20\n  swap1\n  div\n  dup2\n  add\n  swap3\n  dup3\n  tag_9\n  jumpi\n  0x00\n  dup6\n  sstore\n  jump(tag_8)\ntag_9:\n  dup3\n  0x1f\n  lt\n  tag_10\n  jumpi\n  dup1\n  mload\n  not(0xff)\n  and\n  dup4\n  dup1\n  add\n  or\n  dup6\n  sstore\n  jump(tag_8)\ntag_10:\n  dup3\n  dup1\n  add\n  0x01\n  add\n  dup6\n  sstore\n  dup3\n  iszero\n  tag_8\n  jumpi\n  swap2\n  dup3\n  add\ntag_11:\n  dup3\n  dup2\n  gt\n  iszero\n  tag_12\n  jumpi\n  dup3\n  mload\n  dup3\n  sstore\n  swap2\n  0x20\n  add\n  swap2\n  swap1\n  0x01\n  add\n  swap1\n  jump(tag_11)\ntag_12:\ntag_8:\n  pop\n  swap1\n  pop\n  tag_13\n  swap2\n  swap1\n  tag_14\n  jump\t// in\ntag_13:\n  pop\n  swap1\n  jump\t// out\ntag_14:\ntag_15:\n  dup1\n  dup3\n  gt\n  iszero\n  tag_16\n  jumpi\n  0x00\n  dup2\n  0x00\n  swap1\n  sstore\n  pop\n  0x01\n  add\n  jump(tag_15)\ntag_16:\n  pop\n  swap1\n  jump\t// out\n    /* \"#utility.yul\":7:327   */\ntag_7:\n    /* \"#utility.yul\":51:57   */\n  0x00\n    /* \"#utility.yul\":88:89   */\n  0x02\n    /* \"#utility.yul\":82:86   */\n  dup3\n    /* \"#utility.yul\":78:90   */\n  div\n    /* \"#utility.yul\":68:90   */\n  swap1\n  pop\n    /* \"#utility.yul\":135:136   */\n  0x01\n    /* \"#utility.yul\":129:133   */\n  dup3\n    /* \"#utility.yul\":125:137   */\n  and\n    /* \"#utility.yul\":156:174   */\n  dup1\n    /* \"#utility.yul\":146:227   */\n  tag_19\n  jumpi\n    /* \"#utility.yul\":212:216   */\n  0x7f\n    /* \"#utility.yul\":204:210   */\n  dup3\n    /* \"#utility.yul\":200:217   */\n  and\n    /* \"#utility.yul\":190:217   */\n  swap2\n  pop\n    /* \"#utility.yul\":146:227   */\ntag_19:\n    /* \"#utility.yul\":274:276   */\n  0x20\n    /* \"#utility.yul\":266:272   */\n  dup3\n    /* \"#utility.yul\":263:277   */\n  lt\n    /* \"#utility.yul\":243:261   */\n  dup2\n    /* \"#utility.yul\":240:278   */\n  eq\n    /* \"#utility.yul\":237:321   */\n  iszero\n  tag_20\n  jumpi\n    /* \"#utility.yul\":293:311   */\n  tag_21\n  tag_22\n  jump\t// in\ntag_21:\n    /* \"#utility.yul\":237:321   */\ntag_20:\n    /* \"#utility.yul\":58:327   */\n  pop\n    /* \"#utility.yul\":7:327   */\n  swap2\n  swap1\n  pop\n  jump\t// out\n    /* \"#utility.yul\":333:513   */\ntag_22:\n    /* \"#utility.yul\":381:458   */\n  0x4e487b7100000000000000000000000000000000000000000000000000000000\n    /* \"#utility.yul\":378:379   */\n  0x00\n    /* \"#utility.yul\":371:459   */\n  mstore\n    /* \"#utility.yul\":478:482   */\n  0x22\n    /* \"#utility.yul\":475:476   */\n  0x04\n    /* \"#utility.yul\":468:483   */\n  mstore\n    /* \"#utility.yul\":502:506   */\n  0x24\n    /* \"#utility.yul\":499:500   */\n  0x00\n    /* \"#utility.yul\":492:507   */\n  revert\n    /* \"contracts/Ejercicios/StructTest.sol\":64:592  contract StructTest {\r... */\ntag_5:\n  dataSize(sub_0)\n  dup1\n  dataOffset(sub_0)\n  0x00\n  codecopy\n  0x00\n  return\nstop\n\nsub_0: assembly {\n        /* \"contracts/Ejercicios/StructTest.sol\":64:592  contract StructTest {\r... */\n      mstore(0x40, 0x80)\n      callvalue\n      dup1\n      iszero\n      tag_1\n      jumpi\n      0x00\n      dup1\n      revert\n    tag_1:\n      pop\n      jumpi(tag_2, lt(calldatasize, 0x04))\n      shr(0xe0, calldataload(0x00))\n      dup1\n      0xa0c3595a\n      eq\n      tag_3\n      jumpi\n      dup1\n      0xb15195ed\n      eq\n      tag_4\n      jumpi\n      dup1\n      0xe815fe1d\n      eq\n      tag_5\n      jumpi\n      dup1\n      0xfb6a8fcc\n      eq\n      tag_6\n      jumpi\n      dup1\n      0xff3c1a8f\n      eq\n      tag_7\n      jumpi\n    tag_2:\n      0x00\n      dup1\n      revert\n        /* \"contracts/Ejercicios/StructTest.sol\":470:589  function getTitleAndIdBook2() public view returns(string memory, uint){\r... */\n    tag_3:\n      tag_8\n      tag_9\n      jump\t// in\n    tag_8:\n      mload(0x40)\n      tag_10\n      swap3\n      swap2\n      swap1\n      tag_11\n      jump\t// in\n    tag_10:\n      mload(0x40)\n      dup1\n      swap2\n      sub\n      swap1\n      return\n        /* \"contracts/Ejercicios/StructTest.sol\":397:464  function setTitle() public {\r... */\n    tag_4:\n      tag_12\n      tag_13\n      jump\t// in\n    tag_12:\n      stop\n        /* \"contracts/Ejercicios/StructTest.sol\":233:288  Book public book2 = Book(\"title2\", \"ricardo\", 2, false) */\n    tag_5:\n      tag_14\n      tag_15\n      jump\t// in\n    tag_14:\n      mload(0x40)\n      tag_16\n      swap5\n      swap4\n      swap3\n      swap2\n      swap1\n      tag_17\n      jump\t// in\n    tag_16:\n      mload(0x40)\n      dup1\n      swap2\n      sub\n      swap1\n      return\n        /* \"contracts/Ejercicios/StructTest.sol\":209:226  Book public book1 */\n    tag_6:\n      tag_18\n      tag_19\n      jump\t// in\n    tag_18:\n      mload(0x40)\n      tag_20\n      swap5\n      swap4\n      swap3\n      swap2\n      swap1\n      tag_17\n      jump\t// in\n    tag_20:\n      mload(0x40)\n      dup1\n      swap2\n      sub\n      swap1\n      return\n        /* \"contracts/Ejercicios/StructTest.sol\":297:389  function getTitle() public view returns(string memory) {\r... */\n    tag_7:\n      tag_21\n      tag_22\n      jump\t// in\n    tag_21:\n      mload(0x40)\n      tag_23\n      swap2\n      swap1\n      tag_24\n      jump\t// in\n    tag_23:\n      mload(0x40)\n      dup1\n      swap2\n      sub\n      swap1\n      return\n        /* \"contracts/Ejercicios/StructTest.sol\":470:589  function getTitleAndIdBook2() public view returns(string memory, uint){\r... */\n    tag_9:\n        /* \"contracts/Ejercicios/StructTest.sol\":520:533  string memory */\n      0x60\n        /* \"contracts/Ejercicios/StructTest.sol\":535:539  uint */\n      0x00\n        /* \"contracts/Ejercicios/StructTest.sol\":559:564  book2 */\n      0x04\n        /* \"contracts/Ejercicios/StructTest.sol\":559:570  book2.title */\n      0x00\n      add\n        /* \"contracts/Ejercicios/StructTest.sol\":572:577  book2 */\n      0x04\n        /* \"contracts/Ejercicios/StructTest.sol\":572:580  book2.id */\n      0x02\n      add\n      sload\n        /* \"contracts/Ejercicios/StructTest.sol\":551:581  return (book2.title, book2.id) */\n      dup2\n      dup1\n      sload\n      tag_26\n      swap1\n      tag_27\n      jump\t// in\n    tag_26:\n      dup1\n      0x1f\n      add\n      0x20\n      dup1\n      swap2\n      div\n      mul\n      0x20\n      add\n      mload(0x40)\n      swap1\n      dup2\n      add\n      0x40\n      mstore\n      dup1\n      swap3\n      swap2\n      swap1\n      dup2\n      dup2\n      mstore\n      0x20\n      add\n      dup3\n      dup1\n      sload\n      tag_28\n      swap1\n      tag_27\n      jump\t// in\n    tag_28:\n      dup1\n      iszero\n      tag_29\n      jumpi\n      dup1\n      0x1f\n      lt\n      tag_30\n      jumpi\n      0x0100\n      dup1\n      dup4\n      sload\n      div\n      mul\n      dup4\n      mstore\n      swap2\n      0x20\n      add\n      swap2\n      jump(tag_29)\n    tag_30:\n      dup3\n      add\n      swap2\n      swap1\n      0x00\n      mstore\n      keccak256(0x00, 0x20)\n      swap1\n    tag_31:\n      dup2\n      sload\n      dup2\n      mstore\n      swap1\n      0x01\n      add\n      swap1\n      0x20\n      add\n      dup1\n      dup4\n      gt\n      tag_31\n      jumpi\n      dup3\n      swap1\n      sub\n      0x1f\n      and\n      dup3\n      add\n      swap2\n    tag_29:\n      pop\n      pop\n      pop\n      pop\n      pop\n      swap2\n      pop\n      swap2\n      pop\n      swap2\n      pop\n        /* \"contracts/Ejercicios/StructTest.sol\":470:589  function getTitleAndIdBook2() public view returns(string memory, uint){\r... */\n      swap1\n      swap2\n      jump\t// out\n        /* \"contracts/Ejercicios/StructTest.sol\":397:464  function setTitle() public {\r... */\n    tag_13:\n        /* \"contracts/Ejercicios/StructTest.sol\":435:456  book1.title = \"title\" */\n      mload(0x40)\n      dup1\n      0x40\n      add\n      0x40\n      mstore\n      dup1\n      0x05\n      dup2\n      mstore\n      0x20\n      add\n      0x7469746c65000000000000000000000000000000000000000000000000000000\n      dup2\n      mstore\n      pop\n        /* \"contracts/Ejercicios/StructTest.sol\":435:440  book1 */\n      0x00\n        /* \"contracts/Ejercicios/StructTest.sol\":435:446  book1.title */\n      dup1\n      add\n        /* \"contracts/Ejercicios/StructTest.sol\":435:456  book1.title = \"title\" */\n      swap1\n      dup1\n      mload\n      swap1\n      0x20\n      add\n      swap1\n      tag_33\n      swap3\n      swap2\n      swap1\n      tag_34\n      jump\t// in\n    tag_33:\n      pop\n        /* \"contracts/Ejercicios/StructTest.sol\":397:464  function setTitle() public {\r... */\n      jump\t// out\n        /* \"contracts/Ejercicios/StructTest.sol\":233:288  Book public book2 = Book(\"title2\", \"ricardo\", 2, false) */\n    tag_15:\n      0x04\n      dup1\n      0x00\n      add\n      dup1\n      sload\n      tag_35\n      swap1\n      tag_27\n      jump\t// in\n    tag_35:\n      dup1\n      0x1f\n      add\n      0x20\n      dup1\n      swap2\n      div\n      mul\n      0x20\n      add\n      mload(0x40)\n      swap1\n      dup2\n      add\n      0x40\n      mstore\n      dup1\n      swap3\n      swap2\n      swap1\n      dup2\n      dup2\n      mstore\n      0x20\n      add\n      dup3\n      dup1\n      sload\n      tag_36\n      swap1\n      tag_27\n      jump\t// in\n    tag_36:\n      dup1\n      iszero\n      tag_37\n      jumpi\n      dup1\n      0x1f\n      lt\n      tag_38\n      jumpi\n      0x0100\n      dup1\n      dup4\n      sload\n      div\n      mul\n      dup4\n      mstore\n      swap2\n      0x20\n      add\n      swap2\n      jump(tag_37)\n    tag_38:\n      dup3\n      add\n      swap2\n      swap1\n      0x00\n      mstore\n      keccak256(0x00, 0x20)\n      swap1\n    tag_39:\n      dup2\n      sload\n      dup2\n      mstore\n      swap1\n      0x01\n      add\n      swap1\n      0x20\n      add\n      dup1\n      dup4\n      gt\n      tag_39\n      jumpi\n      dup3\n      swap1\n      sub\n      0x1f\n      and\n      dup3\n      add\n      swap2\n    tag_37:\n      pop\n      pop\n      pop\n      pop\n      pop\n      swap1\n      dup1\n      0x01\n      add\n      dup1\n      sload\n      tag_40\n      swap1\n      tag_27\n      jump\t// in\n    tag_40:\n      dup1\n      0x1f\n      add\n      0x20\n      dup1\n      swap2\n      div\n      mul\n      0x20\n      add\n      mload(0x40)\n      swap1\n      dup2\n      add\n      0x40\n      mstore\n      dup1\n      swap3\n      swap2\n      swap1\n      dup2\n      dup2\n      mstore\n      0x20\n      add\n      dup3\n      dup1\n      sload\n      tag_41\n      swap1\n      tag_27\n      jump\t// in\n    tag_41:\n      dup1\n      iszero\n      tag_42\n      jumpi\n      dup1\n      0x1f\n      lt\n      tag_43\n      jumpi\n      0x0100\n      dup1\n      dup4\n      sload\n      div\n      mul\n      dup4\n      mstore\n      swap2\n      0x20\n      add\n      swap2\n      jump(tag_42)\n    tag_43:\n      dup3\n      add\n      swap2\n      swap1\n      0x00\n      mstore\n      keccak256(0x00, 0x20)\n      swap1\n    tag_44:\n      dup2\n      sload\n      dup2\n      mstore\n      swap1\n      0x01\n      add\n      swap1\n      0x20\n      add\n      dup1\n      dup4\n      gt\n      tag_44\n      jumpi\n      dup3\n      swap1\n      sub\n      0x1f\n      and\n      dup3\n      add\n      swap2\n    tag_42:\n      pop\n      pop\n      pop\n      pop\n      pop\n      swap1\n      dup1\n      0x02\n      add\n      sload\n      swap1\n      dup1\n      0x03\n      add\n      0x00\n      swap1\n      sload\n      swap1\n      0x0100\n      exp\n      swap1\n      div\n      0xff\n      and\n      swap1\n      pop\n      dup5\n      jump\t// out\n        /* \"contracts/Ejercicios/StructTest.sol\":209:226  Book public book1 */\n    tag_19:\n      0x00\n      dup1\n      0x00\n      add\n      dup1\n      sload\n      tag_45\n      swap1\n      tag_27\n      jump\t// in\n    tag_45:\n      dup1\n      0x1f\n      add\n      0x20\n      dup1\n      swap2\n      div\n      mul\n      0x20\n      add\n      mload(0x40)\n      swap1\n      dup2\n      add\n      0x40\n      mstore\n      dup1\n      swap3\n      swap2\n      swap1\n      dup2\n      dup2\n      mstore\n      0x20\n      add\n      dup3\n      dup1\n      sload\n      tag_46\n      swap1\n      tag_27\n      jump\t// in\n    tag_46:\n      dup1\n      iszero\n      tag_47\n      jumpi\n      dup1\n      0x1f\n      lt\n      tag_48\n      jumpi\n      0x0100\n      dup1\n      dup4\n      sload\n      div\n      mul\n      dup4\n      mstore\n      swap2\n      0x20\n      add\n      swap2\n      jump(tag_47)\n    tag_48:\n      dup3\n      add\n      swap2\n      swap1\n      0x00\n      mstore\n      keccak256(0x00, 0x20)\n      swap1\n    tag_49:\n      dup2\n      sload\n      dup2\n      mstore\n      swap1\n      0x01\n      add\n      swap1\n      0x20\n      add\n      dup1\n      dup4\n      gt\n      tag_49\n      jumpi\n      dup3\n      swap1\n      sub\n      0x1f\n      and\n      dup3\n      add\n      swap2\n    tag_47:\n      pop\n      pop\n      pop\n      pop\n      pop\n      swap1\n      dup1\n      0x01\n      add\n      dup1\n      sload\n      tag_50\n      swap1\n      tag_27\n      jump\t// in\n    tag_50:\n      dup1\n      0x1f\n      add\n      0x20\n      dup1\n      swap2\n      div\n      mul\n      0x20\n      add\n      mload(0x40)\n      swap1\n      dup2\n      add\n      0x40\n      mstore\n      dup1\n      swap3\n      swap2\n      swap1\n      dup2\n      dup2\n      mstore\n      0x20\n      add\n      dup3\n      dup1\n      sload\n      tag_51\n      swap1\n      tag_27\n      jump\t// in\n    tag_51:\n      dup1\n      iszero\n      tag_52\n      jumpi\n      dup1\n      0x1f\n      lt\n      tag_53\n      jumpi\n      0x0100\n      dup1\n      dup4\n      sload\n      div\n      mul\n      dup4\n      mstore\n      swap2\n      0x20\n      add\n      swap2\n      jump(tag_52)\n    tag_53:\n      dup3\n      add\n      swap2\n      swap1\n      0x00\n      mstore\n      keccak256(0x00, 0x20)\n      swap1\n    tag_54:\n      dup2\n      sload\n      dup2\n      mstore\n      swap1\n      0x01\n      add\n      swap1\n      0x20\n      add\n      dup1\n      dup4\n      gt\n      tag_54\n      jumpi\n      dup3\n      swap1\n      sub\n      0x1f\n      and\n      dup3\n      add\n      swap2\n    tag_52:\n      pop\n      pop\n      pop\n      pop\n      pop\n      swap1\n      dup1\n      0x02\n      add\n      sload\n      swap1\n      dup1\n      0x03\n      add\n      0x00\n      swap1\n      sload\n      swap1\n      0x0100\n      exp\n      swap1\n      div\n      0xff\n      and\n      swap1\n      pop\n      dup5\n      jump\t// out\n        /* \"contracts/Ejercicios/StructTest.sol\":297:389  function getTitle() public view returns(string memory) {\r... */\n    tag_22:\n        /* \"contracts/Ejercicios/StructTest.sol\":337:350  string memory */\n      0x60\n        /* \"contracts/Ejercicios/StructTest.sol\":370:375  book1 */\n      0x00\n        /* \"contracts/Ejercicios/StructTest.sol\":370:381  book1.title */\n      dup1\n      add\n        /* \"contracts/Ejercicios/StructTest.sol\":363:381  return book1.title */\n      dup1\n      sload\n      tag_56\n      swap1\n      tag_27\n      jump\t// in\n    tag_56:\n      dup1\n      0x1f\n      add\n      0x20\n      dup1\n      swap2\n      div\n      mul\n      0x20\n      add\n      mload(0x40)\n      swap1\n      dup2\n      add\n      0x40\n      mstore\n      dup1\n      swap3\n      swap2\n      swap1\n      dup2\n      dup2\n      mstore\n      0x20\n      add\n      dup3\n      dup1\n      sload\n      tag_57\n      swap1\n      tag_27\n      jump\t// in\n    tag_57:\n      dup1\n      iszero\n      tag_58\n      jumpi\n      dup1\n      0x1f\n      lt\n      tag_59\n      jumpi\n      0x0100\n      dup1\n      dup4\n      sload\n      div\n      mul\n      dup4\n      mstore\n      swap2\n      0x20\n      add\n      swap2\n      jump(tag_58)\n    tag_59:\n      dup3\n      add\n      swap2\n      swap1\n      0x00\n      mstore\n      keccak256(0x00, 0x20)\n      swap1\n    tag_60:\n      dup2\n      sload\n      dup2\n      mstore\n      swap1\n      0x01\n      add\n      swap1\n      0x20\n      add\n      dup1\n      dup4\n      gt\n      tag_60\n      jumpi\n      dup3\n      swap1\n      sub\n      0x1f\n      and\n      dup3\n      add\n      swap2\n    tag_58:\n      pop\n      pop\n      pop\n      pop\n      pop\n      swap1\n      pop\n        /* \"contracts/Ejercicios/StructTest.sol\":297:389  function getTitle() public view returns(string memory) {\r... */\n      swap1\n      jump\t// out\n    tag_34:\n      dup3\n      dup1\n      sload\n      tag_61\n      swap1\n      tag_27\n      jump\t// in\n    tag_61:\n      swap1\n      0x00\n      mstore\n      keccak256(0x00, 0x20)\n      swap1\n      0x1f\n      add\n      0x20\n      swap1\n      div\n      dup2\n      add\n      swap3\n      dup3\n      tag_63\n      jumpi\n      0x00\n      dup6\n      sstore\n      jump(tag_62)\n    tag_63:\n      dup3\n      0x1f\n      lt\n      tag_64\n      jumpi\n      dup1\n      mload\n      not(0xff)\n      and\n      dup4\n      dup1\n      add\n      or\n      dup6\n      sstore\n      jump(tag_62)\n    tag_64:\n      dup3\n      dup1\n      add\n      0x01\n      add\n      dup6\n      sstore\n      dup3\n      iszero\n      tag_62\n      jumpi\n      swap2\n      dup3\n      add\n    tag_65:\n      dup3\n      dup2\n      gt\n      iszero\n      tag_66\n      jumpi\n      dup3\n      mload\n      dup3\n      sstore\n      swap2\n      0x20\n      add\n      swap2\n      swap1\n      0x01\n      add\n      swap1\n      jump(tag_65)\n    tag_66:\n    tag_62:\n      pop\n      swap1\n      pop\n      tag_67\n      swap2\n      swap1\n      tag_68\n      jump\t// in\n    tag_67:\n      pop\n      swap1\n      jump\t// out\n    tag_68:\n    tag_69:\n      dup1\n      dup3\n      gt\n      iszero\n      tag_70\n      jumpi\n      0x00\n      dup2\n      0x00\n      swap1\n      sstore\n      pop\n      0x01\n      add\n      jump(tag_69)\n    tag_70:\n      pop\n      swap1\n      jump\t// out\n        /* \"#utility.yul\":7:116   */\n    tag_72:\n        /* \"#utility.yul\":88:109   */\n      tag_74\n        /* \"#utility.yul\":103:108   */\n      dup2\n        /* \"#utility.yul\":88:109   */\n      tag_75\n      jump\t// in\n    tag_74:\n        /* \"#utility.yul\":83:86   */\n      dup3\n        /* \"#utility.yul\":76:110   */\n      mstore\n        /* \"#utility.yul\":7:116   */\n      pop\n      pop\n      jump\t// out\n        /* \"#utility.yul\":122:486   */\n    tag_76:\n        /* \"#utility.yul\":210:213   */\n      0x00\n        /* \"#utility.yul\":238:277   */\n      tag_78\n        /* \"#utility.yul\":271:276   */\n      dup3\n        /* \"#utility.yul\":238:277   */\n      tag_79\n      jump\t// in\n    tag_78:\n        /* \"#utility.yul\":293:364   */\n      tag_80\n        /* \"#utility.yul\":357:363   */\n      dup2\n        /* \"#utility.yul\":352:355   */\n      dup6\n        /* \"#utility.yul\":293:364   */\n      tag_81\n      jump\t// in\n    tag_80:\n        /* \"#utility.yul\":286:364   */\n      swap4\n      pop\n        /* \"#utility.yul\":373:425   */\n      tag_82\n        /* \"#utility.yul\":418:424   */\n      dup2\n        /* \"#utility.yul\":413:416   */\n      dup6\n        /* \"#utility.yul\":406:410   */\n      0x20\n        /* \"#utility.yul\":399:404   */\n      dup7\n        /* \"#utility.yul\":395:411   */\n      add\n        /* \"#utility.yul\":373:425   */\n      tag_83\n      jump\t// in\n    tag_82:\n        /* \"#utility.yul\":450:479   */\n      tag_84\n        /* \"#utility.yul\":472:478   */\n      dup2\n        /* \"#utility.yul\":450:479   */\n      tag_85\n      jump\t// in\n    tag_84:\n        /* \"#utility.yul\":445:448   */\n      dup5\n        /* \"#utility.yul\":441:480   */\n      add\n        /* \"#utility.yul\":434:480   */\n      swap2\n      pop\n        /* \"#utility.yul\":214:486   */\n      pop\n        /* \"#utility.yul\":122:486   */\n      swap3\n      swap2\n      pop\n      pop\n      jump\t// out\n        /* \"#utility.yul\":492:610   */\n    tag_86:\n        /* \"#utility.yul\":579:603   */\n      tag_88\n        /* \"#utility.yul\":597:602   */\n      dup2\n        /* \"#utility.yul\":579:603   */\n      tag_89\n      jump\t// in\n    tag_88:\n        /* \"#utility.yul\":574:577   */\n      dup3\n        /* \"#utility.yul\":567:604   */\n      mstore\n        /* \"#utility.yul\":492:610   */\n      pop\n      pop\n      jump\t// out\n        /* \"#utility.yul\":616:929   */\n    tag_24:\n        /* \"#utility.yul\":729:733   */\n      0x00\n        /* \"#utility.yul\":767:769   */\n      0x20\n        /* \"#utility.yul\":756:765   */\n      dup3\n        /* \"#utility.yul\":752:770   */\n      add\n        /* \"#utility.yul\":744:770   */\n      swap1\n      pop\n        /* \"#utility.yul\":816:825   */\n      dup2\n        /* \"#utility.yul\":810:814   */\n      dup2\n        /* \"#utility.yul\":806:826   */\n      sub\n        /* \"#utility.yul\":802:803   */\n      0x00\n        /* \"#utility.yul\":791:800   */\n      dup4\n        /* \"#utility.yul\":787:804   */\n      add\n        /* \"#utility.yul\":780:827   */\n      mstore\n        /* \"#utility.yul\":844:922   */\n      tag_91\n        /* \"#utility.yul\":917:921   */\n      dup2\n        /* \"#utility.yul\":908:914   */\n      dup5\n        /* \"#utility.yul\":844:922   */\n      tag_76\n      jump\t// in\n    tag_91:\n        /* \"#utility.yul\":836:922   */\n      swap1\n      pop\n        /* \"#utility.yul\":616:929   */\n      swap3\n      swap2\n      pop\n      pop\n      jump\t// out\n        /* \"#utility.yul\":935:1658   */\n    tag_17:\n        /* \"#utility.yul\":1146:1150   */\n      0x00\n        /* \"#utility.yul\":1184:1187   */\n      0x80\n        /* \"#utility.yul\":1173:1182   */\n      dup3\n        /* \"#utility.yul\":1169:1188   */\n      add\n        /* \"#utility.yul\":1161:1188   */\n      swap1\n      pop\n        /* \"#utility.yul\":1234:1243   */\n      dup2\n        /* \"#utility.yul\":1228:1232   */\n      dup2\n        /* \"#utility.yul\":1224:1244   */\n      sub\n        /* \"#utility.yul\":1220:1221   */\n      0x00\n        /* \"#utility.yul\":1209:1218   */\n      dup4\n        /* \"#utility.yul\":1205:1222   */\n      add\n        /* \"#utility.yul\":1198:1245   */\n      mstore\n        /* \"#utility.yul\":1262:1340   */\n      tag_93\n        /* \"#utility.yul\":1335:1339   */\n      dup2\n        /* \"#utility.yul\":1326:1332   */\n      dup8\n        /* \"#utility.yul\":1262:1340   */\n      tag_76\n      jump\t// in\n    tag_93:\n        /* \"#utility.yul\":1254:1340   */\n      swap1\n      pop\n        /* \"#utility.yul\":1387:1396   */\n      dup2\n        /* \"#utility.yul\":1381:1385   */\n      dup2\n        /* \"#utility.yul\":1377:1397   */\n      sub\n        /* \"#utility.yul\":1372:1374   */\n      0x20\n        /* \"#utility.yul\":1361:1370   */\n      dup4\n        /* \"#utility.yul\":1357:1375   */\n      add\n        /* \"#utility.yul\":1350:1398   */\n      mstore\n        /* \"#utility.yul\":1415:1493   */\n      tag_94\n        /* \"#utility.yul\":1488:1492   */\n      dup2\n        /* \"#utility.yul\":1479:1485   */\n      dup7\n        /* \"#utility.yul\":1415:1493   */\n      tag_76\n      jump\t// in\n    tag_94:\n        /* \"#utility.yul\":1407:1493   */\n      swap1\n      pop\n        /* \"#utility.yul\":1503:1575   */\n      tag_95\n        /* \"#utility.yul\":1571:1573   */\n      0x40\n        /* \"#utility.yul\":1560:1569   */\n      dup4\n        /* \"#utility.yul\":1556:1574   */\n      add\n        /* \"#utility.yul\":1547:1553   */\n      dup6\n        /* \"#utility.yul\":1503:1575   */\n      tag_86\n      jump\t// in\n    tag_95:\n        /* \"#utility.yul\":1585:1651   */\n      tag_96\n        /* \"#utility.yul\":1647:1649   */\n      0x60\n        /* \"#utility.yul\":1636:1645   */\n      dup4\n        /* \"#utility.yul\":1632:1650   */\n      add\n        /* \"#utility.yul\":1623:1629   */\n      dup5\n        /* \"#utility.yul\":1585:1651   */\n      tag_72\n      jump\t// in\n    tag_96:\n        /* \"#utility.yul\":935:1658   */\n      swap6\n      swap5\n      pop\n      pop\n      pop\n      pop\n      pop\n      jump\t// out\n        /* \"#utility.yul\":1664:2087   */\n    tag_11:\n        /* \"#utility.yul\":1805:1809   */\n      0x00\n        /* \"#utility.yul\":1843:1845   */\n      0x40\n        /* \"#utility.yul\":1832:1841   */\n      dup3\n        /* \"#utility.yul\":1828:1846   */\n      add\n        /* \"#utility.yul\":1820:1846   */\n      swap1\n      pop\n        /* \"#utility.yul\":1892:1901   */\n      dup2\n        /* \"#utility.yul\":1886:1890   */\n      dup2\n        /* \"#utility.yul\":1882:1902   */\n      sub\n        /* \"#utility.yul\":1878:1879   */\n      0x00\n        /* \"#utility.yul\":1867:1876   */\n      dup4\n        /* \"#utility.yul\":1863:1880   */\n      add\n        /* \"#utility.yul\":1856:1903   */\n      mstore\n        /* \"#utility.yul\":1920:1998   */\n      tag_98\n        /* \"#utility.yul\":1993:1997   */\n      dup2\n        /* \"#utility.yul\":1984:1990   */\n      dup6\n        /* \"#utility.yul\":1920:1998   */\n      tag_76\n      jump\t// in\n    tag_98:\n        /* \"#utility.yul\":1912:1998   */\n      swap1\n      pop\n        /* \"#utility.yul\":2008:2080   */\n      tag_99\n        /* \"#utility.yul\":2076:2078   */\n      0x20\n        /* \"#utility.yul\":2065:2074   */\n      dup4\n        /* \"#utility.yul\":2061:2079   */\n      add\n        /* \"#utility.yul\":2052:2058   */\n      dup5\n        /* \"#utility.yul\":2008:2080   */\n      tag_86\n      jump\t// in\n    tag_99:\n        /* \"#utility.yul\":1664:2087   */\n      swap4\n      swap3\n      pop\n      pop\n      pop\n      jump\t// out\n        /* \"#utility.yul\":2093:2192   */\n    tag_79:\n        /* \"#utility.yul\":2145:2151   */\n      0x00\n        /* \"#utility.yul\":2179:2184   */\n      dup2\n        /* \"#utility.yul\":2173:2185   */\n      mload\n        /* \"#utility.yul\":2163:2185   */\n      swap1\n      pop\n        /* \"#utility.yul\":2093:2192   */\n      swap2\n      swap1\n      pop\n      jump\t// out\n        /* \"#utility.yul\":2198:2367   */\n    tag_81:\n        /* \"#utility.yul\":2282:2293   */\n      0x00\n        /* \"#utility.yul\":2316:2322   */\n      dup3\n        /* \"#utility.yul\":2311:2314   */\n      dup3\n        /* \"#utility.yul\":2304:2323   */\n      mstore\n        /* \"#utility.yul\":2356:2360   */\n      0x20\n        /* \"#utility.yul\":2351:2354   */\n      dup3\n        /* \"#utility.yul\":2347:2361   */\n      add\n        /* \"#utility.yul\":2332:2361   */\n      swap1\n      pop\n        /* \"#utility.yul\":2198:2367   */\n      swap3\n      swap2\n      pop\n      pop\n      jump\t// out\n        /* \"#utility.yul\":2373:2463   */\n    tag_75:\n        /* \"#utility.yul\":2407:2414   */\n      0x00\n        /* \"#utility.yul\":2450:2455   */\n      dup2\n        /* \"#utility.yul\":2443:2456   */\n      iszero\n        /* \"#utility.yul\":2436:2457   */\n      iszero\n        /* \"#utility.yul\":2425:2457   */\n      swap1\n      pop\n        /* \"#utility.yul\":2373:2463   */\n      swap2\n      swap1\n      pop\n      jump\t// out\n        /* \"#utility.yul\":2469:2546   */\n    tag_89:\n        /* \"#utility.yul\":2506:2513   */\n      0x00\n        /* \"#utility.yul\":2535:2540   */\n      dup2\n        /* \"#utility.yul\":2524:2540   */\n      swap1\n      pop\n        /* \"#utility.yul\":2469:2546   */\n      swap2\n      swap1\n      pop\n      jump\t// out\n        /* \"#utility.yul\":2552:2859   */\n    tag_83:\n        /* \"#utility.yul\":2620:2621   */\n      0x00\n        /* \"#utility.yul\":2630:2743   */\n    tag_105:\n        /* \"#utility.yul\":2644:2650   */\n      dup4\n        /* \"#utility.yul\":2641:2642   */\n      dup2\n        /* \"#utility.yul\":2638:2651   */\n      lt\n        /* \"#utility.yul\":2630:2743   */\n      iszero\n      tag_107\n      jumpi\n        /* \"#utility.yul\":2729:2730   */\n      dup1\n        /* \"#utility.yul\":2724:2727   */\n      dup3\n        /* \"#utility.yul\":2720:2731   */\n      add\n        /* \"#utility.yul\":2714:2732   */\n      mload\n        /* \"#utility.yul\":2710:2711   */\n      dup2\n        /* \"#utility.yul\":2705:2708   */\n      dup5\n        /* \"#utility.yul\":2701:2712   */\n      add\n        /* \"#utility.yul\":2694:2733   */\n      mstore\n        /* \"#utility.yul\":2666:2668   */\n      0x20\n        /* \"#utility.yul\":2663:2664   */\n      dup2\n        /* \"#utility.yul\":2659:2669   */\n      add\n        /* \"#utility.yul\":2654:2669   */\n      swap1\n      pop\n        /* \"#utility.yul\":2630:2743   */\n      jump(tag_105)\n    tag_107:\n        /* \"#utility.yul\":2761:2767   */\n      dup4\n        /* \"#utility.yul\":2758:2759   */\n      dup2\n        /* \"#utility.yul\":2755:2768   */\n      gt\n        /* \"#utility.yul\":2752:2853   */\n      iszero\n      tag_108\n      jumpi\n        /* \"#utility.yul\":2841:2842   */\n      0x00\n        /* \"#utility.yul\":2832:2838   */\n      dup5\n        /* \"#utility.yul\":2827:2830   */\n      dup5\n        /* \"#utility.yul\":2823:2839   */\n      add\n        /* \"#utility.yul\":2816:2843   */\n      mstore\n        /* \"#utility.yul\":2752:2853   */\n    tag_108:\n        /* \"#utility.yul\":2601:2859   */\n      pop\n        /* \"#utility.yul\":2552:2859   */\n      pop\n      pop\n      pop\n      jump\t// out\n        /* \"#utility.yul\":2865:3185   */\n    tag_27:\n        /* \"#utility.yul\":2909:2915   */\n      0x00\n        /* \"#utility.yul\":2946:2947   */\n      0x02\n        /* \"#utility.yul\":2940:2944   */\n      dup3\n        /* \"#utility.yul\":2936:2948   */\n      div\n        /* \"#utility.yul\":2926:2948   */\n      swap1\n      pop\n        /* \"#utility.yul\":2993:2994   */\n      0x01\n        /* \"#utility.yul\":2987:2991   */\n      dup3\n        /* \"#utility.yul\":2983:2995   */\n      and\n        /* \"#utility.yul\":3014:3032   */\n      dup1\n        /* \"#utility.yul\":3004:3085   */\n      tag_110\n      jumpi\n        /* \"#utility.yul\":3070:3074   */\n      0x7f\n        /* \"#utility.yul\":3062:3068   */\n      dup3\n        /* \"#utility.yul\":3058:3075   */\n      and\n        /* \"#utility.yul\":3048:3075   */\n      swap2\n      pop\n        /* \"#utility.yul\":3004:3085   */\n    tag_110:\n        /* \"#utility.yul\":3132:3134   */\n      0x20\n        /* \"#utility.yul\":3124:3130   */\n      dup3\n        /* \"#utility.yul\":3121:3135   */\n      lt\n        /* \"#utility.yul\":3101:3119   */\n      dup2\n        /* \"#utility.yul\":3098:3136   */\n      eq\n        /* \"#utility.yul\":3095:3179   */\n      iszero\n      tag_111\n      jumpi\n        /* \"#utility.yul\":3151:3169   */\n      tag_112\n      tag_113\n      jump\t// in\n    tag_112:\n        /* \"#utility.yul\":3095:3179   */\n    tag_111:\n        /* \"#utility.yul\":2916:3185   */\n      pop\n        /* \"#utility.yul\":2865:3185   */\n      swap2\n      swap1\n      pop\n      jump\t// out\n        /* \"#utility.yul\":3191:3371   */\n    tag_113:\n        /* \"#utility.yul\":3239:3316   */\n      0x4e487b7100000000000000000000000000000000000000000000000000000000\n        /* \"#utility.yul\":3236:3237   */\n      0x00\n        /* \"#utility.yul\":3229:3317   */\n      mstore\n        /* \"#utility.yul\":3336:3340   */\n      0x22\n        /* \"#utility.yul\":3333:3334   */\n      0x04\n        /* \"#utility.yul\":3326:3341   */\n      mstore\n        /* \"#utility.yul\":3360:3364   */\n      0x24\n        /* \"#utility.yul\":3357:3358   */\n      0x00\n        /* \"#utility.yul\":3350:3365   */\n      revert\n        /* \"#utility.yul\":3377:3479   */\n    tag_85:\n        /* \"#utility.yul\":3418:3424   */\n      0x00\n        /* \"#utility.yul\":3469:3471   */\n      0x1f\n        /* \"#utility.yul\":3465:3472   */\n      not\n        /* \"#utility.yul\":3460:3462   */\n      0x1f\n        /* \"#utility.yul\":3453:3458   */\n      dup4\n        /* \"#utility.yul\":3449:3463   */\n      add\n        /* \"#utility.yul\":3445:3473   */\n      and\n        /* \"#utility.yul\":3435:3473   */\n      swap1\n      pop\n        /* \"#utility.yul\":3377:3479   */\n      swap2\n      swap1\n      pop\n      jump\t// out\n\n    auxdata: 0xa264697066735822122036bf9beb6fba5514192ad5710d35b39a903178411afd4a20cdf187962c16380464736f6c63430008070033\n}\n",
				"bytecode": {
					"linkReferences": {},
					"object": "608060405260405180608001604052806040518060400160405280600681526020017f7469746c6532000000000000000000000000000000000000000000000000000081525081526020016040518060400160405280600781526020017f7269636172646f0000000000000000000000000000000000000000000000000081525081526020016002815260200160001515815250600460008201518160000190805190602001906100b192919061010d565b5060208201518160010190805190602001906100ce92919061010d565b506040820151816002015560608201518160030160006101000a81548160ff021916908315150217905550505034801561010757600080fd5b50610211565b828054610119906101b0565b90600052602060002090601f01602090048101928261013b5760008555610182565b82601f1061015457805160ff1916838001178555610182565b82800160010185558215610182579182015b82811115610181578251825591602001919060010190610166565b5b50905061018f9190610193565b5090565b5b808211156101ac576000816000905550600101610194565b5090565b600060028204905060018216806101c857607f821691505b602082108114156101dc576101db6101e2565b5b50919050565b7f4e487b7100000000000000000000000000000000000000000000000000000000600052602260045260246000fd5b61078e806102206000396000f3fe608060405234801561001057600080fd5b50600436106100575760003560e01c8063a0c3595a1461005c578063b15195ed1461007b578063e815fe1d14610085578063fb6a8fcc146100a6578063ff3c1a8f146100c7575b600080fd5b6100646100e5565b604051610072929190610651565b60405180910390f35b610083610188565b005b61008d6101d8565b60405161009d94939291906105fe565b60405180910390f35b6100ae610313565b6040516100be94939291906105fe565b60405180910390f35b6100cf61044e565b6040516100dc91906105dc565b60405180910390f35b606060006004600001600460020154818054610100906106e6565b80601f016020809104026020016040519081016040528092919081815260200182805461012c906106e6565b80156101795780601f1061014e57610100808354040283529160200191610179565b820191906000526020600020905b81548152906001019060200180831161015c57829003601f168201915b50505050509150915091509091565b6040518060400160405280600581526020017f7469746c650000000000000000000000000000000000000000000000000000008152506000800190805190602001906101d59291906104e2565b50565b60048060000180546101e9906106e6565b80601f0160208091040260200160405190810160405280929190818152602001828054610215906106e6565b80156102625780601f1061023757610100808354040283529160200191610262565b820191906000526020600020905b81548152906001019060200180831161024557829003601f168201915b505050505090806001018054610277906106e6565b80601f01602080910402602001604051908101604052809291908181526020018280546102a3906106e6565b80156102f05780601f106102c5576101008083540402835291602001916102f0565b820191906000526020600020905b8154815290600101906020018083116102d357829003601f168201915b5050505050908060020154908060030160009054906101000a900460ff16905084565b6000806000018054610324906106e6565b80601f0160208091040260200160405190810160405280929190818152602001828054610350906106e6565b801561039d5780601f106103725761010080835404028352916020019161039d565b820191906000526020600020905b81548152906001019060200180831161038057829003601f168201915b5050505050908060010180546103b2906106e6565b80601f01602080910402602001604051908101604052809291908181526020018280546103de906106e6565b801561042b5780601f106104005761010080835404028352916020019161042b565b820191906000526020600020905b81548152906001019060200180831161040e57829003601f168201915b5050505050908060020154908060030160009054906101000a900460ff16905084565b606060008001805461045f906106e6565b80601f016020809104026020016040519081016040528092919081815260200182805461048b906106e6565b80156104d85780601f106104ad576101008083540402835291602001916104d8565b820191906000526020600020905b8154815290600101906020018083116104bb57829003601f168201915b5050505050905090565b8280546104ee906106e6565b90600052602060002090601f0160209004810192826105105760008555610557565b82601f1061052957805160ff1916838001178555610557565b82800160010185558215610557579182015b8281111561055657825182559160200191906001019061053b565b5b5090506105649190610568565b5090565b5b80821115610581576000816000905550600101610569565b5090565b61058e8161069d565b82525050565b600061059f82610681565b6105a9818561068c565b93506105b98185602086016106b3565b6105c281610747565b840191505092915050565b6105d6816106a9565b82525050565b600060208201905081810360008301526105f68184610594565b905092915050565b600060808201905081810360008301526106188187610594565b9050818103602083015261062c8186610594565b905061063b60408301856105cd565b6106486060830184610585565b95945050505050565b6000604082019050818103600083015261066b8185610594565b905061067a60208301846105cd565b9392505050565b600081519050919050565b600082825260208201905092915050565b60008115159050919050565b6000819050919050565b60005b838110156106d15780820151818401526020810190506106b6565b838111156106e0576000848401525b50505050565b600060028204905060018216806106fe57607f821691505b6020821081141561071257610711610718565b5b50919050565b7f4e487b7100000000000000000000000000000000000000000000000000000000600052602260045260246000fd5b6000601f19601f830116905091905056fea264697066735822122036bf9beb6fba5514192ad5710d35b39a903178411afd4a20cdf187962c16380464736f6c63430008070033",
					"opcodes": "PUSH1 0x80 PUSH1 0x40 MSTORE PUSH1 0x40 MLOAD DUP1 PUSH1 0x80 ADD PUSH1 0x40 MSTORE DUP1 PUSH1 0x40 MLOAD DUP1 PUSH1 0x40 ADD PUSH1 0x40 MSTORE DUP1 PUSH1 0x6 DUP2 MSTORE PUSH1 0x20 ADD PUSH32 0x7469746C65320000000000000000000000000000000000000000000000000000 DUP2 MSTORE POP DUP2 MSTORE PUSH1 0x20 ADD PUSH1 0x40 MLOAD DUP1 PUSH1 0x40 ADD PUSH1 0x40 MSTORE DUP1 PUSH1 0x7 DUP2 MSTORE PUSH1 0x20 ADD PUSH32 0x7269636172646F00000000000000000000000000000000000000000000000000 DUP2 MSTORE POP DUP2 MSTORE PUSH1 0x20 ADD PUSH1 0x2 DUP2 MSTORE PUSH1 0x20 ADD PUSH1 0x0 ISZERO ISZERO DUP2 MSTORE POP PUSH1 0x4 PUSH1 0x0 DUP3 ADD MLOAD DUP2 PUSH1 0x0 ADD SWAP1 DUP1 MLOAD SWAP1 PUSH1 0x20 ADD SWAP1 PUSH2 0xB1 SWAP3 SWAP2 SWAP1 PUSH2 0x10D JUMP JUMPDEST POP PUSH1 0x20 DUP3 ADD MLOAD DUP2 PUSH1 0x1 ADD SWAP1 DUP1 MLOAD SWAP1 PUSH1 0x20 ADD SWAP1 PUSH2 0xCE SWAP3 SWAP2 SWAP1 PUSH2 0x10D JUMP JUMPDEST POP PUSH1 0x40 DUP3 ADD MLOAD DUP2 PUSH1 0x2 ADD SSTORE PUSH1 0x60 DUP3 ADD MLOAD DUP2 PUSH1 0x3 ADD PUSH1 0x0 PUSH2 0x100 EXP DUP2 SLOAD DUP2 PUSH1 0xFF MUL NOT AND SWAP1 DUP4 ISZERO ISZERO MUL OR SWAP1 SSTORE POP POP POP CALLVALUE DUP1 ISZERO PUSH2 0x107 JUMPI PUSH1 0x0 DUP1 REVERT JUMPDEST POP PUSH2 0x211 JUMP JUMPDEST DUP3 DUP1 SLOAD PUSH2 0x119 SWAP1 PUSH2 0x1B0 JUMP JUMPDEST SWAP1 PUSH1 0x0 MSTORE PUSH1 0x20 PUSH1 0x0 KECCAK256 SWAP1 PUSH1 0x1F ADD PUSH1 0x20 SWAP1 DIV DUP2 ADD SWAP3 DUP3 PUSH2 0x13B JUMPI PUSH1 0x0 DUP6 SSTORE PUSH2 0x182 JUMP JUMPDEST DUP3 PUSH1 0x1F LT PUSH2 0x154 JUMPI DUP1 MLOAD PUSH1 0xFF NOT AND DUP4 DUP1 ADD OR DUP6 SSTORE PUSH2 0x182 JUMP JUMPDEST DUP3 DUP1 ADD PUSH1 0x1 ADD DUP6 SSTORE DUP3 ISZERO PUSH2 0x182 JUMPI SWAP2 DUP3 ADD JUMPDEST DUP3 DUP2 GT ISZERO PUSH2 0x181 JUMPI DUP3 MLOAD DUP3 SSTORE SWAP2 PUSH1 0x20 ADD SWAP2 SWAP1 PUSH1 0x1 ADD SWAP1 PUSH2 0x166 JUMP JUMPDEST JUMPDEST POP SWAP1 POP PUSH2 0x18F SWAP2 SWAP1 PUSH2 0x193 JUMP JUMPDEST POP SWAP1 JUMP JUMPDEST JUMPDEST DUP1 DUP3 GT ISZERO PUSH2 0x1AC JUMPI PUSH1 0x0 DUP2 PUSH1 0x0 SWAP1 SSTORE POP PUSH1 0x1 ADD PUSH2 0x194 JUMP JUMPDEST POP SWAP1 JUMP JUMPDEST PUSH1 0x0 PUSH1 0x2 DUP3 DIV SWAP1 POP PUSH1 0x1 DUP3 AND DUP1 PUSH2 0x1C8 JUMPI PUSH1 0x7F DUP3 AND SWAP2 POP JUMPDEST PUSH1 0x20 DUP3 LT DUP2 EQ ISZERO PUSH2 0x1DC JUMPI PUSH2 0x1DB PUSH2 0x1E2 JUMP JUMPDEST JUMPDEST POP SWAP2 SWAP1 POP JUMP JUMPDEST PUSH32 0x4E487B7100000000000000000000000000000000000000000000000000000000 PUSH1 0x0 MSTORE PUSH1 0x22 PUSH1 0x4 MSTORE PUSH1 0x24 PUSH1 0x0 REVERT JUMPDEST PUSH2 0x78E DUP1 PUSH2 0x220 PUSH1 0x0 CODECOPY PUSH1 0x0 RETURN INVALID PUSH1 0x80 PUSH1 0x40 MSTORE CALLVALUE DUP1 ISZERO PUSH2 0x10 JUMPI PUSH1 0x0 DUP1 REVERT JUMPDEST POP PUSH1 0x4 CALLDATASIZE LT PUSH2 0x57 JUMPI PUSH1 0x0 CALLDATALOAD PUSH1 0xE0 SHR DUP1 PUSH4 0xA0C3595A EQ PUSH2 0x5C JUMPI DUP1 PUSH4 0xB15195ED EQ PUSH2 0x7B JUMPI DUP1 PUSH4 0xE815FE1D EQ PUSH2 0x85 JUMPI DUP1 PUSH4 0xFB6A8FCC EQ PUSH2 0xA6 JUMPI DUP1 PUSH4 0xFF3C1A8F EQ PUSH2 0xC7 JUMPI JUMPDEST PUSH1 0x0 DUP1 REVERT JUMPDEST PUSH2 0x64 PUSH2 0xE5 JUMP JUMPDEST PUSH1 0x40 MLOAD PUSH2 0x72 SWAP3 SWAP2 SWAP1 PUSH2 0x651 JUMP JUMPDEST PUSH1 0x40 MLOAD DUP1 SWAP2 SUB SWAP1 RETURN JUMPDEST PUSH2 0x83 PUSH2 0x188 JUMP JUMPDEST STOP JUMPDEST PUSH2 0x8D PUSH2 0x1D8 JUMP JUMPDEST PUSH1 0x40 MLOAD PUSH2 0x9D SWAP5 SWAP4 SWAP3 SWAP2 SWAP1 PUSH2 0x5FE JUMP JUMPDEST PUSH1 0x40 MLOAD DUP1 SWAP2 SUB SWAP1 RETURN JUMPDEST PUSH2 0xAE PUSH2 0x313 JUMP JUMPDEST PUSH1 0x40 MLOAD PUSH2 0xBE SWAP5 SWAP4 SWAP3 SWAP2 SWAP1 PUSH2 0x5FE JUMP JUMPDEST PUSH1 0x40 MLOAD DUP1 SWAP2 SUB SWAP1 RETURN JUMPDEST PUSH2 0xCF PUSH2 0x44E JUMP JUMPDEST PUSH1 0x40 MLOAD PUSH2 0xDC SWAP2 SWAP1 PUSH2 0x5DC JUMP JUMPDEST PUSH1 0x40 MLOAD DUP1 SWAP2 SUB SWAP1 RETURN JUMPDEST PUSH1 0x60 PUSH1 0x0 PUSH1 0x4 PUSH1 0x0 ADD PUSH1 0x4 PUSH1 0x2 ADD SLOAD DUP2 DUP1 SLOAD PUSH2 0x100 SWAP1 PUSH2 0x6E6 JUMP JUMPDEST DUP1 PUSH1 0x1F ADD PUSH1 0x20 DUP1 SWAP2 DIV MUL PUSH1 0x20 ADD PUSH1 0x40 MLOAD SWAP1 DUP2 ADD PUSH1 0x40 MSTORE DUP1 SWAP3 SWAP2 SWAP1 DUP2 DUP2 MSTORE PUSH1 0x20 ADD DUP3 DUP1 SLOAD PUSH2 0x12C SWAP1 PUSH2 0x6E6 JUMP JUMPDEST DUP1 ISZERO PUSH2 0x179 JUMPI DUP1 PUSH1 0x1F LT PUSH2 0x14E JUMPI PUSH2 0x100 DUP1 DUP4 SLOAD DIV MUL DUP4 MSTORE SWAP2 PUSH1 0x20 ADD SWAP2 PUSH2 0x179 JUMP JUMPDEST DUP3 ADD SWAP2 SWAP1 PUSH1 0x0 MSTORE PUSH1 0x20 PUSH1 0x0 KECCAK256 SWAP1 JUMPDEST DUP2 SLOAD DUP2 MSTORE SWAP1 PUSH1 0x1 ADD SWAP1 PUSH1 0x20 ADD DUP1 DUP4 GT PUSH2 0x15C JUMPI DUP3 SWAP1 SUB PUSH1 0x1F AND DUP3 ADD SWAP2 JUMPDEST POP POP POP POP POP SWAP2 POP SWAP2 POP SWAP2 POP SWAP1 SWAP2 JUMP JUMPDEST PUSH1 0x40 MLOAD DUP1 PUSH1 0x40 ADD PUSH1 0x40 MSTORE DUP1 PUSH1 0x5 DUP2 MSTORE PUSH1 0x20 ADD PUSH32 0x7469746C65000000000000000000000000000000000000000000000000000000 DUP2 MSTORE POP PUSH1 0x0 DUP1 ADD SWAP1 DUP1 MLOAD SWAP1 PUSH1 0x20 ADD SWAP1 PUSH2 0x1D5 SWAP3 SWAP2 SWAP1 PUSH2 0x4E2 JUMP JUMPDEST POP JUMP JUMPDEST PUSH1 0x4 DUP1 PUSH1 0x0 ADD DUP1 SLOAD PUSH2 0x1E9 SWAP1 PUSH2 0x6E6 JUMP JUMPDEST DUP1 PUSH1 0x1F ADD PUSH1 0x20 DUP1 SWAP2 DIV MUL PUSH1 0x20 ADD PUSH1 0x40 MLOAD SWAP1 DUP2 ADD PUSH1 0x40 MSTORE DUP1 SWAP3 SWAP2 SWAP1 DUP2 DUP2 MSTORE PUSH1 0x20 ADD DUP3 DUP1 SLOAD PUSH2 0x215 SWAP1 PUSH2 0x6E6 JUMP JUMPDEST DUP1 ISZERO PUSH2 0x262 JUMPI DUP1 PUSH1 0x1F LT PUSH2 0x237 JUMPI PUSH2 0x100 DUP1 DUP4 SLOAD DIV MUL DUP4 MSTORE SWAP2 PUSH1 0x20 ADD SWAP2 PUSH2 0x262 JUMP JUMPDEST DUP3 ADD SWAP2 SWAP1 PUSH1 0x0 MSTORE PUSH1 0x20 PUSH1 0x0 KECCAK256 SWAP1 JUMPDEST DUP2 SLOAD DUP2 MSTORE SWAP1 PUSH1 0x1 ADD SWAP1 PUSH1 0x20 ADD DUP1 DUP4 GT PUSH2 0x245 JUMPI DUP3 SWAP1 SUB PUSH1 0x1F AND DUP3 ADD SWAP2 JUMPDEST POP POP POP POP POP SWAP1 DUP1 PUSH1 0x1 ADD DUP1 SLOAD PUSH2 0x277 SWAP1 PUSH2 0x6E6 JUMP JUMPDEST DUP1 PUSH1 0x1F ADD PUSH1 0x20 DUP1 SWAP2 DIV MUL PUSH1 0x20 ADD PUSH1 0x40 MLOAD SWAP1 DUP2 ADD PUSH1 0x40 MSTORE DUP1 SWAP3 SWAP2 SWAP1 DUP2 DUP2 MSTORE PUSH1 0x20 ADD DUP3 DUP1 SLOAD PUSH2 0x2A3 SWAP1 PUSH2 0x6E6 JUMP JUMPDEST DUP1 ISZERO PUSH2 0x2F0 JUMPI DUP1 PUSH1 0x1F LT PUSH2 0x2C5 JUMPI PUSH2 0x100 DUP1 DUP4 SLOAD DIV MUL DUP4 MSTORE SWAP2 PUSH1 0x20 ADD SWAP2 PUSH2 0x2F0 JUMP JUMPDEST DUP3 ADD SWAP2 SWAP1 PUSH1 0x0 MSTORE PUSH1 0x20 PUSH1 0x0 KECCAK256 SWAP1 JUMPDEST DUP2 SLOAD DUP2 MSTORE SWAP1 PUSH1 0x1 ADD SWAP1 PUSH1 0x20 ADD DUP1 DUP4 GT PUSH2 0x2D3 JUMPI DUP3 SWAP1 SUB PUSH1 0x1F AND DUP3 ADD SWAP2 JUMPDEST POP POP POP POP POP SWAP1 DUP1 PUSH1 0x2 ADD SLOAD SWAP1 DUP1 PUSH1 0x3 ADD PUSH1 0x0 SWAP1 SLOAD SWAP1 PUSH2 0x100 EXP SWAP1 DIV PUSH1 0xFF AND SWAP1 POP DUP5 JUMP JUMPDEST PUSH1 0x0 DUP1 PUSH1 0x0 ADD DUP1 SLOAD PUSH2 0x324 SWAP1 PUSH2 0x6E6 JUMP JUMPDEST DUP1 PUSH1 0x1F ADD PUSH1 0x20 DUP1 SWAP2 DIV MUL PUSH1 0x20 ADD PUSH1 0x40 MLOAD SWAP1 DUP2 ADD PUSH1 0x40 MSTORE DUP1 SWAP3 SWAP2 SWAP1 DUP2 DUP2 MSTORE PUSH1 0x20 ADD DUP3 DUP1 SLOAD PUSH2 0x350 SWAP1 PUSH2 0x6E6 JUMP JUMPDEST DUP1 ISZERO PUSH2 0x39D JUMPI DUP1 PUSH1 0x1F LT PUSH2 0x372 JUMPI PUSH2 0x100 DUP1 DUP4 SLOAD DIV MUL DUP4 MSTORE SWAP2 PUSH1 0x20 ADD SWAP2 PUSH2 0x39D JUMP JUMPDEST DUP3 ADD SWAP2 SWAP1 PUSH1 0x0 MSTORE PUSH1 0x20 PUSH1 0x0 KECCAK256 SWAP1 JUMPDEST DUP2 SLOAD DUP2 MSTORE SWAP1 PUSH1 0x1 ADD SWAP1 PUSH1 0x20 ADD DUP1 DUP4 GT PUSH2 0x380 JUMPI DUP3 SWAP1 SUB PUSH1 0x1F AND DUP3 ADD SWAP2 JUMPDEST POP POP POP POP POP SWAP1 DUP1 PUSH1 0x1 ADD DUP1 SLOAD PUSH2 0x3B2 SWAP1 PUSH2 0x6E6 JUMP JUMPDEST DUP1 PUSH1 0x1F ADD PUSH1 0x20 DUP1 SWAP2 DIV MUL PUSH1 0x20 ADD PUSH1 0x40 MLOAD SWAP1 DUP2 ADD PUSH1 0x40 MSTORE DUP1 SWAP3 SWAP2 SWAP1 DUP2 DUP2 MSTORE PUSH1 0x20 ADD DUP3 DUP1 SLOAD PUSH2 0x3DE SWAP1 PUSH2 0x6E6 JUMP JUMPDEST DUP1 ISZERO PUSH2 0x42B JUMPI DUP1 PUSH1 0x1F LT PUSH2 0x400 JUMPI PUSH2 0x100 DUP1 DUP4 SLOAD DIV MUL DUP4 MSTORE SWAP2 PUSH1 0x20 ADD SWAP2 PUSH2 0x42B JUMP JUMPDEST DUP3 ADD SWAP2 SWAP1 PUSH1 0x0 MSTORE PUSH1 0x20 PUSH1 0x0 KECCAK256 SWAP1 JUMPDEST DUP2 SLOAD DUP2 MSTORE SWAP1 PUSH1 0x1 ADD SWAP1 PUSH1 0x20 ADD DUP1 DUP4 GT PUSH2 0x40E JUMPI DUP3 SWAP1 SUB PUSH1 0x1F AND DUP3 ADD SWAP2 JUMPDEST POP POP POP POP POP SWAP1 DUP1 PUSH1 0x2 ADD SLOAD SWAP1 DUP1 PUSH1 0x3 ADD PUSH1 0x0 SWAP1 SLOAD SWAP1 PUSH2 0x100 EXP SWAP1 DIV PUSH1 0xFF AND SWAP1 POP DUP5 JUMP JUMPDEST PUSH1 0x60 PUSH1 0x0 DUP1 ADD DUP1 SLOAD PUSH2 0x45F SWAP1 PUSH2 0x6E6 JUMP JUMPDEST DUP1 PUSH1 0x1F ADD PUSH1 0x20 DUP1 SWAP2 DIV MUL PUSH1 0x20 ADD PUSH1 0x40 MLOAD SWAP1 DUP2 ADD PUSH1 0x40 MSTORE DUP1 SWAP3 SWAP2 SWAP1 DUP2 DUP2 MSTORE PUSH1 0x20 ADD DUP3 DUP1 SLOAD PUSH2 0x48B SWAP1 PUSH2 0x6E6 JUMP JUMPDEST DUP1 ISZERO PUSH2 0x4D8 JUMPI DUP1 PUSH1 0x1F LT PUSH2 0x4AD JUMPI PUSH2 0x100 DUP1 DUP4 SLOAD DIV MUL DUP4 MSTORE SWAP2 PUSH1 0x20 ADD SWAP2 PUSH2 0x4D8 JUMP JUMPDEST DUP3 ADD SWAP2 SWAP1 PUSH1 0x0 MSTORE PUSH1 0x20 PUSH1 0x0 KECCAK256 SWAP1 JUMPDEST DUP2 SLOAD DUP2 MSTORE SWAP1 PUSH1 0x1 ADD SWAP1 PUSH1 0x20 ADD DUP1 DUP4 GT PUSH2 0x4BB JUMPI DUP3 SWAP1 SUB PUSH1 0x1F AND DUP3 ADD SWAP2 JUMPDEST POP POP POP POP POP SWAP1 POP SWAP1 JUMP JUMPDEST DUP3 DUP1 SLOAD PUSH2 0x4EE SWAP1 PUSH2 0x6E6 JUMP JUMPDEST SWAP1 PUSH1 0x0 MSTORE PUSH1 0x20 PUSH1 0x0 KECCAK256 SWAP1 PUSH1 0x1F ADD PUSH1 0x20 SWAP1 DIV DUP2 ADD SWAP3 DUP3 PUSH2 0x510 JUMPI PUSH1 0x0 DUP6 SSTORE PUSH2 0x557 JUMP JUMPDEST DUP3 PUSH1 0x1F LT PUSH2 0x529 JUMPI DUP1 MLOAD PUSH1 0xFF NOT AND DUP4 DUP1 ADD OR DUP6 SSTORE PUSH2 0x557 JUMP JUMPDEST DUP3 DUP1 ADD PUSH1 0x1 ADD DUP6 SSTORE DUP3 ISZERO PUSH2 0x557 JUMPI SWAP2 DUP3 ADD JUMPDEST DUP3 DUP2 GT ISZERO PUSH2 0x556 JUMPI DUP3 MLOAD DUP3 SSTORE SWAP2 PUSH1 0x20 ADD SWAP2 SWAP1 PUSH1 0x1 ADD SWAP1 PUSH2 0x53B JUMP JUMPDEST JUMPDEST POP SWAP1 POP PUSH2 0x564 SWAP2 SWAP1 PUSH2 0x568 JUMP JUMPDEST POP SWAP1 JUMP JUMPDEST JUMPDEST DUP1 DUP3 GT ISZERO PUSH2 0x581 JUMPI PUSH1 0x0 DUP2 PUSH1 0x0 SWAP1 SSTORE POP PUSH1 0x1 ADD PUSH2 0x569 JUMP JUMPDEST POP SWAP1 JUMP JUMPDEST PUSH2 0x58E DUP2 PUSH2 0x69D JUMP JUMPDEST DUP3 MSTORE POP POP JUMP JUMPDEST PUSH1 0x0 PUSH2 0x59F DUP3 PUSH2 0x681 JUMP JUMPDEST PUSH2 0x5A9 DUP2 DUP6 PUSH2 0x68C JUMP JUMPDEST SWAP4 POP PUSH2 0x5B9 DUP2 DUP6 PUSH1 0x20 DUP7 ADD PUSH2 0x6B3 JUMP JUMPDEST PUSH2 0x5C2 DUP2 PUSH2 0x747 JUMP JUMPDEST DUP5 ADD SWAP2 POP POP SWAP3 SWAP2 POP POP JUMP JUMPDEST PUSH2 0x5D6 DUP2 PUSH2 0x6A9 JUMP JUMPDEST DUP3 MSTORE POP POP JUMP JUMPDEST PUSH1 0x0 PUSH1 0x20 DUP3 ADD SWAP1 POP DUP2 DUP2 SUB PUSH1 0x0 DUP4 ADD MSTORE PUSH2 0x5F6 DUP2 DUP5 PUSH2 0x594 JUMP JUMPDEST SWAP1 POP SWAP3 SWAP2 POP POP JUMP JUMPDEST PUSH1 0x0 PUSH1 0x80 DUP3 ADD SWAP1 POP DUP2 DUP2 SUB PUSH1 0x0 DUP4 ADD MSTORE PUSH2 0x618 DUP2 DUP8 PUSH2 0x594 JUMP JUMPDEST SWAP1 POP DUP2 DUP2 SUB PUSH1 0x20 DUP4 ADD MSTORE PUSH2 0x62C DUP2 DUP7 PUSH2 0x594 JUMP JUMPDEST SWAP1 POP PUSH2 0x63B PUSH1 0x40 DUP4 ADD DUP6 PUSH2 0x5CD JUMP JUMPDEST PUSH2 0x648 PUSH1 0x60 DUP4 ADD DUP5 PUSH2 0x585 JUMP JUMPDEST SWAP6 SWAP5 POP POP POP POP POP JUMP JUMPDEST PUSH1 0x0 PUSH1 0x40 DUP3 ADD SWAP1 POP DUP2 DUP2 SUB PUSH1 0x0 DUP4 ADD MSTORE PUSH2 0x66B DUP2 DUP6 PUSH2 0x594 JUMP JUMPDEST SWAP1 POP PUSH2 0x67A PUSH1 0x20 DUP4 ADD DUP5 PUSH2 0x5CD JUMP JUMPDEST SWAP4 SWAP3 POP POP POP JUMP JUMPDEST PUSH1 0x0 DUP2 MLOAD SWAP1 POP SWAP2 SWAP1 POP JUMP JUMPDEST PUSH1 0x0 DUP3 DUP3 MSTORE PUSH1 0x20 DUP3 ADD SWAP1 POP SWAP3 SWAP2 POP POP JUMP JUMPDEST PUSH1 0x0 DUP2 ISZERO ISZERO SWAP1 POP SWAP2 SWAP1 POP JUMP JUMPDEST PUSH1 0x0 DUP2 SWAP1 POP SWAP2 SWAP1 POP JUMP JUMPDEST PUSH1 0x0 JUMPDEST DUP4 DUP2 LT ISZERO PUSH2 0x6D1 JUMPI DUP1 DUP3 ADD MLOAD DUP2 DUP5 ADD MSTORE PUSH1 0x20 DUP2 ADD SWAP1 POP PUSH2 0x6B6 JUMP JUMPDEST DUP4 DUP2 GT ISZERO PUSH2 0x6E0 JUMPI PUSH1 0x0 DUP5 DUP5 ADD MSTORE JUMPDEST POP POP POP POP JUMP JUMPDEST PUSH1 0x0 PUSH1 0x2 DUP3 DIV SWAP1 POP PUSH1 0x1 DUP3 AND DUP1 PUSH2 0x6FE JUMPI PUSH1 0x7F DUP3 AND SWAP2 POP JUMPDEST PUSH1 0x20 DUP3 LT DUP2 EQ ISZERO PUSH2 0x712 JUMPI PUSH2 0x711 PUSH2 0x718 JUMP JUMPDEST JUMPDEST POP SWAP2 SWAP1 POP JUMP JUMPDEST PUSH32 0x4E487B7100000000000000000000000000000000000000000000000000000000 PUSH1 0x0 MSTORE PUSH1 0x22 PUSH1 0x4 MSTORE PUSH1 0x24 PUSH1 0x0 REVERT JUMPDEST PUSH1 0x0 PUSH1 0x1F NOT PUSH1 0x1F DUP4 ADD AND SWAP1 POP SWAP2 SWAP1 POP JUMP INVALID LOG2 PUSH5 0x6970667358 0x22 SLT KECCAK256 CALLDATASIZE 0xBF SWAP12 0xEB PUSH16 0xBA5514192AD5710D35B39A903178411A REVERT 0x4A KECCAK256 0xCD CALL DUP8 SWAP7 0x2C AND CODESIZE DIV PUSH5 0x736F6C6343 STOP ADDMOD SMOD STOP CALLER "
				},
				"gasEstimates": {
					"creation": {
						"codeDepositCost": "386800",
						"executionCost": "infinite",
						"totalCost": "infinite"
					},
					"external": {
						"book1()": "infinite",
						"book2()": "infinite",
						"getTitle()": "infinite",
						"getTitleAndIdBook2()": "infinite",
						"setTitle()": "infinite"
					}
				},
				"methodIdentifiers": {
					"book1()": "fb6a8fcc",
					"book2()": "e815fe1d",
					"getTitle()": "ff3c1a8f",
					"getTitleAndIdBook2()": "a0c3595a",
					"setTitle()": "b15195ed"
				}
			},
			"storageLayout": {
				"storage": [
					{
						"astId": 13,
						"contract": "contracts/Ejercicios/StructTest.sol:StructTest",
						"label": "book1",
						"offset": 0,
						"slot": "0",
						"type": "t_struct(Book)10_storage"
					},
					{
						"astId": 22,
						"contract": "contracts/Ejercicios/StructTest.sol:StructTest",
						"label": "book2",
						"offset": 0,
						"slot": "4",
						"type": "t_struct(Book)10_storage"
					}
				],
				"types": {
					"t_bool": {
						"encoding": "inplace",
						"label": "bool",
						"numberOfBytes": "1"
					},
					"t_string_storage": {
						"encoding": "bytes",
						"label": "string",
						"numberOfBytes": "32"
					},
					"t_struct(Book)10_storage": {
						"encoding": "inplace",
						"label": "struct StructTest.Book",
						"members": [
							{
								"astId": 3,
								"contract": "contracts/Ejercicios/StructTest.sol:StructTest",
								"label": "title",
								"offset": 0,
								"slot": "0",
								"type": "t_string_storage"
							},
							{
								"astId": 5,
								"contract": "contracts/Ejercicios/StructTest.sol:StructTest",
								"label": "author",
								"offset": 0,
								"slot": "1",
								"type": "t_string_storage"
							},
							{
								"astId": 7,
								"contract": "contracts/Ejercicios/StructTest.sol:StructTest",
								"label": "id",
								"offset": 0,
								"slot": "2",
								"type": "t_uint256"
							},
							{
								"astId": 9,
								"contract": "contracts/Ejercicios/StructTest.sol:StructTest",
								"label": "available",
								"offset": 0,
								"slot": "3",
								"type": "t_bool"
							}
						],
						"numberOfBytes": "128"
					},
					"t_uint256": {
						"encoding": "inplace",
						"label": "uint256",
						"numberOfBytes": "32"
					}
				}
			},
			"userdoc": {
				"kind": "user",
				"methods": {},
				"version": 1
			}
		}
	}
}