{
	"contracts/Ejercicios/StructTest.sol": {
		"StructTest": {
			"abi": [
				{
					"inputs": [
						{
							"components": [
								{
									"internalType": "string",
									"name": "title",
									"type": "string"
								},
								{
									"internalType": "string",
									"name": "author",
									"type": "string"
								},
								{
									"internalType": "uint256",
									"name": "id",
									"type": "uint256"
								},
								{
									"internalType": "bool",
									"name": "available",
									"type": "bool"
								},
								{
									"internalType": "uint256",
									"name": "quantity",
									"type": "uint256"
								}
							],
							"internalType": "struct StructTest.Book",
							"name": "newBook",
							"type": "tuple"
						}
					],
					"name": "addBook",
					"outputs": [],
					"stateMutability": "nonpayable",
					"type": "function"
				},
				{
					"inputs": [],
					"name": "book1",
					"outputs": [
						{
							"internalType": "string",
							"name": "title",
							"type": "string"
						},
						{
							"internalType": "string",
							"name": "author",
							"type": "string"
						},
						{
							"internalType": "uint256",
							"name": "id",
							"type": "uint256"
						},
						{
							"internalType": "bool",
							"name": "available",
							"type": "bool"
						},
						{
							"internalType": "uint256",
							"name": "quantity",
							"type": "uint256"
						}
					],
					"stateMutability": "view",
					"type": "function"
				},
				{
					"inputs": [],
					"name": "book2",
					"outputs": [
						{
							"internalType": "string",
							"name": "title",
							"type": "string"
						},
						{
							"internalType": "string",
							"name": "author",
							"type": "string"
						},
						{
							"internalType": "uint256",
							"name": "id",
							"type": "uint256"
						},
						{
							"internalType": "bool",
							"name": "available",
							"type": "bool"
						},
						{
							"internalType": "uint256",
							"name": "quantity",
							"type": "uint256"
						}
					],
					"stateMutability": "view",
					"type": "function"
				},
				{
					"inputs": [
						{
							"internalType": "uint256",
							"name": "idBook",
							"type": "uint256"
						}
					],
					"name": "borrowBook",
					"outputs": [],
					"stateMutability": "nonpayable",
					"type": "function"
				},
				{
					"inputs": [
						{
							"internalType": "uint256",
							"name": "idBook",
							"type": "uint256"
						}
					],
					"name": "getBook",
					"outputs": [
						{
							"internalType": "bool",
							"name": "",
							"type": "bool"
						}
					],
					"stateMutability": "view",
					"type": "function"
				},
				{
					"inputs": [],
					"name": "getTitle",
					"outputs": [
						{
							"internalType": "string",
							"name": "",
							"type": "string"
						}
					],
					"stateMutability": "view",
					"type": "function"
				},
				{
					"inputs": [],
					"name": "getTitleAndIdBook2",
					"outputs": [
						{
							"internalType": "string",
							"name": "",
							"type": "string"
						},
						{
							"internalType": "uint256",
							"name": "",
							"type": "uint256"
						}
					],
					"stateMutability": "view",
					"type": "function"
				},
				{
					"inputs": [],
					"name": "setTitle",
					"outputs": [],
					"stateMutability": "nonpayable",
					"type": "function"
				}
			],
			"devdoc": {
				"kind": "dev",
				"methods": {},
				"version": 1
			},
			"evm": {
				"assembly": "    /* \"contracts/Ejercicios/StructTest.sol\":64:984  contract StructTest {\r... */\n  mstore(0x40, 0x80)\n    /* \"contracts/Ejercicios/StructTest.sol\":277:316  Book(\"title2\", \"ricardo\", 2, false, 10) */\n  mload(0x40)\n  dup1\n  0xa0\n  add\n  0x40\n  mstore\n  dup1\n  mload(0x40)\n  dup1\n  0x40\n  add\n  0x40\n  mstore\n  dup1\n  0x06\n  dup2\n  mstore\n  0x20\n  add\n  0x7469746c65320000000000000000000000000000000000000000000000000000\n  dup2\n  mstore\n  pop\n  dup2\n  mstore\n  0x20\n  add\n  mload(0x40)\n  dup1\n  0x40\n  add\n  0x40\n  mstore\n  dup1\n  0x07\n  dup2\n  mstore\n  0x20\n  add\n  0x7269636172646f00000000000000000000000000000000000000000000000000\n  dup2\n  mstore\n  pop\n  dup2\n  mstore\n  0x20\n  add\n    /* \"contracts/Ejercicios/StructTest.sol\":303:304  2 */\n  0x02\n    /* \"contracts/Ejercicios/StructTest.sol\":277:316  Book(\"title2\", \"ricardo\", 2, false, 10) */\n  dup2\n  mstore\n  0x20\n  add\n    /* \"contracts/Ejercicios/StructTest.sol\":306:311  false */\n  0x00\n    /* \"contracts/Ejercicios/StructTest.sol\":277:316  Book(\"title2\", \"ricardo\", 2, false, 10) */\n  iszero\n  iszero\n  dup2\n  mstore\n  0x20\n  add\n    /* \"contracts/Ejercicios/StructTest.sol\":313:315  10 */\n  0x0a\n    /* \"contracts/Ejercicios/StructTest.sol\":277:316  Book(\"title2\", \"ricardo\", 2, false, 10) */\n  dup2\n  mstore\n  pop\n    /* \"contracts/Ejercicios/StructTest.sol\":257:316  Book public book2 = Book(\"title2\", \"ricardo\", 2, false, 10) */\n  0x05\n  0x00\n  dup3\n  add\n  mload\n  dup2\n  0x00\n  add\n  swap1\n  dup1\n  mload\n  swap1\n  0x20\n  add\n  swap1\n  tag_1\n  swap3\n  swap2\n  swap1\n  tag_2\n  jump\t// in\ntag_1:\n  pop\n  0x20\n  dup3\n  add\n  mload\n  dup2\n  0x01\n  add\n  swap1\n  dup1\n  mload\n  swap1\n  0x20\n  add\n  swap1\n  tag_3\n  swap3\n  swap2\n  swap1\n  tag_2\n  jump\t// in\ntag_3:\n  pop\n  0x40\n  dup3\n  add\n  mload\n  dup2\n  0x02\n  add\n  sstore\n  0x60\n  dup3\n  add\n  mload\n  dup2\n  0x03\n  add\n  exp(0x0100, 0x00)\n  dup2\n  sload\n  dup2\n  0xff\n  mul\n  not\n  and\n  swap1\n  dup4\n  iszero\n  iszero\n  mul\n  or\n  swap1\n  sstore\n  pop\n  0x80\n  dup3\n  add\n  mload\n  dup2\n  0x04\n  add\n  sstore\n  pop\n  pop\n    /* \"contracts/Ejercicios/StructTest.sol\":64:984  contract StructTest {\r... */\n  callvalue\n  dup1\n  iszero\n  tag_4\n  jumpi\n  0x00\n  dup1\n  revert\ntag_4:\n  pop\n  jump(tag_5)\ntag_2:\n  dup3\n  dup1\n  sload\n  tag_6\n  swap1\n  tag_7\n  jump\t// in\ntag_6:\n  swap1\n  0x00\n  mstore\n  keccak256(0x00, 0x20)\n  swap1\n  0x1f\n  add\n  0x20\n  swap1\n  div\n  dup2\n  add\n  swap3\n  dup3\n  tag_9\n  jumpi\n  0x00\n  dup6\n  sstore\n  jump(tag_8)\ntag_9:\n  dup3\n  0x1f\n  lt\n  tag_10\n  jumpi\n  dup1\n  mload\n  not(0xff)\n  and\n  dup4\n  dup1\n  add\n  or\n  dup6\n  sstore\n  jump(tag_8)\ntag_10:\n  dup3\n  dup1\n  add\n  0x01\n  add\n  dup6\n  sstore\n  dup3\n  iszero\n  tag_8\n  jumpi\n  swap2\n  dup3\n  add\ntag_11:\n  dup3\n  dup2\n  gt\n  iszero\n  tag_12\n  jumpi\n  dup3\n  mload\n  dup3\n  sstore\n  swap2\n  0x20\n  add\n  swap2\n  swap1\n  0x01\n  add\n  swap1\n  jump(tag_11)\ntag_12:\ntag_8:\n  pop\n  swap1\n  pop\n  tag_13\n  swap2\n  swap1\n  tag_14\n  jump\t// in\ntag_13:\n  pop\n  swap1\n  jump\t// out\ntag_14:\ntag_15:\n  dup1\n  dup3\n  gt\n  iszero\n  tag_16\n  jumpi\n  0x00\n  dup2\n  0x00\n  swap1\n  sstore\n  pop\n  0x01\n  add\n  jump(tag_15)\ntag_16:\n  pop\n  swap1\n  jump\t// out\n    /* \"#utility.yul\":7:327   */\ntag_7:\n    /* \"#utility.yul\":51:57   */\n  0x00\n    /* \"#utility.yul\":88:89   */\n  0x02\n    /* \"#utility.yul\":82:86   */\n  dup3\n    /* \"#utility.yul\":78:90   */\n  div\n    /* \"#utility.yul\":68:90   */\n  swap1\n  pop\n    /* \"#utility.yul\":135:136   */\n  0x01\n    /* \"#utility.yul\":129:133   */\n  dup3\n    /* \"#utility.yul\":125:137   */\n  and\n    /* \"#utility.yul\":156:174   */\n  dup1\n    /* \"#utility.yul\":146:227   */\n  tag_19\n  jumpi\n    /* \"#utility.yul\":212:216   */\n  0x7f\n    /* \"#utility.yul\":204:210   */\n  dup3\n    /* \"#utility.yul\":200:217   */\n  and\n    /* \"#utility.yul\":190:217   */\n  swap2\n  pop\n    /* \"#utility.yul\":146:227   */\ntag_19:\n    /* \"#utility.yul\":274:276   */\n  0x20\n    /* \"#utility.yul\":266:272   */\n  dup3\n    /* \"#utility.yul\":263:277   */\n  lt\n    /* \"#utility.yul\":243:261   */\n  dup2\n    /* \"#utility.yul\":240:278   */\n  eq\n    /* \"#utility.yul\":237:321   */\n  iszero\n  tag_20\n  jumpi\n    /* \"#utility.yul\":293:311   */\n  tag_21\n  tag_22\n  jump\t// in\ntag_21:\n    /* \"#utility.yul\":237:321   */\ntag_20:\n    /* \"#utility.yul\":58:327   */\n  pop\n    /* \"#utility.yul\":7:327   */\n  swap2\n  swap1\n  pop\n  jump\t// out\n    /* \"#utility.yul\":333:513   */\ntag_22:\n    /* \"#utility.yul\":381:458   */\n  0x4e487b7100000000000000000000000000000000000000000000000000000000\n    /* \"#utility.yul\":378:379   */\n  0x00\n    /* \"#utility.yul\":371:459   */\n  mstore\n    /* \"#utility.yul\":478:482   */\n  0x22\n    /* \"#utility.yul\":475:476   */\n  0x04\n    /* \"#utility.yul\":468:483   */\n  mstore\n    /* \"#utility.yul\":502:506   */\n  0x24\n    /* \"#utility.yul\":499:500   */\n  0x00\n    /* \"#utility.yul\":492:507   */\n  revert\n    /* \"contracts/Ejercicios/StructTest.sol\":64:984  contract StructTest {\r... */\ntag_5:\n  dataSize(sub_0)\n  dup1\n  dataOffset(sub_0)\n  0x00\n  codecopy\n  0x00\n  return\nstop\n\nsub_0: assembly {\n        /* \"contracts/Ejercicios/StructTest.sol\":64:984  contract StructTest {\r... */\n      mstore(0x40, 0x80)\n      callvalue\n      dup1\n      iszero\n      tag_1\n      jumpi\n      0x00\n      dup1\n      revert\n    tag_1:\n      pop\n      jumpi(tag_2, lt(calldatasize, 0x04))\n      shr(0xe0, calldataload(0x00))\n      dup1\n      0xe0ff5b8b\n      gt\n      tag_11\n      jumpi\n      dup1\n      0xe0ff5b8b\n      eq\n      tag_7\n      jumpi\n      dup1\n      0xe815fe1d\n      eq\n      tag_8\n      jumpi\n      dup1\n      0xfb6a8fcc\n      eq\n      tag_9\n      jumpi\n      dup1\n      0xff3c1a8f\n      eq\n      tag_10\n      jumpi\n      jump(tag_2)\n    tag_11:\n      dup1\n      0x7e490a9e\n      eq\n      tag_3\n      jumpi\n      dup1\n      0xa0c3595a\n      eq\n      tag_4\n      jumpi\n      dup1\n      0xb15195ed\n      eq\n      tag_5\n      jumpi\n      dup1\n      0xcad4a2df\n      eq\n      tag_6\n      jumpi\n    tag_2:\n      0x00\n      dup1\n      revert\n        /* \"contracts/Ejercicios/StructTest.sol\":367:456  function borrowBook(uint idBook) public {\r... */\n    tag_3:\n      tag_12\n      0x04\n      dup1\n      calldatasize\n      sub\n      dup2\n      add\n      swap1\n      tag_13\n      swap2\n      swap1\n      tag_14\n      jump\t// in\n    tag_13:\n      tag_15\n      jump\t// in\n    tag_12:\n      stop\n        /* \"contracts/Ejercicios/StructTest.sol\":862:981  function getTitleAndIdBook2() public view returns(string memory, uint){\r... */\n    tag_4:\n      tag_16\n      tag_17\n      jump\t// in\n    tag_16:\n      mload(0x40)\n      tag_18\n      swap3\n      swap2\n      swap1\n      tag_19\n      jump\t// in\n    tag_18:\n      mload(0x40)\n      dup1\n      swap2\n      sub\n      swap1\n      return\n        /* \"contracts/Ejercicios/StructTest.sol\":789:856  function setTitle() public {\r... */\n    tag_5:\n      tag_20\n      tag_21\n      jump\t// in\n    tag_20:\n      stop\n        /* \"contracts/Ejercicios/StructTest.sol\":583:680  function addBook(Book memory newBook) public {\r... */\n    tag_6:\n      tag_22\n      0x04\n      dup1\n      calldatasize\n      sub\n      dup2\n      add\n      swap1\n      tag_23\n      swap2\n      swap1\n      tag_24\n      jump\t// in\n    tag_23:\n      tag_25\n      jump\t// in\n    tag_22:\n      stop\n        /* \"contracts/Ejercicios/StructTest.sol\":464:575  function getBook(uint idBook) public view returns(bool) {\r... */\n    tag_7:\n      tag_26\n      0x04\n      dup1\n      calldatasize\n      sub\n      dup2\n      add\n      swap1\n      tag_27\n      swap2\n      swap1\n      tag_14\n      jump\t// in\n    tag_27:\n      tag_28\n      jump\t// in\n    tag_26:\n      mload(0x40)\n      tag_29\n      swap2\n      swap1\n      tag_30\n      jump\t// in\n    tag_29:\n      mload(0x40)\n      dup1\n      swap2\n      sub\n      swap1\n      return\n        /* \"contracts/Ejercicios/StructTest.sol\":257:316  Book public book2 = Book(\"title2\", \"ricardo\", 2, false, 10) */\n    tag_8:\n      tag_31\n      tag_32\n      jump\t// in\n    tag_31:\n      mload(0x40)\n      tag_33\n      swap6\n      swap5\n      swap4\n      swap3\n      swap2\n      swap1\n      tag_34\n      jump\t// in\n    tag_33:\n      mload(0x40)\n      dup1\n      swap2\n      sub\n      swap1\n      return\n        /* \"contracts/Ejercicios/StructTest.sol\":233:250  Book public book1 */\n    tag_9:\n      tag_35\n      tag_36\n      jump\t// in\n    tag_35:\n      mload(0x40)\n      tag_37\n      swap6\n      swap5\n      swap4\n      swap3\n      swap2\n      swap1\n      tag_34\n      jump\t// in\n    tag_37:\n      mload(0x40)\n      dup1\n      swap2\n      sub\n      swap1\n      return\n        /* \"contracts/Ejercicios/StructTest.sol\":689:781  function getTitle() public view returns(string memory) {\r... */\n    tag_10:\n      tag_38\n      tag_39\n      jump\t// in\n    tag_38:\n      mload(0x40)\n      tag_40\n      swap2\n      swap1\n      tag_41\n      jump\t// in\n    tag_40:\n      mload(0x40)\n      dup1\n      swap2\n      sub\n      swap1\n      return\n        /* \"contracts/Ejercicios/StructTest.sol\":367:456  function borrowBook(uint idBook) public {\r... */\n    tag_15:\n        /* \"contracts/Ejercicios/StructTest.sol\":418:429  libraryBook */\n      0x0a\n        /* \"contracts/Ejercicios/StructTest.sol\":418:437  libraryBook[idBook] */\n      0x00\n        /* \"contracts/Ejercicios/StructTest.sol\":430:436  idBook */\n      dup3\n        /* \"contracts/Ejercicios/StructTest.sol\":418:437  libraryBook[idBook] */\n      dup2\n      mstore\n      0x20\n      add\n      swap1\n      dup2\n      mstore\n      0x20\n      add\n      0x00\n      keccak256\n        /* \"contracts/Ejercicios/StructTest.sol\":418:446  libraryBook[idBook].quantity */\n      0x04\n      add\n      0x00\n        /* \"contracts/Ejercicios/StructTest.sol\":418:448  libraryBook[idBook].quantity-- */\n      dup2\n      sload\n      dup1\n      swap3\n      swap2\n      swap1\n      tag_43\n      swap1\n      tag_44\n      jump\t// in\n    tag_43:\n      swap2\n      swap1\n      pop\n      sstore\n      pop\n        /* \"contracts/Ejercicios/StructTest.sol\":367:456  function borrowBook(uint idBook) public {\r... */\n      pop\n      jump\t// out\n        /* \"contracts/Ejercicios/StructTest.sol\":862:981  function getTitleAndIdBook2() public view returns(string memory, uint){\r... */\n    tag_17:\n        /* \"contracts/Ejercicios/StructTest.sol\":912:925  string memory */\n      0x60\n        /* \"contracts/Ejercicios/StructTest.sol\":927:931  uint */\n      0x00\n        /* \"contracts/Ejercicios/StructTest.sol\":951:956  book2 */\n      0x05\n        /* \"contracts/Ejercicios/StructTest.sol\":951:962  book2.title */\n      0x00\n      add\n        /* \"contracts/Ejercicios/StructTest.sol\":964:969  book2 */\n      0x05\n        /* \"contracts/Ejercicios/StructTest.sol\":964:972  book2.id */\n      0x02\n      add\n      sload\n        /* \"contracts/Ejercicios/StructTest.sol\":943:973  return (book2.title, book2.id) */\n      dup2\n      dup1\n      sload\n      tag_46\n      swap1\n      tag_47\n      jump\t// in\n    tag_46:\n      dup1\n      0x1f\n      add\n      0x20\n      dup1\n      swap2\n      div\n      mul\n      0x20\n      add\n      mload(0x40)\n      swap1\n      dup2\n      add\n      0x40\n      mstore\n      dup1\n      swap3\n      swap2\n      swap1\n      dup2\n      dup2\n      mstore\n      0x20\n      add\n      dup3\n      dup1\n      sload\n      tag_48\n      swap1\n      tag_47\n      jump\t// in\n    tag_48:\n      dup1\n      iszero\n      tag_49\n      jumpi\n      dup1\n      0x1f\n      lt\n      tag_50\n      jumpi\n      0x0100\n      dup1\n      dup4\n      sload\n      div\n      mul\n      dup4\n      mstore\n      swap2\n      0x20\n      add\n      swap2\n      jump(tag_49)\n    tag_50:\n      dup3\n      add\n      swap2\n      swap1\n      0x00\n      mstore\n      keccak256(0x00, 0x20)\n      swap1\n    tag_51:\n      dup2\n      sload\n      dup2\n      mstore\n      swap1\n      0x01\n      add\n      swap1\n      0x20\n      add\n      dup1\n      dup4\n      gt\n      tag_51\n      jumpi\n      dup3\n      swap1\n      sub\n      0x1f\n      and\n      dup3\n      add\n      swap2\n    tag_49:\n      pop\n      pop\n      pop\n      pop\n      pop\n      swap2\n      pop\n      swap2\n      pop\n      swap2\n      pop\n        /* \"contracts/Ejercicios/StructTest.sol\":862:981  function getTitleAndIdBook2() public view returns(string memory, uint){\r... */\n      swap1\n      swap2\n      jump\t// out\n        /* \"contracts/Ejercicios/StructTest.sol\":789:856  function setTitle() public {\r... */\n    tag_21:\n        /* \"contracts/Ejercicios/StructTest.sol\":827:848  book1.title = \"title\" */\n      mload(0x40)\n      dup1\n      0x40\n      add\n      0x40\n      mstore\n      dup1\n      0x05\n      dup2\n      mstore\n      0x20\n      add\n      0x7469746c65000000000000000000000000000000000000000000000000000000\n      dup2\n      mstore\n      pop\n        /* \"contracts/Ejercicios/StructTest.sol\":827:832  book1 */\n      0x00\n        /* \"contracts/Ejercicios/StructTest.sol\":827:838  book1.title */\n      dup1\n      add\n        /* \"contracts/Ejercicios/StructTest.sol\":827:848  book1.title = \"title\" */\n      swap1\n      dup1\n      mload\n      swap1\n      0x20\n      add\n      swap1\n      tag_53\n      swap3\n      swap2\n      swap1\n      tag_54\n      jump\t// in\n    tag_53:\n      pop\n        /* \"contracts/Ejercicios/StructTest.sol\":789:856  function setTitle() public {\r... */\n      jump\t// out\n        /* \"contracts/Ejercicios/StructTest.sol\":583:680  function addBook(Book memory newBook) public {\r... */\n    tag_25:\n        /* \"contracts/Ejercicios/StructTest.sol\":665:672  newBook */\n      dup1\n        /* \"contracts/Ejercicios/StructTest.sol\":639:650  libraryBook */\n      0x0a\n        /* \"contracts/Ejercicios/StructTest.sol\":639:662  libraryBook[newBook.id] */\n      0x00\n        /* \"contracts/Ejercicios/StructTest.sol\":651:658  newBook */\n      dup4\n        /* \"contracts/Ejercicios/StructTest.sol\":651:661  newBook.id */\n      0x40\n      add\n      mload\n        /* \"contracts/Ejercicios/StructTest.sol\":639:662  libraryBook[newBook.id] */\n      dup2\n      mstore\n      0x20\n      add\n      swap1\n      dup2\n      mstore\n      0x20\n      add\n      0x00\n      keccak256\n        /* \"contracts/Ejercicios/StructTest.sol\":639:672  libraryBook[newBook.id] = newBook */\n      0x00\n      dup3\n      add\n      mload\n      dup2\n      0x00\n      add\n      swap1\n      dup1\n      mload\n      swap1\n      0x20\n      add\n      swap1\n      tag_56\n      swap3\n      swap2\n      swap1\n      tag_54\n      jump\t// in\n    tag_56:\n      pop\n      0x20\n      dup3\n      add\n      mload\n      dup2\n      0x01\n      add\n      swap1\n      dup1\n      mload\n      swap1\n      0x20\n      add\n      swap1\n      tag_57\n      swap3\n      swap2\n      swap1\n      tag_54\n      jump\t// in\n    tag_57:\n      pop\n      0x40\n      dup3\n      add\n      mload\n      dup2\n      0x02\n      add\n      sstore\n      0x60\n      dup3\n      add\n      mload\n      dup2\n      0x03\n      add\n      exp(0x0100, 0x00)\n      dup2\n      sload\n      dup2\n      0xff\n      mul\n      not\n      and\n      swap1\n      dup4\n      iszero\n      iszero\n      mul\n      or\n      swap1\n      sstore\n      pop\n      0x80\n      dup3\n      add\n      mload\n      dup2\n      0x04\n      add\n      sstore\n      swap1\n      pop\n      pop\n        /* \"contracts/Ejercicios/StructTest.sol\":583:680  function addBook(Book memory newBook) public {\r... */\n      pop\n      jump\t// out\n        /* \"contracts/Ejercicios/StructTest.sol\":464:575  function getBook(uint idBook) public view returns(bool) {\r... */\n    tag_28:\n        /* \"contracts/Ejercicios/StructTest.sol\":514:518  bool */\n      0x00\n        /* \"contracts/Ejercicios/StructTest.sol\":538:549  libraryBook */\n      0x0a\n        /* \"contracts/Ejercicios/StructTest.sol\":538:557  libraryBook[idBook] */\n      0x00\n        /* \"contracts/Ejercicios/StructTest.sol\":550:556  idBook */\n      dup4\n        /* \"contracts/Ejercicios/StructTest.sol\":538:557  libraryBook[idBook] */\n      dup2\n      mstore\n      0x20\n      add\n      swap1\n      dup2\n      mstore\n      0x20\n      add\n      0x00\n      keccak256\n        /* \"contracts/Ejercicios/StructTest.sol\":538:567  libraryBook[idBook].available */\n      0x03\n      add\n      0x00\n      swap1\n      sload\n      swap1\n      0x0100\n      exp\n      swap1\n      div\n      0xff\n      and\n        /* \"contracts/Ejercicios/StructTest.sol\":531:567  return libraryBook[idBook].available */\n      swap1\n      pop\n        /* \"contracts/Ejercicios/StructTest.sol\":464:575  function getBook(uint idBook) public view returns(bool) {\r... */\n      swap2\n      swap1\n      pop\n      jump\t// out\n        /* \"contracts/Ejercicios/StructTest.sol\":257:316  Book public book2 = Book(\"title2\", \"ricardo\", 2, false, 10) */\n    tag_32:\n      0x05\n      dup1\n      0x00\n      add\n      dup1\n      sload\n      tag_59\n      swap1\n      tag_47\n      jump\t// in\n    tag_59:\n      dup1\n      0x1f\n      add\n      0x20\n      dup1\n      swap2\n      div\n      mul\n      0x20\n      add\n      mload(0x40)\n      swap1\n      dup2\n      add\n      0x40\n      mstore\n      dup1\n      swap3\n      swap2\n      swap1\n      dup2\n      dup2\n      mstore\n      0x20\n      add\n      dup3\n      dup1\n      sload\n      tag_60\n      swap1\n      tag_47\n      jump\t// in\n    tag_60:\n      dup1\n      iszero\n      tag_61\n      jumpi\n      dup1\n      0x1f\n      lt\n      tag_62\n      jumpi\n      0x0100\n      dup1\n      dup4\n      sload\n      div\n      mul\n      dup4\n      mstore\n      swap2\n      0x20\n      add\n      swap2\n      jump(tag_61)\n    tag_62:\n      dup3\n      add\n      swap2\n      swap1\n      0x00\n      mstore\n      keccak256(0x00, 0x20)\n      swap1\n    tag_63:\n      dup2\n      sload\n      dup2\n      mstore\n      swap1\n      0x01\n      add\n      swap1\n      0x20\n      add\n      dup1\n      dup4\n      gt\n      tag_63\n      jumpi\n      dup3\n      swap1\n      sub\n      0x1f\n      and\n      dup3\n      add\n      swap2\n    tag_61:\n      pop\n      pop\n      pop\n      pop\n      pop\n      swap1\n      dup1\n      0x01\n      add\n      dup1\n      sload\n      tag_64\n      swap1\n      tag_47\n      jump\t// in\n    tag_64:\n      dup1\n      0x1f\n      add\n      0x20\n      dup1\n      swap2\n      div\n      mul\n      0x20\n      add\n      mload(0x40)\n      swap1\n      dup2\n      add\n      0x40\n      mstore\n      dup1\n      swap3\n      swap2\n      swap1\n      dup2\n      dup2\n      mstore\n      0x20\n      add\n      dup3\n      dup1\n      sload\n      tag_65\n      swap1\n      tag_47\n      jump\t// in\n    tag_65:\n      dup1\n      iszero\n      tag_66\n      jumpi\n      dup1\n      0x1f\n      lt\n      tag_67\n      jumpi\n      0x0100\n      dup1\n      dup4\n      sload\n      div\n      mul\n      dup4\n      mstore\n      swap2\n      0x20\n      add\n      swap2\n      jump(tag_66)\n    tag_67:\n      dup3\n      add\n      swap2\n      swap1\n      0x00\n      mstore\n      keccak256(0x00, 0x20)\n      swap1\n    tag_68:\n      dup2\n      sload\n      dup2\n      mstore\n      swap1\n      0x01\n      add\n      swap1\n      0x20\n      add\n      dup1\n      dup4\n      gt\n      tag_68\n      jumpi\n      dup3\n      swap1\n      sub\n      0x1f\n      and\n      dup3\n      add\n      swap2\n    tag_66:\n      pop\n      pop\n      pop\n      pop\n      pop\n      swap1\n      dup1\n      0x02\n      add\n      sload\n      swap1\n      dup1\n      0x03\n      add\n      0x00\n      swap1\n      sload\n      swap1\n      0x0100\n      exp\n      swap1\n      div\n      0xff\n      and\n      swap1\n      dup1\n      0x04\n      add\n      sload\n      swap1\n      pop\n      dup6\n      jump\t// out\n        /* \"contracts/Ejercicios/StructTest.sol\":233:250  Book public book1 */\n    tag_36:\n      0x00\n      dup1\n      0x00\n      add\n      dup1\n      sload\n      tag_69\n      swap1\n      tag_47\n      jump\t// in\n    tag_69:\n      dup1\n      0x1f\n      add\n      0x20\n      dup1\n      swap2\n      div\n      mul\n      0x20\n      add\n      mload(0x40)\n      swap1\n      dup2\n      add\n      0x40\n      mstore\n      dup1\n      swap3\n      swap2\n      swap1\n      dup2\n      dup2\n      mstore\n      0x20\n      add\n      dup3\n      dup1\n      sload\n      tag_70\n      swap1\n      tag_47\n      jump\t// in\n    tag_70:\n      dup1\n      iszero\n      tag_71\n      jumpi\n      dup1\n      0x1f\n      lt\n      tag_72\n      jumpi\n      0x0100\n      dup1\n      dup4\n      sload\n      div\n      mul\n      dup4\n      mstore\n      swap2\n      0x20\n      add\n      swap2\n      jump(tag_71)\n    tag_72:\n      dup3\n      add\n      swap2\n      swap1\n      0x00\n      mstore\n      keccak256(0x00, 0x20)\n      swap1\n    tag_73:\n      dup2\n      sload\n      dup2\n      mstore\n      swap1\n      0x01\n      add\n      swap1\n      0x20\n      add\n      dup1\n      dup4\n      gt\n      tag_73\n      jumpi\n      dup3\n      swap1\n      sub\n      0x1f\n      and\n      dup3\n      add\n      swap2\n    tag_71:\n      pop\n      pop\n      pop\n      pop\n      pop\n      swap1\n      dup1\n      0x01\n      add\n      dup1\n      sload\n      tag_74\n      swap1\n      tag_47\n      jump\t// in\n    tag_74:\n      dup1\n      0x1f\n      add\n      0x20\n      dup1\n      swap2\n      div\n      mul\n      0x20\n      add\n      mload(0x40)\n      swap1\n      dup2\n      add\n      0x40\n      mstore\n      dup1\n      swap3\n      swap2\n      swap1\n      dup2\n      dup2\n      mstore\n      0x20\n      add\n      dup3\n      dup1\n      sload\n      tag_75\n      swap1\n      tag_47\n      jump\t// in\n    tag_75:\n      dup1\n      iszero\n      tag_76\n      jumpi\n      dup1\n      0x1f\n      lt\n      tag_77\n      jumpi\n      0x0100\n      dup1\n      dup4\n      sload\n      div\n      mul\n      dup4\n      mstore\n      swap2\n      0x20\n      add\n      swap2\n      jump(tag_76)\n    tag_77:\n      dup3\n      add\n      swap2\n      swap1\n      0x00\n      mstore\n      keccak256(0x00, 0x20)\n      swap1\n    tag_78:\n      dup2\n      sload\n      dup2\n      mstore\n      swap1\n      0x01\n      add\n      swap1\n      0x20\n      add\n      dup1\n      dup4\n      gt\n      tag_78\n      jumpi\n      dup3\n      swap1\n      sub\n      0x1f\n      and\n      dup3\n      add\n      swap2\n    tag_76:\n      pop\n      pop\n      pop\n      pop\n      pop\n      swap1\n      dup1\n      0x02\n      add\n      sload\n      swap1\n      dup1\n      0x03\n      add\n      0x00\n      swap1\n      sload\n      swap1\n      0x0100\n      exp\n      swap1\n      div\n      0xff\n      and\n      swap1\n      dup1\n      0x04\n      add\n      sload\n      swap1\n      pop\n      dup6\n      jump\t// out\n        /* \"contracts/Ejercicios/StructTest.sol\":689:781  function getTitle() public view returns(string memory) {\r... */\n    tag_39:\n        /* \"contracts/Ejercicios/StructTest.sol\":729:742  string memory */\n      0x60\n        /* \"contracts/Ejercicios/StructTest.sol\":762:767  book1 */\n      0x00\n        /* \"contracts/Ejercicios/StructTest.sol\":762:773  book1.title */\n      dup1\n      add\n        /* \"contracts/Ejercicios/StructTest.sol\":755:773  return book1.title */\n      dup1\n      sload\n      tag_80\n      swap1\n      tag_47\n      jump\t// in\n    tag_80:\n      dup1\n      0x1f\n      add\n      0x20\n      dup1\n      swap2\n      div\n      mul\n      0x20\n      add\n      mload(0x40)\n      swap1\n      dup2\n      add\n      0x40\n      mstore\n      dup1\n      swap3\n      swap2\n      swap1\n      dup2\n      dup2\n      mstore\n      0x20\n      add\n      dup3\n      dup1\n      sload\n      tag_81\n      swap1\n      tag_47\n      jump\t// in\n    tag_81:\n      dup1\n      iszero\n      tag_82\n      jumpi\n      dup1\n      0x1f\n      lt\n      tag_83\n      jumpi\n      0x0100\n      dup1\n      dup4\n      sload\n      div\n      mul\n      dup4\n      mstore\n      swap2\n      0x20\n      add\n      swap2\n      jump(tag_82)\n    tag_83:\n      dup3\n      add\n      swap2\n      swap1\n      0x00\n      mstore\n      keccak256(0x00, 0x20)\n      swap1\n    tag_84:\n      dup2\n      sload\n      dup2\n      mstore\n      swap1\n      0x01\n      add\n      swap1\n      0x20\n      add\n      dup1\n      dup4\n      gt\n      tag_84\n      jumpi\n      dup3\n      swap1\n      sub\n      0x1f\n      and\n      dup3\n      add\n      swap2\n    tag_82:\n      pop\n      pop\n      pop\n      pop\n      pop\n      swap1\n      pop\n        /* \"contracts/Ejercicios/StructTest.sol\":689:781  function getTitle() public view returns(string memory) {\r... */\n      swap1\n      jump\t// out\n    tag_54:\n      dup3\n      dup1\n      sload\n      tag_85\n      swap1\n      tag_47\n      jump\t// in\n    tag_85:\n      swap1\n      0x00\n      mstore\n      keccak256(0x00, 0x20)\n      swap1\n      0x1f\n      add\n      0x20\n      swap1\n      div\n      dup2\n      add\n      swap3\n      dup3\n      tag_87\n      jumpi\n      0x00\n      dup6\n      sstore\n      jump(tag_86)\n    tag_87:\n      dup3\n      0x1f\n      lt\n      tag_88\n      jumpi\n      dup1\n      mload\n      not(0xff)\n      and\n      dup4\n      dup1\n      add\n      or\n      dup6\n      sstore\n      jump(tag_86)\n    tag_88:\n      dup3\n      dup1\n      add\n      0x01\n      add\n      dup6\n      sstore\n      dup3\n      iszero\n      tag_86\n      jumpi\n      swap2\n      dup3\n      add\n    tag_89:\n      dup3\n      dup2\n      gt\n      iszero\n      tag_90\n      jumpi\n      dup3\n      mload\n      dup3\n      sstore\n      swap2\n      0x20\n      add\n      swap2\n      swap1\n      0x01\n      add\n      swap1\n      jump(tag_89)\n    tag_90:\n    tag_86:\n      pop\n      swap1\n      pop\n      tag_91\n      swap2\n      swap1\n      tag_92\n      jump\t// in\n    tag_91:\n      pop\n      swap1\n      jump\t// out\n    tag_92:\n    tag_93:\n      dup1\n      dup3\n      gt\n      iszero\n      tag_94\n      jumpi\n      0x00\n      dup2\n      0x00\n      swap1\n      sstore\n      pop\n      0x01\n      add\n      jump(tag_93)\n    tag_94:\n      pop\n      swap1\n      jump\t// out\n        /* \"#utility.yul\":7:419   */\n    tag_96:\n        /* \"#utility.yul\":85:90   */\n      0x00\n        /* \"#utility.yul\":110:176   */\n      tag_98\n        /* \"#utility.yul\":126:175   */\n      tag_99\n        /* \"#utility.yul\":168:174   */\n      dup5\n        /* \"#utility.yul\":126:175   */\n      tag_100\n      jump\t// in\n    tag_99:\n        /* \"#utility.yul\":110:176   */\n      tag_101\n      jump\t// in\n    tag_98:\n        /* \"#utility.yul\":101:176   */\n      swap1\n      pop\n        /* \"#utility.yul\":199:205   */\n      dup3\n        /* \"#utility.yul\":192:197   */\n      dup2\n        /* \"#utility.yul\":185:206   */\n      mstore\n        /* \"#utility.yul\":237:241   */\n      0x20\n        /* \"#utility.yul\":230:235   */\n      dup2\n        /* \"#utility.yul\":226:242   */\n      add\n        /* \"#utility.yul\":275:278   */\n      dup5\n        /* \"#utility.yul\":266:272   */\n      dup5\n        /* \"#utility.yul\":261:264   */\n      dup5\n        /* \"#utility.yul\":257:273   */\n      add\n        /* \"#utility.yul\":254:279   */\n      gt\n        /* \"#utility.yul\":251:363   */\n      iszero\n      tag_102\n      jumpi\n        /* \"#utility.yul\":282:361   */\n      tag_103\n      tag_104\n      jump\t// in\n    tag_103:\n        /* \"#utility.yul\":251:363   */\n    tag_102:\n        /* \"#utility.yul\":372:413   */\n      tag_105\n        /* \"#utility.yul\":406:412   */\n      dup5\n        /* \"#utility.yul\":401:404   */\n      dup3\n        /* \"#utility.yul\":396:399   */\n      dup6\n        /* \"#utility.yul\":372:413   */\n      tag_106\n      jump\t// in\n    tag_105:\n        /* \"#utility.yul\":91:419   */\n      pop\n        /* \"#utility.yul\":7:419   */\n      swap4\n      swap3\n      pop\n      pop\n      pop\n      jump\t// out\n        /* \"#utility.yul\":425:558   */\n    tag_107:\n        /* \"#utility.yul\":468:473   */\n      0x00\n        /* \"#utility.yul\":506:512   */\n      dup2\n        /* \"#utility.yul\":493:513   */\n      calldataload\n        /* \"#utility.yul\":484:513   */\n      swap1\n      pop\n        /* \"#utility.yul\":522:552   */\n      tag_109\n        /* \"#utility.yul\":546:551   */\n      dup2\n        /* \"#utility.yul\":522:552   */\n      tag_110\n      jump\t// in\n    tag_109:\n        /* \"#utility.yul\":425:558   */\n      swap3\n      swap2\n      pop\n      pop\n      jump\t// out\n        /* \"#utility.yul\":578:918   */\n    tag_111:\n        /* \"#utility.yul\":634:639   */\n      0x00\n        /* \"#utility.yul\":683:686   */\n      dup3\n        /* \"#utility.yul\":676:680   */\n      0x1f\n        /* \"#utility.yul\":668:674   */\n      dup4\n        /* \"#utility.yul\":664:681   */\n      add\n        /* \"#utility.yul\":660:687   */\n      slt\n        /* \"#utility.yul\":650:772   */\n      tag_113\n      jumpi\n        /* \"#utility.yul\":691:770   */\n      tag_114\n      tag_115\n      jump\t// in\n    tag_114:\n        /* \"#utility.yul\":650:772   */\n    tag_113:\n        /* \"#utility.yul\":808:814   */\n      dup2\n        /* \"#utility.yul\":795:815   */\n      calldataload\n        /* \"#utility.yul\":833:912   */\n      tag_116\n        /* \"#utility.yul\":908:911   */\n      dup5\n        /* \"#utility.yul\":900:906   */\n      dup3\n        /* \"#utility.yul\":893:897   */\n      0x20\n        /* \"#utility.yul\":885:891   */\n      dup7\n        /* \"#utility.yul\":881:898   */\n      add\n        /* \"#utility.yul\":833:912   */\n      tag_96\n      jump\t// in\n    tag_116:\n        /* \"#utility.yul\":824:912   */\n      swap2\n      pop\n        /* \"#utility.yul\":640:918   */\n      pop\n        /* \"#utility.yul\":578:918   */\n      swap3\n      swap2\n      pop\n      pop\n      jump\t// out\n        /* \"#utility.yul\":954:2354   */\n    tag_117:\n        /* \"#utility.yul\":1023:1028   */\n      0x00\n        /* \"#utility.yul\":1067:1071   */\n      0xa0\n        /* \"#utility.yul\":1055:1064   */\n      dup3\n        /* \"#utility.yul\":1050:1053   */\n      dup5\n        /* \"#utility.yul\":1046:1065   */\n      sub\n        /* \"#utility.yul\":1042:1072   */\n      slt\n        /* \"#utility.yul\":1039:1156   */\n      iszero\n      tag_119\n      jumpi\n        /* \"#utility.yul\":1075:1154   */\n      tag_120\n      tag_121\n      jump\t// in\n    tag_120:\n        /* \"#utility.yul\":1039:1156   */\n    tag_119:\n        /* \"#utility.yul\":1174:1195   */\n      tag_122\n        /* \"#utility.yul\":1190:1194   */\n      0xa0\n        /* \"#utility.yul\":1174:1195   */\n      tag_101\n      jump\t// in\n    tag_122:\n        /* \"#utility.yul\":1165:1195   */\n      swap1\n      pop\n        /* \"#utility.yul\":1283:1284   */\n      0x00\n        /* \"#utility.yul\":1272:1281   */\n      dup3\n        /* \"#utility.yul\":1268:1285   */\n      add\n        /* \"#utility.yul\":1255:1286   */\n      calldataload\n        /* \"#utility.yul\":1313:1331   */\n      0xffffffffffffffff\n        /* \"#utility.yul\":1305:1311   */\n      dup2\n        /* \"#utility.yul\":1302:1332   */\n      gt\n        /* \"#utility.yul\":1299:1416   */\n      iszero\n      tag_123\n      jumpi\n        /* \"#utility.yul\":1335:1414   */\n      tag_124\n      tag_125\n      jump\t// in\n    tag_124:\n        /* \"#utility.yul\":1299:1416   */\n    tag_123:\n        /* \"#utility.yul\":1455:1514   */\n      tag_126\n        /* \"#utility.yul\":1510:1513   */\n      dup5\n        /* \"#utility.yul\":1501:1507   */\n      dup3\n        /* \"#utility.yul\":1490:1499   */\n      dup6\n        /* \"#utility.yul\":1486:1508   */\n      add\n        /* \"#utility.yul\":1455:1514   */\n      tag_111\n      jump\t// in\n    tag_126:\n        /* \"#utility.yul\":1448:1452   */\n      0x00\n        /* \"#utility.yul\":1441:1446   */\n      dup4\n        /* \"#utility.yul\":1437:1453   */\n      add\n        /* \"#utility.yul\":1430:1515   */\n      mstore\n        /* \"#utility.yul\":1205:1526   */\n      pop\n        /* \"#utility.yul\":1615:1617   */\n      0x20\n        /* \"#utility.yul\":1604:1613   */\n      dup3\n        /* \"#utility.yul\":1600:1618   */\n      add\n        /* \"#utility.yul\":1587:1619   */\n      calldataload\n        /* \"#utility.yul\":1646:1664   */\n      0xffffffffffffffff\n        /* \"#utility.yul\":1638:1644   */\n      dup2\n        /* \"#utility.yul\":1635:1665   */\n      gt\n        /* \"#utility.yul\":1632:1749   */\n      iszero\n      tag_127\n      jumpi\n        /* \"#utility.yul\":1668:1747   */\n      tag_128\n      tag_125\n      jump\t// in\n    tag_128:\n        /* \"#utility.yul\":1632:1749   */\n    tag_127:\n        /* \"#utility.yul\":1788:1847   */\n      tag_129\n        /* \"#utility.yul\":1843:1846   */\n      dup5\n        /* \"#utility.yul\":1834:1840   */\n      dup3\n        /* \"#utility.yul\":1823:1832   */\n      dup6\n        /* \"#utility.yul\":1819:1841   */\n      add\n        /* \"#utility.yul\":1788:1847   */\n      tag_111\n      jump\t// in\n    tag_129:\n        /* \"#utility.yul\":1781:1785   */\n      0x20\n        /* \"#utility.yul\":1774:1779   */\n      dup4\n        /* \"#utility.yul\":1770:1786   */\n      add\n        /* \"#utility.yul\":1763:1848   */\n      mstore\n        /* \"#utility.yul\":1536:1859   */\n      pop\n        /* \"#utility.yul\":1916:1918   */\n      0x40\n        /* \"#utility.yul\":1957:2006   */\n      tag_130\n        /* \"#utility.yul\":2002:2005   */\n      dup5\n        /* \"#utility.yul\":1993:1999   */\n      dup3\n        /* \"#utility.yul\":1982:1991   */\n      dup6\n        /* \"#utility.yul\":1978:2000   */\n      add\n        /* \"#utility.yul\":1957:2006   */\n      tag_131\n      jump\t// in\n    tag_130:\n        /* \"#utility.yul\":1950:1954   */\n      0x40\n        /* \"#utility.yul\":1943:1948   */\n      dup4\n        /* \"#utility.yul\":1939:1955   */\n      add\n        /* \"#utility.yul\":1932:2007   */\n      mstore\n        /* \"#utility.yul\":1869:2018   */\n      pop\n        /* \"#utility.yul\":2082:2084   */\n      0x60\n        /* \"#utility.yul\":2123:2169   */\n      tag_132\n        /* \"#utility.yul\":2165:2168   */\n      dup5\n        /* \"#utility.yul\":2156:2162   */\n      dup3\n        /* \"#utility.yul\":2145:2154   */\n      dup6\n        /* \"#utility.yul\":2141:2163   */\n      add\n        /* \"#utility.yul\":2123:2169   */\n      tag_107\n      jump\t// in\n    tag_132:\n        /* \"#utility.yul\":2116:2120   */\n      0x60\n        /* \"#utility.yul\":2109:2114   */\n      dup4\n        /* \"#utility.yul\":2105:2121   */\n      add\n        /* \"#utility.yul\":2098:2170   */\n      mstore\n        /* \"#utility.yul\":2028:2181   */\n      pop\n        /* \"#utility.yul\":2244:2247   */\n      0x80\n        /* \"#utility.yul\":2286:2335   */\n      tag_133\n        /* \"#utility.yul\":2331:2334   */\n      dup5\n        /* \"#utility.yul\":2322:2328   */\n      dup3\n        /* \"#utility.yul\":2311:2320   */\n      dup6\n        /* \"#utility.yul\":2307:2329   */\n      add\n        /* \"#utility.yul\":2286:2335   */\n      tag_131\n      jump\t// in\n    tag_133:\n        /* \"#utility.yul\":2279:2283   */\n      0x80\n        /* \"#utility.yul\":2272:2277   */\n      dup4\n        /* \"#utility.yul\":2268:2284   */\n      add\n        /* \"#utility.yul\":2261:2336   */\n      mstore\n        /* \"#utility.yul\":2191:2347   */\n      pop\n        /* \"#utility.yul\":954:2354   */\n      swap3\n      swap2\n      pop\n      pop\n      jump\t// out\n        /* \"#utility.yul\":2360:2499   */\n    tag_131:\n        /* \"#utility.yul\":2406:2411   */\n      0x00\n        /* \"#utility.yul\":2444:2450   */\n      dup2\n        /* \"#utility.yul\":2431:2451   */\n      calldataload\n        /* \"#utility.yul\":2422:2451   */\n      swap1\n      pop\n        /* \"#utility.yul\":2460:2493   */\n      tag_135\n        /* \"#utility.yul\":2487:2492   */\n      dup2\n        /* \"#utility.yul\":2460:2493   */\n      tag_136\n      jump\t// in\n    tag_135:\n        /* \"#utility.yul\":2360:2499   */\n      swap3\n      swap2\n      pop\n      pop\n      jump\t// out\n        /* \"#utility.yul\":2505:3034   */\n    tag_24:\n        /* \"#utility.yul\":2584:2590   */\n      0x00\n        /* \"#utility.yul\":2633:2635   */\n      0x20\n        /* \"#utility.yul\":2621:2630   */\n      dup3\n        /* \"#utility.yul\":2612:2619   */\n      dup5\n        /* \"#utility.yul\":2608:2631   */\n      sub\n        /* \"#utility.yul\":2604:2636   */\n      slt\n        /* \"#utility.yul\":2601:2720   */\n      iszero\n      tag_138\n      jumpi\n        /* \"#utility.yul\":2639:2718   */\n      tag_139\n      tag_140\n      jump\t// in\n    tag_139:\n        /* \"#utility.yul\":2601:2720   */\n    tag_138:\n        /* \"#utility.yul\":2787:2788   */\n      0x00\n        /* \"#utility.yul\":2776:2785   */\n      dup3\n        /* \"#utility.yul\":2772:2789   */\n      add\n        /* \"#utility.yul\":2759:2790   */\n      calldataload\n        /* \"#utility.yul\":2817:2835   */\n      0xffffffffffffffff\n        /* \"#utility.yul\":2809:2815   */\n      dup2\n        /* \"#utility.yul\":2806:2836   */\n      gt\n        /* \"#utility.yul\":2803:2920   */\n      iszero\n      tag_141\n      jumpi\n        /* \"#utility.yul\":2839:2918   */\n      tag_142\n      tag_143\n      jump\t// in\n    tag_142:\n        /* \"#utility.yul\":2803:2920   */\n    tag_141:\n        /* \"#utility.yul\":2944:3017   */\n      tag_144\n        /* \"#utility.yul\":3009:3016   */\n      dup5\n        /* \"#utility.yul\":3000:3006   */\n      dup3\n        /* \"#utility.yul\":2989:2998   */\n      dup6\n        /* \"#utility.yul\":2985:3007   */\n      add\n        /* \"#utility.yul\":2944:3017   */\n      tag_117\n      jump\t// in\n    tag_144:\n        /* \"#utility.yul\":2934:3017   */\n      swap2\n      pop\n        /* \"#utility.yul\":2730:3027   */\n      pop\n        /* \"#utility.yul\":2505:3034   */\n      swap3\n      swap2\n      pop\n      pop\n      jump\t// out\n        /* \"#utility.yul\":3040:3369   */\n    tag_14:\n        /* \"#utility.yul\":3099:3105   */\n      0x00\n        /* \"#utility.yul\":3148:3150   */\n      0x20\n        /* \"#utility.yul\":3136:3145   */\n      dup3\n        /* \"#utility.yul\":3127:3134   */\n      dup5\n        /* \"#utility.yul\":3123:3146   */\n      sub\n        /* \"#utility.yul\":3119:3151   */\n      slt\n        /* \"#utility.yul\":3116:3235   */\n      iszero\n      tag_146\n      jumpi\n        /* \"#utility.yul\":3154:3233   */\n      tag_147\n      tag_140\n      jump\t// in\n    tag_147:\n        /* \"#utility.yul\":3116:3235   */\n    tag_146:\n        /* \"#utility.yul\":3274:3275   */\n      0x00\n        /* \"#utility.yul\":3299:3352   */\n      tag_148\n        /* \"#utility.yul\":3344:3351   */\n      dup5\n        /* \"#utility.yul\":3335:3341   */\n      dup3\n        /* \"#utility.yul\":3324:3333   */\n      dup6\n        /* \"#utility.yul\":3320:3342   */\n      add\n        /* \"#utility.yul\":3299:3352   */\n      tag_131\n      jump\t// in\n    tag_148:\n        /* \"#utility.yul\":3289:3352   */\n      swap2\n      pop\n        /* \"#utility.yul\":3245:3362   */\n      pop\n        /* \"#utility.yul\":3040:3369   */\n      swap3\n      swap2\n      pop\n      pop\n      jump\t// out\n        /* \"#utility.yul\":3375:3484   */\n    tag_149:\n        /* \"#utility.yul\":3456:3477   */\n      tag_151\n        /* \"#utility.yul\":3471:3476   */\n      dup2\n        /* \"#utility.yul\":3456:3477   */\n      tag_152\n      jump\t// in\n    tag_151:\n        /* \"#utility.yul\":3451:3454   */\n      dup3\n        /* \"#utility.yul\":3444:3478   */\n      mstore\n        /* \"#utility.yul\":3375:3484   */\n      pop\n      pop\n      jump\t// out\n        /* \"#utility.yul\":3490:3854   */\n    tag_153:\n        /* \"#utility.yul\":3578:3581   */\n      0x00\n        /* \"#utility.yul\":3606:3645   */\n      tag_155\n        /* \"#utility.yul\":3639:3644   */\n      dup3\n        /* \"#utility.yul\":3606:3645   */\n      tag_156\n      jump\t// in\n    tag_155:\n        /* \"#utility.yul\":3661:3732   */\n      tag_157\n        /* \"#utility.yul\":3725:3731   */\n      dup2\n        /* \"#utility.yul\":3720:3723   */\n      dup6\n        /* \"#utility.yul\":3661:3732   */\n      tag_158\n      jump\t// in\n    tag_157:\n        /* \"#utility.yul\":3654:3732   */\n      swap4\n      pop\n        /* \"#utility.yul\":3741:3793   */\n      tag_159\n        /* \"#utility.yul\":3786:3792   */\n      dup2\n        /* \"#utility.yul\":3781:3784   */\n      dup6\n        /* \"#utility.yul\":3774:3778   */\n      0x20\n        /* \"#utility.yul\":3767:3772   */\n      dup7\n        /* \"#utility.yul\":3763:3779   */\n      add\n        /* \"#utility.yul\":3741:3793   */\n      tag_160\n      jump\t// in\n    tag_159:\n        /* \"#utility.yul\":3818:3847   */\n      tag_161\n        /* \"#utility.yul\":3840:3846   */\n      dup2\n        /* \"#utility.yul\":3818:3847   */\n      tag_162\n      jump\t// in\n    tag_161:\n        /* \"#utility.yul\":3813:3816   */\n      dup5\n        /* \"#utility.yul\":3809:3848   */\n      add\n        /* \"#utility.yul\":3802:3848   */\n      swap2\n      pop\n        /* \"#utility.yul\":3582:3854   */\n      pop\n        /* \"#utility.yul\":3490:3854   */\n      swap3\n      swap2\n      pop\n      pop\n      jump\t// out\n        /* \"#utility.yul\":3860:3978   */\n    tag_163:\n        /* \"#utility.yul\":3947:3971   */\n      tag_165\n        /* \"#utility.yul\":3965:3970   */\n      dup2\n        /* \"#utility.yul\":3947:3971   */\n      tag_166\n      jump\t// in\n    tag_165:\n        /* \"#utility.yul\":3942:3945   */\n      dup3\n        /* \"#utility.yul\":3935:3972   */\n      mstore\n        /* \"#utility.yul\":3860:3978   */\n      pop\n      pop\n      jump\t// out\n        /* \"#utility.yul\":3984:4194   */\n    tag_30:\n        /* \"#utility.yul\":4071:4075   */\n      0x00\n        /* \"#utility.yul\":4109:4111   */\n      0x20\n        /* \"#utility.yul\":4098:4107   */\n      dup3\n        /* \"#utility.yul\":4094:4112   */\n      add\n        /* \"#utility.yul\":4086:4112   */\n      swap1\n      pop\n        /* \"#utility.yul\":4122:4187   */\n      tag_168\n        /* \"#utility.yul\":4184:4185   */\n      0x00\n        /* \"#utility.yul\":4173:4182   */\n      dup4\n        /* \"#utility.yul\":4169:4186   */\n      add\n        /* \"#utility.yul\":4160:4166   */\n      dup5\n        /* \"#utility.yul\":4122:4187   */\n      tag_149\n      jump\t// in\n    tag_168:\n        /* \"#utility.yul\":3984:4194   */\n      swap3\n      swap2\n      pop\n      pop\n      jump\t// out\n        /* \"#utility.yul\":4200:4513   */\n    tag_41:\n        /* \"#utility.yul\":4313:4317   */\n      0x00\n        /* \"#utility.yul\":4351:4353   */\n      0x20\n        /* \"#utility.yul\":4340:4349   */\n      dup3\n        /* \"#utility.yul\":4336:4354   */\n      add\n        /* \"#utility.yul\":4328:4354   */\n      swap1\n      pop\n        /* \"#utility.yul\":4400:4409   */\n      dup2\n        /* \"#utility.yul\":4394:4398   */\n      dup2\n        /* \"#utility.yul\":4390:4410   */\n      sub\n        /* \"#utility.yul\":4386:4387   */\n      0x00\n        /* \"#utility.yul\":4375:4384   */\n      dup4\n        /* \"#utility.yul\":4371:4388   */\n      add\n        /* \"#utility.yul\":4364:4411   */\n      mstore\n        /* \"#utility.yul\":4428:4506   */\n      tag_170\n        /* \"#utility.yul\":4501:4505   */\n      dup2\n        /* \"#utility.yul\":4492:4498   */\n      dup5\n        /* \"#utility.yul\":4428:4506   */\n      tag_153\n      jump\t// in\n    tag_170:\n        /* \"#utility.yul\":4420:4506   */\n      swap1\n      pop\n        /* \"#utility.yul\":4200:4513   */\n      swap3\n      swap2\n      pop\n      pop\n      jump\t// out\n        /* \"#utility.yul\":4519:5353   */\n    tag_34:\n        /* \"#utility.yul\":4758:4762   */\n      0x00\n        /* \"#utility.yul\":4796:4799   */\n      0xa0\n        /* \"#utility.yul\":4785:4794   */\n      dup3\n        /* \"#utility.yul\":4781:4800   */\n      add\n        /* \"#utility.yul\":4773:4800   */\n      swap1\n      pop\n        /* \"#utility.yul\":4846:4855   */\n      dup2\n        /* \"#utility.yul\":4840:4844   */\n      dup2\n        /* \"#utility.yul\":4836:4856   */\n      sub\n        /* \"#utility.yul\":4832:4833   */\n      0x00\n        /* \"#utility.yul\":4821:4830   */\n      dup4\n        /* \"#utility.yul\":4817:4834   */\n      add\n        /* \"#utility.yul\":4810:4857   */\n      mstore\n        /* \"#utility.yul\":4874:4952   */\n      tag_172\n        /* \"#utility.yul\":4947:4951   */\n      dup2\n        /* \"#utility.yul\":4938:4944   */\n      dup9\n        /* \"#utility.yul\":4874:4952   */\n      tag_153\n      jump\t// in\n    tag_172:\n        /* \"#utility.yul\":4866:4952   */\n      swap1\n      pop\n        /* \"#utility.yul\":4999:5008   */\n      dup2\n        /* \"#utility.yul\":4993:4997   */\n      dup2\n        /* \"#utility.yul\":4989:5009   */\n      sub\n        /* \"#utility.yul\":4984:4986   */\n      0x20\n        /* \"#utility.yul\":4973:4982   */\n      dup4\n        /* \"#utility.yul\":4969:4987   */\n      add\n        /* \"#utility.yul\":4962:5010   */\n      mstore\n        /* \"#utility.yul\":5027:5105   */\n      tag_173\n        /* \"#utility.yul\":5100:5104   */\n      dup2\n        /* \"#utility.yul\":5091:5097   */\n      dup8\n        /* \"#utility.yul\":5027:5105   */\n      tag_153\n      jump\t// in\n    tag_173:\n        /* \"#utility.yul\":5019:5105   */\n      swap1\n      pop\n        /* \"#utility.yul\":5115:5187   */\n      tag_174\n        /* \"#utility.yul\":5183:5185   */\n      0x40\n        /* \"#utility.yul\":5172:5181   */\n      dup4\n        /* \"#utility.yul\":5168:5186   */\n      add\n        /* \"#utility.yul\":5159:5165   */\n      dup7\n        /* \"#utility.yul\":5115:5187   */\n      tag_163\n      jump\t// in\n    tag_174:\n        /* \"#utility.yul\":5197:5263   */\n      tag_175\n        /* \"#utility.yul\":5259:5261   */\n      0x60\n        /* \"#utility.yul\":5248:5257   */\n      dup4\n        /* \"#utility.yul\":5244:5262   */\n      add\n        /* \"#utility.yul\":5235:5241   */\n      dup6\n        /* \"#utility.yul\":5197:5263   */\n      tag_149\n      jump\t// in\n    tag_175:\n        /* \"#utility.yul\":5273:5346   */\n      tag_176\n        /* \"#utility.yul\":5341:5344   */\n      0x80\n        /* \"#utility.yul\":5330:5339   */\n      dup4\n        /* \"#utility.yul\":5326:5345   */\n      add\n        /* \"#utility.yul\":5317:5323   */\n      dup5\n        /* \"#utility.yul\":5273:5346   */\n      tag_163\n      jump\t// in\n    tag_176:\n        /* \"#utility.yul\":4519:5353   */\n      swap7\n      swap6\n      pop\n      pop\n      pop\n      pop\n      pop\n      pop\n      jump\t// out\n        /* \"#utility.yul\":5359:5782   */\n    tag_19:\n        /* \"#utility.yul\":5500:5504   */\n      0x00\n        /* \"#utility.yul\":5538:5540   */\n      0x40\n        /* \"#utility.yul\":5527:5536   */\n      dup3\n        /* \"#utility.yul\":5523:5541   */\n      add\n        /* \"#utility.yul\":5515:5541   */\n      swap1\n      pop\n        /* \"#utility.yul\":5587:5596   */\n      dup2\n        /* \"#utility.yul\":5581:5585   */\n      dup2\n        /* \"#utility.yul\":5577:5597   */\n      sub\n        /* \"#utility.yul\":5573:5574   */\n      0x00\n        /* \"#utility.yul\":5562:5571   */\n      dup4\n        /* \"#utility.yul\":5558:5575   */\n      add\n        /* \"#utility.yul\":5551:5598   */\n      mstore\n        /* \"#utility.yul\":5615:5693   */\n      tag_178\n        /* \"#utility.yul\":5688:5692   */\n      dup2\n        /* \"#utility.yul\":5679:5685   */\n      dup6\n        /* \"#utility.yul\":5615:5693   */\n      tag_153\n      jump\t// in\n    tag_178:\n        /* \"#utility.yul\":5607:5693   */\n      swap1\n      pop\n        /* \"#utility.yul\":5703:5775   */\n      tag_179\n        /* \"#utility.yul\":5771:5773   */\n      0x20\n        /* \"#utility.yul\":5760:5769   */\n      dup4\n        /* \"#utility.yul\":5756:5774   */\n      add\n        /* \"#utility.yul\":5747:5753   */\n      dup5\n        /* \"#utility.yul\":5703:5775   */\n      tag_163\n      jump\t// in\n    tag_179:\n        /* \"#utility.yul\":5359:5782   */\n      swap4\n      swap3\n      pop\n      pop\n      pop\n      jump\t// out\n        /* \"#utility.yul\":5788:5917   */\n    tag_101:\n        /* \"#utility.yul\":5822:5828   */\n      0x00\n        /* \"#utility.yul\":5849:5869   */\n      tag_181\n      tag_182\n      jump\t// in\n    tag_181:\n        /* \"#utility.yul\":5839:5869   */\n      swap1\n      pop\n        /* \"#utility.yul\":5878:5911   */\n      tag_183\n        /* \"#utility.yul\":5906:5910   */\n      dup3\n        /* \"#utility.yul\":5898:5904   */\n      dup3\n        /* \"#utility.yul\":5878:5911   */\n      tag_184\n      jump\t// in\n    tag_183:\n        /* \"#utility.yul\":5788:5917   */\n      swap2\n      swap1\n      pop\n      jump\t// out\n        /* \"#utility.yul\":5923:5998   */\n    tag_182:\n        /* \"#utility.yul\":5956:5962   */\n      0x00\n        /* \"#utility.yul\":5989:5991   */\n      0x40\n        /* \"#utility.yul\":5983:5992   */\n      mload\n        /* \"#utility.yul\":5973:5992   */\n      swap1\n      pop\n        /* \"#utility.yul\":5923:5998   */\n      swap1\n      jump\t// out\n        /* \"#utility.yul\":6004:6312   */\n    tag_100:\n        /* \"#utility.yul\":6066:6070   */\n      0x00\n        /* \"#utility.yul\":6156:6174   */\n      0xffffffffffffffff\n        /* \"#utility.yul\":6148:6154   */\n      dup3\n        /* \"#utility.yul\":6145:6175   */\n      gt\n        /* \"#utility.yul\":6142:6198   */\n      iszero\n      tag_187\n      jumpi\n        /* \"#utility.yul\":6178:6196   */\n      tag_188\n      tag_189\n      jump\t// in\n    tag_188:\n        /* \"#utility.yul\":6142:6198   */\n    tag_187:\n        /* \"#utility.yul\":6216:6245   */\n      tag_190\n        /* \"#utility.yul\":6238:6244   */\n      dup3\n        /* \"#utility.yul\":6216:6245   */\n      tag_162\n      jump\t// in\n    tag_190:\n        /* \"#utility.yul\":6208:6245   */\n      swap1\n      pop\n        /* \"#utility.yul\":6300:6304   */\n      0x20\n        /* \"#utility.yul\":6294:6298   */\n      dup2\n        /* \"#utility.yul\":6290:6305   */\n      add\n        /* \"#utility.yul\":6282:6305   */\n      swap1\n      pop\n        /* \"#utility.yul\":6004:6312   */\n      swap2\n      swap1\n      pop\n      jump\t// out\n        /* \"#utility.yul\":6318:6417   */\n    tag_156:\n        /* \"#utility.yul\":6370:6376   */\n      0x00\n        /* \"#utility.yul\":6404:6409   */\n      dup2\n        /* \"#utility.yul\":6398:6410   */\n      mload\n        /* \"#utility.yul\":6388:6410   */\n      swap1\n      pop\n        /* \"#utility.yul\":6318:6417   */\n      swap2\n      swap1\n      pop\n      jump\t// out\n        /* \"#utility.yul\":6423:6592   */\n    tag_158:\n        /* \"#utility.yul\":6507:6518   */\n      0x00\n        /* \"#utility.yul\":6541:6547   */\n      dup3\n        /* \"#utility.yul\":6536:6539   */\n      dup3\n        /* \"#utility.yul\":6529:6548   */\n      mstore\n        /* \"#utility.yul\":6581:6585   */\n      0x20\n        /* \"#utility.yul\":6576:6579   */\n      dup3\n        /* \"#utility.yul\":6572:6586   */\n      add\n        /* \"#utility.yul\":6557:6586   */\n      swap1\n      pop\n        /* \"#utility.yul\":6423:6592   */\n      swap3\n      swap2\n      pop\n      pop\n      jump\t// out\n        /* \"#utility.yul\":6598:6688   */\n    tag_152:\n        /* \"#utility.yul\":6632:6639   */\n      0x00\n        /* \"#utility.yul\":6675:6680   */\n      dup2\n        /* \"#utility.yul\":6668:6681   */\n      iszero\n        /* \"#utility.yul\":6661:6682   */\n      iszero\n        /* \"#utility.yul\":6650:6682   */\n      swap1\n      pop\n        /* \"#utility.yul\":6598:6688   */\n      swap2\n      swap1\n      pop\n      jump\t// out\n        /* \"#utility.yul\":6694:6771   */\n    tag_166:\n        /* \"#utility.yul\":6731:6738   */\n      0x00\n        /* \"#utility.yul\":6760:6765   */\n      dup2\n        /* \"#utility.yul\":6749:6765   */\n      swap1\n      pop\n        /* \"#utility.yul\":6694:6771   */\n      swap2\n      swap1\n      pop\n      jump\t// out\n        /* \"#utility.yul\":6777:6931   */\n    tag_106:\n        /* \"#utility.yul\":6861:6867   */\n      dup3\n        /* \"#utility.yul\":6856:6859   */\n      dup2\n        /* \"#utility.yul\":6851:6854   */\n      dup4\n        /* \"#utility.yul\":6838:6868   */\n      calldatacopy\n        /* \"#utility.yul\":6923:6924   */\n      0x00\n        /* \"#utility.yul\":6914:6920   */\n      dup4\n        /* \"#utility.yul\":6909:6912   */\n      dup4\n        /* \"#utility.yul\":6905:6921   */\n      add\n        /* \"#utility.yul\":6898:6925   */\n      mstore\n        /* \"#utility.yul\":6777:6931   */\n      pop\n      pop\n      pop\n      jump\t// out\n        /* \"#utility.yul\":6937:7244   */\n    tag_160:\n        /* \"#utility.yul\":7005:7006   */\n      0x00\n        /* \"#utility.yul\":7015:7128   */\n    tag_197:\n        /* \"#utility.yul\":7029:7035   */\n      dup4\n        /* \"#utility.yul\":7026:7027   */\n      dup2\n        /* \"#utility.yul\":7023:7036   */\n      lt\n        /* \"#utility.yul\":7015:7128   */\n      iszero\n      tag_199\n      jumpi\n        /* \"#utility.yul\":7114:7115   */\n      dup1\n        /* \"#utility.yul\":7109:7112   */\n      dup3\n        /* \"#utility.yul\":7105:7116   */\n      add\n        /* \"#utility.yul\":7099:7117   */\n      mload\n        /* \"#utility.yul\":7095:7096   */\n      dup2\n        /* \"#utility.yul\":7090:7093   */\n      dup5\n        /* \"#utility.yul\":7086:7097   */\n      add\n        /* \"#utility.yul\":7079:7118   */\n      mstore\n        /* \"#utility.yul\":7051:7053   */\n      0x20\n        /* \"#utility.yul\":7048:7049   */\n      dup2\n        /* \"#utility.yul\":7044:7054   */\n      add\n        /* \"#utility.yul\":7039:7054   */\n      swap1\n      pop\n        /* \"#utility.yul\":7015:7128   */\n      jump(tag_197)\n    tag_199:\n        /* \"#utility.yul\":7146:7152   */\n      dup4\n        /* \"#utility.yul\":7143:7144   */\n      dup2\n        /* \"#utility.yul\":7140:7153   */\n      gt\n        /* \"#utility.yul\":7137:7238   */\n      iszero\n      tag_200\n      jumpi\n        /* \"#utility.yul\":7226:7227   */\n      0x00\n        /* \"#utility.yul\":7217:7223   */\n      dup5\n        /* \"#utility.yul\":7212:7215   */\n      dup5\n        /* \"#utility.yul\":7208:7224   */\n      add\n        /* \"#utility.yul\":7201:7228   */\n      mstore\n        /* \"#utility.yul\":7137:7238   */\n    tag_200:\n        /* \"#utility.yul\":6986:7244   */\n      pop\n        /* \"#utility.yul\":6937:7244   */\n      pop\n      pop\n      pop\n      jump\t// out\n        /* \"#utility.yul\":7250:7421   */\n    tag_44:\n        /* \"#utility.yul\":7289:7292   */\n      0x00\n        /* \"#utility.yul\":7312:7336   */\n      tag_202\n        /* \"#utility.yul\":7330:7335   */\n      dup3\n        /* \"#utility.yul\":7312:7336   */\n      tag_166\n      jump\t// in\n    tag_202:\n        /* \"#utility.yul\":7303:7336   */\n      swap2\n      pop\n        /* \"#utility.yul\":7358:7362   */\n      0x00\n        /* \"#utility.yul\":7351:7356   */\n      dup3\n        /* \"#utility.yul\":7348:7363   */\n      eq\n        /* \"#utility.yul\":7345:7386   */\n      iszero\n      tag_203\n      jumpi\n        /* \"#utility.yul\":7366:7384   */\n      tag_204\n      tag_205\n      jump\t// in\n    tag_204:\n        /* \"#utility.yul\":7345:7386   */\n    tag_203:\n        /* \"#utility.yul\":7413:7414   */\n      0x01\n        /* \"#utility.yul\":7406:7411   */\n      dup3\n        /* \"#utility.yul\":7402:7415   */\n      sub\n        /* \"#utility.yul\":7395:7415   */\n      swap1\n      pop\n        /* \"#utility.yul\":7250:7421   */\n      swap2\n      swap1\n      pop\n      jump\t// out\n        /* \"#utility.yul\":7427:7747   */\n    tag_47:\n        /* \"#utility.yul\":7471:7477   */\n      0x00\n        /* \"#utility.yul\":7508:7509   */\n      0x02\n        /* \"#utility.yul\":7502:7506   */\n      dup3\n        /* \"#utility.yul\":7498:7510   */\n      div\n        /* \"#utility.yul\":7488:7510   */\n      swap1\n      pop\n        /* \"#utility.yul\":7555:7556   */\n      0x01\n        /* \"#utility.yul\":7549:7553   */\n      dup3\n        /* \"#utility.yul\":7545:7557   */\n      and\n        /* \"#utility.yul\":7576:7594   */\n      dup1\n        /* \"#utility.yul\":7566:7647   */\n      tag_207\n      jumpi\n        /* \"#utility.yul\":7632:7636   */\n      0x7f\n        /* \"#utility.yul\":7624:7630   */\n      dup3\n        /* \"#utility.yul\":7620:7637   */\n      and\n        /* \"#utility.yul\":7610:7637   */\n      swap2\n      pop\n        /* \"#utility.yul\":7566:7647   */\n    tag_207:\n        /* \"#utility.yul\":7694:7696   */\n      0x20\n        /* \"#utility.yul\":7686:7692   */\n      dup3\n        /* \"#utility.yul\":7683:7697   */\n      lt\n        /* \"#utility.yul\":7663:7681   */\n      dup2\n        /* \"#utility.yul\":7660:7698   */\n      eq\n        /* \"#utility.yul\":7657:7741   */\n      iszero\n      tag_208\n      jumpi\n        /* \"#utility.yul\":7713:7731   */\n      tag_209\n      tag_210\n      jump\t// in\n    tag_209:\n        /* \"#utility.yul\":7657:7741   */\n    tag_208:\n        /* \"#utility.yul\":7478:7747   */\n      pop\n        /* \"#utility.yul\":7427:7747   */\n      swap2\n      swap1\n      pop\n      jump\t// out\n        /* \"#utility.yul\":7753:8034   */\n    tag_184:\n        /* \"#utility.yul\":7836:7863   */\n      tag_212\n        /* \"#utility.yul\":7858:7862   */\n      dup3\n        /* \"#utility.yul\":7836:7863   */\n      tag_162\n      jump\t// in\n    tag_212:\n        /* \"#utility.yul\":7828:7834   */\n      dup2\n        /* \"#utility.yul\":7824:7864   */\n      add\n        /* \"#utility.yul\":7966:7972   */\n      dup2\n        /* \"#utility.yul\":7954:7964   */\n      dup2\n        /* \"#utility.yul\":7951:7973   */\n      lt\n        /* \"#utility.yul\":7930:7948   */\n      0xffffffffffffffff\n        /* \"#utility.yul\":7918:7928   */\n      dup3\n        /* \"#utility.yul\":7915:7949   */\n      gt\n        /* \"#utility.yul\":7912:7974   */\n      or\n        /* \"#utility.yul\":7909:7997   */\n      iszero\n      tag_213\n      jumpi\n        /* \"#utility.yul\":7977:7995   */\n      tag_214\n      tag_189\n      jump\t// in\n    tag_214:\n        /* \"#utility.yul\":7909:7997   */\n    tag_213:\n        /* \"#utility.yul\":8017:8027   */\n      dup1\n        /* \"#utility.yul\":8013:8015   */\n      0x40\n        /* \"#utility.yul\":8006:8028   */\n      mstore\n        /* \"#utility.yul\":7796:8034   */\n      pop\n        /* \"#utility.yul\":7753:8034   */\n      pop\n      pop\n      jump\t// out\n        /* \"#utility.yul\":8040:8220   */\n    tag_205:\n        /* \"#utility.yul\":8088:8165   */\n      0x4e487b7100000000000000000000000000000000000000000000000000000000\n        /* \"#utility.yul\":8085:8086   */\n      0x00\n        /* \"#utility.yul\":8078:8166   */\n      mstore\n        /* \"#utility.yul\":8185:8189   */\n      0x11\n        /* \"#utility.yul\":8182:8183   */\n      0x04\n        /* \"#utility.yul\":8175:8190   */\n      mstore\n        /* \"#utility.yul\":8209:8213   */\n      0x24\n        /* \"#utility.yul\":8206:8207   */\n      0x00\n        /* \"#utility.yul\":8199:8214   */\n      revert\n        /* \"#utility.yul\":8226:8406   */\n    tag_210:\n        /* \"#utility.yul\":8274:8351   */\n      0x4e487b7100000000000000000000000000000000000000000000000000000000\n        /* \"#utility.yul\":8271:8272   */\n      0x00\n        /* \"#utility.yul\":8264:8352   */\n      mstore\n        /* \"#utility.yul\":8371:8375   */\n      0x22\n        /* \"#utility.yul\":8368:8369   */\n      0x04\n        /* \"#utility.yul\":8361:8376   */\n      mstore\n        /* \"#utility.yul\":8395:8399   */\n      0x24\n        /* \"#utility.yul\":8392:8393   */\n      0x00\n        /* \"#utility.yul\":8385:8400   */\n      revert\n        /* \"#utility.yul\":8412:8592   */\n    tag_189:\n        /* \"#utility.yul\":8460:8537   */\n      0x4e487b7100000000000000000000000000000000000000000000000000000000\n        /* \"#utility.yul\":8457:8458   */\n      0x00\n        /* \"#utility.yul\":8450:8538   */\n      mstore\n        /* \"#utility.yul\":8557:8561   */\n      0x41\n        /* \"#utility.yul\":8554:8555   */\n      0x04\n        /* \"#utility.yul\":8547:8562   */\n      mstore\n        /* \"#utility.yul\":8581:8585   */\n      0x24\n        /* \"#utility.yul\":8578:8579   */\n      0x00\n        /* \"#utility.yul\":8571:8586   */\n      revert\n        /* \"#utility.yul\":8598:8715   */\n    tag_115:\n        /* \"#utility.yul\":8707:8708   */\n      0x00\n        /* \"#utility.yul\":8704:8705   */\n      dup1\n        /* \"#utility.yul\":8697:8709   */\n      revert\n        /* \"#utility.yul\":8721:8838   */\n    tag_121:\n        /* \"#utility.yul\":8830:8831   */\n      0x00\n        /* \"#utility.yul\":8827:8828   */\n      dup1\n        /* \"#utility.yul\":8820:8832   */\n      revert\n        /* \"#utility.yul\":8844:8961   */\n    tag_125:\n        /* \"#utility.yul\":8953:8954   */\n      0x00\n        /* \"#utility.yul\":8950:8951   */\n      dup1\n        /* \"#utility.yul\":8943:8955   */\n      revert\n        /* \"#utility.yul\":8967:9084   */\n    tag_104:\n        /* \"#utility.yul\":9076:9077   */\n      0x00\n        /* \"#utility.yul\":9073:9074   */\n      dup1\n        /* \"#utility.yul\":9066:9078   */\n      revert\n        /* \"#utility.yul\":9090:9207   */\n    tag_143:\n        /* \"#utility.yul\":9199:9200   */\n      0x00\n        /* \"#utility.yul\":9196:9197   */\n      dup1\n        /* \"#utility.yul\":9189:9201   */\n      revert\n        /* \"#utility.yul\":9213:9330   */\n    tag_140:\n        /* \"#utility.yul\":9322:9323   */\n      0x00\n        /* \"#utility.yul\":9319:9320   */\n      dup1\n        /* \"#utility.yul\":9312:9324   */\n      revert\n        /* \"#utility.yul\":9336:9438   */\n    tag_162:\n        /* \"#utility.yul\":9377:9383   */\n      0x00\n        /* \"#utility.yul\":9428:9430   */\n      0x1f\n        /* \"#utility.yul\":9424:9431   */\n      not\n        /* \"#utility.yul\":9419:9421   */\n      0x1f\n        /* \"#utility.yul\":9412:9417   */\n      dup4\n        /* \"#utility.yul\":9408:9422   */\n      add\n        /* \"#utility.yul\":9404:9432   */\n      and\n        /* \"#utility.yul\":9394:9432   */\n      swap1\n      pop\n        /* \"#utility.yul\":9336:9438   */\n      swap2\n      swap1\n      pop\n      jump\t// out\n        /* \"#utility.yul\":9444:9560   */\n    tag_110:\n        /* \"#utility.yul\":9514:9535   */\n      tag_226\n        /* \"#utility.yul\":9529:9534   */\n      dup2\n        /* \"#utility.yul\":9514:9535   */\n      tag_152\n      jump\t// in\n    tag_226:\n        /* \"#utility.yul\":9507:9512   */\n      dup2\n        /* \"#utility.yul\":9504:9536   */\n      eq\n        /* \"#utility.yul\":9494:9554   */\n      tag_227\n      jumpi\n        /* \"#utility.yul\":9550:9551   */\n      0x00\n        /* \"#utility.yul\":9547:9548   */\n      dup1\n        /* \"#utility.yul\":9540:9552   */\n      revert\n        /* \"#utility.yul\":9494:9554   */\n    tag_227:\n        /* \"#utility.yul\":9444:9560   */\n      pop\n      jump\t// out\n        /* \"#utility.yul\":9566:9688   */\n    tag_136:\n        /* \"#utility.yul\":9639:9663   */\n      tag_229\n        /* \"#utility.yul\":9657:9662   */\n      dup2\n        /* \"#utility.yul\":9639:9663   */\n      tag_166\n      jump\t// in\n    tag_229:\n        /* \"#utility.yul\":9632:9637   */\n      dup2\n        /* \"#utility.yul\":9629:9664   */\n      eq\n        /* \"#utility.yul\":9619:9682   */\n      tag_230\n      jumpi\n        /* \"#utility.yul\":9678:9679   */\n      0x00\n        /* \"#utility.yul\":9675:9676   */\n      dup1\n        /* \"#utility.yul\":9668:9680   */\n      revert\n        /* \"#utility.yul\":9619:9682   */\n    tag_230:\n        /* \"#utility.yul\":9566:9688   */\n      pop\n      jump\t// out\n\n    auxdata: 0xa26469706673582212209d9e4db24db8b760f10f716abfee8124cd2bc549d8bdd407b539a84ecae47fc264736f6c63430008070033\n}\n",
				"bytecode": {
					"linkReferences": {},
					"object": "60806040526040518060a001604052806040518060400160405280600681526020017f7469746c6532000000000000000000000000000000000000000000000000000081525081526020016040518060400160405280600781526020017f7269636172646f00000000000000000000000000000000000000000000000000815250815260200160028152602001600015158152602001600a81525060056000820151816000019080519060200190620000ba92919062000124565b506020820151816001019080519060200190620000d992919062000124565b506040820151816002015560608201518160030160006101000a81548160ff0219169083151502179055506080820151816004015550503480156200011d57600080fd5b5062000239565b8280546200013290620001d4565b90600052602060002090601f016020900481019282620001565760008555620001a2565b82601f106200017157805160ff1916838001178555620001a2565b82800160010185558215620001a2579182015b82811115620001a157825182559160200191906001019062000184565b5b509050620001b19190620001b5565b5090565b5b80821115620001d0576000816000905550600101620001b6565b5090565b60006002820490506001821680620001ed57607f821691505b602082108114156200020457620002036200020a565b5b50919050565b7f4e487b7100000000000000000000000000000000000000000000000000000000600052602260045260246000fd5b610c8480620002496000396000f3fe608060405234801561001057600080fd5b50600436106100885760003560e01c8063e0ff5b8b1161005b578063e0ff5b8b146100ee578063e815fe1d1461011e578063fb6a8fcc14610140578063ff3c1a8f1461016257610088565b80637e490a9e1461008d578063a0c3595a146100a9578063b15195ed146100c8578063cad4a2df146100d2575b600080fd5b6100a760048036038101906100a291906108bb565b610180565b005b6100b16101af565b6040516100bf9291906109dd565b60405180910390f35b6100d0610252565b005b6100ec60048036038101906100e79190610872565b6102a2565b005b610108600480360381019061010391906108bb565b61032e565b604051610115919061093f565b60405180910390f35b61012661035b565b60405161013795949392919061097c565b60405180910390f35b61014861049c565b60405161015995949392919061097c565b60405180910390f35b61016a6105dd565b604051610177919061095a565b60405180910390f35b600a600082815260200190815260200160002060040160008154809291906101a790610ad7565b919050555050565b6060600060056000016005600201548180546101ca90610b01565b80601f01602080910402602001604051908101604052809291908181526020018280546101f690610b01565b80156102435780601f1061021857610100808354040283529160200191610243565b820191906000526020600020905b81548152906001019060200180831161022657829003601f168201915b50505050509150915091509091565b6040518060400160405280600581526020017f7469746c6500000000000000000000000000000000000000000000000000000081525060008001908051906020019061029f929190610671565b50565b80600a60008360400151815260200190815260200160002060008201518160000190805190602001906102d6929190610671565b5060208201518160010190805190602001906102f3929190610671565b506040820151816002015560608201518160030160006101000a81548160ff0219169083151502179055506080820151816004015590505050565b6000600a600083815260200190815260200160002060030160009054906101000a900460ff169050919050565b600580600001805461036c90610b01565b80601f016020809104026020016040519081016040528092919081815260200182805461039890610b01565b80156103e55780601f106103ba576101008083540402835291602001916103e5565b820191906000526020600020905b8154815290600101906020018083116103c857829003601f168201915b5050505050908060010180546103fa90610b01565b80601f016020809104026020016040519081016040528092919081815260200182805461042690610b01565b80156104735780601f1061044857610100808354040283529160200191610473565b820191906000526020600020905b81548152906001019060200180831161045657829003601f168201915b5050505050908060020154908060030160009054906101000a900460ff16908060040154905085565b60008060000180546104ad90610b01565b80601f01602080910402602001604051908101604052809291908181526020018280546104d990610b01565b80156105265780601f106104fb57610100808354040283529160200191610526565b820191906000526020600020905b81548152906001019060200180831161050957829003601f168201915b50505050509080600101805461053b90610b01565b80601f016020809104026020016040519081016040528092919081815260200182805461056790610b01565b80156105b45780601f10610589576101008083540402835291602001916105b4565b820191906000526020600020905b81548152906001019060200180831161059757829003601f168201915b5050505050908060020154908060030160009054906101000a900460ff16908060040154905085565b60606000800180546105ee90610b01565b80601f016020809104026020016040519081016040528092919081815260200182805461061a90610b01565b80156106675780601f1061063c57610100808354040283529160200191610667565b820191906000526020600020905b81548152906001019060200180831161064a57829003601f168201915b5050505050905090565b82805461067d90610b01565b90600052602060002090601f01602090048101928261069f57600085556106e6565b82601f106106b857805160ff19168380011785556106e6565b828001600101855582156106e6579182015b828111156106e55782518255916020019190600101906106ca565b5b5090506106f391906106f7565b5090565b5b808211156107105760008160009055506001016106f8565b5090565b600061072761072284610a32565b610a0d565b90508281526020810184848401111561074357610742610c00565b5b61074e848285610a95565b509392505050565b60008135905061076581610c20565b92915050565b600082601f8301126107805761077f610bf1565b5b8135610790848260208601610714565b91505092915050565b600060a082840312156107af576107ae610bf6565b5b6107b960a0610a0d565b9050600082013567ffffffffffffffff8111156107d9576107d8610bfb565b5b6107e58482850161076b565b600083015250602082013567ffffffffffffffff81111561080957610808610bfb565b5b6108158482850161076b565b60208301525060406108298482850161085d565b604083015250606061083d84828501610756565b60608301525060806108518482850161085d565b60808301525092915050565b60008135905061086c81610c37565b92915050565b60006020828403121561088857610887610c0a565b5b600082013567ffffffffffffffff8111156108a6576108a5610c05565b5b6108b284828501610799565b91505092915050565b6000602082840312156108d1576108d0610c0a565b5b60006108df8482850161085d565b91505092915050565b6108f181610a7f565b82525050565b600061090282610a63565b61090c8185610a6e565b935061091c818560208601610aa4565b61092581610c0f565b840191505092915050565b61093981610a8b565b82525050565b600060208201905061095460008301846108e8565b92915050565b6000602082019050818103600083015261097481846108f7565b905092915050565b600060a082019050818103600083015261099681886108f7565b905081810360208301526109aa81876108f7565b90506109b96040830186610930565b6109c660608301856108e8565b6109d36080830184610930565b9695505050505050565b600060408201905081810360008301526109f781856108f7565b9050610a066020830184610930565b9392505050565b6000610a17610a28565b9050610a238282610b33565b919050565b6000604051905090565b600067ffffffffffffffff821115610a4d57610a4c610bc2565b5b610a5682610c0f565b9050602081019050919050565b600081519050919050565b600082825260208201905092915050565b60008115159050919050565b6000819050919050565b82818337600083830152505050565b60005b83811015610ac2578082015181840152602081019050610aa7565b83811115610ad1576000848401525b50505050565b6000610ae282610a8b565b91506000821415610af657610af5610b64565b5b600182039050919050565b60006002820490506001821680610b1957607f821691505b60208210811415610b2d57610b2c610b93565b5b50919050565b610b3c82610c0f565b810181811067ffffffffffffffff82111715610b5b57610b5a610bc2565b5b80604052505050565b7f4e487b7100000000000000000000000000000000000000000000000000000000600052601160045260246000fd5b7f4e487b7100000000000000000000000000000000000000000000000000000000600052602260045260246000fd5b7f4e487b7100000000000000000000000000000000000000000000000000000000600052604160045260246000fd5b600080fd5b600080fd5b600080fd5b600080fd5b600080fd5b600080fd5b6000601f19601f8301169050919050565b610c2981610a7f565b8114610c3457600080fd5b50565b610c4081610a8b565b8114610c4b57600080fd5b5056fea26469706673582212209d9e4db24db8b760f10f716abfee8124cd2bc549d8bdd407b539a84ecae47fc264736f6c63430008070033",
					"opcodes": "PUSH1 0x80 PUSH1 0x40 MSTORE PUSH1 0x40 MLOAD DUP1 PUSH1 0xA0 ADD PUSH1 0x40 MSTORE DUP1 PUSH1 0x40 MLOAD DUP1 PUSH1 0x40 ADD PUSH1 0x40 MSTORE DUP1 PUSH1 0x6 DUP2 MSTORE PUSH1 0x20 ADD PUSH32 0x7469746C65320000000000000000000000000000000000000000000000000000 DUP2 MSTORE POP DUP2 MSTORE PUSH1 0x20 ADD PUSH1 0x40 MLOAD DUP1 PUSH1 0x40 ADD PUSH1 0x40 MSTORE DUP1 PUSH1 0x7 DUP2 MSTORE PUSH1 0x20 ADD PUSH32 0x7269636172646F00000000000000000000000000000000000000000000000000 DUP2 MSTORE POP DUP2 MSTORE PUSH1 0x20 ADD PUSH1 0x2 DUP2 MSTORE PUSH1 0x20 ADD PUSH1 0x0 ISZERO ISZERO DUP2 MSTORE PUSH1 0x20 ADD PUSH1 0xA DUP2 MSTORE POP PUSH1 0x5 PUSH1 0x0 DUP3 ADD MLOAD DUP2 PUSH1 0x0 ADD SWAP1 DUP1 MLOAD SWAP1 PUSH1 0x20 ADD SWAP1 PUSH3 0xBA SWAP3 SWAP2 SWAP1 PUSH3 0x124 JUMP JUMPDEST POP PUSH1 0x20 DUP3 ADD MLOAD DUP2 PUSH1 0x1 ADD SWAP1 DUP1 MLOAD SWAP1 PUSH1 0x20 ADD SWAP1 PUSH3 0xD9 SWAP3 SWAP2 SWAP1 PUSH3 0x124 JUMP JUMPDEST POP PUSH1 0x40 DUP3 ADD MLOAD DUP2 PUSH1 0x2 ADD SSTORE PUSH1 0x60 DUP3 ADD MLOAD DUP2 PUSH1 0x3 ADD PUSH1 0x0 PUSH2 0x100 EXP DUP2 SLOAD DUP2 PUSH1 0xFF MUL NOT AND SWAP1 DUP4 ISZERO ISZERO MUL OR SWAP1 SSTORE POP PUSH1 0x80 DUP3 ADD MLOAD DUP2 PUSH1 0x4 ADD SSTORE POP POP CALLVALUE DUP1 ISZERO PUSH3 0x11D JUMPI PUSH1 0x0 DUP1 REVERT JUMPDEST POP PUSH3 0x239 JUMP JUMPDEST DUP3 DUP1 SLOAD PUSH3 0x132 SWAP1 PUSH3 0x1D4 JUMP JUMPDEST SWAP1 PUSH1 0x0 MSTORE PUSH1 0x20 PUSH1 0x0 KECCAK256 SWAP1 PUSH1 0x1F ADD PUSH1 0x20 SWAP1 DIV DUP2 ADD SWAP3 DUP3 PUSH3 0x156 JUMPI PUSH1 0x0 DUP6 SSTORE PUSH3 0x1A2 JUMP JUMPDEST DUP3 PUSH1 0x1F LT PUSH3 0x171 JUMPI DUP1 MLOAD PUSH1 0xFF NOT AND DUP4 DUP1 ADD OR DUP6 SSTORE PUSH3 0x1A2 JUMP JUMPDEST DUP3 DUP1 ADD PUSH1 0x1 ADD DUP6 SSTORE DUP3 ISZERO PUSH3 0x1A2 JUMPI SWAP2 DUP3 ADD JUMPDEST DUP3 DUP2 GT ISZERO PUSH3 0x1A1 JUMPI DUP3 MLOAD DUP3 SSTORE SWAP2 PUSH1 0x20 ADD SWAP2 SWAP1 PUSH1 0x1 ADD SWAP1 PUSH3 0x184 JUMP JUMPDEST JUMPDEST POP SWAP1 POP PUSH3 0x1B1 SWAP2 SWAP1 PUSH3 0x1B5 JUMP JUMPDEST POP SWAP1 JUMP JUMPDEST JUMPDEST DUP1 DUP3 GT ISZERO PUSH3 0x1D0 JUMPI PUSH1 0x0 DUP2 PUSH1 0x0 SWAP1 SSTORE POP PUSH1 0x1 ADD PUSH3 0x1B6 JUMP JUMPDEST POP SWAP1 JUMP JUMPDEST PUSH1 0x0 PUSH1 0x2 DUP3 DIV SWAP1 POP PUSH1 0x1 DUP3 AND DUP1 PUSH3 0x1ED JUMPI PUSH1 0x7F DUP3 AND SWAP2 POP JUMPDEST PUSH1 0x20 DUP3 LT DUP2 EQ ISZERO PUSH3 0x204 JUMPI PUSH3 0x203 PUSH3 0x20A JUMP JUMPDEST JUMPDEST POP SWAP2 SWAP1 POP JUMP JUMPDEST PUSH32 0x4E487B7100000000000000000000000000000000000000000000000000000000 PUSH1 0x0 MSTORE PUSH1 0x22 PUSH1 0x4 MSTORE PUSH1 0x24 PUSH1 0x0 REVERT JUMPDEST PUSH2 0xC84 DUP1 PUSH3 0x249 PUSH1 0x0 CODECOPY PUSH1 0x0 RETURN INVALID PUSH1 0x80 PUSH1 0x40 MSTORE CALLVALUE DUP1 ISZERO PUSH2 0x10 JUMPI PUSH1 0x0 DUP1 REVERT JUMPDEST POP PUSH1 0x4 CALLDATASIZE LT PUSH2 0x88 JUMPI PUSH1 0x0 CALLDATALOAD PUSH1 0xE0 SHR DUP1 PUSH4 0xE0FF5B8B GT PUSH2 0x5B JUMPI DUP1 PUSH4 0xE0FF5B8B EQ PUSH2 0xEE JUMPI DUP1 PUSH4 0xE815FE1D EQ PUSH2 0x11E JUMPI DUP1 PUSH4 0xFB6A8FCC EQ PUSH2 0x140 JUMPI DUP1 PUSH4 0xFF3C1A8F EQ PUSH2 0x162 JUMPI PUSH2 0x88 JUMP JUMPDEST DUP1 PUSH4 0x7E490A9E EQ PUSH2 0x8D JUMPI DUP1 PUSH4 0xA0C3595A EQ PUSH2 0xA9 JUMPI DUP1 PUSH4 0xB15195ED EQ PUSH2 0xC8 JUMPI DUP1 PUSH4 0xCAD4A2DF EQ PUSH2 0xD2 JUMPI JUMPDEST PUSH1 0x0 DUP1 REVERT JUMPDEST PUSH2 0xA7 PUSH1 0x4 DUP1 CALLDATASIZE SUB DUP2 ADD SWAP1 PUSH2 0xA2 SWAP2 SWAP1 PUSH2 0x8BB JUMP JUMPDEST PUSH2 0x180 JUMP JUMPDEST STOP JUMPDEST PUSH2 0xB1 PUSH2 0x1AF JUMP JUMPDEST PUSH1 0x40 MLOAD PUSH2 0xBF SWAP3 SWAP2 SWAP1 PUSH2 0x9DD JUMP JUMPDEST PUSH1 0x40 MLOAD DUP1 SWAP2 SUB SWAP1 RETURN JUMPDEST PUSH2 0xD0 PUSH2 0x252 JUMP JUMPDEST STOP JUMPDEST PUSH2 0xEC PUSH1 0x4 DUP1 CALLDATASIZE SUB DUP2 ADD SWAP1 PUSH2 0xE7 SWAP2 SWAP1 PUSH2 0x872 JUMP JUMPDEST PUSH2 0x2A2 JUMP JUMPDEST STOP JUMPDEST PUSH2 0x108 PUSH1 0x4 DUP1 CALLDATASIZE SUB DUP2 ADD SWAP1 PUSH2 0x103 SWAP2 SWAP1 PUSH2 0x8BB JUMP JUMPDEST PUSH2 0x32E JUMP JUMPDEST PUSH1 0x40 MLOAD PUSH2 0x115 SWAP2 SWAP1 PUSH2 0x93F JUMP JUMPDEST PUSH1 0x40 MLOAD DUP1 SWAP2 SUB SWAP1 RETURN JUMPDEST PUSH2 0x126 PUSH2 0x35B JUMP JUMPDEST PUSH1 0x40 MLOAD PUSH2 0x137 SWAP6 SWAP5 SWAP4 SWAP3 SWAP2 SWAP1 PUSH2 0x97C JUMP JUMPDEST PUSH1 0x40 MLOAD DUP1 SWAP2 SUB SWAP1 RETURN JUMPDEST PUSH2 0x148 PUSH2 0x49C JUMP JUMPDEST PUSH1 0x40 MLOAD PUSH2 0x159 SWAP6 SWAP5 SWAP4 SWAP3 SWAP2 SWAP1 PUSH2 0x97C JUMP JUMPDEST PUSH1 0x40 MLOAD DUP1 SWAP2 SUB SWAP1 RETURN JUMPDEST PUSH2 0x16A PUSH2 0x5DD JUMP JUMPDEST PUSH1 0x40 MLOAD PUSH2 0x177 SWAP2 SWAP1 PUSH2 0x95A JUMP JUMPDEST PUSH1 0x40 MLOAD DUP1 SWAP2 SUB SWAP1 RETURN JUMPDEST PUSH1 0xA PUSH1 0x0 DUP3 DUP2 MSTORE PUSH1 0x20 ADD SWAP1 DUP2 MSTORE PUSH1 0x20 ADD PUSH1 0x0 KECCAK256 PUSH1 0x4 ADD PUSH1 0x0 DUP2 SLOAD DUP1 SWAP3 SWAP2 SWAP1 PUSH2 0x1A7 SWAP1 PUSH2 0xAD7 JUMP JUMPDEST SWAP2 SWAP1 POP SSTORE POP POP JUMP JUMPDEST PUSH1 0x60 PUSH1 0x0 PUSH1 0x5 PUSH1 0x0 ADD PUSH1 0x5 PUSH1 0x2 ADD SLOAD DUP2 DUP1 SLOAD PUSH2 0x1CA SWAP1 PUSH2 0xB01 JUMP JUMPDEST DUP1 PUSH1 0x1F ADD PUSH1 0x20 DUP1 SWAP2 DIV MUL PUSH1 0x20 ADD PUSH1 0x40 MLOAD SWAP1 DUP2 ADD PUSH1 0x40 MSTORE DUP1 SWAP3 SWAP2 SWAP1 DUP2 DUP2 MSTORE PUSH1 0x20 ADD DUP3 DUP1 SLOAD PUSH2 0x1F6 SWAP1 PUSH2 0xB01 JUMP JUMPDEST DUP1 ISZERO PUSH2 0x243 JUMPI DUP1 PUSH1 0x1F LT PUSH2 0x218 JUMPI PUSH2 0x100 DUP1 DUP4 SLOAD DIV MUL DUP4 MSTORE SWAP2 PUSH1 0x20 ADD SWAP2 PUSH2 0x243 JUMP JUMPDEST DUP3 ADD SWAP2 SWAP1 PUSH1 0x0 MSTORE PUSH1 0x20 PUSH1 0x0 KECCAK256 SWAP1 JUMPDEST DUP2 SLOAD DUP2 MSTORE SWAP1 PUSH1 0x1 ADD SWAP1 PUSH1 0x20 ADD DUP1 DUP4 GT PUSH2 0x226 JUMPI DUP3 SWAP1 SUB PUSH1 0x1F AND DUP3 ADD SWAP2 JUMPDEST POP POP POP POP POP SWAP2 POP SWAP2 POP SWAP2 POP SWAP1 SWAP2 JUMP JUMPDEST PUSH1 0x40 MLOAD DUP1 PUSH1 0x40 ADD PUSH1 0x40 MSTORE DUP1 PUSH1 0x5 DUP2 MSTORE PUSH1 0x20 ADD PUSH32 0x7469746C65000000000000000000000000000000000000000000000000000000 DUP2 MSTORE POP PUSH1 0x0 DUP1 ADD SWAP1 DUP1 MLOAD SWAP1 PUSH1 0x20 ADD SWAP1 PUSH2 0x29F SWAP3 SWAP2 SWAP1 PUSH2 0x671 JUMP JUMPDEST POP JUMP JUMPDEST DUP1 PUSH1 0xA PUSH1 0x0 DUP4 PUSH1 0x40 ADD MLOAD DUP2 MSTORE PUSH1 0x20 ADD SWAP1 DUP2 MSTORE PUSH1 0x20 ADD PUSH1 0x0 KECCAK256 PUSH1 0x0 DUP3 ADD MLOAD DUP2 PUSH1 0x0 ADD SWAP1 DUP1 MLOAD SWAP1 PUSH1 0x20 ADD SWAP1 PUSH2 0x2D6 SWAP3 SWAP2 SWAP1 PUSH2 0x671 JUMP JUMPDEST POP PUSH1 0x20 DUP3 ADD MLOAD DUP2 PUSH1 0x1 ADD SWAP1 DUP1 MLOAD SWAP1 PUSH1 0x20 ADD SWAP1 PUSH2 0x2F3 SWAP3 SWAP2 SWAP1 PUSH2 0x671 JUMP JUMPDEST POP PUSH1 0x40 DUP3 ADD MLOAD DUP2 PUSH1 0x2 ADD SSTORE PUSH1 0x60 DUP3 ADD MLOAD DUP2 PUSH1 0x3 ADD PUSH1 0x0 PUSH2 0x100 EXP DUP2 SLOAD DUP2 PUSH1 0xFF MUL NOT AND SWAP1 DUP4 ISZERO ISZERO MUL OR SWAP1 SSTORE POP PUSH1 0x80 DUP3 ADD MLOAD DUP2 PUSH1 0x4 ADD SSTORE SWAP1 POP POP POP JUMP JUMPDEST PUSH1 0x0 PUSH1 0xA PUSH1 0x0 DUP4 DUP2 MSTORE PUSH1 0x20 ADD SWAP1 DUP2 MSTORE PUSH1 0x20 ADD PUSH1 0x0 KECCAK256 PUSH1 0x3 ADD PUSH1 0x0 SWAP1 SLOAD SWAP1 PUSH2 0x100 EXP SWAP1 DIV PUSH1 0xFF AND SWAP1 POP SWAP2 SWAP1 POP JUMP JUMPDEST PUSH1 0x5 DUP1 PUSH1 0x0 ADD DUP1 SLOAD PUSH2 0x36C SWAP1 PUSH2 0xB01 JUMP JUMPDEST DUP1 PUSH1 0x1F ADD PUSH1 0x20 DUP1 SWAP2 DIV MUL PUSH1 0x20 ADD PUSH1 0x40 MLOAD SWAP1 DUP2 ADD PUSH1 0x40 MSTORE DUP1 SWAP3 SWAP2 SWAP1 DUP2 DUP2 MSTORE PUSH1 0x20 ADD DUP3 DUP1 SLOAD PUSH2 0x398 SWAP1 PUSH2 0xB01 JUMP JUMPDEST DUP1 ISZERO PUSH2 0x3E5 JUMPI DUP1 PUSH1 0x1F LT PUSH2 0x3BA JUMPI PUSH2 0x100 DUP1 DUP4 SLOAD DIV MUL DUP4 MSTORE SWAP2 PUSH1 0x20 ADD SWAP2 PUSH2 0x3E5 JUMP JUMPDEST DUP3 ADD SWAP2 SWAP1 PUSH1 0x0 MSTORE PUSH1 0x20 PUSH1 0x0 KECCAK256 SWAP1 JUMPDEST DUP2 SLOAD DUP2 MSTORE SWAP1 PUSH1 0x1 ADD SWAP1 PUSH1 0x20 ADD DUP1 DUP4 GT PUSH2 0x3C8 JUMPI DUP3 SWAP1 SUB PUSH1 0x1F AND DUP3 ADD SWAP2 JUMPDEST POP POP POP POP POP SWAP1 DUP1 PUSH1 0x1 ADD DUP1 SLOAD PUSH2 0x3FA SWAP1 PUSH2 0xB01 JUMP JUMPDEST DUP1 PUSH1 0x1F ADD PUSH1 0x20 DUP1 SWAP2 DIV MUL PUSH1 0x20 ADD PUSH1 0x40 MLOAD SWAP1 DUP2 ADD PUSH1 0x40 MSTORE DUP1 SWAP3 SWAP2 SWAP1 DUP2 DUP2 MSTORE PUSH1 0x20 ADD DUP3 DUP1 SLOAD PUSH2 0x426 SWAP1 PUSH2 0xB01 JUMP JUMPDEST DUP1 ISZERO PUSH2 0x473 JUMPI DUP1 PUSH1 0x1F LT PUSH2 0x448 JUMPI PUSH2 0x100 DUP1 DUP4 SLOAD DIV MUL DUP4 MSTORE SWAP2 PUSH1 0x20 ADD SWAP2 PUSH2 0x473 JUMP JUMPDEST DUP3 ADD SWAP2 SWAP1 PUSH1 0x0 MSTORE PUSH1 0x20 PUSH1 0x0 KECCAK256 SWAP1 JUMPDEST DUP2 SLOAD DUP2 MSTORE SWAP1 PUSH1 0x1 ADD SWAP1 PUSH1 0x20 ADD DUP1 DUP4 GT PUSH2 0x456 JUMPI DUP3 SWAP1 SUB PUSH1 0x1F AND DUP3 ADD SWAP2 JUMPDEST POP POP POP POP POP SWAP1 DUP1 PUSH1 0x2 ADD SLOAD SWAP1 DUP1 PUSH1 0x3 ADD PUSH1 0x0 SWAP1 SLOAD SWAP1 PUSH2 0x100 EXP SWAP1 DIV PUSH1 0xFF AND SWAP1 DUP1 PUSH1 0x4 ADD SLOAD SWAP1 POP DUP6 JUMP JUMPDEST PUSH1 0x0 DUP1 PUSH1 0x0 ADD DUP1 SLOAD PUSH2 0x4AD SWAP1 PUSH2 0xB01 JUMP JUMPDEST DUP1 PUSH1 0x1F ADD PUSH1 0x20 DUP1 SWAP2 DIV MUL PUSH1 0x20 ADD PUSH1 0x40 MLOAD SWAP1 DUP2 ADD PUSH1 0x40 MSTORE DUP1 SWAP3 SWAP2 SWAP1 DUP2 DUP2 MSTORE PUSH1 0x20 ADD DUP3 DUP1 SLOAD PUSH2 0x4D9 SWAP1 PUSH2 0xB01 JUMP JUMPDEST DUP1 ISZERO PUSH2 0x526 JUMPI DUP1 PUSH1 0x1F LT PUSH2 0x4FB JUMPI PUSH2 0x100 DUP1 DUP4 SLOAD DIV MUL DUP4 MSTORE SWAP2 PUSH1 0x20 ADD SWAP2 PUSH2 0x526 JUMP JUMPDEST DUP3 ADD SWAP2 SWAP1 PUSH1 0x0 MSTORE PUSH1 0x20 PUSH1 0x0 KECCAK256 SWAP1 JUMPDEST DUP2 SLOAD DUP2 MSTORE SWAP1 PUSH1 0x1 ADD SWAP1 PUSH1 0x20 ADD DUP1 DUP4 GT PUSH2 0x509 JUMPI DUP3 SWAP1 SUB PUSH1 0x1F AND DUP3 ADD SWAP2 JUMPDEST POP POP POP POP POP SWAP1 DUP1 PUSH1 0x1 ADD DUP1 SLOAD PUSH2 0x53B SWAP1 PUSH2 0xB01 JUMP JUMPDEST DUP1 PUSH1 0x1F ADD PUSH1 0x20 DUP1 SWAP2 DIV MUL PUSH1 0x20 ADD PUSH1 0x40 MLOAD SWAP1 DUP2 ADD PUSH1 0x40 MSTORE DUP1 SWAP3 SWAP2 SWAP1 DUP2 DUP2 MSTORE PUSH1 0x20 ADD DUP3 DUP1 SLOAD PUSH2 0x567 SWAP1 PUSH2 0xB01 JUMP JUMPDEST DUP1 ISZERO PUSH2 0x5B4 JUMPI DUP1 PUSH1 0x1F LT PUSH2 0x589 JUMPI PUSH2 0x100 DUP1 DUP4 SLOAD DIV MUL DUP4 MSTORE SWAP2 PUSH1 0x20 ADD SWAP2 PUSH2 0x5B4 JUMP JUMPDEST DUP3 ADD SWAP2 SWAP1 PUSH1 0x0 MSTORE PUSH1 0x20 PUSH1 0x0 KECCAK256 SWAP1 JUMPDEST DUP2 SLOAD DUP2 MSTORE SWAP1 PUSH1 0x1 ADD SWAP1 PUSH1 0x20 ADD DUP1 DUP4 GT PUSH2 0x597 JUMPI DUP3 SWAP1 SUB PUSH1 0x1F AND DUP3 ADD SWAP2 JUMPDEST POP POP POP POP POP SWAP1 DUP1 PUSH1 0x2 ADD SLOAD SWAP1 DUP1 PUSH1 0x3 ADD PUSH1 0x0 SWAP1 SLOAD SWAP1 PUSH2 0x100 EXP SWAP1 DIV PUSH1 0xFF AND SWAP1 DUP1 PUSH1 0x4 ADD SLOAD SWAP1 POP DUP6 JUMP JUMPDEST PUSH1 0x60 PUSH1 0x0 DUP1 ADD DUP1 SLOAD PUSH2 0x5EE SWAP1 PUSH2 0xB01 JUMP JUMPDEST DUP1 PUSH1 0x1F ADD PUSH1 0x20 DUP1 SWAP2 DIV MUL PUSH1 0x20 ADD PUSH1 0x40 MLOAD SWAP1 DUP2 ADD PUSH1 0x40 MSTORE DUP1 SWAP3 SWAP2 SWAP1 DUP2 DUP2 MSTORE PUSH1 0x20 ADD DUP3 DUP1 SLOAD PUSH2 0x61A SWAP1 PUSH2 0xB01 JUMP JUMPDEST DUP1 ISZERO PUSH2 0x667 JUMPI DUP1 PUSH1 0x1F LT PUSH2 0x63C JUMPI PUSH2 0x100 DUP1 DUP4 SLOAD DIV MUL DUP4 MSTORE SWAP2 PUSH1 0x20 ADD SWAP2 PUSH2 0x667 JUMP JUMPDEST DUP3 ADD SWAP2 SWAP1 PUSH1 0x0 MSTORE PUSH1 0x20 PUSH1 0x0 KECCAK256 SWAP1 JUMPDEST DUP2 SLOAD DUP2 MSTORE SWAP1 PUSH1 0x1 ADD SWAP1 PUSH1 0x20 ADD DUP1 DUP4 GT PUSH2 0x64A JUMPI DUP3 SWAP1 SUB PUSH1 0x1F AND DUP3 ADD SWAP2 JUMPDEST POP POP POP POP POP SWAP1 POP SWAP1 JUMP JUMPDEST DUP3 DUP1 SLOAD PUSH2 0x67D SWAP1 PUSH2 0xB01 JUMP JUMPDEST SWAP1 PUSH1 0x0 MSTORE PUSH1 0x20 PUSH1 0x0 KECCAK256 SWAP1 PUSH1 0x1F ADD PUSH1 0x20 SWAP1 DIV DUP2 ADD SWAP3 DUP3 PUSH2 0x69F JUMPI PUSH1 0x0 DUP6 SSTORE PUSH2 0x6E6 JUMP JUMPDEST DUP3 PUSH1 0x1F LT PUSH2 0x6B8 JUMPI DUP1 MLOAD PUSH1 0xFF NOT AND DUP4 DUP1 ADD OR DUP6 SSTORE PUSH2 0x6E6 JUMP JUMPDEST DUP3 DUP1 ADD PUSH1 0x1 ADD DUP6 SSTORE DUP3 ISZERO PUSH2 0x6E6 JUMPI SWAP2 DUP3 ADD JUMPDEST DUP3 DUP2 GT ISZERO PUSH2 0x6E5 JUMPI DUP3 MLOAD DUP3 SSTORE SWAP2 PUSH1 0x20 ADD SWAP2 SWAP1 PUSH1 0x1 ADD SWAP1 PUSH2 0x6CA JUMP JUMPDEST JUMPDEST POP SWAP1 POP PUSH2 0x6F3 SWAP2 SWAP1 PUSH2 0x6F7 JUMP JUMPDEST POP SWAP1 JUMP JUMPDEST JUMPDEST DUP1 DUP3 GT ISZERO PUSH2 0x710 JUMPI PUSH1 0x0 DUP2 PUSH1 0x0 SWAP1 SSTORE POP PUSH1 0x1 ADD PUSH2 0x6F8 JUMP JUMPDEST POP SWAP1 JUMP JUMPDEST PUSH1 0x0 PUSH2 0x727 PUSH2 0x722 DUP5 PUSH2 0xA32 JUMP JUMPDEST PUSH2 0xA0D JUMP JUMPDEST SWAP1 POP DUP3 DUP2 MSTORE PUSH1 0x20 DUP2 ADD DUP5 DUP5 DUP5 ADD GT ISZERO PUSH2 0x743 JUMPI PUSH2 0x742 PUSH2 0xC00 JUMP JUMPDEST JUMPDEST PUSH2 0x74E DUP5 DUP3 DUP6 PUSH2 0xA95 JUMP JUMPDEST POP SWAP4 SWAP3 POP POP POP JUMP JUMPDEST PUSH1 0x0 DUP2 CALLDATALOAD SWAP1 POP PUSH2 0x765 DUP2 PUSH2 0xC20 JUMP JUMPDEST SWAP3 SWAP2 POP POP JUMP JUMPDEST PUSH1 0x0 DUP3 PUSH1 0x1F DUP4 ADD SLT PUSH2 0x780 JUMPI PUSH2 0x77F PUSH2 0xBF1 JUMP JUMPDEST JUMPDEST DUP2 CALLDATALOAD PUSH2 0x790 DUP5 DUP3 PUSH1 0x20 DUP7 ADD PUSH2 0x714 JUMP JUMPDEST SWAP2 POP POP SWAP3 SWAP2 POP POP JUMP JUMPDEST PUSH1 0x0 PUSH1 0xA0 DUP3 DUP5 SUB SLT ISZERO PUSH2 0x7AF JUMPI PUSH2 0x7AE PUSH2 0xBF6 JUMP JUMPDEST JUMPDEST PUSH2 0x7B9 PUSH1 0xA0 PUSH2 0xA0D JUMP JUMPDEST SWAP1 POP PUSH1 0x0 DUP3 ADD CALLDATALOAD PUSH8 0xFFFFFFFFFFFFFFFF DUP2 GT ISZERO PUSH2 0x7D9 JUMPI PUSH2 0x7D8 PUSH2 0xBFB JUMP JUMPDEST JUMPDEST PUSH2 0x7E5 DUP5 DUP3 DUP6 ADD PUSH2 0x76B JUMP JUMPDEST PUSH1 0x0 DUP4 ADD MSTORE POP PUSH1 0x20 DUP3 ADD CALLDATALOAD PUSH8 0xFFFFFFFFFFFFFFFF DUP2 GT ISZERO PUSH2 0x809 JUMPI PUSH2 0x808 PUSH2 0xBFB JUMP JUMPDEST JUMPDEST PUSH2 0x815 DUP5 DUP3 DUP6 ADD PUSH2 0x76B JUMP JUMPDEST PUSH1 0x20 DUP4 ADD MSTORE POP PUSH1 0x40 PUSH2 0x829 DUP5 DUP3 DUP6 ADD PUSH2 0x85D JUMP JUMPDEST PUSH1 0x40 DUP4 ADD MSTORE POP PUSH1 0x60 PUSH2 0x83D DUP5 DUP3 DUP6 ADD PUSH2 0x756 JUMP JUMPDEST PUSH1 0x60 DUP4 ADD MSTORE POP PUSH1 0x80 PUSH2 0x851 DUP5 DUP3 DUP6 ADD PUSH2 0x85D JUMP JUMPDEST PUSH1 0x80 DUP4 ADD MSTORE POP SWAP3 SWAP2 POP POP JUMP JUMPDEST PUSH1 0x0 DUP2 CALLDATALOAD SWAP1 POP PUSH2 0x86C DUP2 PUSH2 0xC37 JUMP JUMPDEST SWAP3 SWAP2 POP POP JUMP JUMPDEST PUSH1 0x0 PUSH1 0x20 DUP3 DUP5 SUB SLT ISZERO PUSH2 0x888 JUMPI PUSH2 0x887 PUSH2 0xC0A JUMP JUMPDEST JUMPDEST PUSH1 0x0 DUP3 ADD CALLDATALOAD PUSH8 0xFFFFFFFFFFFFFFFF DUP2 GT ISZERO PUSH2 0x8A6 JUMPI PUSH2 0x8A5 PUSH2 0xC05 JUMP JUMPDEST JUMPDEST PUSH2 0x8B2 DUP5 DUP3 DUP6 ADD PUSH2 0x799 JUMP JUMPDEST SWAP2 POP POP SWAP3 SWAP2 POP POP JUMP JUMPDEST PUSH1 0x0 PUSH1 0x20 DUP3 DUP5 SUB SLT ISZERO PUSH2 0x8D1 JUMPI PUSH2 0x8D0 PUSH2 0xC0A JUMP JUMPDEST JUMPDEST PUSH1 0x0 PUSH2 0x8DF DUP5 DUP3 DUP6 ADD PUSH2 0x85D JUMP JUMPDEST SWAP2 POP POP SWAP3 SWAP2 POP POP JUMP JUMPDEST PUSH2 0x8F1 DUP2 PUSH2 0xA7F JUMP JUMPDEST DUP3 MSTORE POP POP JUMP JUMPDEST PUSH1 0x0 PUSH2 0x902 DUP3 PUSH2 0xA63 JUMP JUMPDEST PUSH2 0x90C DUP2 DUP6 PUSH2 0xA6E JUMP JUMPDEST SWAP4 POP PUSH2 0x91C DUP2 DUP6 PUSH1 0x20 DUP7 ADD PUSH2 0xAA4 JUMP JUMPDEST PUSH2 0x925 DUP2 PUSH2 0xC0F JUMP JUMPDEST DUP5 ADD SWAP2 POP POP SWAP3 SWAP2 POP POP JUMP JUMPDEST PUSH2 0x939 DUP2 PUSH2 0xA8B JUMP JUMPDEST DUP3 MSTORE POP POP JUMP JUMPDEST PUSH1 0x0 PUSH1 0x20 DUP3 ADD SWAP1 POP PUSH2 0x954 PUSH1 0x0 DUP4 ADD DUP5 PUSH2 0x8E8 JUMP JUMPDEST SWAP3 SWAP2 POP POP JUMP JUMPDEST PUSH1 0x0 PUSH1 0x20 DUP3 ADD SWAP1 POP DUP2 DUP2 SUB PUSH1 0x0 DUP4 ADD MSTORE PUSH2 0x974 DUP2 DUP5 PUSH2 0x8F7 JUMP JUMPDEST SWAP1 POP SWAP3 SWAP2 POP POP JUMP JUMPDEST PUSH1 0x0 PUSH1 0xA0 DUP3 ADD SWAP1 POP DUP2 DUP2 SUB PUSH1 0x0 DUP4 ADD MSTORE PUSH2 0x996 DUP2 DUP9 PUSH2 0x8F7 JUMP JUMPDEST SWAP1 POP DUP2 DUP2 SUB PUSH1 0x20 DUP4 ADD MSTORE PUSH2 0x9AA DUP2 DUP8 PUSH2 0x8F7 JUMP JUMPDEST SWAP1 POP PUSH2 0x9B9 PUSH1 0x40 DUP4 ADD DUP7 PUSH2 0x930 JUMP JUMPDEST PUSH2 0x9C6 PUSH1 0x60 DUP4 ADD DUP6 PUSH2 0x8E8 JUMP JUMPDEST PUSH2 0x9D3 PUSH1 0x80 DUP4 ADD DUP5 PUSH2 0x930 JUMP JUMPDEST SWAP7 SWAP6 POP POP POP POP POP POP JUMP JUMPDEST PUSH1 0x0 PUSH1 0x40 DUP3 ADD SWAP1 POP DUP2 DUP2 SUB PUSH1 0x0 DUP4 ADD MSTORE PUSH2 0x9F7 DUP2 DUP6 PUSH2 0x8F7 JUMP JUMPDEST SWAP1 POP PUSH2 0xA06 PUSH1 0x20 DUP4 ADD DUP5 PUSH2 0x930 JUMP JUMPDEST SWAP4 SWAP3 POP POP POP JUMP JUMPDEST PUSH1 0x0 PUSH2 0xA17 PUSH2 0xA28 JUMP JUMPDEST SWAP1 POP PUSH2 0xA23 DUP3 DUP3 PUSH2 0xB33 JUMP JUMPDEST SWAP2 SWAP1 POP JUMP JUMPDEST PUSH1 0x0 PUSH1 0x40 MLOAD SWAP1 POP SWAP1 JUMP JUMPDEST PUSH1 0x0 PUSH8 0xFFFFFFFFFFFFFFFF DUP3 GT ISZERO PUSH2 0xA4D JUMPI PUSH2 0xA4C PUSH2 0xBC2 JUMP JUMPDEST JUMPDEST PUSH2 0xA56 DUP3 PUSH2 0xC0F JUMP JUMPDEST SWAP1 POP PUSH1 0x20 DUP2 ADD SWAP1 POP SWAP2 SWAP1 POP JUMP JUMPDEST PUSH1 0x0 DUP2 MLOAD SWAP1 POP SWAP2 SWAP1 POP JUMP JUMPDEST PUSH1 0x0 DUP3 DUP3 MSTORE PUSH1 0x20 DUP3 ADD SWAP1 POP SWAP3 SWAP2 POP POP JUMP JUMPDEST PUSH1 0x0 DUP2 ISZERO ISZERO SWAP1 POP SWAP2 SWAP1 POP JUMP JUMPDEST PUSH1 0x0 DUP2 SWAP1 POP SWAP2 SWAP1 POP JUMP JUMPDEST DUP3 DUP2 DUP4 CALLDATACOPY PUSH1 0x0 DUP4 DUP4 ADD MSTORE POP POP POP JUMP JUMPDEST PUSH1 0x0 JUMPDEST DUP4 DUP2 LT ISZERO PUSH2 0xAC2 JUMPI DUP1 DUP3 ADD MLOAD DUP2 DUP5 ADD MSTORE PUSH1 0x20 DUP2 ADD SWAP1 POP PUSH2 0xAA7 JUMP JUMPDEST DUP4 DUP2 GT ISZERO PUSH2 0xAD1 JUMPI PUSH1 0x0 DUP5 DUP5 ADD MSTORE JUMPDEST POP POP POP POP JUMP JUMPDEST PUSH1 0x0 PUSH2 0xAE2 DUP3 PUSH2 0xA8B JUMP JUMPDEST SWAP2 POP PUSH1 0x0 DUP3 EQ ISZERO PUSH2 0xAF6 JUMPI PUSH2 0xAF5 PUSH2 0xB64 JUMP JUMPDEST JUMPDEST PUSH1 0x1 DUP3 SUB SWAP1 POP SWAP2 SWAP1 POP JUMP JUMPDEST PUSH1 0x0 PUSH1 0x2 DUP3 DIV SWAP1 POP PUSH1 0x1 DUP3 AND DUP1 PUSH2 0xB19 JUMPI PUSH1 0x7F DUP3 AND SWAP2 POP JUMPDEST PUSH1 0x20 DUP3 LT DUP2 EQ ISZERO PUSH2 0xB2D JUMPI PUSH2 0xB2C PUSH2 0xB93 JUMP JUMPDEST JUMPDEST POP SWAP2 SWAP1 POP JUMP JUMPDEST PUSH2 0xB3C DUP3 PUSH2 0xC0F JUMP JUMPDEST DUP2 ADD DUP2 DUP2 LT PUSH8 0xFFFFFFFFFFFFFFFF DUP3 GT OR ISZERO PUSH2 0xB5B JUMPI PUSH2 0xB5A PUSH2 0xBC2 JUMP JUMPDEST JUMPDEST DUP1 PUSH1 0x40 MSTORE POP POP POP JUMP JUMPDEST PUSH32 0x4E487B7100000000000000000000000000000000000000000000000000000000 PUSH1 0x0 MSTORE PUSH1 0x11 PUSH1 0x4 MSTORE PUSH1 0x24 PUSH1 0x0 REVERT JUMPDEST PUSH32 0x4E487B7100000000000000000000000000000000000000000000000000000000 PUSH1 0x0 MSTORE PUSH1 0x22 PUSH1 0x4 MSTORE PUSH1 0x24 PUSH1 0x0 REVERT JUMPDEST PUSH32 0x4E487B7100000000000000000000000000000000000000000000000000000000 PUSH1 0x0 MSTORE PUSH1 0x41 PUSH1 0x4 MSTORE PUSH1 0x24 PUSH1 0x0 REVERT JUMPDEST PUSH1 0x0 DUP1 REVERT JUMPDEST PUSH1 0x0 DUP1 REVERT JUMPDEST PUSH1 0x0 DUP1 REVERT JUMPDEST PUSH1 0x0 DUP1 REVERT JUMPDEST PUSH1 0x0 DUP1 REVERT JUMPDEST PUSH1 0x0 DUP1 REVERT JUMPDEST PUSH1 0x0 PUSH1 0x1F NOT PUSH1 0x1F DUP4 ADD AND SWAP1 POP SWAP2 SWAP1 POP JUMP JUMPDEST PUSH2 0xC29 DUP2 PUSH2 0xA7F JUMP JUMPDEST DUP2 EQ PUSH2 0xC34 JUMPI PUSH1 0x0 DUP1 REVERT JUMPDEST POP JUMP JUMPDEST PUSH2 0xC40 DUP2 PUSH2 0xA8B JUMP JUMPDEST DUP2 EQ PUSH2 0xC4B JUMPI PUSH1 0x0 DUP1 REVERT JUMPDEST POP JUMP INVALID LOG2 PUSH5 0x6970667358 0x22 SLT KECCAK256 SWAP14 SWAP15 0x4D 0xB2 0x4D 0xB8 0xB7 PUSH1 0xF1 0xF PUSH18 0x6ABFEE8124CD2BC549D8BDD407B539A84ECA 0xE4 PUSH32 0xC264736F6C634300080700330000000000000000000000000000000000000000 "
				},
				"gasEstimates": {
					"creation": {
						"codeDepositCost": "640800",
						"executionCost": "infinite",
						"totalCost": "infinite"
					},
					"external": {
						"addBook((string,string,uint256,bool,uint256))": "infinite",
						"book1()": "infinite",
						"book2()": "infinite",
						"borrowBook(uint256)": "infinite",
						"getBook(uint256)": "2828",
						"getTitle()": "infinite",
						"getTitleAndIdBook2()": "infinite",
						"setTitle()": "infinite"
					}
				},
				"methodIdentifiers": {
					"addBook((string,string,uint256,bool,uint256))": "cad4a2df",
					"book1()": "fb6a8fcc",
					"book2()": "e815fe1d",
					"borrowBook(uint256)": "7e490a9e",
					"getBook(uint256)": "e0ff5b8b",
					"getTitle()": "ff3c1a8f",
					"getTitleAndIdBook2()": "a0c3595a",
					"setTitle()": "b15195ed"
				}
			},
			"storageLayout": {
				"storage": [
					{
						"astId": 15,
						"contract": "contracts/Ejercicios/StructTest.sol:StructTest",
						"label": "book1",
						"offset": 0,
						"slot": "0",
						"type": "t_struct(Book)12_storage"
					},
					{
						"astId": 25,
						"contract": "contracts/Ejercicios/StructTest.sol:StructTest",
						"label": "book2",
						"offset": 0,
						"slot": "5",
						"type": "t_struct(Book)12_storage"
					},
					{
						"astId": 30,
						"contract": "contracts/Ejercicios/StructTest.sol:StructTest",
						"label": "libraryBook",
						"offset": 0,
						"slot": "10",
						"type": "t_mapping(t_uint256,t_struct(Book)12_storage)"
					}
				],
				"types": {
					"t_bool": {
						"encoding": "inplace",
						"label": "bool",
						"numberOfBytes": "1"
					},
					"t_mapping(t_uint256,t_struct(Book)12_storage)": {
						"encoding": "mapping",
						"key": "t_uint256",
						"label": "mapping(uint256 => struct StructTest.Book)",
						"numberOfBytes": "32",
						"value": "t_struct(Book)12_storage"
					},
					"t_string_storage": {
						"encoding": "bytes",
						"label": "string",
						"numberOfBytes": "32"
					},
					"t_struct(Book)12_storage": {
						"encoding": "inplace",
						"label": "struct StructTest.Book",
						"members": [
							{
								"astId": 3,
								"contract": "contracts/Ejercicios/StructTest.sol:StructTest",
								"label": "title",
								"offset": 0,
								"slot": "0",
								"type": "t_string_storage"
							},
							{
								"astId": 5,
								"contract": "contracts/Ejercicios/StructTest.sol:StructTest",
								"label": "author",
								"offset": 0,
								"slot": "1",
								"type": "t_string_storage"
							},
							{
								"astId": 7,
								"contract": "contracts/Ejercicios/StructTest.sol:StructTest",
								"label": "id",
								"offset": 0,
								"slot": "2",
								"type": "t_uint256"
							},
							{
								"astId": 9,
								"contract": "contracts/Ejercicios/StructTest.sol:StructTest",
								"label": "available",
								"offset": 0,
								"slot": "3",
								"type": "t_bool"
							},
							{
								"astId": 11,
								"contract": "contracts/Ejercicios/StructTest.sol:StructTest",
								"label": "quantity",
								"offset": 0,
								"slot": "4",
								"type": "t_uint256"
							}
						],
						"numberOfBytes": "160"
					},
					"t_uint256": {
						"encoding": "inplace",
						"label": "uint256",
						"numberOfBytes": "32"
					}
				}
			},
			"userdoc": {
				"kind": "user",
				"methods": {},
				"version": 1
			}
		}
	}
}