{
	"contracts/Ejercicios/Mymodifier.sol": {
		"ModifierExample": {
			"abi": [
				{
					"inputs": [],
					"name": "getBalance",
					"outputs": [
						{
							"internalType": "uint256",
							"name": "",
							"type": "uint256"
						}
					],
					"stateMutability": "view",
					"type": "function"
				},
				{
					"inputs": [
						{
							"internalType": "address",
							"name": "",
							"type": "address"
						}
					],
					"name": "myAddresses",
					"outputs": [
						{
							"internalType": "uint256",
							"name": "",
							"type": "uint256"
						}
					],
					"stateMutability": "view",
					"type": "function"
				},
				{
					"inputs": [],
					"name": "myBoolean",
					"outputs": [
						{
							"internalType": "bool",
							"name": "",
							"type": "bool"
						}
					],
					"stateMutability": "view",
					"type": "function"
				},
				{
					"inputs": [
						{
							"internalType": "uint256",
							"name": "",
							"type": "uint256"
						}
					],
					"name": "myMapping",
					"outputs": [
						{
							"internalType": "bool",
							"name": "",
							"type": "bool"
						}
					],
					"stateMutability": "view",
					"type": "function"
				},
				{
					"inputs": [],
					"name": "myNumber",
					"outputs": [
						{
							"internalType": "uint256",
							"name": "",
							"type": "uint256"
						}
					],
					"stateMutability": "view",
					"type": "function"
				},
				{
					"inputs": [],
					"name": "myString",
					"outputs": [
						{
							"internalType": "string",
							"name": "",
							"type": "string"
						}
					],
					"stateMutability": "view",
					"type": "function"
				},
				{
					"inputs": [],
					"name": "receiveMoney",
					"outputs": [],
					"stateMutability": "payable",
					"type": "function"
				},
				{
					"inputs": [
						{
							"internalType": "address",
							"name": "wallet",
							"type": "address"
						},
						{
							"internalType": "uint256",
							"name": "amount",
							"type": "uint256"
						}
					],
					"name": "setMyAddresses",
					"outputs": [],
					"stateMutability": "nonpayable",
					"type": "function"
				},
				{
					"inputs": [
						{
							"internalType": "uint256",
							"name": "index",
							"type": "uint256"
						},
						{
							"internalType": "bool",
							"name": "value",
							"type": "bool"
						}
					],
					"name": "setValue",
					"outputs": [],
					"stateMutability": "nonpayable",
					"type": "function"
				},
				{
					"inputs": [
						{
							"internalType": "uint256",
							"name": "amount",
							"type": "uint256"
						}
					],
					"name": "withdrawMoney",
					"outputs": [],
					"stateMutability": "nonpayable",
					"type": "function"
				}
			],
			"devdoc": {
				"kind": "dev",
				"methods": {},
				"version": 1
			},
			"evm": {
				"assembly": "    /* \"contracts/Ejercicios/Mymodifier.sol\":64:1289  contract ModifierExample {\r... */\n  mstore(0x40, 0x80)\n  callvalue\n  dup1\n  iszero\n  tag_1\n  jumpi\n  0x00\n  dup1\n  revert\ntag_1:\n  pop\n  dataSize(sub_0)\n  dup1\n  dataOffset(sub_0)\n  0x00\n  codecopy\n  0x00\n  return\nstop\n\nsub_0: assembly {\n        /* \"contracts/Ejercicios/Mymodifier.sol\":64:1289  contract ModifierExample {\r... */\n      mstore(0x40, 0x80)\n      jumpi(tag_1, lt(calldatasize, 0x04))\n      shr(0xe0, calldataload(0x00))\n      dup1\n      0x6d26ec18\n      gt\n      tag_12\n      jumpi\n      dup1\n      0x6d26ec18\n      eq\n      tag_7\n      jumpi\n      dup1\n      0x7c668844\n      eq\n      tag_8\n      jumpi\n      dup1\n      0x82e33e82\n      eq\n      tag_9\n      jumpi\n      dup1\n      0xae454f11\n      eq\n      tag_10\n      jumpi\n      dup1\n      0xdc99be11\n      eq\n      tag_11\n      jumpi\n      jump(tag_1)\n    tag_12:\n      dup1\n      0x12065fe0\n      eq\n      tag_2\n      jumpi\n      dup1\n      0x23fd0e40\n      eq\n      tag_3\n      jumpi\n      dup1\n      0x492bfa18\n      eq\n      tag_4\n      jumpi\n      dup1\n      0x54876921\n      eq\n      tag_5\n      jumpi\n      dup1\n      0x5d68278c\n      eq\n      tag_6\n      jumpi\n    tag_1:\n      0x00\n      dup1\n      revert\n        /* \"contracts/Ejercicios/Mymodifier.sol\":1191:1286  function getBalance() public view returns(uint) {\r... */\n    tag_2:\n      callvalue\n      dup1\n      iszero\n      tag_13\n      jumpi\n      0x00\n      dup1\n      revert\n    tag_13:\n      pop\n      tag_14\n      tag_15\n      jump\t// in\n    tag_14:\n      mload(0x40)\n      tag_16\n      swap2\n      swap1\n      tag_17\n      jump\t// in\n    tag_16:\n      mload(0x40)\n      dup1\n      swap2\n      sub\n      swap1\n      return\n        /* \"contracts/Ejercicios/Mymodifier.sol\":153:173  uint public myNumber */\n    tag_3:\n      callvalue\n      dup1\n      iszero\n      tag_18\n      jumpi\n      0x00\n      dup1\n      revert\n    tag_18:\n      pop\n      tag_19\n      tag_20\n      jump\t// in\n    tag_19:\n      mload(0x40)\n      tag_21\n      swap2\n      swap1\n      tag_17\n      jump\t// in\n    tag_21:\n      mload(0x40)\n      dup1\n      swap2\n      sub\n      swap1\n      return\n        /* \"contracts/Ejercicios/Mymodifier.sol\":124:146  string public myString */\n    tag_4:\n      callvalue\n      dup1\n      iszero\n      tag_22\n      jumpi\n      0x00\n      dup1\n      revert\n    tag_22:\n      pop\n      tag_23\n      tag_24\n      jump\t// in\n    tag_23:\n      mload(0x40)\n      tag_25\n      swap2\n      swap1\n      tag_26\n      jump\t// in\n    tag_25:\n      mload(0x40)\n      dup1\n      swap2\n      sub\n      swap1\n      return\n        /* \"contracts/Ejercicios/Mymodifier.sol\":381:968  function withdrawMoney(uint amount) public {\r... */\n    tag_5:\n      callvalue\n      dup1\n      iszero\n      tag_27\n      jumpi\n      0x00\n      dup1\n      revert\n    tag_27:\n      pop\n      tag_28\n      0x04\n      dup1\n      calldatasize\n      sub\n      dup2\n      add\n      swap1\n      tag_29\n      swap2\n      swap1\n      tag_30\n      jump\t// in\n    tag_29:\n      tag_31\n      jump\t// in\n    tag_28:\n      stop\n        /* \"contracts/Ejercicios/Mymodifier.sol\":1076:1183  function setMyAddresses(address wallet, uint amount) public {\r... */\n    tag_6:\n      callvalue\n      dup1\n      iszero\n      tag_32\n      jumpi\n      0x00\n      dup1\n      revert\n    tag_32:\n      pop\n      tag_33\n      0x04\n      dup1\n      calldatasize\n      sub\n      dup2\n      add\n      swap1\n      tag_34\n      swap2\n      swap1\n      tag_35\n      jump\t// in\n    tag_34:\n      tag_36\n      jump\t// in\n    tag_33:\n      stop\n        /* \"contracts/Ejercicios/Mymodifier.sol\":279:373  function receiveMoney() public payable {\r... */\n    tag_7:\n      tag_37\n      tag_38\n      jump\t// in\n    tag_37:\n      stop\n        /* \"contracts/Ejercicios/Mymodifier.sol\":182:220  mapping(uint => bool) public myMapping */\n    tag_8:\n      callvalue\n      dup1\n      iszero\n      tag_39\n      jumpi\n      0x00\n      dup1\n      revert\n    tag_39:\n      pop\n      tag_40\n      0x04\n      dup1\n      calldatasize\n      sub\n      dup2\n      add\n      swap1\n      tag_41\n      swap2\n      swap1\n      tag_30\n      jump\t// in\n    tag_41:\n      tag_42\n      jump\t// in\n    tag_40:\n      mload(0x40)\n      tag_43\n      swap2\n      swap1\n      tag_44\n      jump\t// in\n    tag_43:\n      mload(0x40)\n      dup1\n      swap2\n      sub\n      swap1\n      return\n        /* \"contracts/Ejercicios/Mymodifier.sol\":976:1068  function setValue(uint index, bool value) public {\r... */\n    tag_9:\n      callvalue\n      dup1\n      iszero\n      tag_45\n      jumpi\n      0x00\n      dup1\n      revert\n    tag_45:\n      pop\n      tag_46\n      0x04\n      dup1\n      calldatasize\n      sub\n      dup2\n      add\n      swap1\n      tag_47\n      swap2\n      swap1\n      tag_48\n      jump\t// in\n    tag_47:\n      tag_49\n      jump\t// in\n    tag_46:\n      stop\n        /* \"contracts/Ejercicios/Mymodifier.sol\":227:270  mapping(address => uint) public myAddresses */\n    tag_10:\n      callvalue\n      dup1\n      iszero\n      tag_50\n      jumpi\n      0x00\n      dup1\n      revert\n    tag_50:\n      pop\n      tag_51\n      0x04\n      dup1\n      calldatasize\n      sub\n      dup2\n      add\n      swap1\n      tag_52\n      swap2\n      swap1\n      tag_53\n      jump\t// in\n    tag_52:\n      tag_54\n      jump\t// in\n    tag_51:\n      mload(0x40)\n      tag_55\n      swap2\n      swap1\n      tag_17\n      jump\t// in\n    tag_55:\n      mload(0x40)\n      dup1\n      swap2\n      sub\n      swap1\n      return\n        /* \"contracts/Ejercicios/Mymodifier.sol\":96:117  bool public myBoolean */\n    tag_11:\n      callvalue\n      dup1\n      iszero\n      tag_56\n      jumpi\n      0x00\n      dup1\n      revert\n    tag_56:\n      pop\n      tag_57\n      tag_58\n      jump\t// in\n    tag_57:\n      mload(0x40)\n      tag_59\n      swap2\n      swap1\n      tag_44\n      jump\t// in\n    tag_59:\n      mload(0x40)\n      dup1\n      swap2\n      sub\n      swap1\n      return\n        /* \"contracts/Ejercicios/Mymodifier.sol\":1191:1286  function getBalance() public view returns(uint) {\r... */\n    tag_15:\n        /* \"contracts/Ejercicios/Mymodifier.sol\":1233:1237  uint */\n      0x00\n        /* \"contracts/Ejercicios/Mymodifier.sol\":1257:1278  address(this).balance */\n      selfbalance\n        /* \"contracts/Ejercicios/Mymodifier.sol\":1250:1278  return address(this).balance */\n      swap1\n      pop\n        /* \"contracts/Ejercicios/Mymodifier.sol\":1191:1286  function getBalance() public view returns(uint) {\r... */\n      swap1\n      jump\t// out\n        /* \"contracts/Ejercicios/Mymodifier.sol\":153:173  uint public myNumber */\n    tag_20:\n      sload(0x02)\n      dup2\n      jump\t// out\n        /* \"contracts/Ejercicios/Mymodifier.sol\":124:146  string public myString */\n    tag_24:\n      0x01\n      dup1\n      sload\n      tag_61\n      swap1\n      tag_62\n      jump\t// in\n    tag_61:\n      dup1\n      0x1f\n      add\n      0x20\n      dup1\n      swap2\n      div\n      mul\n      0x20\n      add\n      mload(0x40)\n      swap1\n      dup2\n      add\n      0x40\n      mstore\n      dup1\n      swap3\n      swap2\n      swap1\n      dup2\n      dup2\n      mstore\n      0x20\n      add\n      dup3\n      dup1\n      sload\n      tag_63\n      swap1\n      tag_62\n      jump\t// in\n    tag_63:\n      dup1\n      iszero\n      tag_64\n      jumpi\n      dup1\n      0x1f\n      lt\n      tag_65\n      jumpi\n      0x0100\n      dup1\n      dup4\n      sload\n      div\n      mul\n      dup4\n      mstore\n      swap2\n      0x20\n      add\n      swap2\n      jump(tag_64)\n    tag_65:\n      dup3\n      add\n      swap2\n      swap1\n      0x00\n      mstore\n      keccak256(0x00, 0x20)\n      swap1\n    tag_66:\n      dup2\n      sload\n      dup2\n      mstore\n      swap1\n      0x01\n      add\n      swap1\n      0x20\n      add\n      dup1\n      dup4\n      gt\n      tag_66\n      jumpi\n      dup3\n      swap1\n      sub\n      0x1f\n      and\n      dup3\n      add\n      swap2\n    tag_64:\n      pop\n      pop\n      pop\n      pop\n      pop\n      dup2\n      jump\t// out\n        /* \"contracts/Ejercicios/Mymodifier.sol\":381:968  function withdrawMoney(uint amount) public {\r... */\n    tag_31:\n        /* \"contracts/Ejercicios/Mymodifier.sol\":435:453  uint amountToEther */\n      0x00\n        /* \"contracts/Ejercicios/Mymodifier.sol\":466:474  10 ** 18 */\n      0x0de0b6b3a7640000\n        /* \"contracts/Ejercicios/Mymodifier.sol\":456:462  amount */\n      dup3\n        /* \"contracts/Ejercicios/Mymodifier.sol\":456:475  amount * (10 ** 18) */\n      tag_68\n      swap2\n      swap1\n      tag_69\n      jump\t// in\n    tag_68:\n        /* \"contracts/Ejercicios/Mymodifier.sol\":435:475  uint amountToEther = amount * (10 ** 18) */\n      swap1\n      pop\n        /* \"contracts/Ejercicios/Mymodifier.sol\":512:523  myAddresses */\n      0x04\n        /* \"contracts/Ejercicios/Mymodifier.sol\":512:535  myAddresses[msg.sender] */\n      0x00\n        /* \"contracts/Ejercicios/Mymodifier.sol\":524:534  msg.sender */\n      caller\n        /* \"contracts/Ejercicios/Mymodifier.sol\":512:535  myAddresses[msg.sender] */\n      0xffffffffffffffffffffffffffffffffffffffff\n      and\n      0xffffffffffffffffffffffffffffffffffffffff\n      and\n      dup2\n      mstore\n      0x20\n      add\n      swap1\n      dup2\n      mstore\n      0x20\n      add\n      0x00\n      keccak256\n      sload\n        /* \"contracts/Ejercicios/Mymodifier.sol\":495:508  amountToEther */\n      dup2\n        /* \"contracts/Ejercicios/Mymodifier.sol\":495:535  amountToEther <= myAddresses[msg.sender] */\n      gt\n      iszero\n        /* \"contracts/Ejercicios/Mymodifier.sol\":486:556  require (amountToEther <= myAddresses[msg.sender], \"Not enough money\") */\n      tag_70\n      jumpi\n      mload(0x40)\n      0x08c379a000000000000000000000000000000000000000000000000000000000\n      dup2\n      mstore\n      0x04\n      add\n      tag_71\n      swap1\n      tag_72\n      jump\t// in\n    tag_71:\n      mload(0x40)\n      dup1\n      swap2\n      sub\n      swap1\n      revert\n    tag_70:\n        /* \"contracts/Ejercicios/Mymodifier.sol\":604:610  10**18 */\n      0x0de0b6b3a7640000\n        /* \"contracts/Ejercicios/Mymodifier.sol\":594:600  amount */\n      dup3\n        /* \"contracts/Ejercicios/Mymodifier.sol\":594:611  amount * (10**18) */\n      tag_73\n      swap2\n      swap1\n      tag_69\n      jump\t// in\n    tag_73:\n        /* \"contracts/Ejercicios/Mymodifier.sol\":567:578  myAddresses */\n      0x04\n        /* \"contracts/Ejercicios/Mymodifier.sol\":567:590  myAddresses[msg.sender] */\n      0x00\n        /* \"contracts/Ejercicios/Mymodifier.sol\":579:589  msg.sender */\n      caller\n        /* \"contracts/Ejercicios/Mymodifier.sol\":567:590  myAddresses[msg.sender] */\n      0xffffffffffffffffffffffffffffffffffffffff\n      and\n      0xffffffffffffffffffffffffffffffffffffffff\n      and\n      dup2\n      mstore\n      0x20\n      add\n      swap1\n      dup2\n      mstore\n      0x20\n      add\n      0x00\n      keccak256\n      0x00\n        /* \"contracts/Ejercicios/Mymodifier.sol\":567:611  myAddresses[msg.sender] -= amount * (10**18) */\n      dup3\n      dup3\n      sload\n      tag_74\n      swap2\n      swap1\n      tag_75\n      jump\t// in\n    tag_74:\n      swap3\n      pop\n      pop\n      dup2\n      swap1\n      sstore\n      pop\n        /* \"contracts/Ejercicios/Mymodifier.sol\":622:638  address myWallet */\n      0x00\n        /* \"contracts/Ejercicios/Mymodifier.sol\":641:651  msg.sender */\n      caller\n        /* \"contracts/Ejercicios/Mymodifier.sol\":622:651  address myWallet = msg.sender */\n      swap1\n      pop\n        /* \"contracts/Ejercicios/Mymodifier.sol\":670:678  myWallet */\n      dup1\n        /* \"contracts/Ejercicios/Mymodifier.sol\":662:688  payable(myWallet).transfer */\n      0xffffffffffffffffffffffffffffffffffffffff\n      and\n        /* \"contracts/Ejercicios/Mymodifier.sol\":662:707  payable(myWallet).transfer(amount * (10**18)) */\n      0x08fc\n        /* \"contracts/Ejercicios/Mymodifier.sol\":699:705  10**18 */\n      0x0de0b6b3a7640000\n        /* \"contracts/Ejercicios/Mymodifier.sol\":689:695  amount */\n      dup6\n        /* \"contracts/Ejercicios/Mymodifier.sol\":689:706  amount * (10**18) */\n      tag_76\n      swap2\n      swap1\n      tag_69\n      jump\t// in\n    tag_76:\n        /* \"contracts/Ejercicios/Mymodifier.sol\":662:707  payable(myWallet).transfer(amount * (10**18)) */\n      swap1\n      dup2\n      iszero\n      mul\n      swap1\n      mload(0x40)\n      0x00\n      mload(0x40)\n      dup1\n      dup4\n      sub\n      dup2\n      dup6\n      dup9\n      dup9\n      call\n      swap4\n      pop\n      pop\n      pop\n      pop\n      iszero\n      dup1\n      iszero\n      tag_78\n      jumpi\n      returndatasize\n      0x00\n      dup1\n      returndatacopy\n      revert(0x00, returndatasize)\n    tag_78:\n      pop\n        /* \"contracts/Ejercicios/Mymodifier.sol\":424:968  {\r... */\n      pop\n      pop\n        /* \"contracts/Ejercicios/Mymodifier.sol\":381:968  function withdrawMoney(uint amount) public {\r... */\n      pop\n      jump\t// out\n        /* \"contracts/Ejercicios/Mymodifier.sol\":1076:1183  function setMyAddresses(address wallet, uint amount) public {\r... */\n    tag_36:\n        /* \"contracts/Ejercicios/Mymodifier.sol\":1169:1175  amount */\n      dup1\n        /* \"contracts/Ejercicios/Mymodifier.sol\":1147:1158  myAddresses */\n      0x04\n        /* \"contracts/Ejercicios/Mymodifier.sol\":1147:1166  myAddresses[wallet] */\n      0x00\n        /* \"contracts/Ejercicios/Mymodifier.sol\":1159:1165  wallet */\n      dup5\n        /* \"contracts/Ejercicios/Mymodifier.sol\":1147:1166  myAddresses[wallet] */\n      0xffffffffffffffffffffffffffffffffffffffff\n      and\n      0xffffffffffffffffffffffffffffffffffffffff\n      and\n      dup2\n      mstore\n      0x20\n      add\n      swap1\n      dup2\n      mstore\n      0x20\n      add\n      0x00\n      keccak256\n        /* \"contracts/Ejercicios/Mymodifier.sol\":1147:1175  myAddresses[wallet] = amount */\n      dup2\n      swap1\n      sstore\n      pop\n        /* \"contracts/Ejercicios/Mymodifier.sol\":1076:1183  function setMyAddresses(address wallet, uint amount) public {\r... */\n      pop\n      pop\n      jump\t// out\n        /* \"contracts/Ejercicios/Mymodifier.sol\":279:373  function receiveMoney() public payable {\r... */\n    tag_38:\n        /* \"contracts/Ejercicios/Mymodifier.sol\":356:365  msg.value */\n      callvalue\n        /* \"contracts/Ejercicios/Mymodifier.sol\":329:340  myAddresses */\n      0x04\n        /* \"contracts/Ejercicios/Mymodifier.sol\":329:352  myAddresses[msg.sender] */\n      0x00\n        /* \"contracts/Ejercicios/Mymodifier.sol\":341:351  msg.sender */\n      caller\n        /* \"contracts/Ejercicios/Mymodifier.sol\":329:352  myAddresses[msg.sender] */\n      0xffffffffffffffffffffffffffffffffffffffff\n      and\n      0xffffffffffffffffffffffffffffffffffffffff\n      and\n      dup2\n      mstore\n      0x20\n      add\n      swap1\n      dup2\n      mstore\n      0x20\n      add\n      0x00\n      keccak256\n      0x00\n        /* \"contracts/Ejercicios/Mymodifier.sol\":329:365  myAddresses[msg.sender] += msg.value */\n      dup3\n      dup3\n      sload\n      tag_81\n      swap2\n      swap1\n      tag_82\n      jump\t// in\n    tag_81:\n      swap3\n      pop\n      pop\n      dup2\n      swap1\n      sstore\n      pop\n        /* \"contracts/Ejercicios/Mymodifier.sol\":279:373  function receiveMoney() public payable {\r... */\n      jump\t// out\n        /* \"contracts/Ejercicios/Mymodifier.sol\":182:220  mapping(uint => bool) public myMapping */\n    tag_42:\n      mstore(0x20, 0x03)\n      dup1\n      0x00\n      mstore\n      keccak256(0x00, 0x40)\n      0x00\n      swap2\n      pop\n      sload\n      swap1\n      0x0100\n      exp\n      swap1\n      div\n      0xff\n      and\n      dup2\n      jump\t// out\n        /* \"contracts/Ejercicios/Mymodifier.sol\":976:1068  function setValue(uint index, bool value) public {\r... */\n    tag_49:\n        /* \"contracts/Ejercicios/Mymodifier.sol\":1055:1060  value */\n      dup1\n        /* \"contracts/Ejercicios/Mymodifier.sol\":1036:1045  myMapping */\n      0x03\n        /* \"contracts/Ejercicios/Mymodifier.sol\":1036:1052  myMapping[index] */\n      0x00\n        /* \"contracts/Ejercicios/Mymodifier.sol\":1046:1051  index */\n      dup5\n        /* \"contracts/Ejercicios/Mymodifier.sol\":1036:1052  myMapping[index] */\n      dup2\n      mstore\n      0x20\n      add\n      swap1\n      dup2\n      mstore\n      0x20\n      add\n      0x00\n      keccak256\n      0x00\n        /* \"contracts/Ejercicios/Mymodifier.sol\":1036:1060  myMapping[index] = value */\n      0x0100\n      exp\n      dup2\n      sload\n      dup2\n      0xff\n      mul\n      not\n      and\n      swap1\n      dup4\n      iszero\n      iszero\n      mul\n      or\n      swap1\n      sstore\n      pop\n        /* \"contracts/Ejercicios/Mymodifier.sol\":976:1068  function setValue(uint index, bool value) public {\r... */\n      pop\n      pop\n      jump\t// out\n        /* \"contracts/Ejercicios/Mymodifier.sol\":227:270  mapping(address => uint) public myAddresses */\n    tag_54:\n      mstore(0x20, 0x04)\n      dup1\n      0x00\n      mstore\n      keccak256(0x00, 0x40)\n      0x00\n      swap2\n      pop\n      swap1\n      pop\n      sload\n      dup2\n      jump\t// out\n        /* \"contracts/Ejercicios/Mymodifier.sol\":96:117  bool public myBoolean */\n    tag_58:\n      0x00\n      dup1\n      sload\n      swap1\n      0x0100\n      exp\n      swap1\n      div\n      0xff\n      and\n      dup2\n      jump\t// out\n        /* \"#utility.yul\":7:146   */\n    tag_85:\n        /* \"#utility.yul\":53:58   */\n      0x00\n        /* \"#utility.yul\":91:97   */\n      dup2\n        /* \"#utility.yul\":78:98   */\n      calldataload\n        /* \"#utility.yul\":69:98   */\n      swap1\n      pop\n        /* \"#utility.yul\":107:140   */\n      tag_87\n        /* \"#utility.yul\":134:139   */\n      dup2\n        /* \"#utility.yul\":107:140   */\n      tag_88\n      jump\t// in\n    tag_87:\n        /* \"#utility.yul\":7:146   */\n      swap3\n      swap2\n      pop\n      pop\n      jump\t// out\n        /* \"#utility.yul\":152:285   */\n    tag_89:\n        /* \"#utility.yul\":195:200   */\n      0x00\n        /* \"#utility.yul\":233:239   */\n      dup2\n        /* \"#utility.yul\":220:240   */\n      calldataload\n        /* \"#utility.yul\":211:240   */\n      swap1\n      pop\n        /* \"#utility.yul\":249:279   */\n      tag_91\n        /* \"#utility.yul\":273:278   */\n      dup2\n        /* \"#utility.yul\":249:279   */\n      tag_92\n      jump\t// in\n    tag_91:\n        /* \"#utility.yul\":152:285   */\n      swap3\n      swap2\n      pop\n      pop\n      jump\t// out\n        /* \"#utility.yul\":291:430   */\n    tag_93:\n        /* \"#utility.yul\":337:342   */\n      0x00\n        /* \"#utility.yul\":375:381   */\n      dup2\n        /* \"#utility.yul\":362:382   */\n      calldataload\n        /* \"#utility.yul\":353:382   */\n      swap1\n      pop\n        /* \"#utility.yul\":391:424   */\n      tag_95\n        /* \"#utility.yul\":418:423   */\n      dup2\n        /* \"#utility.yul\":391:424   */\n      tag_96\n      jump\t// in\n    tag_95:\n        /* \"#utility.yul\":291:430   */\n      swap3\n      swap2\n      pop\n      pop\n      jump\t// out\n        /* \"#utility.yul\":436:765   */\n    tag_53:\n        /* \"#utility.yul\":495:501   */\n      0x00\n        /* \"#utility.yul\":544:546   */\n      0x20\n        /* \"#utility.yul\":532:541   */\n      dup3\n        /* \"#utility.yul\":523:530   */\n      dup5\n        /* \"#utility.yul\":519:542   */\n      sub\n        /* \"#utility.yul\":515:547   */\n      slt\n        /* \"#utility.yul\":512:631   */\n      iszero\n      tag_98\n      jumpi\n        /* \"#utility.yul\":550:629   */\n      tag_99\n      tag_100\n      jump\t// in\n    tag_99:\n        /* \"#utility.yul\":512:631   */\n    tag_98:\n        /* \"#utility.yul\":670:671   */\n      0x00\n        /* \"#utility.yul\":695:748   */\n      tag_101\n        /* \"#utility.yul\":740:747   */\n      dup5\n        /* \"#utility.yul\":731:737   */\n      dup3\n        /* \"#utility.yul\":720:729   */\n      dup6\n        /* \"#utility.yul\":716:738   */\n      add\n        /* \"#utility.yul\":695:748   */\n      tag_85\n      jump\t// in\n    tag_101:\n        /* \"#utility.yul\":685:748   */\n      swap2\n      pop\n        /* \"#utility.yul\":641:758   */\n      pop\n        /* \"#utility.yul\":436:765   */\n      swap3\n      swap2\n      pop\n      pop\n      jump\t// out\n        /* \"#utility.yul\":771:1245   */\n    tag_35:\n        /* \"#utility.yul\":839:845   */\n      0x00\n        /* \"#utility.yul\":847:853   */\n      dup1\n        /* \"#utility.yul\":896:898   */\n      0x40\n        /* \"#utility.yul\":884:893   */\n      dup4\n        /* \"#utility.yul\":875:882   */\n      dup6\n        /* \"#utility.yul\":871:894   */\n      sub\n        /* \"#utility.yul\":867:899   */\n      slt\n        /* \"#utility.yul\":864:983   */\n      iszero\n      tag_103\n      jumpi\n        /* \"#utility.yul\":902:981   */\n      tag_104\n      tag_100\n      jump\t// in\n    tag_104:\n        /* \"#utility.yul\":864:983   */\n    tag_103:\n        /* \"#utility.yul\":1022:1023   */\n      0x00\n        /* \"#utility.yul\":1047:1100   */\n      tag_105\n        /* \"#utility.yul\":1092:1099   */\n      dup6\n        /* \"#utility.yul\":1083:1089   */\n      dup3\n        /* \"#utility.yul\":1072:1081   */\n      dup7\n        /* \"#utility.yul\":1068:1090   */\n      add\n        /* \"#utility.yul\":1047:1100   */\n      tag_85\n      jump\t// in\n    tag_105:\n        /* \"#utility.yul\":1037:1100   */\n      swap3\n      pop\n        /* \"#utility.yul\":993:1110   */\n      pop\n        /* \"#utility.yul\":1149:1151   */\n      0x20\n        /* \"#utility.yul\":1175:1228   */\n      tag_106\n        /* \"#utility.yul\":1220:1227   */\n      dup6\n        /* \"#utility.yul\":1211:1217   */\n      dup3\n        /* \"#utility.yul\":1200:1209   */\n      dup7\n        /* \"#utility.yul\":1196:1218   */\n      add\n        /* \"#utility.yul\":1175:1228   */\n      tag_93\n      jump\t// in\n    tag_106:\n        /* \"#utility.yul\":1165:1228   */\n      swap2\n      pop\n        /* \"#utility.yul\":1120:1238   */\n      pop\n        /* \"#utility.yul\":771:1245   */\n      swap3\n      pop\n      swap3\n      swap1\n      pop\n      jump\t// out\n        /* \"#utility.yul\":1251:1580   */\n    tag_30:\n        /* \"#utility.yul\":1310:1316   */\n      0x00\n        /* \"#utility.yul\":1359:1361   */\n      0x20\n        /* \"#utility.yul\":1347:1356   */\n      dup3\n        /* \"#utility.yul\":1338:1345   */\n      dup5\n        /* \"#utility.yul\":1334:1357   */\n      sub\n        /* \"#utility.yul\":1330:1362   */\n      slt\n        /* \"#utility.yul\":1327:1446   */\n      iszero\n      tag_108\n      jumpi\n        /* \"#utility.yul\":1365:1444   */\n      tag_109\n      tag_100\n      jump\t// in\n    tag_109:\n        /* \"#utility.yul\":1327:1446   */\n    tag_108:\n        /* \"#utility.yul\":1485:1486   */\n      0x00\n        /* \"#utility.yul\":1510:1563   */\n      tag_110\n        /* \"#utility.yul\":1555:1562   */\n      dup5\n        /* \"#utility.yul\":1546:1552   */\n      dup3\n        /* \"#utility.yul\":1535:1544   */\n      dup6\n        /* \"#utility.yul\":1531:1553   */\n      add\n        /* \"#utility.yul\":1510:1563   */\n      tag_93\n      jump\t// in\n    tag_110:\n        /* \"#utility.yul\":1500:1563   */\n      swap2\n      pop\n        /* \"#utility.yul\":1456:1573   */\n      pop\n        /* \"#utility.yul\":1251:1580   */\n      swap3\n      swap2\n      pop\n      pop\n      jump\t// out\n        /* \"#utility.yul\":1586:2054   */\n    tag_48:\n        /* \"#utility.yul\":1651:1657   */\n      0x00\n        /* \"#utility.yul\":1659:1665   */\n      dup1\n        /* \"#utility.yul\":1708:1710   */\n      0x40\n        /* \"#utility.yul\":1696:1705   */\n      dup4\n        /* \"#utility.yul\":1687:1694   */\n      dup6\n        /* \"#utility.yul\":1683:1706   */\n      sub\n        /* \"#utility.yul\":1679:1711   */\n      slt\n        /* \"#utility.yul\":1676:1795   */\n      iszero\n      tag_112\n      jumpi\n        /* \"#utility.yul\":1714:1793   */\n      tag_113\n      tag_100\n      jump\t// in\n    tag_113:\n        /* \"#utility.yul\":1676:1795   */\n    tag_112:\n        /* \"#utility.yul\":1834:1835   */\n      0x00\n        /* \"#utility.yul\":1859:1912   */\n      tag_114\n        /* \"#utility.yul\":1904:1911   */\n      dup6\n        /* \"#utility.yul\":1895:1901   */\n      dup3\n        /* \"#utility.yul\":1884:1893   */\n      dup7\n        /* \"#utility.yul\":1880:1902   */\n      add\n        /* \"#utility.yul\":1859:1912   */\n      tag_93\n      jump\t// in\n    tag_114:\n        /* \"#utility.yul\":1849:1912   */\n      swap3\n      pop\n        /* \"#utility.yul\":1805:1922   */\n      pop\n        /* \"#utility.yul\":1961:1963   */\n      0x20\n        /* \"#utility.yul\":1987:2037   */\n      tag_115\n        /* \"#utility.yul\":2029:2036   */\n      dup6\n        /* \"#utility.yul\":2020:2026   */\n      dup3\n        /* \"#utility.yul\":2009:2018   */\n      dup7\n        /* \"#utility.yul\":2005:2027   */\n      add\n        /* \"#utility.yul\":1987:2037   */\n      tag_89\n      jump\t// in\n    tag_115:\n        /* \"#utility.yul\":1977:2037   */\n      swap2\n      pop\n        /* \"#utility.yul\":1932:2047   */\n      pop\n        /* \"#utility.yul\":1586:2054   */\n      swap3\n      pop\n      swap3\n      swap1\n      pop\n      jump\t// out\n        /* \"#utility.yul\":2060:2169   */\n    tag_116:\n        /* \"#utility.yul\":2141:2162   */\n      tag_118\n        /* \"#utility.yul\":2156:2161   */\n      dup2\n        /* \"#utility.yul\":2141:2162   */\n      tag_119\n      jump\t// in\n    tag_118:\n        /* \"#utility.yul\":2136:2139   */\n      dup3\n        /* \"#utility.yul\":2129:2163   */\n      mstore\n        /* \"#utility.yul\":2060:2169   */\n      pop\n      pop\n      jump\t// out\n        /* \"#utility.yul\":2175:2539   */\n    tag_120:\n        /* \"#utility.yul\":2263:2266   */\n      0x00\n        /* \"#utility.yul\":2291:2330   */\n      tag_122\n        /* \"#utility.yul\":2324:2329   */\n      dup3\n        /* \"#utility.yul\":2291:2330   */\n      tag_123\n      jump\t// in\n    tag_122:\n        /* \"#utility.yul\":2346:2417   */\n      tag_124\n        /* \"#utility.yul\":2410:2416   */\n      dup2\n        /* \"#utility.yul\":2405:2408   */\n      dup6\n        /* \"#utility.yul\":2346:2417   */\n      tag_125\n      jump\t// in\n    tag_124:\n        /* \"#utility.yul\":2339:2417   */\n      swap4\n      pop\n        /* \"#utility.yul\":2426:2478   */\n      tag_126\n        /* \"#utility.yul\":2471:2477   */\n      dup2\n        /* \"#utility.yul\":2466:2469   */\n      dup6\n        /* \"#utility.yul\":2459:2463   */\n      0x20\n        /* \"#utility.yul\":2452:2457   */\n      dup7\n        /* \"#utility.yul\":2448:2464   */\n      add\n        /* \"#utility.yul\":2426:2478   */\n      tag_127\n      jump\t// in\n    tag_126:\n        /* \"#utility.yul\":2503:2532   */\n      tag_128\n        /* \"#utility.yul\":2525:2531   */\n      dup2\n        /* \"#utility.yul\":2503:2532   */\n      tag_129\n      jump\t// in\n    tag_128:\n        /* \"#utility.yul\":2498:2501   */\n      dup5\n        /* \"#utility.yul\":2494:2533   */\n      add\n        /* \"#utility.yul\":2487:2533   */\n      swap2\n      pop\n        /* \"#utility.yul\":2267:2539   */\n      pop\n        /* \"#utility.yul\":2175:2539   */\n      swap3\n      swap2\n      pop\n      pop\n      jump\t// out\n        /* \"#utility.yul\":2545:2911   */\n    tag_130:\n        /* \"#utility.yul\":2687:2690   */\n      0x00\n        /* \"#utility.yul\":2708:2775   */\n      tag_132\n        /* \"#utility.yul\":2772:2774   */\n      0x10\n        /* \"#utility.yul\":2767:2770   */\n      dup4\n        /* \"#utility.yul\":2708:2775   */\n      tag_125\n      jump\t// in\n    tag_132:\n        /* \"#utility.yul\":2701:2775   */\n      swap2\n      pop\n        /* \"#utility.yul\":2784:2877   */\n      tag_133\n        /* \"#utility.yul\":2873:2876   */\n      dup3\n        /* \"#utility.yul\":2784:2877   */\n      tag_134\n      jump\t// in\n    tag_133:\n        /* \"#utility.yul\":2902:2904   */\n      0x20\n        /* \"#utility.yul\":2897:2900   */\n      dup3\n        /* \"#utility.yul\":2893:2905   */\n      add\n        /* \"#utility.yul\":2886:2905   */\n      swap1\n      pop\n        /* \"#utility.yul\":2545:2911   */\n      swap2\n      swap1\n      pop\n      jump\t// out\n        /* \"#utility.yul\":2917:3035   */\n    tag_135:\n        /* \"#utility.yul\":3004:3028   */\n      tag_137\n        /* \"#utility.yul\":3022:3027   */\n      dup2\n        /* \"#utility.yul\":3004:3028   */\n      tag_138\n      jump\t// in\n    tag_137:\n        /* \"#utility.yul\":2999:3002   */\n      dup3\n        /* \"#utility.yul\":2992:3029   */\n      mstore\n        /* \"#utility.yul\":2917:3035   */\n      pop\n      pop\n      jump\t// out\n        /* \"#utility.yul\":3041:3251   */\n    tag_44:\n        /* \"#utility.yul\":3128:3132   */\n      0x00\n        /* \"#utility.yul\":3166:3168   */\n      0x20\n        /* \"#utility.yul\":3155:3164   */\n      dup3\n        /* \"#utility.yul\":3151:3169   */\n      add\n        /* \"#utility.yul\":3143:3169   */\n      swap1\n      pop\n        /* \"#utility.yul\":3179:3244   */\n      tag_140\n        /* \"#utility.yul\":3241:3242   */\n      0x00\n        /* \"#utility.yul\":3230:3239   */\n      dup4\n        /* \"#utility.yul\":3226:3243   */\n      add\n        /* \"#utility.yul\":3217:3223   */\n      dup5\n        /* \"#utility.yul\":3179:3244   */\n      tag_116\n      jump\t// in\n    tag_140:\n        /* \"#utility.yul\":3041:3251   */\n      swap3\n      swap2\n      pop\n      pop\n      jump\t// out\n        /* \"#utility.yul\":3257:3570   */\n    tag_26:\n        /* \"#utility.yul\":3370:3374   */\n      0x00\n        /* \"#utility.yul\":3408:3410   */\n      0x20\n        /* \"#utility.yul\":3397:3406   */\n      dup3\n        /* \"#utility.yul\":3393:3411   */\n      add\n        /* \"#utility.yul\":3385:3411   */\n      swap1\n      pop\n        /* \"#utility.yul\":3457:3466   */\n      dup2\n        /* \"#utility.yul\":3451:3455   */\n      dup2\n        /* \"#utility.yul\":3447:3467   */\n      sub\n        /* \"#utility.yul\":3443:3444   */\n      0x00\n        /* \"#utility.yul\":3432:3441   */\n      dup4\n        /* \"#utility.yul\":3428:3445   */\n      add\n        /* \"#utility.yul\":3421:3468   */\n      mstore\n        /* \"#utility.yul\":3485:3563   */\n      tag_142\n        /* \"#utility.yul\":3558:3562   */\n      dup2\n        /* \"#utility.yul\":3549:3555   */\n      dup5\n        /* \"#utility.yul\":3485:3563   */\n      tag_120\n      jump\t// in\n    tag_142:\n        /* \"#utility.yul\":3477:3563   */\n      swap1\n      pop\n        /* \"#utility.yul\":3257:3570   */\n      swap3\n      swap2\n      pop\n      pop\n      jump\t// out\n        /* \"#utility.yul\":3576:3995   */\n    tag_72:\n        /* \"#utility.yul\":3742:3746   */\n      0x00\n        /* \"#utility.yul\":3780:3782   */\n      0x20\n        /* \"#utility.yul\":3769:3778   */\n      dup3\n        /* \"#utility.yul\":3765:3783   */\n      add\n        /* \"#utility.yul\":3757:3783   */\n      swap1\n      pop\n        /* \"#utility.yul\":3829:3838   */\n      dup2\n        /* \"#utility.yul\":3823:3827   */\n      dup2\n        /* \"#utility.yul\":3819:3839   */\n      sub\n        /* \"#utility.yul\":3815:3816   */\n      0x00\n        /* \"#utility.yul\":3804:3813   */\n      dup4\n        /* \"#utility.yul\":3800:3817   */\n      add\n        /* \"#utility.yul\":3793:3840   */\n      mstore\n        /* \"#utility.yul\":3857:3988   */\n      tag_144\n        /* \"#utility.yul\":3983:3987   */\n      dup2\n        /* \"#utility.yul\":3857:3988   */\n      tag_130\n      jump\t// in\n    tag_144:\n        /* \"#utility.yul\":3849:3988   */\n      swap1\n      pop\n        /* \"#utility.yul\":3576:3995   */\n      swap2\n      swap1\n      pop\n      jump\t// out\n        /* \"#utility.yul\":4001:4223   */\n    tag_17:\n        /* \"#utility.yul\":4094:4098   */\n      0x00\n        /* \"#utility.yul\":4132:4134   */\n      0x20\n        /* \"#utility.yul\":4121:4130   */\n      dup3\n        /* \"#utility.yul\":4117:4135   */\n      add\n        /* \"#utility.yul\":4109:4135   */\n      swap1\n      pop\n        /* \"#utility.yul\":4145:4216   */\n      tag_146\n        /* \"#utility.yul\":4213:4214   */\n      0x00\n        /* \"#utility.yul\":4202:4211   */\n      dup4\n        /* \"#utility.yul\":4198:4215   */\n      add\n        /* \"#utility.yul\":4189:4195   */\n      dup5\n        /* \"#utility.yul\":4145:4216   */\n      tag_135\n      jump\t// in\n    tag_146:\n        /* \"#utility.yul\":4001:4223   */\n      swap3\n      swap2\n      pop\n      pop\n      jump\t// out\n        /* \"#utility.yul\":4310:4409   */\n    tag_123:\n        /* \"#utility.yul\":4362:4368   */\n      0x00\n        /* \"#utility.yul\":4396:4401   */\n      dup2\n        /* \"#utility.yul\":4390:4402   */\n      mload\n        /* \"#utility.yul\":4380:4402   */\n      swap1\n      pop\n        /* \"#utility.yul\":4310:4409   */\n      swap2\n      swap1\n      pop\n      jump\t// out\n        /* \"#utility.yul\":4415:4584   */\n    tag_125:\n        /* \"#utility.yul\":4499:4510   */\n      0x00\n        /* \"#utility.yul\":4533:4539   */\n      dup3\n        /* \"#utility.yul\":4528:4531   */\n      dup3\n        /* \"#utility.yul\":4521:4540   */\n      mstore\n        /* \"#utility.yul\":4573:4577   */\n      0x20\n        /* \"#utility.yul\":4568:4571   */\n      dup3\n        /* \"#utility.yul\":4564:4578   */\n      add\n        /* \"#utility.yul\":4549:4578   */\n      swap1\n      pop\n        /* \"#utility.yul\":4415:4584   */\n      swap3\n      swap2\n      pop\n      pop\n      jump\t// out\n        /* \"#utility.yul\":4590:4895   */\n    tag_82:\n        /* \"#utility.yul\":4630:4633   */\n      0x00\n        /* \"#utility.yul\":4649:4669   */\n      tag_152\n        /* \"#utility.yul\":4667:4668   */\n      dup3\n        /* \"#utility.yul\":4649:4669   */\n      tag_138\n      jump\t// in\n    tag_152:\n        /* \"#utility.yul\":4644:4669   */\n      swap2\n      pop\n        /* \"#utility.yul\":4683:4703   */\n      tag_153\n        /* \"#utility.yul\":4701:4702   */\n      dup4\n        /* \"#utility.yul\":4683:4703   */\n      tag_138\n      jump\t// in\n    tag_153:\n        /* \"#utility.yul\":4678:4703   */\n      swap3\n      pop\n        /* \"#utility.yul\":4837:4838   */\n      dup3\n        /* \"#utility.yul\":4769:4835   */\n      0xffffffffffffffffffffffffffffffffffffffffffffffffffffffffffffffff\n        /* \"#utility.yul\":4765:4839   */\n      sub\n        /* \"#utility.yul\":4762:4763   */\n      dup3\n        /* \"#utility.yul\":4759:4840   */\n      gt\n        /* \"#utility.yul\":4756:4863   */\n      iszero\n      tag_154\n      jumpi\n        /* \"#utility.yul\":4843:4861   */\n      tag_155\n      tag_156\n      jump\t// in\n    tag_155:\n        /* \"#utility.yul\":4756:4863   */\n    tag_154:\n        /* \"#utility.yul\":4887:4888   */\n      dup3\n        /* \"#utility.yul\":4884:4885   */\n      dup3\n        /* \"#utility.yul\":4880:4889   */\n      add\n        /* \"#utility.yul\":4873:4889   */\n      swap1\n      pop\n        /* \"#utility.yul\":4590:4895   */\n      swap3\n      swap2\n      pop\n      pop\n      jump\t// out\n        /* \"#utility.yul\":4901:5249   */\n    tag_69:\n        /* \"#utility.yul\":4941:4948   */\n      0x00\n        /* \"#utility.yul\":4964:4984   */\n      tag_158\n        /* \"#utility.yul\":4982:4983   */\n      dup3\n        /* \"#utility.yul\":4964:4984   */\n      tag_138\n      jump\t// in\n    tag_158:\n        /* \"#utility.yul\":4959:4984   */\n      swap2\n      pop\n        /* \"#utility.yul\":4998:5018   */\n      tag_159\n        /* \"#utility.yul\":5016:5017   */\n      dup4\n        /* \"#utility.yul\":4998:5018   */\n      tag_138\n      jump\t// in\n    tag_159:\n        /* \"#utility.yul\":4993:5018   */\n      swap3\n      pop\n        /* \"#utility.yul\":5186:5187   */\n      dup2\n        /* \"#utility.yul\":5118:5184   */\n      0xffffffffffffffffffffffffffffffffffffffffffffffffffffffffffffffff\n        /* \"#utility.yul\":5114:5188   */\n      div\n        /* \"#utility.yul\":5111:5112   */\n      dup4\n        /* \"#utility.yul\":5108:5189   */\n      gt\n        /* \"#utility.yul\":5103:5104   */\n      dup3\n        /* \"#utility.yul\":5096:5105   */\n      iszero\n        /* \"#utility.yul\":5089:5106   */\n      iszero\n        /* \"#utility.yul\":5085:5190   */\n      and\n        /* \"#utility.yul\":5082:5213   */\n      iszero\n      tag_160\n      jumpi\n        /* \"#utility.yul\":5193:5211   */\n      tag_161\n      tag_156\n      jump\t// in\n    tag_161:\n        /* \"#utility.yul\":5082:5213   */\n    tag_160:\n        /* \"#utility.yul\":5241:5242   */\n      dup3\n        /* \"#utility.yul\":5238:5239   */\n      dup3\n        /* \"#utility.yul\":5234:5243   */\n      mul\n        /* \"#utility.yul\":5223:5243   */\n      swap1\n      pop\n        /* \"#utility.yul\":4901:5249   */\n      swap3\n      swap2\n      pop\n      pop\n      jump\t// out\n        /* \"#utility.yul\":5255:5446   */\n    tag_75:\n        /* \"#utility.yul\":5295:5299   */\n      0x00\n        /* \"#utility.yul\":5315:5335   */\n      tag_163\n        /* \"#utility.yul\":5333:5334   */\n      dup3\n        /* \"#utility.yul\":5315:5335   */\n      tag_138\n      jump\t// in\n    tag_163:\n        /* \"#utility.yul\":5310:5335   */\n      swap2\n      pop\n        /* \"#utility.yul\":5349:5369   */\n      tag_164\n        /* \"#utility.yul\":5367:5368   */\n      dup4\n        /* \"#utility.yul\":5349:5369   */\n      tag_138\n      jump\t// in\n    tag_164:\n        /* \"#utility.yul\":5344:5369   */\n      swap3\n      pop\n        /* \"#utility.yul\":5388:5389   */\n      dup3\n        /* \"#utility.yul\":5385:5386   */\n      dup3\n        /* \"#utility.yul\":5382:5390   */\n      lt\n        /* \"#utility.yul\":5379:5413   */\n      iszero\n      tag_165\n      jumpi\n        /* \"#utility.yul\":5393:5411   */\n      tag_166\n      tag_156\n      jump\t// in\n    tag_166:\n        /* \"#utility.yul\":5379:5413   */\n    tag_165:\n        /* \"#utility.yul\":5438:5439   */\n      dup3\n        /* \"#utility.yul\":5435:5436   */\n      dup3\n        /* \"#utility.yul\":5431:5440   */\n      sub\n        /* \"#utility.yul\":5423:5440   */\n      swap1\n      pop\n        /* \"#utility.yul\":5255:5446   */\n      swap3\n      swap2\n      pop\n      pop\n      jump\t// out\n        /* \"#utility.yul\":5452:5548   */\n    tag_167:\n        /* \"#utility.yul\":5489:5496   */\n      0x00\n        /* \"#utility.yul\":5518:5542   */\n      tag_169\n        /* \"#utility.yul\":5536:5541   */\n      dup3\n        /* \"#utility.yul\":5518:5542   */\n      tag_170\n      jump\t// in\n    tag_169:\n        /* \"#utility.yul\":5507:5542   */\n      swap1\n      pop\n        /* \"#utility.yul\":5452:5548   */\n      swap2\n      swap1\n      pop\n      jump\t// out\n        /* \"#utility.yul\":5554:5644   */\n    tag_119:\n        /* \"#utility.yul\":5588:5595   */\n      0x00\n        /* \"#utility.yul\":5631:5636   */\n      dup2\n        /* \"#utility.yul\":5624:5637   */\n      iszero\n        /* \"#utility.yul\":5617:5638   */\n      iszero\n        /* \"#utility.yul\":5606:5638   */\n      swap1\n      pop\n        /* \"#utility.yul\":5554:5644   */\n      swap2\n      swap1\n      pop\n      jump\t// out\n        /* \"#utility.yul\":5650:5776   */\n    tag_170:\n        /* \"#utility.yul\":5687:5694   */\n      0x00\n        /* \"#utility.yul\":5727:5769   */\n      0xffffffffffffffffffffffffffffffffffffffff\n        /* \"#utility.yul\":5720:5725   */\n      dup3\n        /* \"#utility.yul\":5716:5770   */\n      and\n        /* \"#utility.yul\":5705:5770   */\n      swap1\n      pop\n        /* \"#utility.yul\":5650:5776   */\n      swap2\n      swap1\n      pop\n      jump\t// out\n        /* \"#utility.yul\":5782:5859   */\n    tag_138:\n        /* \"#utility.yul\":5819:5826   */\n      0x00\n        /* \"#utility.yul\":5848:5853   */\n      dup2\n        /* \"#utility.yul\":5837:5853   */\n      swap1\n      pop\n        /* \"#utility.yul\":5782:5859   */\n      swap2\n      swap1\n      pop\n      jump\t// out\n        /* \"#utility.yul\":5865:6172   */\n    tag_127:\n        /* \"#utility.yul\":5933:5934   */\n      0x00\n        /* \"#utility.yul\":5943:6056   */\n    tag_175:\n        /* \"#utility.yul\":5957:5963   */\n      dup4\n        /* \"#utility.yul\":5954:5955   */\n      dup2\n        /* \"#utility.yul\":5951:5964   */\n      lt\n        /* \"#utility.yul\":5943:6056   */\n      iszero\n      tag_177\n      jumpi\n        /* \"#utility.yul\":6042:6043   */\n      dup1\n        /* \"#utility.yul\":6037:6040   */\n      dup3\n        /* \"#utility.yul\":6033:6044   */\n      add\n        /* \"#utility.yul\":6027:6045   */\n      mload\n        /* \"#utility.yul\":6023:6024   */\n      dup2\n        /* \"#utility.yul\":6018:6021   */\n      dup5\n        /* \"#utility.yul\":6014:6025   */\n      add\n        /* \"#utility.yul\":6007:6046   */\n      mstore\n        /* \"#utility.yul\":5979:5981   */\n      0x20\n        /* \"#utility.yul\":5976:5977   */\n      dup2\n        /* \"#utility.yul\":5972:5982   */\n      add\n        /* \"#utility.yul\":5967:5982   */\n      swap1\n      pop\n        /* \"#utility.yul\":5943:6056   */\n      jump(tag_175)\n    tag_177:\n        /* \"#utility.yul\":6074:6080   */\n      dup4\n        /* \"#utility.yul\":6071:6072   */\n      dup2\n        /* \"#utility.yul\":6068:6081   */\n      gt\n        /* \"#utility.yul\":6065:6166   */\n      iszero\n      tag_178\n      jumpi\n        /* \"#utility.yul\":6154:6155   */\n      0x00\n        /* \"#utility.yul\":6145:6151   */\n      dup5\n        /* \"#utility.yul\":6140:6143   */\n      dup5\n        /* \"#utility.yul\":6136:6152   */\n      add\n        /* \"#utility.yul\":6129:6156   */\n      mstore\n        /* \"#utility.yul\":6065:6166   */\n    tag_178:\n        /* \"#utility.yul\":5914:6172   */\n      pop\n        /* \"#utility.yul\":5865:6172   */\n      pop\n      pop\n      pop\n      jump\t// out\n        /* \"#utility.yul\":6178:6498   */\n    tag_62:\n        /* \"#utility.yul\":6222:6228   */\n      0x00\n        /* \"#utility.yul\":6259:6260   */\n      0x02\n        /* \"#utility.yul\":6253:6257   */\n      dup3\n        /* \"#utility.yul\":6249:6261   */\n      div\n        /* \"#utility.yul\":6239:6261   */\n      swap1\n      pop\n        /* \"#utility.yul\":6306:6307   */\n      0x01\n        /* \"#utility.yul\":6300:6304   */\n      dup3\n        /* \"#utility.yul\":6296:6308   */\n      and\n        /* \"#utility.yul\":6327:6345   */\n      dup1\n        /* \"#utility.yul\":6317:6398   */\n      tag_180\n      jumpi\n        /* \"#utility.yul\":6383:6387   */\n      0x7f\n        /* \"#utility.yul\":6375:6381   */\n      dup3\n        /* \"#utility.yul\":6371:6388   */\n      and\n        /* \"#utility.yul\":6361:6388   */\n      swap2\n      pop\n        /* \"#utility.yul\":6317:6398   */\n    tag_180:\n        /* \"#utility.yul\":6445:6447   */\n      0x20\n        /* \"#utility.yul\":6437:6443   */\n      dup3\n        /* \"#utility.yul\":6434:6448   */\n      lt\n        /* \"#utility.yul\":6414:6432   */\n      dup2\n        /* \"#utility.yul\":6411:6449   */\n      eq\n        /* \"#utility.yul\":6408:6492   */\n      iszero\n      tag_181\n      jumpi\n        /* \"#utility.yul\":6464:6482   */\n      tag_182\n      tag_183\n      jump\t// in\n    tag_182:\n        /* \"#utility.yul\":6408:6492   */\n    tag_181:\n        /* \"#utility.yul\":6229:6498   */\n      pop\n        /* \"#utility.yul\":6178:6498   */\n      swap2\n      swap1\n      pop\n      jump\t// out\n        /* \"#utility.yul\":6504:6684   */\n    tag_156:\n        /* \"#utility.yul\":6552:6629   */\n      0x4e487b7100000000000000000000000000000000000000000000000000000000\n        /* \"#utility.yul\":6549:6550   */\n      0x00\n        /* \"#utility.yul\":6542:6630   */\n      mstore\n        /* \"#utility.yul\":6649:6653   */\n      0x11\n        /* \"#utility.yul\":6646:6647   */\n      0x04\n        /* \"#utility.yul\":6639:6654   */\n      mstore\n        /* \"#utility.yul\":6673:6677   */\n      0x24\n        /* \"#utility.yul\":6670:6671   */\n      0x00\n        /* \"#utility.yul\":6663:6678   */\n      revert\n        /* \"#utility.yul\":6690:6870   */\n    tag_183:\n        /* \"#utility.yul\":6738:6815   */\n      0x4e487b7100000000000000000000000000000000000000000000000000000000\n        /* \"#utility.yul\":6735:6736   */\n      0x00\n        /* \"#utility.yul\":6728:6816   */\n      mstore\n        /* \"#utility.yul\":6835:6839   */\n      0x22\n        /* \"#utility.yul\":6832:6833   */\n      0x04\n        /* \"#utility.yul\":6825:6840   */\n      mstore\n        /* \"#utility.yul\":6859:6863   */\n      0x24\n        /* \"#utility.yul\":6856:6857   */\n      0x00\n        /* \"#utility.yul\":6849:6864   */\n      revert\n        /* \"#utility.yul\":6999:7116   */\n    tag_100:\n        /* \"#utility.yul\":7108:7109   */\n      0x00\n        /* \"#utility.yul\":7105:7106   */\n      dup1\n        /* \"#utility.yul\":7098:7110   */\n      revert\n        /* \"#utility.yul\":7122:7224   */\n    tag_129:\n        /* \"#utility.yul\":7163:7169   */\n      0x00\n        /* \"#utility.yul\":7214:7216   */\n      0x1f\n        /* \"#utility.yul\":7210:7217   */\n      not\n        /* \"#utility.yul\":7205:7207   */\n      0x1f\n        /* \"#utility.yul\":7198:7203   */\n      dup4\n        /* \"#utility.yul\":7194:7208   */\n      add\n        /* \"#utility.yul\":7190:7218   */\n      and\n        /* \"#utility.yul\":7180:7218   */\n      swap1\n      pop\n        /* \"#utility.yul\":7122:7224   */\n      swap2\n      swap1\n      pop\n      jump\t// out\n        /* \"#utility.yul\":7230:7396   */\n    tag_134:\n        /* \"#utility.yul\":7370:7388   */\n      0x4e6f7420656e6f756768206d6f6e657900000000000000000000000000000000\n        /* \"#utility.yul\":7366:7367   */\n      0x00\n        /* \"#utility.yul\":7358:7364   */\n      dup3\n        /* \"#utility.yul\":7354:7368   */\n      add\n        /* \"#utility.yul\":7347:7389   */\n      mstore\n        /* \"#utility.yul\":7230:7396   */\n      pop\n      jump\t// out\n        /* \"#utility.yul\":7402:7524   */\n    tag_88:\n        /* \"#utility.yul\":7475:7499   */\n      tag_192\n        /* \"#utility.yul\":7493:7498   */\n      dup2\n        /* \"#utility.yul\":7475:7499   */\n      tag_167\n      jump\t// in\n    tag_192:\n        /* \"#utility.yul\":7468:7473   */\n      dup2\n        /* \"#utility.yul\":7465:7500   */\n      eq\n        /* \"#utility.yul\":7455:7518   */\n      tag_193\n      jumpi\n        /* \"#utility.yul\":7514:7515   */\n      0x00\n        /* \"#utility.yul\":7511:7512   */\n      dup1\n        /* \"#utility.yul\":7504:7516   */\n      revert\n        /* \"#utility.yul\":7455:7518   */\n    tag_193:\n        /* \"#utility.yul\":7402:7524   */\n      pop\n      jump\t// out\n        /* \"#utility.yul\":7530:7646   */\n    tag_92:\n        /* \"#utility.yul\":7600:7621   */\n      tag_195\n        /* \"#utility.yul\":7615:7620   */\n      dup2\n        /* \"#utility.yul\":7600:7621   */\n      tag_119\n      jump\t// in\n    tag_195:\n        /* \"#utility.yul\":7593:7598   */\n      dup2\n        /* \"#utility.yul\":7590:7622   */\n      eq\n        /* \"#utility.yul\":7580:7640   */\n      tag_196\n      jumpi\n        /* \"#utility.yul\":7636:7637   */\n      0x00\n        /* \"#utility.yul\":7633:7634   */\n      dup1\n        /* \"#utility.yul\":7626:7638   */\n      revert\n        /* \"#utility.yul\":7580:7640   */\n    tag_196:\n        /* \"#utility.yul\":7530:7646   */\n      pop\n      jump\t// out\n        /* \"#utility.yul\":7652:7774   */\n    tag_96:\n        /* \"#utility.yul\":7725:7749   */\n      tag_198\n        /* \"#utility.yul\":7743:7748   */\n      dup2\n        /* \"#utility.yul\":7725:7749   */\n      tag_138\n      jump\t// in\n    tag_198:\n        /* \"#utility.yul\":7718:7723   */\n      dup2\n        /* \"#utility.yul\":7715:7750   */\n      eq\n        /* \"#utility.yul\":7705:7768   */\n      tag_199\n      jumpi\n        /* \"#utility.yul\":7764:7765   */\n      0x00\n        /* \"#utility.yul\":7761:7762   */\n      dup1\n        /* \"#utility.yul\":7754:7766   */\n      revert\n        /* \"#utility.yul\":7705:7768   */\n    tag_199:\n        /* \"#utility.yul\":7652:7774   */\n      pop\n      jump\t// out\n\n    auxdata: 0xa2646970667358221220463bcc96f47290dd4e0e7e0e7a176499abecf93b5702d3da4d3defc730bd7b8b64736f6c63430008070033\n}\n",
				"bytecode": {
					"linkReferences": {},
					"object": "608060405234801561001057600080fd5b50610a2c806100206000396000f3fe6080604052600436106100915760003560e01c80636d26ec18116100595780636d26ec18146101695780637c6688441461017357806382e33e82146101b0578063ae454f11146101d9578063dc99be111461021657610091565b806312065fe01461009657806323fd0e40146100c1578063492bfa18146100ec57806354876921146101175780635d68278c14610140575b600080fd5b3480156100a257600080fd5b506100ab610241565b6040516100b8919061074c565b60405180910390f35b3480156100cd57600080fd5b506100d6610249565b6040516100e3919061074c565b60405180910390f35b3480156100f857600080fd5b5061010161024f565b60405161010e919061070a565b60405180910390f35b34801561012357600080fd5b5061013e60048036038101906101399190610608565b6102dd565b005b34801561014c57600080fd5b50610167600480360381019061016291906105c8565b610444565b005b61017161048c565b005b34801561017f57600080fd5b5061019a60048036038101906101959190610608565b6104e4565b6040516101a791906106ef565b60405180910390f35b3480156101bc57600080fd5b506101d760048036038101906101d29190610635565b610504565b005b3480156101e557600080fd5b5061020060048036038101906101fb919061059b565b610533565b60405161020d919061074c565b60405180910390f35b34801561022257600080fd5b5061022b61054b565b60405161023891906106ef565b60405180910390f35b600047905090565b60025481565b6001805461025c906108e2565b80601f0160208091040260200160405190810160405280929190818152602001828054610288906108e2565b80156102d55780601f106102aa576101008083540402835291602001916102d5565b820191906000526020600020905b8154815290600101906020018083116102b857829003601f168201915b505050505081565b6000670de0b6b3a7640000826102f391906107d9565b9050600460003373ffffffffffffffffffffffffffffffffffffffff1673ffffffffffffffffffffffffffffffffffffffff16815260200190815260200160002054811115610377576040517f08c379a000000000000000000000000000000000000000000000000000000000815260040161036e9061072c565b60405180910390fd5b670de0b6b3a76400008261038b91906107d9565b600460003373ffffffffffffffffffffffffffffffffffffffff1673ffffffffffffffffffffffffffffffffffffffff16815260200190815260200160002060008282546103d99190610833565b9250508190555060003390508073ffffffffffffffffffffffffffffffffffffffff166108fc670de0b6b3a76400008561041391906107d9565b9081150290604051600060405180830381858888f1935050505015801561043e573d6000803e3d6000fd5b50505050565b80600460008473ffffffffffffffffffffffffffffffffffffffff1673ffffffffffffffffffffffffffffffffffffffff168152602001908152602001600020819055505050565b34600460003373ffffffffffffffffffffffffffffffffffffffff1673ffffffffffffffffffffffffffffffffffffffff16815260200190815260200160002060008282546104db9190610783565b92505081905550565b60036020528060005260406000206000915054906101000a900460ff1681565b806003600084815260200190815260200160002060006101000a81548160ff0219169083151502179055505050565b60046020528060005260406000206000915090505481565b60008054906101000a900460ff1681565b60008135905061056b816109b1565b92915050565b600081359050610580816109c8565b92915050565b600081359050610595816109df565b92915050565b6000602082840312156105b1576105b0610972565b5b60006105bf8482850161055c565b91505092915050565b600080604083850312156105df576105de610972565b5b60006105ed8582860161055c565b92505060206105fe85828601610586565b9150509250929050565b60006020828403121561061e5761061d610972565b5b600061062c84828501610586565b91505092915050565b6000806040838503121561064c5761064b610972565b5b600061065a85828601610586565b925050602061066b85828601610571565b9150509250929050565b61067e81610879565b82525050565b600061068f82610767565b6106998185610772565b93506106a98185602086016108af565b6106b281610977565b840191505092915050565b60006106ca601083610772565b91506106d582610988565b602082019050919050565b6106e9816108a5565b82525050565b60006020820190506107046000830184610675565b92915050565b600060208201905081810360008301526107248184610684565b905092915050565b60006020820190508181036000830152610745816106bd565b9050919050565b600060208201905061076160008301846106e0565b92915050565b600081519050919050565b600082825260208201905092915050565b600061078e826108a5565b9150610799836108a5565b9250827fffffffffffffffffffffffffffffffffffffffffffffffffffffffffffffffff038211156107ce576107cd610914565b5b828201905092915050565b60006107e4826108a5565b91506107ef836108a5565b9250817fffffffffffffffffffffffffffffffffffffffffffffffffffffffffffffffff048311821515161561082857610827610914565b5b828202905092915050565b600061083e826108a5565b9150610849836108a5565b92508282101561085c5761085b610914565b5b828203905092915050565b600061087282610885565b9050919050565b60008115159050919050565b600073ffffffffffffffffffffffffffffffffffffffff82169050919050565b6000819050919050565b60005b838110156108cd5780820151818401526020810190506108b2565b838111156108dc576000848401525b50505050565b600060028204905060018216806108fa57607f821691505b6020821081141561090e5761090d610943565b5b50919050565b7f4e487b7100000000000000000000000000000000000000000000000000000000600052601160045260246000fd5b7f4e487b7100000000000000000000000000000000000000000000000000000000600052602260045260246000fd5b600080fd5b6000601f19601f8301169050919050565b7f4e6f7420656e6f756768206d6f6e657900000000000000000000000000000000600082015250565b6109ba81610867565b81146109c557600080fd5b50565b6109d181610879565b81146109dc57600080fd5b50565b6109e8816108a5565b81146109f357600080fd5b5056fea2646970667358221220463bcc96f47290dd4e0e7e0e7a176499abecf93b5702d3da4d3defc730bd7b8b64736f6c63430008070033",
					"opcodes": "PUSH1 0x80 PUSH1 0x40 MSTORE CALLVALUE DUP1 ISZERO PUSH2 0x10 JUMPI PUSH1 0x0 DUP1 REVERT JUMPDEST POP PUSH2 0xA2C DUP1 PUSH2 0x20 PUSH1 0x0 CODECOPY PUSH1 0x0 RETURN INVALID PUSH1 0x80 PUSH1 0x40 MSTORE PUSH1 0x4 CALLDATASIZE LT PUSH2 0x91 JUMPI PUSH1 0x0 CALLDATALOAD PUSH1 0xE0 SHR DUP1 PUSH4 0x6D26EC18 GT PUSH2 0x59 JUMPI DUP1 PUSH4 0x6D26EC18 EQ PUSH2 0x169 JUMPI DUP1 PUSH4 0x7C668844 EQ PUSH2 0x173 JUMPI DUP1 PUSH4 0x82E33E82 EQ PUSH2 0x1B0 JUMPI DUP1 PUSH4 0xAE454F11 EQ PUSH2 0x1D9 JUMPI DUP1 PUSH4 0xDC99BE11 EQ PUSH2 0x216 JUMPI PUSH2 0x91 JUMP JUMPDEST DUP1 PUSH4 0x12065FE0 EQ PUSH2 0x96 JUMPI DUP1 PUSH4 0x23FD0E40 EQ PUSH2 0xC1 JUMPI DUP1 PUSH4 0x492BFA18 EQ PUSH2 0xEC JUMPI DUP1 PUSH4 0x54876921 EQ PUSH2 0x117 JUMPI DUP1 PUSH4 0x5D68278C EQ PUSH2 0x140 JUMPI JUMPDEST PUSH1 0x0 DUP1 REVERT JUMPDEST CALLVALUE DUP1 ISZERO PUSH2 0xA2 JUMPI PUSH1 0x0 DUP1 REVERT JUMPDEST POP PUSH2 0xAB PUSH2 0x241 JUMP JUMPDEST PUSH1 0x40 MLOAD PUSH2 0xB8 SWAP2 SWAP1 PUSH2 0x74C JUMP JUMPDEST PUSH1 0x40 MLOAD DUP1 SWAP2 SUB SWAP1 RETURN JUMPDEST CALLVALUE DUP1 ISZERO PUSH2 0xCD JUMPI PUSH1 0x0 DUP1 REVERT JUMPDEST POP PUSH2 0xD6 PUSH2 0x249 JUMP JUMPDEST PUSH1 0x40 MLOAD PUSH2 0xE3 SWAP2 SWAP1 PUSH2 0x74C JUMP JUMPDEST PUSH1 0x40 MLOAD DUP1 SWAP2 SUB SWAP1 RETURN JUMPDEST CALLVALUE DUP1 ISZERO PUSH2 0xF8 JUMPI PUSH1 0x0 DUP1 REVERT JUMPDEST POP PUSH2 0x101 PUSH2 0x24F JUMP JUMPDEST PUSH1 0x40 MLOAD PUSH2 0x10E SWAP2 SWAP1 PUSH2 0x70A JUMP JUMPDEST PUSH1 0x40 MLOAD DUP1 SWAP2 SUB SWAP1 RETURN JUMPDEST CALLVALUE DUP1 ISZERO PUSH2 0x123 JUMPI PUSH1 0x0 DUP1 REVERT JUMPDEST POP PUSH2 0x13E PUSH1 0x4 DUP1 CALLDATASIZE SUB DUP2 ADD SWAP1 PUSH2 0x139 SWAP2 SWAP1 PUSH2 0x608 JUMP JUMPDEST PUSH2 0x2DD JUMP JUMPDEST STOP JUMPDEST CALLVALUE DUP1 ISZERO PUSH2 0x14C JUMPI PUSH1 0x0 DUP1 REVERT JUMPDEST POP PUSH2 0x167 PUSH1 0x4 DUP1 CALLDATASIZE SUB DUP2 ADD SWAP1 PUSH2 0x162 SWAP2 SWAP1 PUSH2 0x5C8 JUMP JUMPDEST PUSH2 0x444 JUMP JUMPDEST STOP JUMPDEST PUSH2 0x171 PUSH2 0x48C JUMP JUMPDEST STOP JUMPDEST CALLVALUE DUP1 ISZERO PUSH2 0x17F JUMPI PUSH1 0x0 DUP1 REVERT JUMPDEST POP PUSH2 0x19A PUSH1 0x4 DUP1 CALLDATASIZE SUB DUP2 ADD SWAP1 PUSH2 0x195 SWAP2 SWAP1 PUSH2 0x608 JUMP JUMPDEST PUSH2 0x4E4 JUMP JUMPDEST PUSH1 0x40 MLOAD PUSH2 0x1A7 SWAP2 SWAP1 PUSH2 0x6EF JUMP JUMPDEST PUSH1 0x40 MLOAD DUP1 SWAP2 SUB SWAP1 RETURN JUMPDEST CALLVALUE DUP1 ISZERO PUSH2 0x1BC JUMPI PUSH1 0x0 DUP1 REVERT JUMPDEST POP PUSH2 0x1D7 PUSH1 0x4 DUP1 CALLDATASIZE SUB DUP2 ADD SWAP1 PUSH2 0x1D2 SWAP2 SWAP1 PUSH2 0x635 JUMP JUMPDEST PUSH2 0x504 JUMP JUMPDEST STOP JUMPDEST CALLVALUE DUP1 ISZERO PUSH2 0x1E5 JUMPI PUSH1 0x0 DUP1 REVERT JUMPDEST POP PUSH2 0x200 PUSH1 0x4 DUP1 CALLDATASIZE SUB DUP2 ADD SWAP1 PUSH2 0x1FB SWAP2 SWAP1 PUSH2 0x59B JUMP JUMPDEST PUSH2 0x533 JUMP JUMPDEST PUSH1 0x40 MLOAD PUSH2 0x20D SWAP2 SWAP1 PUSH2 0x74C JUMP JUMPDEST PUSH1 0x40 MLOAD DUP1 SWAP2 SUB SWAP1 RETURN JUMPDEST CALLVALUE DUP1 ISZERO PUSH2 0x222 JUMPI PUSH1 0x0 DUP1 REVERT JUMPDEST POP PUSH2 0x22B PUSH2 0x54B JUMP JUMPDEST PUSH1 0x40 MLOAD PUSH2 0x238 SWAP2 SWAP1 PUSH2 0x6EF JUMP JUMPDEST PUSH1 0x40 MLOAD DUP1 SWAP2 SUB SWAP1 RETURN JUMPDEST PUSH1 0x0 SELFBALANCE SWAP1 POP SWAP1 JUMP JUMPDEST PUSH1 0x2 SLOAD DUP2 JUMP JUMPDEST PUSH1 0x1 DUP1 SLOAD PUSH2 0x25C SWAP1 PUSH2 0x8E2 JUMP JUMPDEST DUP1 PUSH1 0x1F ADD PUSH1 0x20 DUP1 SWAP2 DIV MUL PUSH1 0x20 ADD PUSH1 0x40 MLOAD SWAP1 DUP2 ADD PUSH1 0x40 MSTORE DUP1 SWAP3 SWAP2 SWAP1 DUP2 DUP2 MSTORE PUSH1 0x20 ADD DUP3 DUP1 SLOAD PUSH2 0x288 SWAP1 PUSH2 0x8E2 JUMP JUMPDEST DUP1 ISZERO PUSH2 0x2D5 JUMPI DUP1 PUSH1 0x1F LT PUSH2 0x2AA JUMPI PUSH2 0x100 DUP1 DUP4 SLOAD DIV MUL DUP4 MSTORE SWAP2 PUSH1 0x20 ADD SWAP2 PUSH2 0x2D5 JUMP JUMPDEST DUP3 ADD SWAP2 SWAP1 PUSH1 0x0 MSTORE PUSH1 0x20 PUSH1 0x0 KECCAK256 SWAP1 JUMPDEST DUP2 SLOAD DUP2 MSTORE SWAP1 PUSH1 0x1 ADD SWAP1 PUSH1 0x20 ADD DUP1 DUP4 GT PUSH2 0x2B8 JUMPI DUP3 SWAP1 SUB PUSH1 0x1F AND DUP3 ADD SWAP2 JUMPDEST POP POP POP POP POP DUP2 JUMP JUMPDEST PUSH1 0x0 PUSH8 0xDE0B6B3A7640000 DUP3 PUSH2 0x2F3 SWAP2 SWAP1 PUSH2 0x7D9 JUMP JUMPDEST SWAP1 POP PUSH1 0x4 PUSH1 0x0 CALLER PUSH20 0xFFFFFFFFFFFFFFFFFFFFFFFFFFFFFFFFFFFFFFFF AND PUSH20 0xFFFFFFFFFFFFFFFFFFFFFFFFFFFFFFFFFFFFFFFF AND DUP2 MSTORE PUSH1 0x20 ADD SWAP1 DUP2 MSTORE PUSH1 0x20 ADD PUSH1 0x0 KECCAK256 SLOAD DUP2 GT ISZERO PUSH2 0x377 JUMPI PUSH1 0x40 MLOAD PUSH32 0x8C379A000000000000000000000000000000000000000000000000000000000 DUP2 MSTORE PUSH1 0x4 ADD PUSH2 0x36E SWAP1 PUSH2 0x72C JUMP JUMPDEST PUSH1 0x40 MLOAD DUP1 SWAP2 SUB SWAP1 REVERT JUMPDEST PUSH8 0xDE0B6B3A7640000 DUP3 PUSH2 0x38B SWAP2 SWAP1 PUSH2 0x7D9 JUMP JUMPDEST PUSH1 0x4 PUSH1 0x0 CALLER PUSH20 0xFFFFFFFFFFFFFFFFFFFFFFFFFFFFFFFFFFFFFFFF AND PUSH20 0xFFFFFFFFFFFFFFFFFFFFFFFFFFFFFFFFFFFFFFFF AND DUP2 MSTORE PUSH1 0x20 ADD SWAP1 DUP2 MSTORE PUSH1 0x20 ADD PUSH1 0x0 KECCAK256 PUSH1 0x0 DUP3 DUP3 SLOAD PUSH2 0x3D9 SWAP2 SWAP1 PUSH2 0x833 JUMP JUMPDEST SWAP3 POP POP DUP2 SWAP1 SSTORE POP PUSH1 0x0 CALLER SWAP1 POP DUP1 PUSH20 0xFFFFFFFFFFFFFFFFFFFFFFFFFFFFFFFFFFFFFFFF AND PUSH2 0x8FC PUSH8 0xDE0B6B3A7640000 DUP6 PUSH2 0x413 SWAP2 SWAP1 PUSH2 0x7D9 JUMP JUMPDEST SWAP1 DUP2 ISZERO MUL SWAP1 PUSH1 0x40 MLOAD PUSH1 0x0 PUSH1 0x40 MLOAD DUP1 DUP4 SUB DUP2 DUP6 DUP9 DUP9 CALL SWAP4 POP POP POP POP ISZERO DUP1 ISZERO PUSH2 0x43E JUMPI RETURNDATASIZE PUSH1 0x0 DUP1 RETURNDATACOPY RETURNDATASIZE PUSH1 0x0 REVERT JUMPDEST POP POP POP POP JUMP JUMPDEST DUP1 PUSH1 0x4 PUSH1 0x0 DUP5 PUSH20 0xFFFFFFFFFFFFFFFFFFFFFFFFFFFFFFFFFFFFFFFF AND PUSH20 0xFFFFFFFFFFFFFFFFFFFFFFFFFFFFFFFFFFFFFFFF AND DUP2 MSTORE PUSH1 0x20 ADD SWAP1 DUP2 MSTORE PUSH1 0x20 ADD PUSH1 0x0 KECCAK256 DUP2 SWAP1 SSTORE POP POP POP JUMP JUMPDEST CALLVALUE PUSH1 0x4 PUSH1 0x0 CALLER PUSH20 0xFFFFFFFFFFFFFFFFFFFFFFFFFFFFFFFFFFFFFFFF AND PUSH20 0xFFFFFFFFFFFFFFFFFFFFFFFFFFFFFFFFFFFFFFFF AND DUP2 MSTORE PUSH1 0x20 ADD SWAP1 DUP2 MSTORE PUSH1 0x20 ADD PUSH1 0x0 KECCAK256 PUSH1 0x0 DUP3 DUP3 SLOAD PUSH2 0x4DB SWAP2 SWAP1 PUSH2 0x783 JUMP JUMPDEST SWAP3 POP POP DUP2 SWAP1 SSTORE POP JUMP JUMPDEST PUSH1 0x3 PUSH1 0x20 MSTORE DUP1 PUSH1 0x0 MSTORE PUSH1 0x40 PUSH1 0x0 KECCAK256 PUSH1 0x0 SWAP2 POP SLOAD SWAP1 PUSH2 0x100 EXP SWAP1 DIV PUSH1 0xFF AND DUP2 JUMP JUMPDEST DUP1 PUSH1 0x3 PUSH1 0x0 DUP5 DUP2 MSTORE PUSH1 0x20 ADD SWAP1 DUP2 MSTORE PUSH1 0x20 ADD PUSH1 0x0 KECCAK256 PUSH1 0x0 PUSH2 0x100 EXP DUP2 SLOAD DUP2 PUSH1 0xFF MUL NOT AND SWAP1 DUP4 ISZERO ISZERO MUL OR SWAP1 SSTORE POP POP POP JUMP JUMPDEST PUSH1 0x4 PUSH1 0x20 MSTORE DUP1 PUSH1 0x0 MSTORE PUSH1 0x40 PUSH1 0x0 KECCAK256 PUSH1 0x0 SWAP2 POP SWAP1 POP SLOAD DUP2 JUMP JUMPDEST PUSH1 0x0 DUP1 SLOAD SWAP1 PUSH2 0x100 EXP SWAP1 DIV PUSH1 0xFF AND DUP2 JUMP JUMPDEST PUSH1 0x0 DUP2 CALLDATALOAD SWAP1 POP PUSH2 0x56B DUP2 PUSH2 0x9B1 JUMP JUMPDEST SWAP3 SWAP2 POP POP JUMP JUMPDEST PUSH1 0x0 DUP2 CALLDATALOAD SWAP1 POP PUSH2 0x580 DUP2 PUSH2 0x9C8 JUMP JUMPDEST SWAP3 SWAP2 POP POP JUMP JUMPDEST PUSH1 0x0 DUP2 CALLDATALOAD SWAP1 POP PUSH2 0x595 DUP2 PUSH2 0x9DF JUMP JUMPDEST SWAP3 SWAP2 POP POP JUMP JUMPDEST PUSH1 0x0 PUSH1 0x20 DUP3 DUP5 SUB SLT ISZERO PUSH2 0x5B1 JUMPI PUSH2 0x5B0 PUSH2 0x972 JUMP JUMPDEST JUMPDEST PUSH1 0x0 PUSH2 0x5BF DUP5 DUP3 DUP6 ADD PUSH2 0x55C JUMP JUMPDEST SWAP2 POP POP SWAP3 SWAP2 POP POP JUMP JUMPDEST PUSH1 0x0 DUP1 PUSH1 0x40 DUP4 DUP6 SUB SLT ISZERO PUSH2 0x5DF JUMPI PUSH2 0x5DE PUSH2 0x972 JUMP JUMPDEST JUMPDEST PUSH1 0x0 PUSH2 0x5ED DUP6 DUP3 DUP7 ADD PUSH2 0x55C JUMP JUMPDEST SWAP3 POP POP PUSH1 0x20 PUSH2 0x5FE DUP6 DUP3 DUP7 ADD PUSH2 0x586 JUMP JUMPDEST SWAP2 POP POP SWAP3 POP SWAP3 SWAP1 POP JUMP JUMPDEST PUSH1 0x0 PUSH1 0x20 DUP3 DUP5 SUB SLT ISZERO PUSH2 0x61E JUMPI PUSH2 0x61D PUSH2 0x972 JUMP JUMPDEST JUMPDEST PUSH1 0x0 PUSH2 0x62C DUP5 DUP3 DUP6 ADD PUSH2 0x586 JUMP JUMPDEST SWAP2 POP POP SWAP3 SWAP2 POP POP JUMP JUMPDEST PUSH1 0x0 DUP1 PUSH1 0x40 DUP4 DUP6 SUB SLT ISZERO PUSH2 0x64C JUMPI PUSH2 0x64B PUSH2 0x972 JUMP JUMPDEST JUMPDEST PUSH1 0x0 PUSH2 0x65A DUP6 DUP3 DUP7 ADD PUSH2 0x586 JUMP JUMPDEST SWAP3 POP POP PUSH1 0x20 PUSH2 0x66B DUP6 DUP3 DUP7 ADD PUSH2 0x571 JUMP JUMPDEST SWAP2 POP POP SWAP3 POP SWAP3 SWAP1 POP JUMP JUMPDEST PUSH2 0x67E DUP2 PUSH2 0x879 JUMP JUMPDEST DUP3 MSTORE POP POP JUMP JUMPDEST PUSH1 0x0 PUSH2 0x68F DUP3 PUSH2 0x767 JUMP JUMPDEST PUSH2 0x699 DUP2 DUP6 PUSH2 0x772 JUMP JUMPDEST SWAP4 POP PUSH2 0x6A9 DUP2 DUP6 PUSH1 0x20 DUP7 ADD PUSH2 0x8AF JUMP JUMPDEST PUSH2 0x6B2 DUP2 PUSH2 0x977 JUMP JUMPDEST DUP5 ADD SWAP2 POP POP SWAP3 SWAP2 POP POP JUMP JUMPDEST PUSH1 0x0 PUSH2 0x6CA PUSH1 0x10 DUP4 PUSH2 0x772 JUMP JUMPDEST SWAP2 POP PUSH2 0x6D5 DUP3 PUSH2 0x988 JUMP JUMPDEST PUSH1 0x20 DUP3 ADD SWAP1 POP SWAP2 SWAP1 POP JUMP JUMPDEST PUSH2 0x6E9 DUP2 PUSH2 0x8A5 JUMP JUMPDEST DUP3 MSTORE POP POP JUMP JUMPDEST PUSH1 0x0 PUSH1 0x20 DUP3 ADD SWAP1 POP PUSH2 0x704 PUSH1 0x0 DUP4 ADD DUP5 PUSH2 0x675 JUMP JUMPDEST SWAP3 SWAP2 POP POP JUMP JUMPDEST PUSH1 0x0 PUSH1 0x20 DUP3 ADD SWAP1 POP DUP2 DUP2 SUB PUSH1 0x0 DUP4 ADD MSTORE PUSH2 0x724 DUP2 DUP5 PUSH2 0x684 JUMP JUMPDEST SWAP1 POP SWAP3 SWAP2 POP POP JUMP JUMPDEST PUSH1 0x0 PUSH1 0x20 DUP3 ADD SWAP1 POP DUP2 DUP2 SUB PUSH1 0x0 DUP4 ADD MSTORE PUSH2 0x745 DUP2 PUSH2 0x6BD JUMP JUMPDEST SWAP1 POP SWAP2 SWAP1 POP JUMP JUMPDEST PUSH1 0x0 PUSH1 0x20 DUP3 ADD SWAP1 POP PUSH2 0x761 PUSH1 0x0 DUP4 ADD DUP5 PUSH2 0x6E0 JUMP JUMPDEST SWAP3 SWAP2 POP POP JUMP JUMPDEST PUSH1 0x0 DUP2 MLOAD SWAP1 POP SWAP2 SWAP1 POP JUMP JUMPDEST PUSH1 0x0 DUP3 DUP3 MSTORE PUSH1 0x20 DUP3 ADD SWAP1 POP SWAP3 SWAP2 POP POP JUMP JUMPDEST PUSH1 0x0 PUSH2 0x78E DUP3 PUSH2 0x8A5 JUMP JUMPDEST SWAP2 POP PUSH2 0x799 DUP4 PUSH2 0x8A5 JUMP JUMPDEST SWAP3 POP DUP3 PUSH32 0xFFFFFFFFFFFFFFFFFFFFFFFFFFFFFFFFFFFFFFFFFFFFFFFFFFFFFFFFFFFFFFFF SUB DUP3 GT ISZERO PUSH2 0x7CE JUMPI PUSH2 0x7CD PUSH2 0x914 JUMP JUMPDEST JUMPDEST DUP3 DUP3 ADD SWAP1 POP SWAP3 SWAP2 POP POP JUMP JUMPDEST PUSH1 0x0 PUSH2 0x7E4 DUP3 PUSH2 0x8A5 JUMP JUMPDEST SWAP2 POP PUSH2 0x7EF DUP4 PUSH2 0x8A5 JUMP JUMPDEST SWAP3 POP DUP2 PUSH32 0xFFFFFFFFFFFFFFFFFFFFFFFFFFFFFFFFFFFFFFFFFFFFFFFFFFFFFFFFFFFFFFFF DIV DUP4 GT DUP3 ISZERO ISZERO AND ISZERO PUSH2 0x828 JUMPI PUSH2 0x827 PUSH2 0x914 JUMP JUMPDEST JUMPDEST DUP3 DUP3 MUL SWAP1 POP SWAP3 SWAP2 POP POP JUMP JUMPDEST PUSH1 0x0 PUSH2 0x83E DUP3 PUSH2 0x8A5 JUMP JUMPDEST SWAP2 POP PUSH2 0x849 DUP4 PUSH2 0x8A5 JUMP JUMPDEST SWAP3 POP DUP3 DUP3 LT ISZERO PUSH2 0x85C JUMPI PUSH2 0x85B PUSH2 0x914 JUMP JUMPDEST JUMPDEST DUP3 DUP3 SUB SWAP1 POP SWAP3 SWAP2 POP POP JUMP JUMPDEST PUSH1 0x0 PUSH2 0x872 DUP3 PUSH2 0x885 JUMP JUMPDEST SWAP1 POP SWAP2 SWAP1 POP JUMP JUMPDEST PUSH1 0x0 DUP2 ISZERO ISZERO SWAP1 POP SWAP2 SWAP1 POP JUMP JUMPDEST PUSH1 0x0 PUSH20 0xFFFFFFFFFFFFFFFFFFFFFFFFFFFFFFFFFFFFFFFF DUP3 AND SWAP1 POP SWAP2 SWAP1 POP JUMP JUMPDEST PUSH1 0x0 DUP2 SWAP1 POP SWAP2 SWAP1 POP JUMP JUMPDEST PUSH1 0x0 JUMPDEST DUP4 DUP2 LT ISZERO PUSH2 0x8CD JUMPI DUP1 DUP3 ADD MLOAD DUP2 DUP5 ADD MSTORE PUSH1 0x20 DUP2 ADD SWAP1 POP PUSH2 0x8B2 JUMP JUMPDEST DUP4 DUP2 GT ISZERO PUSH2 0x8DC JUMPI PUSH1 0x0 DUP5 DUP5 ADD MSTORE JUMPDEST POP POP POP POP JUMP JUMPDEST PUSH1 0x0 PUSH1 0x2 DUP3 DIV SWAP1 POP PUSH1 0x1 DUP3 AND DUP1 PUSH2 0x8FA JUMPI PUSH1 0x7F DUP3 AND SWAP2 POP JUMPDEST PUSH1 0x20 DUP3 LT DUP2 EQ ISZERO PUSH2 0x90E JUMPI PUSH2 0x90D PUSH2 0x943 JUMP JUMPDEST JUMPDEST POP SWAP2 SWAP1 POP JUMP JUMPDEST PUSH32 0x4E487B7100000000000000000000000000000000000000000000000000000000 PUSH1 0x0 MSTORE PUSH1 0x11 PUSH1 0x4 MSTORE PUSH1 0x24 PUSH1 0x0 REVERT JUMPDEST PUSH32 0x4E487B7100000000000000000000000000000000000000000000000000000000 PUSH1 0x0 MSTORE PUSH1 0x22 PUSH1 0x4 MSTORE PUSH1 0x24 PUSH1 0x0 REVERT JUMPDEST PUSH1 0x0 DUP1 REVERT JUMPDEST PUSH1 0x0 PUSH1 0x1F NOT PUSH1 0x1F DUP4 ADD AND SWAP1 POP SWAP2 SWAP1 POP JUMP JUMPDEST PUSH32 0x4E6F7420656E6F756768206D6F6E657900000000000000000000000000000000 PUSH1 0x0 DUP3 ADD MSTORE POP JUMP JUMPDEST PUSH2 0x9BA DUP2 PUSH2 0x867 JUMP JUMPDEST DUP2 EQ PUSH2 0x9C5 JUMPI PUSH1 0x0 DUP1 REVERT JUMPDEST POP JUMP JUMPDEST PUSH2 0x9D1 DUP2 PUSH2 0x879 JUMP JUMPDEST DUP2 EQ PUSH2 0x9DC JUMPI PUSH1 0x0 DUP1 REVERT JUMPDEST POP JUMP JUMPDEST PUSH2 0x9E8 DUP2 PUSH2 0x8A5 JUMP JUMPDEST DUP2 EQ PUSH2 0x9F3 JUMPI PUSH1 0x0 DUP1 REVERT JUMPDEST POP JUMP INVALID LOG2 PUSH5 0x6970667358 0x22 SLT KECCAK256 CHAINID EXTCODESIZE 0xCC SWAP7 DELEGATECALL PUSH19 0x90DD4E0E7E0E7A176499ABECF93B5702D3DA4D RETURNDATASIZE 0xEF 0xC7 ADDRESS 0xBD PUSH28 0x8B64736F6C6343000807003300000000000000000000000000000000 "
				},
				"gasEstimates": {
					"creation": {
						"codeDepositCost": "520800",
						"executionCost": "556",
						"totalCost": "521356"
					},
					"external": {
						"getBalance()": "340",
						"myAddresses(address)": "2880",
						"myBoolean()": "2556",
						"myMapping(uint256)": "2818",
						"myNumber()": "2452",
						"myString()": "infinite",
						"receiveMoney()": "infinite",
						"setMyAddresses(address,uint256)": "22921",
						"setValue(uint256,bool)": "24974",
						"withdrawMoney(uint256)": "infinite"
					}
				},
				"methodIdentifiers": {
					"getBalance()": "12065fe0",
					"myAddresses(address)": "ae454f11",
					"myBoolean()": "dc99be11",
					"myMapping(uint256)": "7c668844",
					"myNumber()": "23fd0e40",
					"myString()": "492bfa18",
					"receiveMoney()": "6d26ec18",
					"setMyAddresses(address,uint256)": "5d68278c",
					"setValue(uint256,bool)": "82e33e82",
					"withdrawMoney(uint256)": "54876921"
				}
			},
			"storageLayout": {
				"storage": [
					{
						"astId": 3,
						"contract": "contracts/Ejercicios/Mymodifier.sol:ModifierExample",
						"label": "myBoolean",
						"offset": 0,
						"slot": "0",
						"type": "t_bool"
					},
					{
						"astId": 5,
						"contract": "contracts/Ejercicios/Mymodifier.sol:ModifierExample",
						"label": "myString",
						"offset": 0,
						"slot": "1",
						"type": "t_string_storage"
					},
					{
						"astId": 7,
						"contract": "contracts/Ejercicios/Mymodifier.sol:ModifierExample",
						"label": "myNumber",
						"offset": 0,
						"slot": "2",
						"type": "t_uint256"
					},
					{
						"astId": 11,
						"contract": "contracts/Ejercicios/Mymodifier.sol:ModifierExample",
						"label": "myMapping",
						"offset": 0,
						"slot": "3",
						"type": "t_mapping(t_uint256,t_bool)"
					},
					{
						"astId": 15,
						"contract": "contracts/Ejercicios/Mymodifier.sol:ModifierExample",
						"label": "myAddresses",
						"offset": 0,
						"slot": "4",
						"type": "t_mapping(t_address,t_uint256)"
					}
				],
				"types": {
					"t_address": {
						"encoding": "inplace",
						"label": "address",
						"numberOfBytes": "20"
					},
					"t_bool": {
						"encoding": "inplace",
						"label": "bool",
						"numberOfBytes": "1"
					},
					"t_mapping(t_address,t_uint256)": {
						"encoding": "mapping",
						"key": "t_address",
						"label": "mapping(address => uint256)",
						"numberOfBytes": "32",
						"value": "t_uint256"
					},
					"t_mapping(t_uint256,t_bool)": {
						"encoding": "mapping",
						"key": "t_uint256",
						"label": "mapping(uint256 => bool)",
						"numberOfBytes": "32",
						"value": "t_bool"
					},
					"t_string_storage": {
						"encoding": "bytes",
						"label": "string",
						"numberOfBytes": "32"
					},
					"t_uint256": {
						"encoding": "inplace",
						"label": "uint256",
						"numberOfBytes": "32"
					}
				}
			},
			"userdoc": {
				"kind": "user",
				"methods": {},
				"version": 1
			}
		}
	}
}