{
  "contractName": "EventTest",
  "abi": [
    {
      "inputs": [],
      "stateMutability": "nonpayable",
      "type": "constructor"
    },
    {
      "anonymous": false,
      "inputs": [
        {
          "indexed": false,
          "internalType": "address",
          "name": "from",
          "type": "address"
        },
        {
          "indexed": false,
          "internalType": "address",
          "name": "to",
          "type": "address"
        },
        {
          "indexed": false,
          "internalType": "uint256",
          "name": "amount",
          "type": "uint256"
        }
      ],
      "name": "tokensSent",
      "type": "event"
    },
    {
      "inputs": [
        {
          "internalType": "address",
          "name": "",
          "type": "address"
        }
      ],
      "name": "tokenBalance",
      "outputs": [
        {
          "internalType": "uint256",
          "name": "",
          "type": "uint256"
        }
      ],
      "stateMutability": "view",
      "type": "function"
    },
    {
      "inputs": [
        {
          "internalType": "address",
          "name": "to",
          "type": "address"
        },
        {
          "internalType": "uint256",
          "name": "amount",
          "type": "uint256"
        }
      ],
      "name": "sendToken",
      "outputs": [
        {
          "internalType": "bool",
          "name": "",
          "type": "bool"
        }
      ],
      "stateMutability": "nonpayable",
      "type": "function"
    }
  ],
  "bytecode": "0x608060405234801561001057600080fd5b50336000806101000a81548173ffffffffffffffffffffffffffffffffffffffff021916908373ffffffffffffffffffffffffffffffffffffffff1602179055506064600160003373ffffffffffffffffffffffffffffffffffffffff1673ffffffffffffffffffffffffffffffffffffffff1681526020019081526020016000208190555061054d806100a56000396000f3fe608060405234801561001057600080fd5b50600436106100365760003560e01c8063412664ae1461003b578063eedc966a1461006b575b600080fd5b610055600480360381019061005091906102ce565b61009b565b6040516100629190610329565b60405180910390f35b61008560048036038101906100809190610344565b61021d565b6040516100929190610380565b60405180910390f35b60008060009054906101000a900473ffffffffffffffffffffffffffffffffffffffff1673ffffffffffffffffffffffffffffffffffffffff163373ffffffffffffffffffffffffffffffffffffffff161461012c576040517f08c379a0000000000000000000000000000000000000000000000000000000008152600401610123906103f8565b60405180910390fd5b81600160003373ffffffffffffffffffffffffffffffffffffffff1673ffffffffffffffffffffffffffffffffffffffff168152602001908152602001600020600082825461017b9190610447565b9250508190555081600160008573ffffffffffffffffffffffffffffffffffffffff1673ffffffffffffffffffffffffffffffffffffffff16815260200190815260200160002060008282546101d1919061047b565b925050819055507fb5f4a5ab97f31b8852f082a6dd76142be22a3605c7ab9e2dfbea121c4a13a48633848460405161020b939291906104e0565b60405180910390a16001905092915050565b60016020528060005260406000206000915090505481565b600080fd5b600073ffffffffffffffffffffffffffffffffffffffff82169050919050565b60006102658261023a565b9050919050565b6102758161025a565b811461028057600080fd5b50565b6000813590506102928161026c565b92915050565b6000819050919050565b6102ab81610298565b81146102b657600080fd5b50565b6000813590506102c8816102a2565b92915050565b600080604083850312156102e5576102e4610235565b5b60006102f385828601610283565b9250506020610304858286016102b9565b9150509250929050565b60008115159050919050565b6103238161030e565b82525050565b600060208201905061033e600083018461031a565b92915050565b60006020828403121561035a57610359610235565b5b600061036884828501610283565b91505092915050565b61037a81610298565b82525050565b60006020820190506103956000830184610371565b92915050565b600082825260208201905092915050565b7f796f7520617265206e6f7420746865206f776e65720000000000000000000000600082015250565b60006103e260158361039b565b91506103ed826103ac565b602082019050919050565b60006020820190508181036000830152610411816103d5565b9050919050565b7f4e487b7100000000000000000000000000000000000000000000000000000000600052601160045260246000fd5b600061045282610298565b915061045d83610298565b9250828210156104705761046f610418565b5b828203905092915050565b600061048682610298565b915061049183610298565b9250827fffffffffffffffffffffffffffffffffffffffffffffffffffffffffffffffff038211156104c6576104c5610418565b5b828201905092915050565b6104da8161025a565b82525050565b60006060820190506104f560008301866104d1565b61050260208301856104d1565b61050f6040830184610371565b94935050505056fea26469706673582212207c3017f7497765d0e5c84b93d319a70467c1f5f0e6c63ce51b04ba158c539a4664736f6c634300080e0033",
  "immutableReferences": {},
  "source": "// SPDX-License-Identifier: GPL-3.0\r\npragma solidity ^0.8.0;\r\n\r\ncontract EventTest {\r\n    address private owner;\r\n    mapping(address => uint) public tokenBalance;\r\n\r\n    event tokensSent(address from, address to, uint amount);\r\n\r\n    constructor() {\r\n        owner = msg.sender;\r\n        tokenBalance[msg.sender] = 100;\r\n    }\r\n\r\n    function sendToken(address to, uint amount) public returns(bool){\r\n        require(msg.sender == owner, \"you are not the owner\");\r\n        tokenBalance[msg.sender] -= amount;\r\n        tokenBalance[to] += amount;\r\n        emit tokensSent(msg.sender, to, amount);\r\n        return true;\r\n    }\r\n}",
  "sourcePath": "C:\\Users\\HP\\Desktop\\Trabajos U\\Blockchain\\app react\\orb-coin\\ethereum\\contracts\\EventTest.sol",
  "compiler": {
    "name": "solc",
    "version": "0.8.14+commit.80d49f37.Emscripten.clang"
  },
  "schemaVersion": "3.4.7",
  "updatedAt": "2022-06-20T03:24:42.963Z",
  "devdoc": {
    "kind": "dev",
    "methods": {},
    "version": 1
  },
  "userdoc": {
    "kind": "user",
    "methods": {},
    "version": 1
  }
}