{
  "contractName": "Lottery",
  "abi": [
    {
      "inputs": [],
      "stateMutability": "nonpayable",
      "type": "constructor"
    },
    {
      "inputs": [],
      "name": "manager",
      "outputs": [
        {
          "internalType": "address",
          "name": "",
          "type": "address"
        }
      ],
      "stateMutability": "view",
      "type": "function",
      "constant": true
    },
    {
      "inputs": [
        {
          "internalType": "uint256",
          "name": "",
          "type": "uint256"
        }
      ],
      "name": "players",
      "outputs": [
        {
          "internalType": "address",
          "name": "",
          "type": "address"
        }
      ],
      "stateMutability": "view",
      "type": "function",
      "constant": true
    },
    {
      "inputs": [],
      "name": "enter",
      "outputs": [],
      "stateMutability": "payable",
      "type": "function",
      "payable": true
    },
    {
      "inputs": [],
      "name": "random",
      "outputs": [
        {
          "internalType": "uint256",
          "name": "",
          "type": "uint256"
        }
      ],
      "stateMutability": "view",
      "type": "function",
      "constant": true
    },
    {
      "inputs": [],
      "name": "pickWinner",
      "outputs": [],
      "stateMutability": "nonpayable",
      "type": "function"
    },
    {
      "inputs": [],
      "name": "getPlayers",
      "outputs": [
        {
          "internalType": "address[]",
          "name": "",
          "type": "address[]"
        }
      ],
      "stateMutability": "view",
      "type": "function",
      "constant": true
    }
  ],
  "bytecode": "0x608060405234801561001057600080fd5b5033600160006101000a81548173ffffffffffffffffffffffffffffffffffffffff021916908373ffffffffffffffffffffffffffffffffffffffff160217905550610913806100616000396000f3fe6080604052600436106100555760003560e01c8063481c6a751461005a5780635d495aea146100855780635ec01e4d1461009c5780638b5b9ccc146100c7578063e97dcb62146100f2578063f71d96cb146100fc575b600080fd5b34801561006657600080fd5b5061006f610139565b60405161007c919061051a565b60405180910390f35b34801561009157600080fd5b5061009a61015f565b005b3480156100a857600080fd5b506100b16102bc565b6040516100be919061054e565b60405180910390f35b3480156100d357600080fd5b506100dc6102f2565b6040516100e99190610627565b60405180910390f35b6100fa610380565b005b34801561010857600080fd5b50610123600480360381019061011e919061067a565b6103f3565b604051610130919061051a565b60405180910390f35b600160009054906101000a900473ffffffffffffffffffffffffffffffffffffffff1681565b600160009054906101000a900473ffffffffffffffffffffffffffffffffffffffff1673ffffffffffffffffffffffffffffffffffffffff163373ffffffffffffffffffffffffffffffffffffffff16146101b957600080fd5b600080805490506101c86102bc565b6101d291906106d6565b9050600081815481106101e8576101e7610707565b5b9060005260206000200160009054906101000a900473ffffffffffffffffffffffffffffffffffffffff1673ffffffffffffffffffffffffffffffffffffffff166108fc479081150290604051600060405180830381858888f19350505050158015610258573d6000803e3d6000fd5b50600067ffffffffffffffff81111561027457610273610736565b5b6040519080825280602002602001820160405280156102a25781602001602082028036833780820191505090505b50600090805190602001906102b8929190610432565b5050565b6000444260006040516020016102d4939291906108a4565b6040516020818303038152906040528051906020012060001c905090565b6060600080548060200260200160405190810160405280929190818152602001828054801561037657602002820191906000526020600020905b8160009054906101000a900473ffffffffffffffffffffffffffffffffffffffff1673ffffffffffffffffffffffffffffffffffffffff168152602001906001019080831161032c575b5050505050905090565b6103e8341161038e57600080fd5b6000339080600181540180825580915050600190039060005260206000200160009091909190916101000a81548173ffffffffffffffffffffffffffffffffffffffff021916908373ffffffffffffffffffffffffffffffffffffffff160217905550565b6000818154811061040357600080fd5b906000526020600020016000915054906101000a900473ffffffffffffffffffffffffffffffffffffffff1681565b8280548282559060005260206000209081019282156104ab579160200282015b828111156104aa5782518260006101000a81548173ffffffffffffffffffffffffffffffffffffffff021916908373ffffffffffffffffffffffffffffffffffffffff16021790555091602001919060010190610452565b5b5090506104b891906104bc565b5090565b5b808211156104d55760008160009055506001016104bd565b5090565b600073ffffffffffffffffffffffffffffffffffffffff82169050919050565b6000610504826104d9565b9050919050565b610514816104f9565b82525050565b600060208201905061052f600083018461050b565b92915050565b6000819050919050565b61054881610535565b82525050565b6000602082019050610563600083018461053f565b92915050565b600081519050919050565b600082825260208201905092915050565b6000819050602082019050919050565b61059e816104f9565b82525050565b60006105b08383610595565b60208301905092915050565b6000602082019050919050565b60006105d482610569565b6105de8185610574565b93506105e983610585565b8060005b8381101561061a57815161060188826105a4565b975061060c836105bc565b9250506001810190506105ed565b5085935050505092915050565b6000602082019050818103600083015261064181846105c9565b905092915050565b600080fd5b61065781610535565b811461066257600080fd5b50565b6000813590506106748161064e565b92915050565b6000602082840312156106905761068f610649565b5b600061069e84828501610665565b91505092915050565b7f4e487b7100000000000000000000000000000000000000000000000000000000600052601260045260246000fd5b60006106e182610535565b91506106ec83610535565b9250826106fc576106fb6106a7565b5b828206905092915050565b7f4e487b7100000000000000000000000000000000000000000000000000000000600052603260045260246000fd5b7f4e487b7100000000000000000000000000000000000000000000000000000000600052604160045260246000fd5b6000819050919050565b61078061077b82610535565b610765565b82525050565b600081549050919050565b600081905092915050565b60008190508160005260206000209050919050565b6107ba816104f9565b82525050565b60006107cc83836107b1565b60208301905092915050565b60008160001c9050919050565b600073ffffffffffffffffffffffffffffffffffffffff82169050919050565b6000610818610813836107d8565b6107e5565b9050919050565b600061082b8254610805565b9050919050565b6000600182019050919050565b600061084a82610786565b6108548185610791565b935061085f8361079c565b8060005b83811015610897576108748261081f565b61087e88826107c0565b975061088983610832565b925050600181019050610863565b5085935050505092915050565b60006108b0828661076f565b6020820191506108c0828561076f565b6020820191506108d0828461083f565b915081905094935050505056fea2646970667358221220b4942c78f77edddb9a1b1026ce13c162cf097b4020bdb9c20bf4ea78cd3dbce064736f6c634300080e0033",
  "immutableReferences": {},
  "source": "// SPDX-License-Identifier:GPL-3.0\r\npragma solidity 0.8.14;\r\ncontract Lottery{\r\n    address[] public players;\r\n    address public manager;\r\n\r\n    constructor(){\r\n        manager = msg.sender;\r\n    }\r\n\r\n    function enter()public payable{\r\n        require(msg.value> 1000 wei);\r\n        players.push(msg.sender);\r\n\r\n    }\r\n\r\n    function random() public view returns (uint){\r\n\r\n        return uint(keccak256(abi.encodePacked(block.difficulty,block.timestamp,players)));\r\n\r\n    }\r\n    function pickWinner()public  restricted{\r\n        uint index =  random()%players.length;\r\n        payable(players[index]).transfer(address(this).balance);\r\n        players= new address[](0);\r\n    }\r\n    modifier restricted(){\r\n        require(msg.sender == manager);\r\n        _;\r\n    }\r\n\r\n    function getPlayers()public view returns(address[]memory){\r\n        return players;\r\n    }\r\n\r\n}\r\n",
  "sourcePath": "C:\\Users\\Paolo\\Desktop\\Proyecto_react\\my-coin\\ethereum\\contracts\\Lottery.sol",
  "compiler": {
    "name": "solc",
    "version": "0.8.14+commit.80d49f37.Emscripten.clang"
  },
  "schemaVersion": "3.4.7",
  "updatedAt": "2022-06-07T17:51:00.970Z",
  "networkType": "ethereum",
  "devdoc": {
    "kind": "dev",
    "methods": {},
    "version": 1
  },
  "userdoc": {
    "kind": "user",
    "methods": {},
    "version": 1
  }
}