{
	"Examen 1/PrimerParcial.sol": {
		"PrimerParcial": {
			"abi": [
				{
					"inputs": [],
					"stateMutability": "nonpayable",
					"type": "constructor"
				},
				{
					"anonymous": false,
					"inputs": [
						{
							"indexed": false,
							"internalType": "string",
							"name": "name",
							"type": "string"
						},
						{
							"indexed": false,
							"internalType": "address",
							"name": "wallet",
							"type": "address"
						},
						{
							"indexed": false,
							"internalType": "uint256",
							"name": "quantity",
							"type": "uint256"
						}
					],
					"name": "clientBuy",
					"type": "event"
				},
				{
					"inputs": [
						{
							"components": [
								{
									"internalType": "uint256",
									"name": "id",
									"type": "uint256"
								},
								{
									"internalType": "string",
									"name": "name",
									"type": "string"
								},
								{
									"internalType": "uint256",
									"name": "stock",
									"type": "uint256"
								},
								{
									"internalType": "uint256",
									"name": "price",
									"type": "uint256"
								}
							],
							"internalType": "struct PrimerParcial.Product",
							"name": "productData",
							"type": "tuple"
						}
					],
					"name": "addProduct",
					"outputs": [],
					"stateMutability": "nonpayable",
					"type": "function"
				},
				{
					"inputs": [
						{
							"internalType": "uint256",
							"name": "id",
							"type": "uint256"
						},
						{
							"internalType": "uint256",
							"name": "stock",
							"type": "uint256"
						}
					],
					"name": "addQuantity",
					"outputs": [],
					"stateMutability": "nonpayable",
					"type": "function"
				},
				{
					"inputs": [
						{
							"internalType": "uint256",
							"name": "id",
							"type": "uint256"
						},
						{
							"internalType": "uint256",
							"name": "quantity",
							"type": "uint256"
						}
					],
					"name": "buyProduct",
					"outputs": [],
					"stateMutability": "payable",
					"type": "function"
				},
				{
					"inputs": [
						{
							"internalType": "bool",
							"name": "value",
							"type": "bool"
						}
					],
					"name": "closeOrOpenAmazon",
					"outputs": [],
					"stateMutability": "nonpayable",
					"type": "function"
				},
				{
					"inputs": [
						{
							"internalType": "uint256",
							"name": "",
							"type": "uint256"
						}
					],
					"name": "listProducts",
					"outputs": [
						{
							"internalType": "uint256",
							"name": "id",
							"type": "uint256"
						},
						{
							"internalType": "string",
							"name": "name",
							"type": "string"
						},
						{
							"internalType": "uint256",
							"name": "stock",
							"type": "uint256"
						},
						{
							"internalType": "uint256",
							"name": "price",
							"type": "uint256"
						}
					],
					"stateMutability": "view",
					"type": "function"
				},
				{
					"inputs": [],
					"name": "withdrawAllMoney",
					"outputs": [],
					"stateMutability": "nonpayable",
					"type": "function"
				}
			],
			"devdoc": {
				"kind": "dev",
				"methods": {},
				"version": 1
			},
			"evm": {
				"assembly": "    /* \"Examen 1/PrimerParcial.sol\":62:2070  contract PrimerParcial {\r... */\n  mstore(0x40, 0x80)\n    /* \"Examen 1/PrimerParcial.sol\":142:147  false */\n  0x00\n    /* \"Examen 1/PrimerParcial.sol\":120:147  bool private closed = false */\n  dup1\n  exp(0x0100, 0x14)\n  dup2\n  sload\n  dup2\n  0xff\n  mul\n  not\n  and\n  swap1\n  dup4\n  iszero\n  iszero\n  mul\n  or\n  swap1\n  sstore\n  pop\n    /* \"Examen 1/PrimerParcial.sol\":384:435  constructor() {\r... */\n  callvalue\n  dup1\n  iszero\n  tag_1\n  jumpi\n  0x00\n  dup1\n  revert\ntag_1:\n  pop\n    /* \"Examen 1/PrimerParcial.sol\":417:427  msg.sender */\n  caller\n    /* \"Examen 1/PrimerParcial.sol\":409:414  owner */\n  0x00\n  dup1\n    /* \"Examen 1/PrimerParcial.sol\":409:427  owner = msg.sender */\n  0x0100\n  exp\n  dup2\n  sload\n  dup2\n  0xffffffffffffffffffffffffffffffffffffffff\n  mul\n  not\n  and\n  swap1\n  dup4\n  0xffffffffffffffffffffffffffffffffffffffff\n  and\n  mul\n  or\n  swap1\n  sstore\n  pop\n    /* \"Examen 1/PrimerParcial.sol\":62:2070  contract PrimerParcial {\r... */\n  dataSize(sub_0)\n  dup1\n  dataOffset(sub_0)\n  0x00\n  codecopy\n  0x00\n  return\nstop\n\nsub_0: assembly {\n        /* \"Examen 1/PrimerParcial.sol\":62:2070  contract PrimerParcial {\r... */\n      mstore(0x40, 0x80)\n      jumpi(tag_1, lt(calldatasize, 0x04))\n      shr(0xe0, calldataload(0x00))\n      dup1\n      0x1b52b9de\n      eq\n      tag_2\n      jumpi\n      dup1\n      0x34d53366\n      eq\n      tag_3\n      jumpi\n      dup1\n      0x408b464b\n      eq\n      tag_4\n      jumpi\n      dup1\n      0x53b62866\n      eq\n      tag_5\n      jumpi\n      dup1\n      0x9d64871c\n      eq\n      tag_6\n      jumpi\n      dup1\n      0xbc32caad\n      eq\n      tag_7\n      jumpi\n    tag_1:\n      0x00\n      dup1\n      revert\n        /* \"Examen 1/PrimerParcial.sol\":1578:1718  function withdrawAllMoney() public onlyOwner(msg.sender) closedAmazon {\r... */\n    tag_2:\n      callvalue\n      dup1\n      iszero\n      tag_8\n      jumpi\n      0x00\n      dup1\n      revert\n    tag_8:\n      pop\n      tag_9\n      tag_10\n      jump\t// in\n    tag_9:\n      stop\n        /* \"Examen 1/PrimerParcial.sol\":333:377  mapping(uint => Product) public listProducts */\n    tag_3:\n      callvalue\n      dup1\n      iszero\n      tag_11\n      jumpi\n      0x00\n      dup1\n      revert\n    tag_11:\n      pop\n      tag_12\n      0x04\n      dup1\n      calldatasize\n      sub\n      dup2\n      add\n      swap1\n      tag_13\n      swap2\n      swap1\n      tag_14\n      jump\t// in\n    tag_13:\n      tag_15\n      jump\t// in\n    tag_12:\n      mload(0x40)\n      tag_16\n      swap5\n      swap4\n      swap3\n      swap2\n      swap1\n      tag_17\n      jump\t// in\n    tag_16:\n      mload(0x40)\n      dup1\n      swap2\n      sub\n      swap1\n      return\n        /* \"Examen 1/PrimerParcial.sol\":443:746  function addProduct(Product memory productData) public onlyOwner(msg.sender) closedAmazon {\r... */\n    tag_4:\n      callvalue\n      dup1\n      iszero\n      tag_18\n      jumpi\n      0x00\n      dup1\n      revert\n    tag_18:\n      pop\n      tag_19\n      0x04\n      dup1\n      calldatasize\n      sub\n      dup2\n      add\n      swap1\n      tag_20\n      swap2\n      swap1\n      tag_21\n      jump\t// in\n    tag_20:\n      tag_22\n      jump\t// in\n    tag_19:\n      stop\n        /* \"Examen 1/PrimerParcial.sol\":1005:1570  function buyProduct(uint id, uint quantity) public payable closedAmazon {\r... */\n    tag_5:\n      tag_23\n      0x04\n      dup1\n      calldatasize\n      sub\n      dup2\n      add\n      swap1\n      tag_24\n      swap2\n      swap1\n      tag_25\n      jump\t// in\n    tag_24:\n      tag_26\n      jump\t// in\n    tag_23:\n      stop\n        /* \"Examen 1/PrimerParcial.sol\":754:888  function addQuantity(uint id, uint stock) public onlyOwner(msg.sender) closedAmazon {\r... */\n    tag_6:\n      callvalue\n      dup1\n      iszero\n      tag_27\n      jumpi\n      0x00\n      dup1\n      revert\n    tag_27:\n      pop\n      tag_28\n      0x04\n      dup1\n      calldatasize\n      sub\n      dup2\n      add\n      swap1\n      tag_29\n      swap2\n      swap1\n      tag_25\n      jump\t// in\n    tag_29:\n      tag_30\n      jump\t// in\n    tag_28:\n      stop\n        /* \"Examen 1/PrimerParcial.sol\":896:997  function closeOrOpenAmazon(bool value) public onlyOwner(msg.sender) {\r... */\n    tag_7:\n      callvalue\n      dup1\n      iszero\n      tag_31\n      jumpi\n      0x00\n      dup1\n      revert\n    tag_31:\n      pop\n      tag_32\n      0x04\n      dup1\n      calldatasize\n      sub\n      dup2\n      add\n      swap1\n      tag_33\n      swap2\n      swap1\n      tag_34\n      jump\t// in\n    tag_33:\n      tag_35\n      jump\t// in\n    tag_32:\n      stop\n        /* \"Examen 1/PrimerParcial.sol\":1578:1718  function withdrawAllMoney() public onlyOwner(msg.sender) closedAmazon {\r... */\n    tag_10:\n        /* \"Examen 1/PrimerParcial.sol\":1623:1633  msg.sender */\n      caller\n        /* \"Examen 1/PrimerParcial.sol\":1789:1795  wallet */\n      dup1\n        /* \"Examen 1/PrimerParcial.sol\":1780:1795  owner == wallet */\n      0xffffffffffffffffffffffffffffffffffffffff\n      and\n        /* \"Examen 1/PrimerParcial.sol\":1780:1785  owner */\n      0x00\n      dup1\n      sload\n      swap1\n      0x0100\n      exp\n      swap1\n      div\n      0xffffffffffffffffffffffffffffffffffffffff\n      and\n        /* \"Examen 1/PrimerParcial.sol\":1780:1795  owner == wallet */\n      0xffffffffffffffffffffffffffffffffffffffff\n      and\n      eq\n        /* \"Examen 1/PrimerParcial.sol\":1772:1822  require(owner == wallet, \"you are not the owner.\") */\n      tag_37\n      jumpi\n      mload(0x40)\n      0x08c379a000000000000000000000000000000000000000000000000000000000\n      dup2\n      mstore\n      0x04\n      add\n      tag_38\n      swap1\n      tag_39\n      jump\t// in\n    tag_38:\n      mload(0x40)\n      dup1\n      swap2\n      sub\n      swap1\n      revert\n    tag_37:\n        /* \"Examen 1/PrimerParcial.sol\":1894:1900  closed */\n      0x00\n      0x14\n      swap1\n      sload\n      swap1\n      0x0100\n      exp\n      swap1\n      div\n      0xff\n      and\n        /* \"Examen 1/PrimerParcial.sol\":1893:1900  !closed */\n      iszero\n        /* \"Examen 1/PrimerParcial.sol\":1885:1922  require(!closed, \"Amazon is closed.\") */\n      tag_41\n      jumpi\n      mload(0x40)\n      0x08c379a000000000000000000000000000000000000000000000000000000000\n      dup2\n      mstore\n      0x04\n      add\n      tag_42\n      swap1\n      tag_43\n      jump\t// in\n    tag_42:\n      mload(0x40)\n      dup1\n      swap2\n      sub\n      swap1\n      revert\n    tag_41:\n        /* \"Examen 1/PrimerParcial.sol\":1667:1677  msg.sender */\n      caller\n        /* \"Examen 1/PrimerParcial.sol\":1659:1687  payable(msg.sender).transfer */\n      0xffffffffffffffffffffffffffffffffffffffff\n      and\n        /* \"Examen 1/PrimerParcial.sol\":1659:1710  payable(msg.sender).transfer(address(this).balance) */\n      0x08fc\n        /* \"Examen 1/PrimerParcial.sol\":1688:1709  address(this).balance */\n      selfbalance\n        /* \"Examen 1/PrimerParcial.sol\":1659:1710  payable(msg.sender).transfer(address(this).balance) */\n      swap1\n      dup2\n      iszero\n      mul\n      swap1\n      mload(0x40)\n      0x00\n      mload(0x40)\n      dup1\n      dup4\n      sub\n      dup2\n      dup6\n      dup9\n      dup9\n      call\n      swap4\n      pop\n      pop\n      pop\n      pop\n      iszero\n      dup1\n      iszero\n      tag_46\n      jumpi\n      returndatasize\n      0x00\n      dup1\n      returndatacopy\n      revert(0x00, returndatasize)\n    tag_46:\n      pop\n        /* \"Examen 1/PrimerParcial.sol\":1578:1718  function withdrawAllMoney() public onlyOwner(msg.sender) closedAmazon {\r... */\n      pop\n      jump\t// out\n        /* \"Examen 1/PrimerParcial.sol\":333:377  mapping(uint => Product) public listProducts */\n    tag_15:\n      mstore(0x20, 0x01)\n      dup1\n      0x00\n      mstore\n      keccak256(0x00, 0x40)\n      0x00\n      swap2\n      pop\n      swap1\n      pop\n      dup1\n      0x00\n      add\n      sload\n      swap1\n      dup1\n      0x01\n      add\n      dup1\n      sload\n      tag_47\n      swap1\n      tag_48\n      jump\t// in\n    tag_47:\n      dup1\n      0x1f\n      add\n      0x20\n      dup1\n      swap2\n      div\n      mul\n      0x20\n      add\n      mload(0x40)\n      swap1\n      dup2\n      add\n      0x40\n      mstore\n      dup1\n      swap3\n      swap2\n      swap1\n      dup2\n      dup2\n      mstore\n      0x20\n      add\n      dup3\n      dup1\n      sload\n      tag_49\n      swap1\n      tag_48\n      jump\t// in\n    tag_49:\n      dup1\n      iszero\n      tag_50\n      jumpi\n      dup1\n      0x1f\n      lt\n      tag_51\n      jumpi\n      0x0100\n      dup1\n      dup4\n      sload\n      div\n      mul\n      dup4\n      mstore\n      swap2\n      0x20\n      add\n      swap2\n      jump(tag_50)\n    tag_51:\n      dup3\n      add\n      swap2\n      swap1\n      0x00\n      mstore\n      keccak256(0x00, 0x20)\n      swap1\n    tag_52:\n      dup2\n      sload\n      dup2\n      mstore\n      swap1\n      0x01\n      add\n      swap1\n      0x20\n      add\n      dup1\n      dup4\n      gt\n      tag_52\n      jumpi\n      dup3\n      swap1\n      sub\n      0x1f\n      and\n      dup3\n      add\n      swap2\n    tag_50:\n      pop\n      pop\n      pop\n      pop\n      pop\n      swap1\n      dup1\n      0x02\n      add\n      sload\n      swap1\n      dup1\n      0x03\n      add\n      sload\n      swap1\n      pop\n      dup5\n      jump\t// out\n        /* \"Examen 1/PrimerParcial.sol\":443:746  function addProduct(Product memory productData) public onlyOwner(msg.sender) closedAmazon {\r... */\n    tag_22:\n        /* \"Examen 1/PrimerParcial.sol\":508:518  msg.sender */\n      caller\n        /* \"Examen 1/PrimerParcial.sol\":1789:1795  wallet */\n      dup1\n        /* \"Examen 1/PrimerParcial.sol\":1780:1795  owner == wallet */\n      0xffffffffffffffffffffffffffffffffffffffff\n      and\n        /* \"Examen 1/PrimerParcial.sol\":1780:1785  owner */\n      0x00\n      dup1\n      sload\n      swap1\n      0x0100\n      exp\n      swap1\n      div\n      0xffffffffffffffffffffffffffffffffffffffff\n      and\n        /* \"Examen 1/PrimerParcial.sol\":1780:1795  owner == wallet */\n      0xffffffffffffffffffffffffffffffffffffffff\n      and\n      eq\n        /* \"Examen 1/PrimerParcial.sol\":1772:1822  require(owner == wallet, \"you are not the owner.\") */\n      tag_54\n      jumpi\n      mload(0x40)\n      0x08c379a000000000000000000000000000000000000000000000000000000000\n      dup2\n      mstore\n      0x04\n      add\n      tag_55\n      swap1\n      tag_39\n      jump\t// in\n    tag_55:\n      mload(0x40)\n      dup1\n      swap2\n      sub\n      swap1\n      revert\n    tag_54:\n        /* \"Examen 1/PrimerParcial.sol\":1894:1900  closed */\n      0x00\n      0x14\n      swap1\n      sload\n      swap1\n      0x0100\n      exp\n      swap1\n      div\n      0xff\n      and\n        /* \"Examen 1/PrimerParcial.sol\":1893:1900  !closed */\n      iszero\n        /* \"Examen 1/PrimerParcial.sol\":1885:1922  require(!closed, \"Amazon is closed.\") */\n      tag_57\n      jumpi\n      mload(0x40)\n      0x08c379a000000000000000000000000000000000000000000000000000000000\n      dup2\n      mstore\n      0x04\n      add\n      tag_58\n      swap1\n      tag_43\n      jump\t// in\n    tag_58:\n      mload(0x40)\n      dup1\n      swap2\n      sub\n      swap1\n      revert\n    tag_57:\n        /* \"Examen 1/PrimerParcial.sol\":585:586  5 */\n      0x05\n        /* \"Examen 1/PrimerParcial.sol\":558:569  productData */\n      dup3\n        /* \"Examen 1/PrimerParcial.sol\":558:574  productData.name */\n      0x20\n      add\n      mload\n        /* \"Examen 1/PrimerParcial.sol\":552:582  bytes(productData.name).length */\n      mload\n        /* \"Examen 1/PrimerParcial.sol\":552:586  bytes(productData.name).length > 5 */\n      gt\n        /* \"Examen 1/PrimerParcial.sol\":544:633  require(bytes(productData.name).length > 5, \"the name of product should be more than 5.\") */\n      tag_60\n      jumpi\n      mload(0x40)\n      0x08c379a000000000000000000000000000000000000000000000000000000000\n      dup2\n      mstore\n      0x04\n      add\n      tag_61\n      swap1\n      tag_62\n      jump\t// in\n    tag_61:\n      mload(0x40)\n      dup1\n      swap2\n      sub\n      swap1\n      revert\n    tag_60:\n        /* \"Examen 1/PrimerParcial.sol\":675:738  Product(productData.id, productData.name, 0, productData.price) */\n      mload(0x40)\n      dup1\n      0x80\n      add\n      0x40\n      mstore\n      dup1\n        /* \"Examen 1/PrimerParcial.sol\":683:694  productData */\n      dup4\n        /* \"Examen 1/PrimerParcial.sol\":683:697  productData.id */\n      0x00\n      add\n      mload\n        /* \"Examen 1/PrimerParcial.sol\":675:738  Product(productData.id, productData.name, 0, productData.price) */\n      dup2\n      mstore\n      0x20\n      add\n        /* \"Examen 1/PrimerParcial.sol\":699:710  productData */\n      dup4\n        /* \"Examen 1/PrimerParcial.sol\":699:715  productData.name */\n      0x20\n      add\n      mload\n        /* \"Examen 1/PrimerParcial.sol\":675:738  Product(productData.id, productData.name, 0, productData.price) */\n      dup2\n      mstore\n      0x20\n      add\n        /* \"Examen 1/PrimerParcial.sol\":717:718  0 */\n      0x00\n        /* \"Examen 1/PrimerParcial.sol\":675:738  Product(productData.id, productData.name, 0, productData.price) */\n      dup2\n      mstore\n      0x20\n      add\n        /* \"Examen 1/PrimerParcial.sol\":720:731  productData */\n      dup4\n        /* \"Examen 1/PrimerParcial.sol\":720:737  productData.price */\n      0x60\n      add\n      mload\n        /* \"Examen 1/PrimerParcial.sol\":675:738  Product(productData.id, productData.name, 0, productData.price) */\n      dup2\n      mstore\n      pop\n        /* \"Examen 1/PrimerParcial.sol\":644:656  listProducts */\n      0x01\n        /* \"Examen 1/PrimerParcial.sol\":644:672  listProducts[productData.id] */\n      0x00\n        /* \"Examen 1/PrimerParcial.sol\":657:668  productData */\n      dup5\n        /* \"Examen 1/PrimerParcial.sol\":657:671  productData.id */\n      0x00\n      add\n      mload\n        /* \"Examen 1/PrimerParcial.sol\":644:672  listProducts[productData.id] */\n      dup2\n      mstore\n      0x20\n      add\n      swap1\n      dup2\n      mstore\n      0x20\n      add\n      0x00\n      keccak256\n        /* \"Examen 1/PrimerParcial.sol\":644:738  listProducts[productData.id] = Product(productData.id, productData.name, 0, productData.price) */\n      0x00\n      dup3\n      add\n      mload\n      dup2\n      0x00\n      add\n      sstore\n      0x20\n      dup3\n      add\n      mload\n      dup2\n      0x01\n      add\n      swap1\n      dup1\n      mload\n      swap1\n      0x20\n      add\n      swap1\n      tag_63\n      swap3\n      swap2\n      swap1\n      tag_64\n      jump\t// in\n    tag_63:\n      pop\n      0x40\n      dup3\n      add\n      mload\n      dup2\n      0x02\n      add\n      sstore\n      0x60\n      dup3\n      add\n      mload\n      dup2\n      0x03\n      add\n      sstore\n      swap1\n      pop\n      pop\n        /* \"Examen 1/PrimerParcial.sol\":443:746  function addProduct(Product memory productData) public onlyOwner(msg.sender) closedAmazon {\r... */\n      pop\n      pop\n      jump\t// out\n        /* \"Examen 1/PrimerParcial.sol\":1005:1570  function buyProduct(uint id, uint quantity) public payable closedAmazon {\r... */\n    tag_26:\n        /* \"Examen 1/PrimerParcial.sol\":1894:1900  closed */\n      0x00\n      0x14\n      swap1\n      sload\n      swap1\n      0x0100\n      exp\n      swap1\n      div\n      0xff\n      and\n        /* \"Examen 1/PrimerParcial.sol\":1893:1900  !closed */\n      iszero\n        /* \"Examen 1/PrimerParcial.sol\":1885:1922  require(!closed, \"Amazon is closed.\") */\n      tag_66\n      jumpi\n      mload(0x40)\n      0x08c379a000000000000000000000000000000000000000000000000000000000\n      dup2\n      mstore\n      0x04\n      add\n      tag_67\n      swap1\n      tag_43\n      jump\t// in\n    tag_67:\n      mload(0x40)\n      dup1\n      swap2\n      sub\n      swap1\n      revert\n    tag_66:\n        /* \"Examen 1/PrimerParcial.sol\":1088:1114  Product memory productData */\n      0x00\n        /* \"Examen 1/PrimerParcial.sol\":1117:1129  listProducts */\n      0x01\n        /* \"Examen 1/PrimerParcial.sol\":1117:1133  listProducts[id] */\n      0x00\n        /* \"Examen 1/PrimerParcial.sol\":1130:1132  id */\n      dup5\n        /* \"Examen 1/PrimerParcial.sol\":1117:1133  listProducts[id] */\n      dup2\n      mstore\n      0x20\n      add\n      swap1\n      dup2\n      mstore\n      0x20\n      add\n      0x00\n      keccak256\n        /* \"Examen 1/PrimerParcial.sol\":1088:1133  Product memory productData = listProducts[id] */\n      mload(0x40)\n      dup1\n      0x80\n      add\n      0x40\n      mstore\n      swap1\n      dup2\n      0x00\n      dup3\n      add\n      sload\n      dup2\n      mstore\n      0x20\n      add\n      0x01\n      dup3\n      add\n      dup1\n      sload\n      tag_69\n      swap1\n      tag_48\n      jump\t// in\n    tag_69:\n      dup1\n      0x1f\n      add\n      0x20\n      dup1\n      swap2\n      div\n      mul\n      0x20\n      add\n      mload(0x40)\n      swap1\n      dup2\n      add\n      0x40\n      mstore\n      dup1\n      swap3\n      swap2\n      swap1\n      dup2\n      dup2\n      mstore\n      0x20\n      add\n      dup3\n      dup1\n      sload\n      tag_70\n      swap1\n      tag_48\n      jump\t// in\n    tag_70:\n      dup1\n      iszero\n      tag_71\n      jumpi\n      dup1\n      0x1f\n      lt\n      tag_72\n      jumpi\n      0x0100\n      dup1\n      dup4\n      sload\n      div\n      mul\n      dup4\n      mstore\n      swap2\n      0x20\n      add\n      swap2\n      jump(tag_71)\n    tag_72:\n      dup3\n      add\n      swap2\n      swap1\n      0x00\n      mstore\n      keccak256(0x00, 0x20)\n      swap1\n    tag_73:\n      dup2\n      sload\n      dup2\n      mstore\n      swap1\n      0x01\n      add\n      swap1\n      0x20\n      add\n      dup1\n      dup4\n      gt\n      tag_73\n      jumpi\n      dup3\n      swap1\n      sub\n      0x1f\n      and\n      dup3\n      add\n      swap2\n    tag_71:\n      pop\n      pop\n      pop\n      pop\n      pop\n      dup2\n      mstore\n      0x20\n      add\n      0x02\n      dup3\n      add\n      sload\n      dup2\n      mstore\n      0x20\n      add\n      0x03\n      dup3\n      add\n      sload\n      dup2\n      mstore\n      pop\n      pop\n      swap1\n      pop\n        /* \"Examen 1/PrimerParcial.sol\":1186:1214  convertWeiToEther(msg.value) */\n      tag_74\n        /* \"Examen 1/PrimerParcial.sol\":1204:1213  msg.value */\n      callvalue\n        /* \"Examen 1/PrimerParcial.sol\":1186:1203  convertWeiToEther */\n      tag_75\n        /* \"Examen 1/PrimerParcial.sol\":1186:1214  convertWeiToEther(msg.value) */\n      jump\t// in\n    tag_74:\n        /* \"Examen 1/PrimerParcial.sol\":1164:1175  productData */\n      dup2\n        /* \"Examen 1/PrimerParcial.sol\":1164:1181  productData.price */\n      0x60\n      add\n      mload\n        /* \"Examen 1/PrimerParcial.sol\":1153:1161  quantity */\n      dup4\n        /* \"Examen 1/PrimerParcial.sol\":1153:1181  quantity * productData.price */\n      tag_76\n      swap2\n      swap1\n      tag_77\n      jump\t// in\n    tag_76:\n        /* \"Examen 1/PrimerParcial.sol\":1152:1214  (quantity * productData.price) <= convertWeiToEther(msg.value) */\n      gt\n      iszero\n        /* \"Examen 1/PrimerParcial.sol\":1144:1248  require((quantity * productData.price) <= convertWeiToEther(msg.value), \"you don't have enought money.\") */\n      tag_78\n      jumpi\n      mload(0x40)\n      0x08c379a000000000000000000000000000000000000000000000000000000000\n      dup2\n      mstore\n      0x04\n      add\n      tag_79\n      swap1\n      tag_80\n      jump\t// in\n    tag_79:\n      mload(0x40)\n      dup1\n      swap2\n      sub\n      swap1\n      revert\n    tag_78:\n        /* \"Examen 1/PrimerParcial.sol\":1279:1290  productData */\n      dup1\n        /* \"Examen 1/PrimerParcial.sol\":1279:1296  productData.stock */\n      0x40\n      add\n      mload\n        /* \"Examen 1/PrimerParcial.sol\":1267:1275  quantity */\n      dup3\n        /* \"Examen 1/PrimerParcial.sol\":1267:1296  quantity <= productData.stock */\n      gt\n      iszero\n        /* \"Examen 1/PrimerParcial.sol\":1259:1335  require(quantity <= productData.stock, \"there is not the stock in product.\") */\n      tag_81\n      jumpi\n      mload(0x40)\n      0x08c379a000000000000000000000000000000000000000000000000000000000\n      dup2\n      mstore\n      0x04\n      add\n      tag_82\n      swap1\n      tag_83\n      jump\t// in\n    tag_82:\n      mload(0x40)\n      dup1\n      swap2\n      sub\n      swap1\n      revert\n    tag_81:\n        /* \"Examen 1/PrimerParcial.sol\":1384:1392  quantity */\n      dup2\n        /* \"Examen 1/PrimerParcial.sol\":1346:1358  listProducts */\n      0x01\n        /* \"Examen 1/PrimerParcial.sol\":1346:1374  listProducts[productData.id] */\n      0x00\n        /* \"Examen 1/PrimerParcial.sol\":1359:1370  productData */\n      dup4\n        /* \"Examen 1/PrimerParcial.sol\":1359:1373  productData.id */\n      0x00\n      add\n      mload\n        /* \"Examen 1/PrimerParcial.sol\":1346:1374  listProducts[productData.id] */\n      dup2\n      mstore\n      0x20\n      add\n      swap1\n      dup2\n      mstore\n      0x20\n      add\n      0x00\n      keccak256\n        /* \"Examen 1/PrimerParcial.sol\":1346:1380  listProducts[productData.id].stock */\n      0x02\n      add\n      0x00\n        /* \"Examen 1/PrimerParcial.sol\":1346:1392  listProducts[productData.id].stock -= quantity */\n      dup3\n      dup3\n      sload\n      tag_84\n      swap2\n      swap1\n      tag_85\n      jump\t// in\n    tag_84:\n      swap3\n      pop\n      pop\n      dup2\n      swap1\n      sstore\n      pop\n        /* \"Examen 1/PrimerParcial.sol\":1408:1458  clientBuy(productData.name , msg.sender, quantity) */\n      0x49459a34d954bb15a30777556aa1bb797ccf585ec805324053aa26cad3c71c7f\n        /* \"Examen 1/PrimerParcial.sol\":1418:1429  productData */\n      dup2\n        /* \"Examen 1/PrimerParcial.sol\":1418:1434  productData.name */\n      0x20\n      add\n      mload\n        /* \"Examen 1/PrimerParcial.sol\":1437:1447  msg.sender */\n      caller\n        /* \"Examen 1/PrimerParcial.sol\":1449:1457  quantity */\n      dup5\n        /* \"Examen 1/PrimerParcial.sol\":1408:1458  clientBuy(productData.name , msg.sender, quantity) */\n      mload(0x40)\n      tag_86\n      swap4\n      swap3\n      swap2\n      swap1\n      tag_87\n      jump\t// in\n    tag_86:\n      mload(0x40)\n      dup1\n      swap2\n      sub\n      swap1\n      log1\n        /* \"Examen 1/PrimerParcial.sol\":1485:1487  10 */\n      0x0a\n        /* \"Examen 1/PrimerParcial.sol\":1474:1482  quantity */\n      dup3\n        /* \"Examen 1/PrimerParcial.sol\":1474:1487  quantity > 10 */\n      gt\n        /* \"Examen 1/PrimerParcial.sol\":1471:1563  if(quantity > 10) {\r... */\n      iszero\n      tag_88\n      jumpi\n        /* \"Examen 1/PrimerParcial.sol\":1512:1522  msg.sender */\n      caller\n        /* \"Examen 1/PrimerParcial.sol\":1504:1532  payable(msg.sender).transfer */\n      0xffffffffffffffffffffffffffffffffffffffff\n      and\n        /* \"Examen 1/PrimerParcial.sol\":1504:1551  payable(msg.sender).transfer(productData.price) */\n      0x08fc\n        /* \"Examen 1/PrimerParcial.sol\":1533:1544  productData */\n      dup3\n        /* \"Examen 1/PrimerParcial.sol\":1533:1550  productData.price */\n      0x60\n      add\n      mload\n        /* \"Examen 1/PrimerParcial.sol\":1504:1551  payable(msg.sender).transfer(productData.price) */\n      swap1\n      dup2\n      iszero\n      mul\n      swap1\n      mload(0x40)\n      0x00\n      mload(0x40)\n      dup1\n      dup4\n      sub\n      dup2\n      dup6\n      dup9\n      dup9\n      call\n      swap4\n      pop\n      pop\n      pop\n      pop\n      iszero\n      dup1\n      iszero\n      tag_90\n      jumpi\n      returndatasize\n      0x00\n      dup1\n      returndatacopy\n      revert(0x00, returndatasize)\n    tag_90:\n      pop\n        /* \"Examen 1/PrimerParcial.sol\":1471:1563  if(quantity > 10) {\r... */\n    tag_88:\n        /* \"Examen 1/PrimerParcial.sol\":1077:1570  {\r... */\n      pop\n        /* \"Examen 1/PrimerParcial.sol\":1005:1570  function buyProduct(uint id, uint quantity) public payable closedAmazon {\r... */\n      pop\n      pop\n      jump\t// out\n        /* \"Examen 1/PrimerParcial.sol\":754:888  function addQuantity(uint id, uint stock) public onlyOwner(msg.sender) closedAmazon {\r... */\n    tag_30:\n        /* \"Examen 1/PrimerParcial.sol\":813:823  msg.sender */\n      caller\n        /* \"Examen 1/PrimerParcial.sol\":1789:1795  wallet */\n      dup1\n        /* \"Examen 1/PrimerParcial.sol\":1780:1795  owner == wallet */\n      0xffffffffffffffffffffffffffffffffffffffff\n      and\n        /* \"Examen 1/PrimerParcial.sol\":1780:1785  owner */\n      0x00\n      dup1\n      sload\n      swap1\n      0x0100\n      exp\n      swap1\n      div\n      0xffffffffffffffffffffffffffffffffffffffff\n      and\n        /* \"Examen 1/PrimerParcial.sol\":1780:1795  owner == wallet */\n      0xffffffffffffffffffffffffffffffffffffffff\n      and\n      eq\n        /* \"Examen 1/PrimerParcial.sol\":1772:1822  require(owner == wallet, \"you are not the owner.\") */\n      tag_92\n      jumpi\n      mload(0x40)\n      0x08c379a000000000000000000000000000000000000000000000000000000000\n      dup2\n      mstore\n      0x04\n      add\n      tag_93\n      swap1\n      tag_39\n      jump\t// in\n    tag_93:\n      mload(0x40)\n      dup1\n      swap2\n      sub\n      swap1\n      revert\n    tag_92:\n        /* \"Examen 1/PrimerParcial.sol\":1894:1900  closed */\n      0x00\n      0x14\n      swap1\n      sload\n      swap1\n      0x0100\n      exp\n      swap1\n      div\n      0xff\n      and\n        /* \"Examen 1/PrimerParcial.sol\":1893:1900  !closed */\n      iszero\n        /* \"Examen 1/PrimerParcial.sol\":1885:1922  require(!closed, \"Amazon is closed.\") */\n      tag_95\n      jumpi\n      mload(0x40)\n      0x08c379a000000000000000000000000000000000000000000000000000000000\n      dup2\n      mstore\n      0x04\n      add\n      tag_96\n      swap1\n      tag_43\n      jump\t// in\n    tag_96:\n      mload(0x40)\n      dup1\n      swap2\n      sub\n      swap1\n      revert\n    tag_95:\n        /* \"Examen 1/PrimerParcial.sol\":875:880  stock */\n      dup2\n        /* \"Examen 1/PrimerParcial.sol\":849:861  listProducts */\n      0x01\n        /* \"Examen 1/PrimerParcial.sol\":849:865  listProducts[id] */\n      0x00\n        /* \"Examen 1/PrimerParcial.sol\":862:864  id */\n      dup6\n        /* \"Examen 1/PrimerParcial.sol\":849:865  listProducts[id] */\n      dup2\n      mstore\n      0x20\n      add\n      swap1\n      dup2\n      mstore\n      0x20\n      add\n      0x00\n      keccak256\n        /* \"Examen 1/PrimerParcial.sol\":849:871  listProducts[id].stock */\n      0x02\n      add\n      0x00\n        /* \"Examen 1/PrimerParcial.sol\":849:880  listProducts[id].stock += stock */\n      dup3\n      dup3\n      sload\n      tag_98\n      swap2\n      swap1\n      tag_99\n      jump\t// in\n    tag_98:\n      swap3\n      pop\n      pop\n      dup2\n      swap1\n      sstore\n      pop\n        /* \"Examen 1/PrimerParcial.sol\":754:888  function addQuantity(uint id, uint stock) public onlyOwner(msg.sender) closedAmazon {\r... */\n      pop\n      pop\n      pop\n      jump\t// out\n        /* \"Examen 1/PrimerParcial.sol\":896:997  function closeOrOpenAmazon(bool value) public onlyOwner(msg.sender) {\r... */\n    tag_35:\n        /* \"Examen 1/PrimerParcial.sol\":952:962  msg.sender */\n      caller\n        /* \"Examen 1/PrimerParcial.sol\":1789:1795  wallet */\n      dup1\n        /* \"Examen 1/PrimerParcial.sol\":1780:1795  owner == wallet */\n      0xffffffffffffffffffffffffffffffffffffffff\n      and\n        /* \"Examen 1/PrimerParcial.sol\":1780:1785  owner */\n      0x00\n      dup1\n      sload\n      swap1\n      0x0100\n      exp\n      swap1\n      div\n      0xffffffffffffffffffffffffffffffffffffffff\n      and\n        /* \"Examen 1/PrimerParcial.sol\":1780:1795  owner == wallet */\n      0xffffffffffffffffffffffffffffffffffffffff\n      and\n      eq\n        /* \"Examen 1/PrimerParcial.sol\":1772:1822  require(owner == wallet, \"you are not the owner.\") */\n      tag_101\n      jumpi\n      mload(0x40)\n      0x08c379a000000000000000000000000000000000000000000000000000000000\n      dup2\n      mstore\n      0x04\n      add\n      tag_102\n      swap1\n      tag_39\n      jump\t// in\n    tag_102:\n      mload(0x40)\n      dup1\n      swap2\n      sub\n      swap1\n      revert\n    tag_101:\n        /* \"Examen 1/PrimerParcial.sol\":984:989  value */\n      dup2\n        /* \"Examen 1/PrimerParcial.sol\":975:981  closed */\n      0x00\n      0x14\n        /* \"Examen 1/PrimerParcial.sol\":975:989  closed = value */\n      0x0100\n      exp\n      dup2\n      sload\n      dup2\n      0xff\n      mul\n      not\n      and\n      swap1\n      dup4\n      iszero\n      iszero\n      mul\n      or\n      swap1\n      sstore\n      pop\n        /* \"Examen 1/PrimerParcial.sol\":896:997  function closeOrOpenAmazon(bool value) public onlyOwner(msg.sender) {\r... */\n      pop\n      pop\n      jump\t// out\n        /* \"Examen 1/PrimerParcial.sol\":1948:2067  function convertWeiToEther(uint amountInWei) private pure returns(uint) {\r... */\n    tag_75:\n        /* \"Examen 1/PrimerParcial.sol\":2014:2018  uint */\n      0x00\n        /* \"Examen 1/PrimerParcial.sol\":2052:2059  1 ether */\n      0x0de0b6b3a7640000\n        /* \"Examen 1/PrimerParcial.sol\":2038:2049  amountInWei */\n      dup3\n        /* \"Examen 1/PrimerParcial.sol\":2038:2059  amountInWei / 1 ether */\n      tag_105\n      swap2\n      swap1\n      tag_106\n      jump\t// in\n    tag_105:\n        /* \"Examen 1/PrimerParcial.sol\":2031:2059  return amountInWei / 1 ether */\n      swap1\n      pop\n        /* \"Examen 1/PrimerParcial.sol\":1948:2067  function convertWeiToEther(uint amountInWei) private pure returns(uint) {\r... */\n      swap2\n      swap1\n      pop\n      jump\t// out\n    tag_64:\n      dup3\n      dup1\n      sload\n      tag_107\n      swap1\n      tag_48\n      jump\t// in\n    tag_107:\n      swap1\n      0x00\n      mstore\n      keccak256(0x00, 0x20)\n      swap1\n      0x1f\n      add\n      0x20\n      swap1\n      div\n      dup2\n      add\n      swap3\n      dup3\n      tag_109\n      jumpi\n      0x00\n      dup6\n      sstore\n      jump(tag_108)\n    tag_109:\n      dup3\n      0x1f\n      lt\n      tag_110\n      jumpi\n      dup1\n      mload\n      not(0xff)\n      and\n      dup4\n      dup1\n      add\n      or\n      dup6\n      sstore\n      jump(tag_108)\n    tag_110:\n      dup3\n      dup1\n      add\n      0x01\n      add\n      dup6\n      sstore\n      dup3\n      iszero\n      tag_108\n      jumpi\n      swap2\n      dup3\n      add\n    tag_111:\n      dup3\n      dup2\n      gt\n      iszero\n      tag_112\n      jumpi\n      dup3\n      mload\n      dup3\n      sstore\n      swap2\n      0x20\n      add\n      swap2\n      swap1\n      0x01\n      add\n      swap1\n      jump(tag_111)\n    tag_112:\n    tag_108:\n      pop\n      swap1\n      pop\n      tag_113\n      swap2\n      swap1\n      tag_114\n      jump\t// in\n    tag_113:\n      pop\n      swap1\n      jump\t// out\n    tag_114:\n    tag_115:\n      dup1\n      dup3\n      gt\n      iszero\n      tag_116\n      jumpi\n      0x00\n      dup2\n      0x00\n      swap1\n      sstore\n      pop\n      0x01\n      add\n      jump(tag_115)\n    tag_116:\n      pop\n      swap1\n      jump\t// out\n        /* \"#utility.yul\":7:419   */\n    tag_118:\n        /* \"#utility.yul\":85:90   */\n      0x00\n        /* \"#utility.yul\":110:176   */\n      tag_120\n        /* \"#utility.yul\":126:175   */\n      tag_121\n        /* \"#utility.yul\":168:174   */\n      dup5\n        /* \"#utility.yul\":126:175   */\n      tag_122\n      jump\t// in\n    tag_121:\n        /* \"#utility.yul\":110:176   */\n      tag_123\n      jump\t// in\n    tag_120:\n        /* \"#utility.yul\":101:176   */\n      swap1\n      pop\n        /* \"#utility.yul\":199:205   */\n      dup3\n        /* \"#utility.yul\":192:197   */\n      dup2\n        /* \"#utility.yul\":185:206   */\n      mstore\n        /* \"#utility.yul\":237:241   */\n      0x20\n        /* \"#utility.yul\":230:235   */\n      dup2\n        /* \"#utility.yul\":226:242   */\n      add\n        /* \"#utility.yul\":275:278   */\n      dup5\n        /* \"#utility.yul\":266:272   */\n      dup5\n        /* \"#utility.yul\":261:264   */\n      dup5\n        /* \"#utility.yul\":257:273   */\n      add\n        /* \"#utility.yul\":254:279   */\n      gt\n        /* \"#utility.yul\":251:363   */\n      iszero\n      tag_124\n      jumpi\n        /* \"#utility.yul\":282:361   */\n      tag_125\n      tag_126\n      jump\t// in\n    tag_125:\n        /* \"#utility.yul\":251:363   */\n    tag_124:\n        /* \"#utility.yul\":372:413   */\n      tag_127\n        /* \"#utility.yul\":406:412   */\n      dup5\n        /* \"#utility.yul\":401:404   */\n      dup3\n        /* \"#utility.yul\":396:399   */\n      dup6\n        /* \"#utility.yul\":372:413   */\n      tag_128\n      jump\t// in\n    tag_127:\n        /* \"#utility.yul\":91:419   */\n      pop\n        /* \"#utility.yul\":7:419   */\n      swap4\n      swap3\n      pop\n      pop\n      pop\n      jump\t// out\n        /* \"#utility.yul\":425:558   */\n    tag_129:\n        /* \"#utility.yul\":468:473   */\n      0x00\n        /* \"#utility.yul\":506:512   */\n      dup2\n        /* \"#utility.yul\":493:513   */\n      calldataload\n        /* \"#utility.yul\":484:513   */\n      swap1\n      pop\n        /* \"#utility.yul\":522:552   */\n      tag_131\n        /* \"#utility.yul\":546:551   */\n      dup2\n        /* \"#utility.yul\":522:552   */\n      tag_132\n      jump\t// in\n    tag_131:\n        /* \"#utility.yul\":425:558   */\n      swap3\n      swap2\n      pop\n      pop\n      jump\t// out\n        /* \"#utility.yul\":578:918   */\n    tag_133:\n        /* \"#utility.yul\":634:639   */\n      0x00\n        /* \"#utility.yul\":683:686   */\n      dup3\n        /* \"#utility.yul\":676:680   */\n      0x1f\n        /* \"#utility.yul\":668:674   */\n      dup4\n        /* \"#utility.yul\":664:681   */\n      add\n        /* \"#utility.yul\":660:687   */\n      slt\n        /* \"#utility.yul\":650:772   */\n      tag_135\n      jumpi\n        /* \"#utility.yul\":691:770   */\n      tag_136\n      tag_137\n      jump\t// in\n    tag_136:\n        /* \"#utility.yul\":650:772   */\n    tag_135:\n        /* \"#utility.yul\":808:814   */\n      dup2\n        /* \"#utility.yul\":795:815   */\n      calldataload\n        /* \"#utility.yul\":833:912   */\n      tag_138\n        /* \"#utility.yul\":908:911   */\n      dup5\n        /* \"#utility.yul\":900:906   */\n      dup3\n        /* \"#utility.yul\":893:897   */\n      0x20\n        /* \"#utility.yul\":885:891   */\n      dup7\n        /* \"#utility.yul\":881:898   */\n      add\n        /* \"#utility.yul\":833:912   */\n      tag_118\n      jump\t// in\n    tag_138:\n        /* \"#utility.yul\":824:912   */\n      swap2\n      pop\n        /* \"#utility.yul\":640:918   */\n      pop\n        /* \"#utility.yul\":578:918   */\n      swap3\n      swap2\n      pop\n      pop\n      jump\t// out\n        /* \"#utility.yul\":960:2024   */\n    tag_139:\n        /* \"#utility.yul\":1032:1037   */\n      0x00\n        /* \"#utility.yul\":1076:1080   */\n      0x80\n        /* \"#utility.yul\":1064:1073   */\n      dup3\n        /* \"#utility.yul\":1059:1062   */\n      dup5\n        /* \"#utility.yul\":1055:1074   */\n      sub\n        /* \"#utility.yul\":1051:1081   */\n      slt\n        /* \"#utility.yul\":1048:1165   */\n      iszero\n      tag_141\n      jumpi\n        /* \"#utility.yul\":1084:1163   */\n      tag_142\n      tag_143\n      jump\t// in\n    tag_142:\n        /* \"#utility.yul\":1048:1165   */\n    tag_141:\n        /* \"#utility.yul\":1183:1204   */\n      tag_144\n        /* \"#utility.yul\":1199:1203   */\n      0x80\n        /* \"#utility.yul\":1183:1204   */\n      tag_123\n      jump\t// in\n    tag_144:\n        /* \"#utility.yul\":1174:1204   */\n      swap1\n      pop\n        /* \"#utility.yul\":1261:1262   */\n      0x00\n        /* \"#utility.yul\":1301:1350   */\n      tag_145\n        /* \"#utility.yul\":1346:1349   */\n      dup5\n        /* \"#utility.yul\":1337:1343   */\n      dup3\n        /* \"#utility.yul\":1326:1335   */\n      dup6\n        /* \"#utility.yul\":1322:1344   */\n      add\n        /* \"#utility.yul\":1301:1350   */\n      tag_146\n      jump\t// in\n    tag_145:\n        /* \"#utility.yul\":1294:1298   */\n      0x00\n        /* \"#utility.yul\":1287:1292   */\n      dup4\n        /* \"#utility.yul\":1283:1299   */\n      add\n        /* \"#utility.yul\":1276:1351   */\n      mstore\n        /* \"#utility.yul\":1214:1362   */\n      pop\n        /* \"#utility.yul\":1449:1451   */\n      0x20\n        /* \"#utility.yul\":1438:1447   */\n      dup3\n        /* \"#utility.yul\":1434:1452   */\n      add\n        /* \"#utility.yul\":1421:1453   */\n      calldataload\n        /* \"#utility.yul\":1480:1498   */\n      0xffffffffffffffff\n        /* \"#utility.yul\":1472:1478   */\n      dup2\n        /* \"#utility.yul\":1469:1499   */\n      gt\n        /* \"#utility.yul\":1466:1583   */\n      iszero\n      tag_147\n      jumpi\n        /* \"#utility.yul\":1502:1581   */\n      tag_148\n      tag_149\n      jump\t// in\n    tag_148:\n        /* \"#utility.yul\":1466:1583   */\n    tag_147:\n        /* \"#utility.yul\":1622:1681   */\n      tag_150\n        /* \"#utility.yul\":1677:1680   */\n      dup5\n        /* \"#utility.yul\":1668:1674   */\n      dup3\n        /* \"#utility.yul\":1657:1666   */\n      dup6\n        /* \"#utility.yul\":1653:1675   */\n      add\n        /* \"#utility.yul\":1622:1681   */\n      tag_133\n      jump\t// in\n    tag_150:\n        /* \"#utility.yul\":1615:1619   */\n      0x20\n        /* \"#utility.yul\":1608:1613   */\n      dup4\n        /* \"#utility.yul\":1604:1620   */\n      add\n        /* \"#utility.yul\":1597:1682   */\n      mstore\n        /* \"#utility.yul\":1372:1693   */\n      pop\n        /* \"#utility.yul\":1753:1755   */\n      0x40\n        /* \"#utility.yul\":1794:1843   */\n      tag_151\n        /* \"#utility.yul\":1839:1842   */\n      dup5\n        /* \"#utility.yul\":1830:1836   */\n      dup3\n        /* \"#utility.yul\":1819:1828   */\n      dup6\n        /* \"#utility.yul\":1815:1837   */\n      add\n        /* \"#utility.yul\":1794:1843   */\n      tag_146\n      jump\t// in\n    tag_151:\n        /* \"#utility.yul\":1787:1791   */\n      0x40\n        /* \"#utility.yul\":1780:1785   */\n      dup4\n        /* \"#utility.yul\":1776:1792   */\n      add\n        /* \"#utility.yul\":1769:1844   */\n      mstore\n        /* \"#utility.yul\":1703:1855   */\n      pop\n        /* \"#utility.yul\":1915:1917   */\n      0x60\n        /* \"#utility.yul\":1956:2005   */\n      tag_152\n        /* \"#utility.yul\":2001:2004   */\n      dup5\n        /* \"#utility.yul\":1992:1998   */\n      dup3\n        /* \"#utility.yul\":1981:1990   */\n      dup6\n        /* \"#utility.yul\":1977:1999   */\n      add\n        /* \"#utility.yul\":1956:2005   */\n      tag_146\n      jump\t// in\n    tag_152:\n        /* \"#utility.yul\":1949:1953   */\n      0x60\n        /* \"#utility.yul\":1942:1947   */\n      dup4\n        /* \"#utility.yul\":1938:1954   */\n      add\n        /* \"#utility.yul\":1931:2006   */\n      mstore\n        /* \"#utility.yul\":1865:2017   */\n      pop\n        /* \"#utility.yul\":960:2024   */\n      swap3\n      swap2\n      pop\n      pop\n      jump\t// out\n        /* \"#utility.yul\":2030:2169   */\n    tag_146:\n        /* \"#utility.yul\":2076:2081   */\n      0x00\n        /* \"#utility.yul\":2114:2120   */\n      dup2\n        /* \"#utility.yul\":2101:2121   */\n      calldataload\n        /* \"#utility.yul\":2092:2121   */\n      swap1\n      pop\n        /* \"#utility.yul\":2130:2163   */\n      tag_154\n        /* \"#utility.yul\":2157:2162   */\n      dup2\n        /* \"#utility.yul\":2130:2163   */\n      tag_155\n      jump\t// in\n    tag_154:\n        /* \"#utility.yul\":2030:2169   */\n      swap3\n      swap2\n      pop\n      pop\n      jump\t// out\n        /* \"#utility.yul\":2175:2498   */\n    tag_34:\n        /* \"#utility.yul\":2231:2237   */\n      0x00\n        /* \"#utility.yul\":2280:2282   */\n      0x20\n        /* \"#utility.yul\":2268:2277   */\n      dup3\n        /* \"#utility.yul\":2259:2266   */\n      dup5\n        /* \"#utility.yul\":2255:2278   */\n      sub\n        /* \"#utility.yul\":2251:2283   */\n      slt\n        /* \"#utility.yul\":2248:2367   */\n      iszero\n      tag_157\n      jumpi\n        /* \"#utility.yul\":2286:2365   */\n      tag_158\n      tag_159\n      jump\t// in\n    tag_158:\n        /* \"#utility.yul\":2248:2367   */\n    tag_157:\n        /* \"#utility.yul\":2406:2407   */\n      0x00\n        /* \"#utility.yul\":2431:2481   */\n      tag_160\n        /* \"#utility.yul\":2473:2480   */\n      dup5\n        /* \"#utility.yul\":2464:2470   */\n      dup3\n        /* \"#utility.yul\":2453:2462   */\n      dup6\n        /* \"#utility.yul\":2449:2471   */\n      add\n        /* \"#utility.yul\":2431:2481   */\n      tag_129\n      jump\t// in\n    tag_160:\n        /* \"#utility.yul\":2421:2481   */\n      swap2\n      pop\n        /* \"#utility.yul\":2377:2491   */\n      pop\n        /* \"#utility.yul\":2175:2498   */\n      swap3\n      swap2\n      pop\n      pop\n      jump\t// out\n        /* \"#utility.yul\":2504:3039   */\n    tag_21:\n        /* \"#utility.yul\":2586:2592   */\n      0x00\n        /* \"#utility.yul\":2635:2637   */\n      0x20\n        /* \"#utility.yul\":2623:2632   */\n      dup3\n        /* \"#utility.yul\":2614:2621   */\n      dup5\n        /* \"#utility.yul\":2610:2633   */\n      sub\n        /* \"#utility.yul\":2606:2638   */\n      slt\n        /* \"#utility.yul\":2603:2722   */\n      iszero\n      tag_162\n      jumpi\n        /* \"#utility.yul\":2641:2720   */\n      tag_163\n      tag_159\n      jump\t// in\n    tag_163:\n        /* \"#utility.yul\":2603:2722   */\n    tag_162:\n        /* \"#utility.yul\":2789:2790   */\n      0x00\n        /* \"#utility.yul\":2778:2787   */\n      dup3\n        /* \"#utility.yul\":2774:2791   */\n      add\n        /* \"#utility.yul\":2761:2792   */\n      calldataload\n        /* \"#utility.yul\":2819:2837   */\n      0xffffffffffffffff\n        /* \"#utility.yul\":2811:2817   */\n      dup2\n        /* \"#utility.yul\":2808:2838   */\n      gt\n        /* \"#utility.yul\":2805:2922   */\n      iszero\n      tag_164\n      jumpi\n        /* \"#utility.yul\":2841:2920   */\n      tag_165\n      tag_166\n      jump\t// in\n    tag_165:\n        /* \"#utility.yul\":2805:2922   */\n    tag_164:\n        /* \"#utility.yul\":2946:3022   */\n      tag_167\n        /* \"#utility.yul\":3014:3021   */\n      dup5\n        /* \"#utility.yul\":3005:3011   */\n      dup3\n        /* \"#utility.yul\":2994:3003   */\n      dup6\n        /* \"#utility.yul\":2990:3012   */\n      add\n        /* \"#utility.yul\":2946:3022   */\n      tag_139\n      jump\t// in\n    tag_167:\n        /* \"#utility.yul\":2936:3022   */\n      swap2\n      pop\n        /* \"#utility.yul\":2732:3032   */\n      pop\n        /* \"#utility.yul\":2504:3039   */\n      swap3\n      swap2\n      pop\n      pop\n      jump\t// out\n        /* \"#utility.yul\":3045:3374   */\n    tag_14:\n        /* \"#utility.yul\":3104:3110   */\n      0x00\n        /* \"#utility.yul\":3153:3155   */\n      0x20\n        /* \"#utility.yul\":3141:3150   */\n      dup3\n        /* \"#utility.yul\":3132:3139   */\n      dup5\n        /* \"#utility.yul\":3128:3151   */\n      sub\n        /* \"#utility.yul\":3124:3156   */\n      slt\n        /* \"#utility.yul\":3121:3240   */\n      iszero\n      tag_169\n      jumpi\n        /* \"#utility.yul\":3159:3238   */\n      tag_170\n      tag_159\n      jump\t// in\n    tag_170:\n        /* \"#utility.yul\":3121:3240   */\n    tag_169:\n        /* \"#utility.yul\":3279:3280   */\n      0x00\n        /* \"#utility.yul\":3304:3357   */\n      tag_171\n        /* \"#utility.yul\":3349:3356   */\n      dup5\n        /* \"#utility.yul\":3340:3346   */\n      dup3\n        /* \"#utility.yul\":3329:3338   */\n      dup6\n        /* \"#utility.yul\":3325:3347   */\n      add\n        /* \"#utility.yul\":3304:3357   */\n      tag_146\n      jump\t// in\n    tag_171:\n        /* \"#utility.yul\":3294:3357   */\n      swap2\n      pop\n        /* \"#utility.yul\":3250:3367   */\n      pop\n        /* \"#utility.yul\":3045:3374   */\n      swap3\n      swap2\n      pop\n      pop\n      jump\t// out\n        /* \"#utility.yul\":3380:3854   */\n    tag_25:\n        /* \"#utility.yul\":3448:3454   */\n      0x00\n        /* \"#utility.yul\":3456:3462   */\n      dup1\n        /* \"#utility.yul\":3505:3507   */\n      0x40\n        /* \"#utility.yul\":3493:3502   */\n      dup4\n        /* \"#utility.yul\":3484:3491   */\n      dup6\n        /* \"#utility.yul\":3480:3503   */\n      sub\n        /* \"#utility.yul\":3476:3508   */\n      slt\n        /* \"#utility.yul\":3473:3592   */\n      iszero\n      tag_173\n      jumpi\n        /* \"#utility.yul\":3511:3590   */\n      tag_174\n      tag_159\n      jump\t// in\n    tag_174:\n        /* \"#utility.yul\":3473:3592   */\n    tag_173:\n        /* \"#utility.yul\":3631:3632   */\n      0x00\n        /* \"#utility.yul\":3656:3709   */\n      tag_175\n        /* \"#utility.yul\":3701:3708   */\n      dup6\n        /* \"#utility.yul\":3692:3698   */\n      dup3\n        /* \"#utility.yul\":3681:3690   */\n      dup7\n        /* \"#utility.yul\":3677:3699   */\n      add\n        /* \"#utility.yul\":3656:3709   */\n      tag_146\n      jump\t// in\n    tag_175:\n        /* \"#utility.yul\":3646:3709   */\n      swap3\n      pop\n        /* \"#utility.yul\":3602:3719   */\n      pop\n        /* \"#utility.yul\":3758:3760   */\n      0x20\n        /* \"#utility.yul\":3784:3837   */\n      tag_176\n        /* \"#utility.yul\":3829:3836   */\n      dup6\n        /* \"#utility.yul\":3820:3826   */\n      dup3\n        /* \"#utility.yul\":3809:3818   */\n      dup7\n        /* \"#utility.yul\":3805:3827   */\n      add\n        /* \"#utility.yul\":3784:3837   */\n      tag_146\n      jump\t// in\n    tag_176:\n        /* \"#utility.yul\":3774:3837   */\n      swap2\n      pop\n        /* \"#utility.yul\":3729:3847   */\n      pop\n        /* \"#utility.yul\":3380:3854   */\n      swap3\n      pop\n      swap3\n      swap1\n      pop\n      jump\t// out\n        /* \"#utility.yul\":3860:3978   */\n    tag_177:\n        /* \"#utility.yul\":3947:3971   */\n      tag_179\n        /* \"#utility.yul\":3965:3970   */\n      dup2\n        /* \"#utility.yul\":3947:3971   */\n      tag_180\n      jump\t// in\n    tag_179:\n        /* \"#utility.yul\":3942:3945   */\n      dup3\n        /* \"#utility.yul\":3935:3972   */\n      mstore\n        /* \"#utility.yul\":3860:3978   */\n      pop\n      pop\n      jump\t// out\n        /* \"#utility.yul\":3984:4348   */\n    tag_181:\n        /* \"#utility.yul\":4072:4075   */\n      0x00\n        /* \"#utility.yul\":4100:4139   */\n      tag_183\n        /* \"#utility.yul\":4133:4138   */\n      dup3\n        /* \"#utility.yul\":4100:4139   */\n      tag_184\n      jump\t// in\n    tag_183:\n        /* \"#utility.yul\":4155:4226   */\n      tag_185\n        /* \"#utility.yul\":4219:4225   */\n      dup2\n        /* \"#utility.yul\":4214:4217   */\n      dup6\n        /* \"#utility.yul\":4155:4226   */\n      tag_186\n      jump\t// in\n    tag_185:\n        /* \"#utility.yul\":4148:4226   */\n      swap4\n      pop\n        /* \"#utility.yul\":4235:4287   */\n      tag_187\n        /* \"#utility.yul\":4280:4286   */\n      dup2\n        /* \"#utility.yul\":4275:4278   */\n      dup6\n        /* \"#utility.yul\":4268:4272   */\n      0x20\n        /* \"#utility.yul\":4261:4266   */\n      dup7\n        /* \"#utility.yul\":4257:4273   */\n      add\n        /* \"#utility.yul\":4235:4287   */\n      tag_188\n      jump\t// in\n    tag_187:\n        /* \"#utility.yul\":4312:4341   */\n      tag_189\n        /* \"#utility.yul\":4334:4340   */\n      dup2\n        /* \"#utility.yul\":4312:4341   */\n      tag_190\n      jump\t// in\n    tag_189:\n        /* \"#utility.yul\":4307:4310   */\n      dup5\n        /* \"#utility.yul\":4303:4342   */\n      add\n        /* \"#utility.yul\":4296:4342   */\n      swap2\n      pop\n        /* \"#utility.yul\":4076:4348   */\n      pop\n        /* \"#utility.yul\":3984:4348   */\n      swap3\n      swap2\n      pop\n      pop\n      jump\t// out\n        /* \"#utility.yul\":4354:4720   */\n    tag_191:\n        /* \"#utility.yul\":4496:4499   */\n      0x00\n        /* \"#utility.yul\":4517:4584   */\n      tag_193\n        /* \"#utility.yul\":4581:4583   */\n      0x11\n        /* \"#utility.yul\":4576:4579   */\n      dup4\n        /* \"#utility.yul\":4517:4584   */\n      tag_186\n      jump\t// in\n    tag_193:\n        /* \"#utility.yul\":4510:4584   */\n      swap2\n      pop\n        /* \"#utility.yul\":4593:4686   */\n      tag_194\n        /* \"#utility.yul\":4682:4685   */\n      dup3\n        /* \"#utility.yul\":4593:4686   */\n      tag_195\n      jump\t// in\n    tag_194:\n        /* \"#utility.yul\":4711:4713   */\n      0x20\n        /* \"#utility.yul\":4706:4709   */\n      dup3\n        /* \"#utility.yul\":4702:4714   */\n      add\n        /* \"#utility.yul\":4695:4714   */\n      swap1\n      pop\n        /* \"#utility.yul\":4354:4720   */\n      swap2\n      swap1\n      pop\n      jump\t// out\n        /* \"#utility.yul\":4726:5092   */\n    tag_196:\n        /* \"#utility.yul\":4868:4871   */\n      0x00\n        /* \"#utility.yul\":4889:4956   */\n      tag_198\n        /* \"#utility.yul\":4953:4955   */\n      0x16\n        /* \"#utility.yul\":4948:4951   */\n      dup4\n        /* \"#utility.yul\":4889:4956   */\n      tag_186\n      jump\t// in\n    tag_198:\n        /* \"#utility.yul\":4882:4956   */\n      swap2\n      pop\n        /* \"#utility.yul\":4965:5058   */\n      tag_199\n        /* \"#utility.yul\":5054:5057   */\n      dup3\n        /* \"#utility.yul\":4965:5058   */\n      tag_200\n      jump\t// in\n    tag_199:\n        /* \"#utility.yul\":5083:5085   */\n      0x20\n        /* \"#utility.yul\":5078:5081   */\n      dup3\n        /* \"#utility.yul\":5074:5086   */\n      add\n        /* \"#utility.yul\":5067:5086   */\n      swap1\n      pop\n        /* \"#utility.yul\":4726:5092   */\n      swap2\n      swap1\n      pop\n      jump\t// out\n        /* \"#utility.yul\":5098:5464   */\n    tag_201:\n        /* \"#utility.yul\":5240:5243   */\n      0x00\n        /* \"#utility.yul\":5261:5328   */\n      tag_203\n        /* \"#utility.yul\":5325:5327   */\n      0x22\n        /* \"#utility.yul\":5320:5323   */\n      dup4\n        /* \"#utility.yul\":5261:5328   */\n      tag_186\n      jump\t// in\n    tag_203:\n        /* \"#utility.yul\":5254:5328   */\n      swap2\n      pop\n        /* \"#utility.yul\":5337:5430   */\n      tag_204\n        /* \"#utility.yul\":5426:5429   */\n      dup3\n        /* \"#utility.yul\":5337:5430   */\n      tag_205\n      jump\t// in\n    tag_204:\n        /* \"#utility.yul\":5455:5457   */\n      0x40\n        /* \"#utility.yul\":5450:5453   */\n      dup3\n        /* \"#utility.yul\":5446:5458   */\n      add\n        /* \"#utility.yul\":5439:5458   */\n      swap1\n      pop\n        /* \"#utility.yul\":5098:5464   */\n      swap2\n      swap1\n      pop\n      jump\t// out\n        /* \"#utility.yul\":5470:5836   */\n    tag_206:\n        /* \"#utility.yul\":5612:5615   */\n      0x00\n        /* \"#utility.yul\":5633:5700   */\n      tag_208\n        /* \"#utility.yul\":5697:5699   */\n      0x2a\n        /* \"#utility.yul\":5692:5695   */\n      dup4\n        /* \"#utility.yul\":5633:5700   */\n      tag_186\n      jump\t// in\n    tag_208:\n        /* \"#utility.yul\":5626:5700   */\n      swap2\n      pop\n        /* \"#utility.yul\":5709:5802   */\n      tag_209\n        /* \"#utility.yul\":5798:5801   */\n      dup3\n        /* \"#utility.yul\":5709:5802   */\n      tag_210\n      jump\t// in\n    tag_209:\n        /* \"#utility.yul\":5827:5829   */\n      0x40\n        /* \"#utility.yul\":5822:5825   */\n      dup3\n        /* \"#utility.yul\":5818:5830   */\n      add\n        /* \"#utility.yul\":5811:5830   */\n      swap1\n      pop\n        /* \"#utility.yul\":5470:5836   */\n      swap2\n      swap1\n      pop\n      jump\t// out\n        /* \"#utility.yul\":5842:6208   */\n    tag_211:\n        /* \"#utility.yul\":5984:5987   */\n      0x00\n        /* \"#utility.yul\":6005:6072   */\n      tag_213\n        /* \"#utility.yul\":6069:6071   */\n      0x1d\n        /* \"#utility.yul\":6064:6067   */\n      dup4\n        /* \"#utility.yul\":6005:6072   */\n      tag_186\n      jump\t// in\n    tag_213:\n        /* \"#utility.yul\":5998:6072   */\n      swap2\n      pop\n        /* \"#utility.yul\":6081:6174   */\n      tag_214\n        /* \"#utility.yul\":6170:6173   */\n      dup3\n        /* \"#utility.yul\":6081:6174   */\n      tag_215\n      jump\t// in\n    tag_214:\n        /* \"#utility.yul\":6199:6201   */\n      0x20\n        /* \"#utility.yul\":6194:6197   */\n      dup3\n        /* \"#utility.yul\":6190:6202   */\n      add\n        /* \"#utility.yul\":6183:6202   */\n      swap1\n      pop\n        /* \"#utility.yul\":5842:6208   */\n      swap2\n      swap1\n      pop\n      jump\t// out\n        /* \"#utility.yul\":6214:6332   */\n    tag_216:\n        /* \"#utility.yul\":6301:6325   */\n      tag_218\n        /* \"#utility.yul\":6319:6324   */\n      dup2\n        /* \"#utility.yul\":6301:6325   */\n      tag_219\n      jump\t// in\n    tag_218:\n        /* \"#utility.yul\":6296:6299   */\n      dup3\n        /* \"#utility.yul\":6289:6326   */\n      mstore\n        /* \"#utility.yul\":6214:6332   */\n      pop\n      pop\n      jump\t// out\n        /* \"#utility.yul\":6338:6871   */\n    tag_87:\n        /* \"#utility.yul\":6507:6511   */\n      0x00\n        /* \"#utility.yul\":6545:6547   */\n      0x60\n        /* \"#utility.yul\":6534:6543   */\n      dup3\n        /* \"#utility.yul\":6530:6548   */\n      add\n        /* \"#utility.yul\":6522:6548   */\n      swap1\n      pop\n        /* \"#utility.yul\":6594:6603   */\n      dup2\n        /* \"#utility.yul\":6588:6592   */\n      dup2\n        /* \"#utility.yul\":6584:6604   */\n      sub\n        /* \"#utility.yul\":6580:6581   */\n      0x00\n        /* \"#utility.yul\":6569:6578   */\n      dup4\n        /* \"#utility.yul\":6565:6582   */\n      add\n        /* \"#utility.yul\":6558:6605   */\n      mstore\n        /* \"#utility.yul\":6622:6700   */\n      tag_221\n        /* \"#utility.yul\":6695:6699   */\n      dup2\n        /* \"#utility.yul\":6686:6692   */\n      dup7\n        /* \"#utility.yul\":6622:6700   */\n      tag_181\n      jump\t// in\n    tag_221:\n        /* \"#utility.yul\":6614:6700   */\n      swap1\n      pop\n        /* \"#utility.yul\":6710:6782   */\n      tag_222\n        /* \"#utility.yul\":6778:6780   */\n      0x20\n        /* \"#utility.yul\":6767:6776   */\n      dup4\n        /* \"#utility.yul\":6763:6781   */\n      add\n        /* \"#utility.yul\":6754:6760   */\n      dup6\n        /* \"#utility.yul\":6710:6782   */\n      tag_177\n      jump\t// in\n    tag_222:\n        /* \"#utility.yul\":6792:6864   */\n      tag_223\n        /* \"#utility.yul\":6860:6862   */\n      0x40\n        /* \"#utility.yul\":6849:6858   */\n      dup4\n        /* \"#utility.yul\":6845:6863   */\n      add\n        /* \"#utility.yul\":6836:6842   */\n      dup5\n        /* \"#utility.yul\":6792:6864   */\n      tag_216\n      jump\t// in\n    tag_223:\n        /* \"#utility.yul\":6338:6871   */\n      swap5\n      swap4\n      pop\n      pop\n      pop\n      pop\n      jump\t// out\n        /* \"#utility.yul\":6877:7296   */\n    tag_43:\n        /* \"#utility.yul\":7043:7047   */\n      0x00\n        /* \"#utility.yul\":7081:7083   */\n      0x20\n        /* \"#utility.yul\":7070:7079   */\n      dup3\n        /* \"#utility.yul\":7066:7084   */\n      add\n        /* \"#utility.yul\":7058:7084   */\n      swap1\n      pop\n        /* \"#utility.yul\":7130:7139   */\n      dup2\n        /* \"#utility.yul\":7124:7128   */\n      dup2\n        /* \"#utility.yul\":7120:7140   */\n      sub\n        /* \"#utility.yul\":7116:7117   */\n      0x00\n        /* \"#utility.yul\":7105:7114   */\n      dup4\n        /* \"#utility.yul\":7101:7118   */\n      add\n        /* \"#utility.yul\":7094:7141   */\n      mstore\n        /* \"#utility.yul\":7158:7289   */\n      tag_225\n        /* \"#utility.yul\":7284:7288   */\n      dup2\n        /* \"#utility.yul\":7158:7289   */\n      tag_191\n      jump\t// in\n    tag_225:\n        /* \"#utility.yul\":7150:7289   */\n      swap1\n      pop\n        /* \"#utility.yul\":6877:7296   */\n      swap2\n      swap1\n      pop\n      jump\t// out\n        /* \"#utility.yul\":7302:7721   */\n    tag_39:\n        /* \"#utility.yul\":7468:7472   */\n      0x00\n        /* \"#utility.yul\":7506:7508   */\n      0x20\n        /* \"#utility.yul\":7495:7504   */\n      dup3\n        /* \"#utility.yul\":7491:7509   */\n      add\n        /* \"#utility.yul\":7483:7509   */\n      swap1\n      pop\n        /* \"#utility.yul\":7555:7564   */\n      dup2\n        /* \"#utility.yul\":7549:7553   */\n      dup2\n        /* \"#utility.yul\":7545:7565   */\n      sub\n        /* \"#utility.yul\":7541:7542   */\n      0x00\n        /* \"#utility.yul\":7530:7539   */\n      dup4\n        /* \"#utility.yul\":7526:7543   */\n      add\n        /* \"#utility.yul\":7519:7566   */\n      mstore\n        /* \"#utility.yul\":7583:7714   */\n      tag_227\n        /* \"#utility.yul\":7709:7713   */\n      dup2\n        /* \"#utility.yul\":7583:7714   */\n      tag_196\n      jump\t// in\n    tag_227:\n        /* \"#utility.yul\":7575:7714   */\n      swap1\n      pop\n        /* \"#utility.yul\":7302:7721   */\n      swap2\n      swap1\n      pop\n      jump\t// out\n        /* \"#utility.yul\":7727:8146   */\n    tag_83:\n        /* \"#utility.yul\":7893:7897   */\n      0x00\n        /* \"#utility.yul\":7931:7933   */\n      0x20\n        /* \"#utility.yul\":7920:7929   */\n      dup3\n        /* \"#utility.yul\":7916:7934   */\n      add\n        /* \"#utility.yul\":7908:7934   */\n      swap1\n      pop\n        /* \"#utility.yul\":7980:7989   */\n      dup2\n        /* \"#utility.yul\":7974:7978   */\n      dup2\n        /* \"#utility.yul\":7970:7990   */\n      sub\n        /* \"#utility.yul\":7966:7967   */\n      0x00\n        /* \"#utility.yul\":7955:7964   */\n      dup4\n        /* \"#utility.yul\":7951:7968   */\n      add\n        /* \"#utility.yul\":7944:7991   */\n      mstore\n        /* \"#utility.yul\":8008:8139   */\n      tag_229\n        /* \"#utility.yul\":8134:8138   */\n      dup2\n        /* \"#utility.yul\":8008:8139   */\n      tag_201\n      jump\t// in\n    tag_229:\n        /* \"#utility.yul\":8000:8139   */\n      swap1\n      pop\n        /* \"#utility.yul\":7727:8146   */\n      swap2\n      swap1\n      pop\n      jump\t// out\n        /* \"#utility.yul\":8152:8571   */\n    tag_62:\n        /* \"#utility.yul\":8318:8322   */\n      0x00\n        /* \"#utility.yul\":8356:8358   */\n      0x20\n        /* \"#utility.yul\":8345:8354   */\n      dup3\n        /* \"#utility.yul\":8341:8359   */\n      add\n        /* \"#utility.yul\":8333:8359   */\n      swap1\n      pop\n        /* \"#utility.yul\":8405:8414   */\n      dup2\n        /* \"#utility.yul\":8399:8403   */\n      dup2\n        /* \"#utility.yul\":8395:8415   */\n      sub\n        /* \"#utility.yul\":8391:8392   */\n      0x00\n        /* \"#utility.yul\":8380:8389   */\n      dup4\n        /* \"#utility.yul\":8376:8393   */\n      add\n        /* \"#utility.yul\":8369:8416   */\n      mstore\n        /* \"#utility.yul\":8433:8564   */\n      tag_231\n        /* \"#utility.yul\":8559:8563   */\n      dup2\n        /* \"#utility.yul\":8433:8564   */\n      tag_206\n      jump\t// in\n    tag_231:\n        /* \"#utility.yul\":8425:8564   */\n      swap1\n      pop\n        /* \"#utility.yul\":8152:8571   */\n      swap2\n      swap1\n      pop\n      jump\t// out\n        /* \"#utility.yul\":8577:8996   */\n    tag_80:\n        /* \"#utility.yul\":8743:8747   */\n      0x00\n        /* \"#utility.yul\":8781:8783   */\n      0x20\n        /* \"#utility.yul\":8770:8779   */\n      dup3\n        /* \"#utility.yul\":8766:8784   */\n      add\n        /* \"#utility.yul\":8758:8784   */\n      swap1\n      pop\n        /* \"#utility.yul\":8830:8839   */\n      dup2\n        /* \"#utility.yul\":8824:8828   */\n      dup2\n        /* \"#utility.yul\":8820:8840   */\n      sub\n        /* \"#utility.yul\":8816:8817   */\n      0x00\n        /* \"#utility.yul\":8805:8814   */\n      dup4\n        /* \"#utility.yul\":8801:8818   */\n      add\n        /* \"#utility.yul\":8794:8841   */\n      mstore\n        /* \"#utility.yul\":8858:8989   */\n      tag_233\n        /* \"#utility.yul\":8984:8988   */\n      dup2\n        /* \"#utility.yul\":8858:8989   */\n      tag_211\n      jump\t// in\n    tag_233:\n        /* \"#utility.yul\":8850:8989   */\n      swap1\n      pop\n        /* \"#utility.yul\":8577:8996   */\n      swap2\n      swap1\n      pop\n      jump\t// out\n        /* \"#utility.yul\":9002:9646   */\n    tag_17:\n        /* \"#utility.yul\":9199:9203   */\n      0x00\n        /* \"#utility.yul\":9237:9240   */\n      0x80\n        /* \"#utility.yul\":9226:9235   */\n      dup3\n        /* \"#utility.yul\":9222:9241   */\n      add\n        /* \"#utility.yul\":9214:9241   */\n      swap1\n      pop\n        /* \"#utility.yul\":9251:9322   */\n      tag_235\n        /* \"#utility.yul\":9319:9320   */\n      0x00\n        /* \"#utility.yul\":9308:9317   */\n      dup4\n        /* \"#utility.yul\":9304:9321   */\n      add\n        /* \"#utility.yul\":9295:9301   */\n      dup8\n        /* \"#utility.yul\":9251:9322   */\n      tag_216\n      jump\t// in\n    tag_235:\n        /* \"#utility.yul\":9369:9378   */\n      dup2\n        /* \"#utility.yul\":9363:9367   */\n      dup2\n        /* \"#utility.yul\":9359:9379   */\n      sub\n        /* \"#utility.yul\":9354:9356   */\n      0x20\n        /* \"#utility.yul\":9343:9352   */\n      dup4\n        /* \"#utility.yul\":9339:9357   */\n      add\n        /* \"#utility.yul\":9332:9380   */\n      mstore\n        /* \"#utility.yul\":9397:9475   */\n      tag_236\n        /* \"#utility.yul\":9470:9474   */\n      dup2\n        /* \"#utility.yul\":9461:9467   */\n      dup7\n        /* \"#utility.yul\":9397:9475   */\n      tag_181\n      jump\t// in\n    tag_236:\n        /* \"#utility.yul\":9389:9475   */\n      swap1\n      pop\n        /* \"#utility.yul\":9485:9557   */\n      tag_237\n        /* \"#utility.yul\":9553:9555   */\n      0x40\n        /* \"#utility.yul\":9542:9551   */\n      dup4\n        /* \"#utility.yul\":9538:9556   */\n      add\n        /* \"#utility.yul\":9529:9535   */\n      dup6\n        /* \"#utility.yul\":9485:9557   */\n      tag_216\n      jump\t// in\n    tag_237:\n        /* \"#utility.yul\":9567:9639   */\n      tag_238\n        /* \"#utility.yul\":9635:9637   */\n      0x60\n        /* \"#utility.yul\":9624:9633   */\n      dup4\n        /* \"#utility.yul\":9620:9638   */\n      add\n        /* \"#utility.yul\":9611:9617   */\n      dup5\n        /* \"#utility.yul\":9567:9639   */\n      tag_216\n      jump\t// in\n    tag_238:\n        /* \"#utility.yul\":9002:9646   */\n      swap6\n      swap5\n      pop\n      pop\n      pop\n      pop\n      pop\n      jump\t// out\n        /* \"#utility.yul\":9652:9781   */\n    tag_123:\n        /* \"#utility.yul\":9686:9692   */\n      0x00\n        /* \"#utility.yul\":9713:9733   */\n      tag_240\n      tag_241\n      jump\t// in\n    tag_240:\n        /* \"#utility.yul\":9703:9733   */\n      swap1\n      pop\n        /* \"#utility.yul\":9742:9775   */\n      tag_242\n        /* \"#utility.yul\":9770:9774   */\n      dup3\n        /* \"#utility.yul\":9762:9768   */\n      dup3\n        /* \"#utility.yul\":9742:9775   */\n      tag_243\n      jump\t// in\n    tag_242:\n        /* \"#utility.yul\":9652:9781   */\n      swap2\n      swap1\n      pop\n      jump\t// out\n        /* \"#utility.yul\":9787:9862   */\n    tag_241:\n        /* \"#utility.yul\":9820:9826   */\n      0x00\n        /* \"#utility.yul\":9853:9855   */\n      0x40\n        /* \"#utility.yul\":9847:9856   */\n      mload\n        /* \"#utility.yul\":9837:9856   */\n      swap1\n      pop\n        /* \"#utility.yul\":9787:9862   */\n      swap1\n      jump\t// out\n        /* \"#utility.yul\":9868:10176   */\n    tag_122:\n        /* \"#utility.yul\":9930:9934   */\n      0x00\n        /* \"#utility.yul\":10020:10038   */\n      0xffffffffffffffff\n        /* \"#utility.yul\":10012:10018   */\n      dup3\n        /* \"#utility.yul\":10009:10039   */\n      gt\n        /* \"#utility.yul\":10006:10062   */\n      iszero\n      tag_246\n      jumpi\n        /* \"#utility.yul\":10042:10060   */\n      tag_247\n      tag_248\n      jump\t// in\n    tag_247:\n        /* \"#utility.yul\":10006:10062   */\n    tag_246:\n        /* \"#utility.yul\":10080:10109   */\n      tag_249\n        /* \"#utility.yul\":10102:10108   */\n      dup3\n        /* \"#utility.yul\":10080:10109   */\n      tag_190\n      jump\t// in\n    tag_249:\n        /* \"#utility.yul\":10072:10109   */\n      swap1\n      pop\n        /* \"#utility.yul\":10164:10168   */\n      0x20\n        /* \"#utility.yul\":10158:10162   */\n      dup2\n        /* \"#utility.yul\":10154:10169   */\n      add\n        /* \"#utility.yul\":10146:10169   */\n      swap1\n      pop\n        /* \"#utility.yul\":9868:10176   */\n      swap2\n      swap1\n      pop\n      jump\t// out\n        /* \"#utility.yul\":10182:10281   */\n    tag_184:\n        /* \"#utility.yul\":10234:10240   */\n      0x00\n        /* \"#utility.yul\":10268:10273   */\n      dup2\n        /* \"#utility.yul\":10262:10274   */\n      mload\n        /* \"#utility.yul\":10252:10274   */\n      swap1\n      pop\n        /* \"#utility.yul\":10182:10281   */\n      swap2\n      swap1\n      pop\n      jump\t// out\n        /* \"#utility.yul\":10287:10456   */\n    tag_186:\n        /* \"#utility.yul\":10371:10382   */\n      0x00\n        /* \"#utility.yul\":10405:10411   */\n      dup3\n        /* \"#utility.yul\":10400:10403   */\n      dup3\n        /* \"#utility.yul\":10393:10412   */\n      mstore\n        /* \"#utility.yul\":10445:10449   */\n      0x20\n        /* \"#utility.yul\":10440:10443   */\n      dup3\n        /* \"#utility.yul\":10436:10450   */\n      add\n        /* \"#utility.yul\":10421:10450   */\n      swap1\n      pop\n        /* \"#utility.yul\":10287:10456   */\n      swap3\n      swap2\n      pop\n      pop\n      jump\t// out\n        /* \"#utility.yul\":10462:10767   */\n    tag_99:\n        /* \"#utility.yul\":10502:10505   */\n      0x00\n        /* \"#utility.yul\":10521:10541   */\n      tag_253\n        /* \"#utility.yul\":10539:10540   */\n      dup3\n        /* \"#utility.yul\":10521:10541   */\n      tag_219\n      jump\t// in\n    tag_253:\n        /* \"#utility.yul\":10516:10541   */\n      swap2\n      pop\n        /* \"#utility.yul\":10555:10575   */\n      tag_254\n        /* \"#utility.yul\":10573:10574   */\n      dup4\n        /* \"#utility.yul\":10555:10575   */\n      tag_219\n      jump\t// in\n    tag_254:\n        /* \"#utility.yul\":10550:10575   */\n      swap3\n      pop\n        /* \"#utility.yul\":10709:10710   */\n      dup3\n        /* \"#utility.yul\":10641:10707   */\n      0xffffffffffffffffffffffffffffffffffffffffffffffffffffffffffffffff\n        /* \"#utility.yul\":10637:10711   */\n      sub\n        /* \"#utility.yul\":10634:10635   */\n      dup3\n        /* \"#utility.yul\":10631:10712   */\n      gt\n        /* \"#utility.yul\":10628:10735   */\n      iszero\n      tag_255\n      jumpi\n        /* \"#utility.yul\":10715:10733   */\n      tag_256\n      tag_257\n      jump\t// in\n    tag_256:\n        /* \"#utility.yul\":10628:10735   */\n    tag_255:\n        /* \"#utility.yul\":10759:10760   */\n      dup3\n        /* \"#utility.yul\":10756:10757   */\n      dup3\n        /* \"#utility.yul\":10752:10761   */\n      add\n        /* \"#utility.yul\":10745:10761   */\n      swap1\n      pop\n        /* \"#utility.yul\":10462:10767   */\n      swap3\n      swap2\n      pop\n      pop\n      jump\t// out\n        /* \"#utility.yul\":10773:10958   */\n    tag_106:\n        /* \"#utility.yul\":10813:10814   */\n      0x00\n        /* \"#utility.yul\":10830:10850   */\n      tag_259\n        /* \"#utility.yul\":10848:10849   */\n      dup3\n        /* \"#utility.yul\":10830:10850   */\n      tag_219\n      jump\t// in\n    tag_259:\n        /* \"#utility.yul\":10825:10850   */\n      swap2\n      pop\n        /* \"#utility.yul\":10864:10884   */\n      tag_260\n        /* \"#utility.yul\":10882:10883   */\n      dup4\n        /* \"#utility.yul\":10864:10884   */\n      tag_219\n      jump\t// in\n    tag_260:\n        /* \"#utility.yul\":10859:10884   */\n      swap3\n      pop\n        /* \"#utility.yul\":10903:10904   */\n      dup3\n        /* \"#utility.yul\":10893:10928   */\n      tag_261\n      jumpi\n        /* \"#utility.yul\":10908:10926   */\n      tag_262\n      tag_263\n      jump\t// in\n    tag_262:\n        /* \"#utility.yul\":10893:10928   */\n    tag_261:\n        /* \"#utility.yul\":10950:10951   */\n      dup3\n        /* \"#utility.yul\":10947:10948   */\n      dup3\n        /* \"#utility.yul\":10943:10952   */\n      div\n        /* \"#utility.yul\":10938:10952   */\n      swap1\n      pop\n        /* \"#utility.yul\":10773:10958   */\n      swap3\n      swap2\n      pop\n      pop\n      jump\t// out\n        /* \"#utility.yul\":10964:11312   */\n    tag_77:\n        /* \"#utility.yul\":11004:11011   */\n      0x00\n        /* \"#utility.yul\":11027:11047   */\n      tag_265\n        /* \"#utility.yul\":11045:11046   */\n      dup3\n        /* \"#utility.yul\":11027:11047   */\n      tag_219\n      jump\t// in\n    tag_265:\n        /* \"#utility.yul\":11022:11047   */\n      swap2\n      pop\n        /* \"#utility.yul\":11061:11081   */\n      tag_266\n        /* \"#utility.yul\":11079:11080   */\n      dup4\n        /* \"#utility.yul\":11061:11081   */\n      tag_219\n      jump\t// in\n    tag_266:\n        /* \"#utility.yul\":11056:11081   */\n      swap3\n      pop\n        /* \"#utility.yul\":11249:11250   */\n      dup2\n        /* \"#utility.yul\":11181:11247   */\n      0xffffffffffffffffffffffffffffffffffffffffffffffffffffffffffffffff\n        /* \"#utility.yul\":11177:11251   */\n      div\n        /* \"#utility.yul\":11174:11175   */\n      dup4\n        /* \"#utility.yul\":11171:11252   */\n      gt\n        /* \"#utility.yul\":11166:11167   */\n      dup3\n        /* \"#utility.yul\":11159:11168   */\n      iszero\n        /* \"#utility.yul\":11152:11169   */\n      iszero\n        /* \"#utility.yul\":11148:11253   */\n      and\n        /* \"#utility.yul\":11145:11276   */\n      iszero\n      tag_267\n      jumpi\n        /* \"#utility.yul\":11256:11274   */\n      tag_268\n      tag_257\n      jump\t// in\n    tag_268:\n        /* \"#utility.yul\":11145:11276   */\n    tag_267:\n        /* \"#utility.yul\":11304:11305   */\n      dup3\n        /* \"#utility.yul\":11301:11302   */\n      dup3\n        /* \"#utility.yul\":11297:11306   */\n      mul\n        /* \"#utility.yul\":11286:11306   */\n      swap1\n      pop\n        /* \"#utility.yul\":10964:11312   */\n      swap3\n      swap2\n      pop\n      pop\n      jump\t// out\n        /* \"#utility.yul\":11318:11509   */\n    tag_85:\n        /* \"#utility.yul\":11358:11362   */\n      0x00\n        /* \"#utility.yul\":11378:11398   */\n      tag_270\n        /* \"#utility.yul\":11396:11397   */\n      dup3\n        /* \"#utility.yul\":11378:11398   */\n      tag_219\n      jump\t// in\n    tag_270:\n        /* \"#utility.yul\":11373:11398   */\n      swap2\n      pop\n        /* \"#utility.yul\":11412:11432   */\n      tag_271\n        /* \"#utility.yul\":11430:11431   */\n      dup4\n        /* \"#utility.yul\":11412:11432   */\n      tag_219\n      jump\t// in\n    tag_271:\n        /* \"#utility.yul\":11407:11432   */\n      swap3\n      pop\n        /* \"#utility.yul\":11451:11452   */\n      dup3\n        /* \"#utility.yul\":11448:11449   */\n      dup3\n        /* \"#utility.yul\":11445:11453   */\n      lt\n        /* \"#utility.yul\":11442:11476   */\n      iszero\n      tag_272\n      jumpi\n        /* \"#utility.yul\":11456:11474   */\n      tag_273\n      tag_257\n      jump\t// in\n    tag_273:\n        /* \"#utility.yul\":11442:11476   */\n    tag_272:\n        /* \"#utility.yul\":11501:11502   */\n      dup3\n        /* \"#utility.yul\":11498:11499   */\n      dup3\n        /* \"#utility.yul\":11494:11503   */\n      sub\n        /* \"#utility.yul\":11486:11503   */\n      swap1\n      pop\n        /* \"#utility.yul\":11318:11509   */\n      swap3\n      swap2\n      pop\n      pop\n      jump\t// out\n        /* \"#utility.yul\":11515:11611   */\n    tag_180:\n        /* \"#utility.yul\":11552:11559   */\n      0x00\n        /* \"#utility.yul\":11581:11605   */\n      tag_275\n        /* \"#utility.yul\":11599:11604   */\n      dup3\n        /* \"#utility.yul\":11581:11605   */\n      tag_276\n      jump\t// in\n    tag_275:\n        /* \"#utility.yul\":11570:11605   */\n      swap1\n      pop\n        /* \"#utility.yul\":11515:11611   */\n      swap2\n      swap1\n      pop\n      jump\t// out\n        /* \"#utility.yul\":11617:11707   */\n    tag_277:\n        /* \"#utility.yul\":11651:11658   */\n      0x00\n        /* \"#utility.yul\":11694:11699   */\n      dup2\n        /* \"#utility.yul\":11687:11700   */\n      iszero\n        /* \"#utility.yul\":11680:11701   */\n      iszero\n        /* \"#utility.yul\":11669:11701   */\n      swap1\n      pop\n        /* \"#utility.yul\":11617:11707   */\n      swap2\n      swap1\n      pop\n      jump\t// out\n        /* \"#utility.yul\":11713:11839   */\n    tag_276:\n        /* \"#utility.yul\":11750:11757   */\n      0x00\n        /* \"#utility.yul\":11790:11832   */\n      0xffffffffffffffffffffffffffffffffffffffff\n        /* \"#utility.yul\":11783:11788   */\n      dup3\n        /* \"#utility.yul\":11779:11833   */\n      and\n        /* \"#utility.yul\":11768:11833   */\n      swap1\n      pop\n        /* \"#utility.yul\":11713:11839   */\n      swap2\n      swap1\n      pop\n      jump\t// out\n        /* \"#utility.yul\":11845:11922   */\n    tag_219:\n        /* \"#utility.yul\":11882:11889   */\n      0x00\n        /* \"#utility.yul\":11911:11916   */\n      dup2\n        /* \"#utility.yul\":11900:11916   */\n      swap1\n      pop\n        /* \"#utility.yul\":11845:11922   */\n      swap2\n      swap1\n      pop\n      jump\t// out\n        /* \"#utility.yul\":11928:12082   */\n    tag_128:\n        /* \"#utility.yul\":12012:12018   */\n      dup3\n        /* \"#utility.yul\":12007:12010   */\n      dup2\n        /* \"#utility.yul\":12002:12005   */\n      dup4\n        /* \"#utility.yul\":11989:12019   */\n      calldatacopy\n        /* \"#utility.yul\":12074:12075   */\n      0x00\n        /* \"#utility.yul\":12065:12071   */\n      dup4\n        /* \"#utility.yul\":12060:12063   */\n      dup4\n        /* \"#utility.yul\":12056:12072   */\n      add\n        /* \"#utility.yul\":12049:12076   */\n      mstore\n        /* \"#utility.yul\":11928:12082   */\n      pop\n      pop\n      pop\n      jump\t// out\n        /* \"#utility.yul\":12088:12395   */\n    tag_188:\n        /* \"#utility.yul\":12156:12157   */\n      0x00\n        /* \"#utility.yul\":12166:12279   */\n    tag_283:\n        /* \"#utility.yul\":12180:12186   */\n      dup4\n        /* \"#utility.yul\":12177:12178   */\n      dup2\n        /* \"#utility.yul\":12174:12187   */\n      lt\n        /* \"#utility.yul\":12166:12279   */\n      iszero\n      tag_285\n      jumpi\n        /* \"#utility.yul\":12265:12266   */\n      dup1\n        /* \"#utility.yul\":12260:12263   */\n      dup3\n        /* \"#utility.yul\":12256:12267   */\n      add\n        /* \"#utility.yul\":12250:12268   */\n      mload\n        /* \"#utility.yul\":12246:12247   */\n      dup2\n        /* \"#utility.yul\":12241:12244   */\n      dup5\n        /* \"#utility.yul\":12237:12248   */\n      add\n        /* \"#utility.yul\":12230:12269   */\n      mstore\n        /* \"#utility.yul\":12202:12204   */\n      0x20\n        /* \"#utility.yul\":12199:12200   */\n      dup2\n        /* \"#utility.yul\":12195:12205   */\n      add\n        /* \"#utility.yul\":12190:12205   */\n      swap1\n      pop\n        /* \"#utility.yul\":12166:12279   */\n      jump(tag_283)\n    tag_285:\n        /* \"#utility.yul\":12297:12303   */\n      dup4\n        /* \"#utility.yul\":12294:12295   */\n      dup2\n        /* \"#utility.yul\":12291:12304   */\n      gt\n        /* \"#utility.yul\":12288:12389   */\n      iszero\n      tag_286\n      jumpi\n        /* \"#utility.yul\":12377:12378   */\n      0x00\n        /* \"#utility.yul\":12368:12374   */\n      dup5\n        /* \"#utility.yul\":12363:12366   */\n      dup5\n        /* \"#utility.yul\":12359:12375   */\n      add\n        /* \"#utility.yul\":12352:12379   */\n      mstore\n        /* \"#utility.yul\":12288:12389   */\n    tag_286:\n        /* \"#utility.yul\":12137:12395   */\n      pop\n        /* \"#utility.yul\":12088:12395   */\n      pop\n      pop\n      pop\n      jump\t// out\n        /* \"#utility.yul\":12401:12721   */\n    tag_48:\n        /* \"#utility.yul\":12445:12451   */\n      0x00\n        /* \"#utility.yul\":12482:12483   */\n      0x02\n        /* \"#utility.yul\":12476:12480   */\n      dup3\n        /* \"#utility.yul\":12472:12484   */\n      div\n        /* \"#utility.yul\":12462:12484   */\n      swap1\n      pop\n        /* \"#utility.yul\":12529:12530   */\n      0x01\n        /* \"#utility.yul\":12523:12527   */\n      dup3\n        /* \"#utility.yul\":12519:12531   */\n      and\n        /* \"#utility.yul\":12550:12568   */\n      dup1\n        /* \"#utility.yul\":12540:12621   */\n      tag_288\n      jumpi\n        /* \"#utility.yul\":12606:12610   */\n      0x7f\n        /* \"#utility.yul\":12598:12604   */\n      dup3\n        /* \"#utility.yul\":12594:12611   */\n      and\n        /* \"#utility.yul\":12584:12611   */\n      swap2\n      pop\n        /* \"#utility.yul\":12540:12621   */\n    tag_288:\n        /* \"#utility.yul\":12668:12670   */\n      0x20\n        /* \"#utility.yul\":12660:12666   */\n      dup3\n        /* \"#utility.yul\":12657:12671   */\n      lt\n        /* \"#utility.yul\":12637:12655   */\n      dup2\n        /* \"#utility.yul\":12634:12672   */\n      eq\n        /* \"#utility.yul\":12631:12715   */\n      iszero\n      tag_289\n      jumpi\n        /* \"#utility.yul\":12687:12705   */\n      tag_290\n      tag_291\n      jump\t// in\n    tag_290:\n        /* \"#utility.yul\":12631:12715   */\n    tag_289:\n        /* \"#utility.yul\":12452:12721   */\n      pop\n        /* \"#utility.yul\":12401:12721   */\n      swap2\n      swap1\n      pop\n      jump\t// out\n        /* \"#utility.yul\":12727:13008   */\n    tag_243:\n        /* \"#utility.yul\":12810:12837   */\n      tag_293\n        /* \"#utility.yul\":12832:12836   */\n      dup3\n        /* \"#utility.yul\":12810:12837   */\n      tag_190\n      jump\t// in\n    tag_293:\n        /* \"#utility.yul\":12802:12808   */\n      dup2\n        /* \"#utility.yul\":12798:12838   */\n      add\n        /* \"#utility.yul\":12940:12946   */\n      dup2\n        /* \"#utility.yul\":12928:12938   */\n      dup2\n        /* \"#utility.yul\":12925:12947   */\n      lt\n        /* \"#utility.yul\":12904:12922   */\n      0xffffffffffffffff\n        /* \"#utility.yul\":12892:12902   */\n      dup3\n        /* \"#utility.yul\":12889:12923   */\n      gt\n        /* \"#utility.yul\":12886:12948   */\n      or\n        /* \"#utility.yul\":12883:12971   */\n      iszero\n      tag_294\n      jumpi\n        /* \"#utility.yul\":12951:12969   */\n      tag_295\n      tag_248\n      jump\t// in\n    tag_295:\n        /* \"#utility.yul\":12883:12971   */\n    tag_294:\n        /* \"#utility.yul\":12991:13001   */\n      dup1\n        /* \"#utility.yul\":12987:12989   */\n      0x40\n        /* \"#utility.yul\":12980:13002   */\n      mstore\n        /* \"#utility.yul\":12770:13008   */\n      pop\n        /* \"#utility.yul\":12727:13008   */\n      pop\n      pop\n      jump\t// out\n        /* \"#utility.yul\":13014:13194   */\n    tag_257:\n        /* \"#utility.yul\":13062:13139   */\n      0x4e487b7100000000000000000000000000000000000000000000000000000000\n        /* \"#utility.yul\":13059:13060   */\n      0x00\n        /* \"#utility.yul\":13052:13140   */\n      mstore\n        /* \"#utility.yul\":13159:13163   */\n      0x11\n        /* \"#utility.yul\":13156:13157   */\n      0x04\n        /* \"#utility.yul\":13149:13164   */\n      mstore\n        /* \"#utility.yul\":13183:13187   */\n      0x24\n        /* \"#utility.yul\":13180:13181   */\n      0x00\n        /* \"#utility.yul\":13173:13188   */\n      revert\n        /* \"#utility.yul\":13200:13380   */\n    tag_263:\n        /* \"#utility.yul\":13248:13325   */\n      0x4e487b7100000000000000000000000000000000000000000000000000000000\n        /* \"#utility.yul\":13245:13246   */\n      0x00\n        /* \"#utility.yul\":13238:13326   */\n      mstore\n        /* \"#utility.yul\":13345:13349   */\n      0x12\n        /* \"#utility.yul\":13342:13343   */\n      0x04\n        /* \"#utility.yul\":13335:13350   */\n      mstore\n        /* \"#utility.yul\":13369:13373   */\n      0x24\n        /* \"#utility.yul\":13366:13367   */\n      0x00\n        /* \"#utility.yul\":13359:13374   */\n      revert\n        /* \"#utility.yul\":13386:13566   */\n    tag_291:\n        /* \"#utility.yul\":13434:13511   */\n      0x4e487b7100000000000000000000000000000000000000000000000000000000\n        /* \"#utility.yul\":13431:13432   */\n      0x00\n        /* \"#utility.yul\":13424:13512   */\n      mstore\n        /* \"#utility.yul\":13531:13535   */\n      0x22\n        /* \"#utility.yul\":13528:13529   */\n      0x04\n        /* \"#utility.yul\":13521:13536   */\n      mstore\n        /* \"#utility.yul\":13555:13559   */\n      0x24\n        /* \"#utility.yul\":13552:13553   */\n      0x00\n        /* \"#utility.yul\":13545:13560   */\n      revert\n        /* \"#utility.yul\":13572:13752   */\n    tag_248:\n        /* \"#utility.yul\":13620:13697   */\n      0x4e487b7100000000000000000000000000000000000000000000000000000000\n        /* \"#utility.yul\":13617:13618   */\n      0x00\n        /* \"#utility.yul\":13610:13698   */\n      mstore\n        /* \"#utility.yul\":13717:13721   */\n      0x41\n        /* \"#utility.yul\":13714:13715   */\n      0x04\n        /* \"#utility.yul\":13707:13722   */\n      mstore\n        /* \"#utility.yul\":13741:13745   */\n      0x24\n        /* \"#utility.yul\":13738:13739   */\n      0x00\n        /* \"#utility.yul\":13731:13746   */\n      revert\n        /* \"#utility.yul\":13758:13875   */\n    tag_137:\n        /* \"#utility.yul\":13867:13868   */\n      0x00\n        /* \"#utility.yul\":13864:13865   */\n      dup1\n        /* \"#utility.yul\":13857:13869   */\n      revert\n        /* \"#utility.yul\":13881:13998   */\n    tag_143:\n        /* \"#utility.yul\":13990:13991   */\n      0x00\n        /* \"#utility.yul\":13987:13988   */\n      dup1\n        /* \"#utility.yul\":13980:13992   */\n      revert\n        /* \"#utility.yul\":14004:14121   */\n    tag_149:\n        /* \"#utility.yul\":14113:14114   */\n      0x00\n        /* \"#utility.yul\":14110:14111   */\n      dup1\n        /* \"#utility.yul\":14103:14115   */\n      revert\n        /* \"#utility.yul\":14127:14244   */\n    tag_126:\n        /* \"#utility.yul\":14236:14237   */\n      0x00\n        /* \"#utility.yul\":14233:14234   */\n      dup1\n        /* \"#utility.yul\":14226:14238   */\n      revert\n        /* \"#utility.yul\":14250:14367   */\n    tag_166:\n        /* \"#utility.yul\":14359:14360   */\n      0x00\n        /* \"#utility.yul\":14356:14357   */\n      dup1\n        /* \"#utility.yul\":14349:14361   */\n      revert\n        /* \"#utility.yul\":14373:14490   */\n    tag_159:\n        /* \"#utility.yul\":14482:14483   */\n      0x00\n        /* \"#utility.yul\":14479:14480   */\n      dup1\n        /* \"#utility.yul\":14472:14484   */\n      revert\n        /* \"#utility.yul\":14496:14598   */\n    tag_190:\n        /* \"#utility.yul\":14537:14543   */\n      0x00\n        /* \"#utility.yul\":14588:14590   */\n      0x1f\n        /* \"#utility.yul\":14584:14591   */\n      not\n        /* \"#utility.yul\":14579:14581   */\n      0x1f\n        /* \"#utility.yul\":14572:14577   */\n      dup4\n        /* \"#utility.yul\":14568:14582   */\n      add\n        /* \"#utility.yul\":14564:14592   */\n      and\n        /* \"#utility.yul\":14554:14592   */\n      swap1\n      pop\n        /* \"#utility.yul\":14496:14598   */\n      swap2\n      swap1\n      pop\n      jump\t// out\n        /* \"#utility.yul\":14604:14771   */\n    tag_195:\n        /* \"#utility.yul\":14744:14763   */\n      0x416d617a6f6e20697320636c6f7365642e000000000000000000000000000000\n        /* \"#utility.yul\":14740:14741   */\n      0x00\n        /* \"#utility.yul\":14732:14738   */\n      dup3\n        /* \"#utility.yul\":14728:14742   */\n      add\n        /* \"#utility.yul\":14721:14764   */\n      mstore\n        /* \"#utility.yul\":14604:14771   */\n      pop\n      jump\t// out\n        /* \"#utility.yul\":14777:14949   */\n    tag_200:\n        /* \"#utility.yul\":14917:14941   */\n      0x796f7520617265206e6f7420746865206f776e65722e00000000000000000000\n        /* \"#utility.yul\":14913:14914   */\n      0x00\n        /* \"#utility.yul\":14905:14911   */\n      dup3\n        /* \"#utility.yul\":14901:14915   */\n      add\n        /* \"#utility.yul\":14894:14942   */\n      mstore\n        /* \"#utility.yul\":14777:14949   */\n      pop\n      jump\t// out\n        /* \"#utility.yul\":14955:15176   */\n    tag_205:\n        /* \"#utility.yul\":15095:15129   */\n      0x7468657265206973206e6f74207468652073746f636b20696e2070726f647563\n        /* \"#utility.yul\":15091:15092   */\n      0x00\n        /* \"#utility.yul\":15083:15089   */\n      dup3\n        /* \"#utility.yul\":15079:15093   */\n      add\n        /* \"#utility.yul\":15072:15130   */\n      mstore\n        /* \"#utility.yul\":15164:15168   */\n      0x742e000000000000000000000000000000000000000000000000000000000000\n        /* \"#utility.yul\":15159:15161   */\n      0x20\n        /* \"#utility.yul\":15151:15157   */\n      dup3\n        /* \"#utility.yul\":15147:15162   */\n      add\n        /* \"#utility.yul\":15140:15169   */\n      mstore\n        /* \"#utility.yul\":14955:15176   */\n      pop\n      jump\t// out\n        /* \"#utility.yul\":15182:15411   */\n    tag_210:\n        /* \"#utility.yul\":15322:15356   */\n      0x746865206e616d65206f662070726f647563742073686f756c64206265206d6f\n        /* \"#utility.yul\":15318:15319   */\n      0x00\n        /* \"#utility.yul\":15310:15316   */\n      dup3\n        /* \"#utility.yul\":15306:15320   */\n      add\n        /* \"#utility.yul\":15299:15357   */\n      mstore\n        /* \"#utility.yul\":15391:15403   */\n      0x7265207468616e20352e00000000000000000000000000000000000000000000\n        /* \"#utility.yul\":15386:15388   */\n      0x20\n        /* \"#utility.yul\":15378:15384   */\n      dup3\n        /* \"#utility.yul\":15374:15389   */\n      add\n        /* \"#utility.yul\":15367:15404   */\n      mstore\n        /* \"#utility.yul\":15182:15411   */\n      pop\n      jump\t// out\n        /* \"#utility.yul\":15417:15596   */\n    tag_215:\n        /* \"#utility.yul\":15557:15588   */\n      0x796f7520646f6e2774206861766520656e6f75676874206d6f6e65792e000000\n        /* \"#utility.yul\":15553:15554   */\n      0x00\n        /* \"#utility.yul\":15545:15551   */\n      dup3\n        /* \"#utility.yul\":15541:15555   */\n      add\n        /* \"#utility.yul\":15534:15589   */\n      mstore\n        /* \"#utility.yul\":15417:15596   */\n      pop\n      jump\t// out\n        /* \"#utility.yul\":15602:15718   */\n    tag_132:\n        /* \"#utility.yul\":15672:15693   */\n      tag_313\n        /* \"#utility.yul\":15687:15692   */\n      dup2\n        /* \"#utility.yul\":15672:15693   */\n      tag_277\n      jump\t// in\n    tag_313:\n        /* \"#utility.yul\":15665:15670   */\n      dup2\n        /* \"#utility.yul\":15662:15694   */\n      eq\n        /* \"#utility.yul\":15652:15712   */\n      tag_314\n      jumpi\n        /* \"#utility.yul\":15708:15709   */\n      0x00\n        /* \"#utility.yul\":15705:15706   */\n      dup1\n        /* \"#utility.yul\":15698:15710   */\n      revert\n        /* \"#utility.yul\":15652:15712   */\n    tag_314:\n        /* \"#utility.yul\":15602:15718   */\n      pop\n      jump\t// out\n        /* \"#utility.yul\":15724:15846   */\n    tag_155:\n        /* \"#utility.yul\":15797:15821   */\n      tag_316\n        /* \"#utility.yul\":15815:15820   */\n      dup2\n        /* \"#utility.yul\":15797:15821   */\n      tag_219\n      jump\t// in\n    tag_316:\n        /* \"#utility.yul\":15790:15795   */\n      dup2\n        /* \"#utility.yul\":15787:15822   */\n      eq\n        /* \"#utility.yul\":15777:15840   */\n      tag_317\n      jumpi\n        /* \"#utility.yul\":15836:15837   */\n      0x00\n        /* \"#utility.yul\":15833:15834   */\n      dup1\n        /* \"#utility.yul\":15826:15838   */\n      revert\n        /* \"#utility.yul\":15777:15840   */\n    tag_317:\n        /* \"#utility.yul\":15724:15846   */\n      pop\n      jump\t// out\n\n    auxdata: 0xa2646970667358221220e127ec3d6bb7ecb00170cbf9a4682ac4f5c26577e63a7ede319cb356810726cc64736f6c63430008070033\n}\n",
				"bytecode": {
					"linkReferences": {},
					"object": "608060405260008060146101000a81548160ff02191690831515021790555034801561002a57600080fd5b50336000806101000a81548173ffffffffffffffffffffffffffffffffffffffff021916908373ffffffffffffffffffffffffffffffffffffffff1602179055506112ff8061007a6000396000f3fe6080604052600436106100555760003560e01c80631b52b9de1461005a57806334d5336614610071578063408b464b146100b157806353b62866146100da5780639d64871c146100f6578063bc32caad1461011f575b600080fd5b34801561006657600080fd5b5061006f610148565b005b34801561007d57600080fd5b5061009860048036038101906100939190610b86565b610271565b6040516100a89493929190610dd7565b60405180910390f35b3480156100bd57600080fd5b506100d860048036038101906100d39190610b3d565b610329565b005b6100f460048036038101906100ef9190610bb3565b6104d7565b005b34801561010257600080fd5b5061011d60048036038101906101189190610bb3565b610764565b005b34801561012b57600080fd5b5061014660048036038101906101419190610b10565b610875565b005b338073ffffffffffffffffffffffffffffffffffffffff1660008054906101000a900473ffffffffffffffffffffffffffffffffffffffff1673ffffffffffffffffffffffffffffffffffffffff16146101d7576040517f08c379a00000000000000000000000000000000000000000000000000000000081526004016101ce90610d57565b60405180910390fd5b600060149054906101000a900460ff1615610227576040517f08c379a000000000000000000000000000000000000000000000000000000000815260040161021e90610d37565b60405180910390fd5b3373ffffffffffffffffffffffffffffffffffffffff166108fc479081150290604051600060405180830381858888f1935050505015801561026d573d6000803e3d6000fd5b5050565b600160205280600052604060002060009150905080600001549080600101805461029a90611034565b80601f01602080910402602001604051908101604052809291908181526020018280546102c690611034565b80156103135780601f106102e857610100808354040283529160200191610313565b820191906000526020600020905b8154815290600101906020018083116102f657829003601f168201915b5050505050908060020154908060030154905084565b338073ffffffffffffffffffffffffffffffffffffffff1660008054906101000a900473ffffffffffffffffffffffffffffffffffffffff1673ffffffffffffffffffffffffffffffffffffffff16146103b8576040517f08c379a00000000000000000000000000000000000000000000000000000000081526004016103af90610d57565b60405180910390fd5b600060149054906101000a900460ff1615610408576040517f08c379a00000000000000000000000000000000000000000000000000000000081526004016103ff90610d37565b60405180910390fd5b600582602001515111610450576040517f08c379a000000000000000000000000000000000000000000000000000000000815260040161044790610d97565b60405180910390fd5b6040518060800160405280836000015181526020018360200151815260200160008152602001836060015181525060016000846000015181526020019081526020016000206000820151816000015560208201518160010190805190602001906104bb92919061093f565b5060408201518160020155606082015181600301559050505050565b600060149054906101000a900460ff1615610527576040517f08c379a000000000000000000000000000000000000000000000000000000000815260040161051e90610d37565b60405180910390fd5b6000600160008481526020019081526020016000206040518060800160405290816000820154815260200160018201805461056190611034565b80601f016020809104026020016040519081016040528092919081815260200182805461058d90611034565b80156105da5780601f106105af576101008083540402835291602001916105da565b820191906000526020600020905b8154815290600101906020018083116105bd57829003601f168201915b5050505050815260200160028201548152602001600382015481525050905061060234610922565b8160600151836106129190610f1c565b1115610653576040517f08c379a000000000000000000000000000000000000000000000000000000000815260040161064a90610db7565b60405180910390fd5b806040015182111561069a576040517f08c379a000000000000000000000000000000000000000000000000000000000815260040161069190610d77565b60405180910390fd5b81600160008360000151815260200190815260200160002060020160008282546106c49190610f76565b925050819055507f49459a34d954bb15a30777556aa1bb797ccf585ec805324053aa26cad3c71c7f8160200151338460405161070293929190610cf9565b60405180910390a1600a82111561075f573373ffffffffffffffffffffffffffffffffffffffff166108fc82606001519081150290604051600060405180830381858888f1935050505015801561075d573d6000803e3d6000fd5b505b505050565b338073ffffffffffffffffffffffffffffffffffffffff1660008054906101000a900473ffffffffffffffffffffffffffffffffffffffff1673ffffffffffffffffffffffffffffffffffffffff16146107f3576040517f08c379a00000000000000000000000000000000000000000000000000000000081526004016107ea90610d57565b60405180910390fd5b600060149054906101000a900460ff1615610843576040517f08c379a000000000000000000000000000000000000000000000000000000000815260040161083a90610d37565b60405180910390fd5b816001600085815260200190815260200160002060020160008282546108699190610e95565b92505081905550505050565b338073ffffffffffffffffffffffffffffffffffffffff1660008054906101000a900473ffffffffffffffffffffffffffffffffffffffff1673ffffffffffffffffffffffffffffffffffffffff1614610904576040517f08c379a00000000000000000000000000000000000000000000000000000000081526004016108fb90610d57565b60405180910390fd5b81600060146101000a81548160ff0219169083151502179055505050565b6000670de0b6b3a7640000826109389190610eeb565b9050919050565b82805461094b90611034565b90600052602060002090601f01602090048101928261096d57600085556109b4565b82601f1061098657805160ff19168380011785556109b4565b828001600101855582156109b4579182015b828111156109b3578251825591602001919060010190610998565b5b5090506109c191906109c5565b5090565b5b808211156109de5760008160009055506001016109c6565b5090565b60006109f56109f084610e48565b610e23565b905082815260208101848484011115610a1157610a10611162565b5b610a1c848285610ff2565b509392505050565b600081359050610a338161129b565b92915050565b600082601f830112610a4e57610a4d611153565b5b8135610a5e8482602086016109e2565b91505092915050565b600060808284031215610a7d57610a7c611158565b5b610a876080610e23565b90506000610a9784828501610afb565b600083015250602082013567ffffffffffffffff811115610abb57610aba61115d565b5b610ac784828501610a39565b6020830152506040610adb84828501610afb565b6040830152506060610aef84828501610afb565b60608301525092915050565b600081359050610b0a816112b2565b92915050565b600060208284031215610b2657610b2561116c565b5b6000610b3484828501610a24565b91505092915050565b600060208284031215610b5357610b5261116c565b5b600082013567ffffffffffffffff811115610b7157610b70611167565b5b610b7d84828501610a67565b91505092915050565b600060208284031215610b9c57610b9b61116c565b5b6000610baa84828501610afb565b91505092915050565b60008060408385031215610bca57610bc961116c565b5b6000610bd885828601610afb565b9250506020610be985828601610afb565b9150509250929050565b610bfc81610faa565b82525050565b6000610c0d82610e79565b610c178185610e84565b9350610c27818560208601611001565b610c3081611171565b840191505092915050565b6000610c48601183610e84565b9150610c5382611182565b602082019050919050565b6000610c6b601683610e84565b9150610c76826111ab565b602082019050919050565b6000610c8e602283610e84565b9150610c99826111d4565b604082019050919050565b6000610cb1602a83610e84565b9150610cbc82611223565b604082019050919050565b6000610cd4601d83610e84565b9150610cdf82611272565b602082019050919050565b610cf381610fe8565b82525050565b60006060820190508181036000830152610d138186610c02565b9050610d226020830185610bf3565b610d2f6040830184610cea565b949350505050565b60006020820190508181036000830152610d5081610c3b565b9050919050565b60006020820190508181036000830152610d7081610c5e565b9050919050565b60006020820190508181036000830152610d9081610c81565b9050919050565b60006020820190508181036000830152610db081610ca4565b9050919050565b60006020820190508181036000830152610dd081610cc7565b9050919050565b6000608082019050610dec6000830187610cea565b8181036020830152610dfe8186610c02565b9050610e0d6040830185610cea565b610e1a6060830184610cea565b95945050505050565b6000610e2d610e3e565b9050610e398282611066565b919050565b6000604051905090565b600067ffffffffffffffff821115610e6357610e62611124565b5b610e6c82611171565b9050602081019050919050565b600081519050919050565b600082825260208201905092915050565b6000610ea082610fe8565b9150610eab83610fe8565b9250827fffffffffffffffffffffffffffffffffffffffffffffffffffffffffffffffff03821115610ee057610edf611097565b5b828201905092915050565b6000610ef682610fe8565b9150610f0183610fe8565b925082610f1157610f106110c6565b5b828204905092915050565b6000610f2782610fe8565b9150610f3283610fe8565b9250817fffffffffffffffffffffffffffffffffffffffffffffffffffffffffffffffff0483118215151615610f6b57610f6a611097565b5b828202905092915050565b6000610f8182610fe8565b9150610f8c83610fe8565b925082821015610f9f57610f9e611097565b5b828203905092915050565b6000610fb582610fc8565b9050919050565b60008115159050919050565b600073ffffffffffffffffffffffffffffffffffffffff82169050919050565b6000819050919050565b82818337600083830152505050565b60005b8381101561101f578082015181840152602081019050611004565b8381111561102e576000848401525b50505050565b6000600282049050600182168061104c57607f821691505b602082108114156110605761105f6110f5565b5b50919050565b61106f82611171565b810181811067ffffffffffffffff8211171561108e5761108d611124565b5b80604052505050565b7f4e487b7100000000000000000000000000000000000000000000000000000000600052601160045260246000fd5b7f4e487b7100000000000000000000000000000000000000000000000000000000600052601260045260246000fd5b7f4e487b7100000000000000000000000000000000000000000000000000000000600052602260045260246000fd5b7f4e487b7100000000000000000000000000000000000000000000000000000000600052604160045260246000fd5b600080fd5b600080fd5b600080fd5b600080fd5b600080fd5b600080fd5b6000601f19601f8301169050919050565b7f416d617a6f6e20697320636c6f7365642e000000000000000000000000000000600082015250565b7f796f7520617265206e6f7420746865206f776e65722e00000000000000000000600082015250565b7f7468657265206973206e6f74207468652073746f636b20696e2070726f64756360008201527f742e000000000000000000000000000000000000000000000000000000000000602082015250565b7f746865206e616d65206f662070726f647563742073686f756c64206265206d6f60008201527f7265207468616e20352e00000000000000000000000000000000000000000000602082015250565b7f796f7520646f6e2774206861766520656e6f75676874206d6f6e65792e000000600082015250565b6112a481610fbc565b81146112af57600080fd5b50565b6112bb81610fe8565b81146112c657600080fd5b5056fea2646970667358221220e127ec3d6bb7ecb00170cbf9a4682ac4f5c26577e63a7ede319cb356810726cc64736f6c63430008070033",
					"opcodes": "PUSH1 0x80 PUSH1 0x40 MSTORE PUSH1 0x0 DUP1 PUSH1 0x14 PUSH2 0x100 EXP DUP2 SLOAD DUP2 PUSH1 0xFF MUL NOT AND SWAP1 DUP4 ISZERO ISZERO MUL OR SWAP1 SSTORE POP CALLVALUE DUP1 ISZERO PUSH2 0x2A JUMPI PUSH1 0x0 DUP1 REVERT JUMPDEST POP CALLER PUSH1 0x0 DUP1 PUSH2 0x100 EXP DUP2 SLOAD DUP2 PUSH20 0xFFFFFFFFFFFFFFFFFFFFFFFFFFFFFFFFFFFFFFFF MUL NOT AND SWAP1 DUP4 PUSH20 0xFFFFFFFFFFFFFFFFFFFFFFFFFFFFFFFFFFFFFFFF AND MUL OR SWAP1 SSTORE POP PUSH2 0x12FF DUP1 PUSH2 0x7A PUSH1 0x0 CODECOPY PUSH1 0x0 RETURN INVALID PUSH1 0x80 PUSH1 0x40 MSTORE PUSH1 0x4 CALLDATASIZE LT PUSH2 0x55 JUMPI PUSH1 0x0 CALLDATALOAD PUSH1 0xE0 SHR DUP1 PUSH4 0x1B52B9DE EQ PUSH2 0x5A JUMPI DUP1 PUSH4 0x34D53366 EQ PUSH2 0x71 JUMPI DUP1 PUSH4 0x408B464B EQ PUSH2 0xB1 JUMPI DUP1 PUSH4 0x53B62866 EQ PUSH2 0xDA JUMPI DUP1 PUSH4 0x9D64871C EQ PUSH2 0xF6 JUMPI DUP1 PUSH4 0xBC32CAAD EQ PUSH2 0x11F JUMPI JUMPDEST PUSH1 0x0 DUP1 REVERT JUMPDEST CALLVALUE DUP1 ISZERO PUSH2 0x66 JUMPI PUSH1 0x0 DUP1 REVERT JUMPDEST POP PUSH2 0x6F PUSH2 0x148 JUMP JUMPDEST STOP JUMPDEST CALLVALUE DUP1 ISZERO PUSH2 0x7D JUMPI PUSH1 0x0 DUP1 REVERT JUMPDEST POP PUSH2 0x98 PUSH1 0x4 DUP1 CALLDATASIZE SUB DUP2 ADD SWAP1 PUSH2 0x93 SWAP2 SWAP1 PUSH2 0xB86 JUMP JUMPDEST PUSH2 0x271 JUMP JUMPDEST PUSH1 0x40 MLOAD PUSH2 0xA8 SWAP5 SWAP4 SWAP3 SWAP2 SWAP1 PUSH2 0xDD7 JUMP JUMPDEST PUSH1 0x40 MLOAD DUP1 SWAP2 SUB SWAP1 RETURN JUMPDEST CALLVALUE DUP1 ISZERO PUSH2 0xBD JUMPI PUSH1 0x0 DUP1 REVERT JUMPDEST POP PUSH2 0xD8 PUSH1 0x4 DUP1 CALLDATASIZE SUB DUP2 ADD SWAP1 PUSH2 0xD3 SWAP2 SWAP1 PUSH2 0xB3D JUMP JUMPDEST PUSH2 0x329 JUMP JUMPDEST STOP JUMPDEST PUSH2 0xF4 PUSH1 0x4 DUP1 CALLDATASIZE SUB DUP2 ADD SWAP1 PUSH2 0xEF SWAP2 SWAP1 PUSH2 0xBB3 JUMP JUMPDEST PUSH2 0x4D7 JUMP JUMPDEST STOP JUMPDEST CALLVALUE DUP1 ISZERO PUSH2 0x102 JUMPI PUSH1 0x0 DUP1 REVERT JUMPDEST POP PUSH2 0x11D PUSH1 0x4 DUP1 CALLDATASIZE SUB DUP2 ADD SWAP1 PUSH2 0x118 SWAP2 SWAP1 PUSH2 0xBB3 JUMP JUMPDEST PUSH2 0x764 JUMP JUMPDEST STOP JUMPDEST CALLVALUE DUP1 ISZERO PUSH2 0x12B JUMPI PUSH1 0x0 DUP1 REVERT JUMPDEST POP PUSH2 0x146 PUSH1 0x4 DUP1 CALLDATASIZE SUB DUP2 ADD SWAP1 PUSH2 0x141 SWAP2 SWAP1 PUSH2 0xB10 JUMP JUMPDEST PUSH2 0x875 JUMP JUMPDEST STOP JUMPDEST CALLER DUP1 PUSH20 0xFFFFFFFFFFFFFFFFFFFFFFFFFFFFFFFFFFFFFFFF AND PUSH1 0x0 DUP1 SLOAD SWAP1 PUSH2 0x100 EXP SWAP1 DIV PUSH20 0xFFFFFFFFFFFFFFFFFFFFFFFFFFFFFFFFFFFFFFFF AND PUSH20 0xFFFFFFFFFFFFFFFFFFFFFFFFFFFFFFFFFFFFFFFF AND EQ PUSH2 0x1D7 JUMPI PUSH1 0x40 MLOAD PUSH32 0x8C379A000000000000000000000000000000000000000000000000000000000 DUP2 MSTORE PUSH1 0x4 ADD PUSH2 0x1CE SWAP1 PUSH2 0xD57 JUMP JUMPDEST PUSH1 0x40 MLOAD DUP1 SWAP2 SUB SWAP1 REVERT JUMPDEST PUSH1 0x0 PUSH1 0x14 SWAP1 SLOAD SWAP1 PUSH2 0x100 EXP SWAP1 DIV PUSH1 0xFF AND ISZERO PUSH2 0x227 JUMPI PUSH1 0x40 MLOAD PUSH32 0x8C379A000000000000000000000000000000000000000000000000000000000 DUP2 MSTORE PUSH1 0x4 ADD PUSH2 0x21E SWAP1 PUSH2 0xD37 JUMP JUMPDEST PUSH1 0x40 MLOAD DUP1 SWAP2 SUB SWAP1 REVERT JUMPDEST CALLER PUSH20 0xFFFFFFFFFFFFFFFFFFFFFFFFFFFFFFFFFFFFFFFF AND PUSH2 0x8FC SELFBALANCE SWAP1 DUP2 ISZERO MUL SWAP1 PUSH1 0x40 MLOAD PUSH1 0x0 PUSH1 0x40 MLOAD DUP1 DUP4 SUB DUP2 DUP6 DUP9 DUP9 CALL SWAP4 POP POP POP POP ISZERO DUP1 ISZERO PUSH2 0x26D JUMPI RETURNDATASIZE PUSH1 0x0 DUP1 RETURNDATACOPY RETURNDATASIZE PUSH1 0x0 REVERT JUMPDEST POP POP JUMP JUMPDEST PUSH1 0x1 PUSH1 0x20 MSTORE DUP1 PUSH1 0x0 MSTORE PUSH1 0x40 PUSH1 0x0 KECCAK256 PUSH1 0x0 SWAP2 POP SWAP1 POP DUP1 PUSH1 0x0 ADD SLOAD SWAP1 DUP1 PUSH1 0x1 ADD DUP1 SLOAD PUSH2 0x29A SWAP1 PUSH2 0x1034 JUMP JUMPDEST DUP1 PUSH1 0x1F ADD PUSH1 0x20 DUP1 SWAP2 DIV MUL PUSH1 0x20 ADD PUSH1 0x40 MLOAD SWAP1 DUP2 ADD PUSH1 0x40 MSTORE DUP1 SWAP3 SWAP2 SWAP1 DUP2 DUP2 MSTORE PUSH1 0x20 ADD DUP3 DUP1 SLOAD PUSH2 0x2C6 SWAP1 PUSH2 0x1034 JUMP JUMPDEST DUP1 ISZERO PUSH2 0x313 JUMPI DUP1 PUSH1 0x1F LT PUSH2 0x2E8 JUMPI PUSH2 0x100 DUP1 DUP4 SLOAD DIV MUL DUP4 MSTORE SWAP2 PUSH1 0x20 ADD SWAP2 PUSH2 0x313 JUMP JUMPDEST DUP3 ADD SWAP2 SWAP1 PUSH1 0x0 MSTORE PUSH1 0x20 PUSH1 0x0 KECCAK256 SWAP1 JUMPDEST DUP2 SLOAD DUP2 MSTORE SWAP1 PUSH1 0x1 ADD SWAP1 PUSH1 0x20 ADD DUP1 DUP4 GT PUSH2 0x2F6 JUMPI DUP3 SWAP1 SUB PUSH1 0x1F AND DUP3 ADD SWAP2 JUMPDEST POP POP POP POP POP SWAP1 DUP1 PUSH1 0x2 ADD SLOAD SWAP1 DUP1 PUSH1 0x3 ADD SLOAD SWAP1 POP DUP5 JUMP JUMPDEST CALLER DUP1 PUSH20 0xFFFFFFFFFFFFFFFFFFFFFFFFFFFFFFFFFFFFFFFF AND PUSH1 0x0 DUP1 SLOAD SWAP1 PUSH2 0x100 EXP SWAP1 DIV PUSH20 0xFFFFFFFFFFFFFFFFFFFFFFFFFFFFFFFFFFFFFFFF AND PUSH20 0xFFFFFFFFFFFFFFFFFFFFFFFFFFFFFFFFFFFFFFFF AND EQ PUSH2 0x3B8 JUMPI PUSH1 0x40 MLOAD PUSH32 0x8C379A000000000000000000000000000000000000000000000000000000000 DUP2 MSTORE PUSH1 0x4 ADD PUSH2 0x3AF SWAP1 PUSH2 0xD57 JUMP JUMPDEST PUSH1 0x40 MLOAD DUP1 SWAP2 SUB SWAP1 REVERT JUMPDEST PUSH1 0x0 PUSH1 0x14 SWAP1 SLOAD SWAP1 PUSH2 0x100 EXP SWAP1 DIV PUSH1 0xFF AND ISZERO PUSH2 0x408 JUMPI PUSH1 0x40 MLOAD PUSH32 0x8C379A000000000000000000000000000000000000000000000000000000000 DUP2 MSTORE PUSH1 0x4 ADD PUSH2 0x3FF SWAP1 PUSH2 0xD37 JUMP JUMPDEST PUSH1 0x40 MLOAD DUP1 SWAP2 SUB SWAP1 REVERT JUMPDEST PUSH1 0x5 DUP3 PUSH1 0x20 ADD MLOAD MLOAD GT PUSH2 0x450 JUMPI PUSH1 0x40 MLOAD PUSH32 0x8C379A000000000000000000000000000000000000000000000000000000000 DUP2 MSTORE PUSH1 0x4 ADD PUSH2 0x447 SWAP1 PUSH2 0xD97 JUMP JUMPDEST PUSH1 0x40 MLOAD DUP1 SWAP2 SUB SWAP1 REVERT JUMPDEST PUSH1 0x40 MLOAD DUP1 PUSH1 0x80 ADD PUSH1 0x40 MSTORE DUP1 DUP4 PUSH1 0x0 ADD MLOAD DUP2 MSTORE PUSH1 0x20 ADD DUP4 PUSH1 0x20 ADD MLOAD DUP2 MSTORE PUSH1 0x20 ADD PUSH1 0x0 DUP2 MSTORE PUSH1 0x20 ADD DUP4 PUSH1 0x60 ADD MLOAD DUP2 MSTORE POP PUSH1 0x1 PUSH1 0x0 DUP5 PUSH1 0x0 ADD MLOAD DUP2 MSTORE PUSH1 0x20 ADD SWAP1 DUP2 MSTORE PUSH1 0x20 ADD PUSH1 0x0 KECCAK256 PUSH1 0x0 DUP3 ADD MLOAD DUP2 PUSH1 0x0 ADD SSTORE PUSH1 0x20 DUP3 ADD MLOAD DUP2 PUSH1 0x1 ADD SWAP1 DUP1 MLOAD SWAP1 PUSH1 0x20 ADD SWAP1 PUSH2 0x4BB SWAP3 SWAP2 SWAP1 PUSH2 0x93F JUMP JUMPDEST POP PUSH1 0x40 DUP3 ADD MLOAD DUP2 PUSH1 0x2 ADD SSTORE PUSH1 0x60 DUP3 ADD MLOAD DUP2 PUSH1 0x3 ADD SSTORE SWAP1 POP POP POP POP JUMP JUMPDEST PUSH1 0x0 PUSH1 0x14 SWAP1 SLOAD SWAP1 PUSH2 0x100 EXP SWAP1 DIV PUSH1 0xFF AND ISZERO PUSH2 0x527 JUMPI PUSH1 0x40 MLOAD PUSH32 0x8C379A000000000000000000000000000000000000000000000000000000000 DUP2 MSTORE PUSH1 0x4 ADD PUSH2 0x51E SWAP1 PUSH2 0xD37 JUMP JUMPDEST PUSH1 0x40 MLOAD DUP1 SWAP2 SUB SWAP1 REVERT JUMPDEST PUSH1 0x0 PUSH1 0x1 PUSH1 0x0 DUP5 DUP2 MSTORE PUSH1 0x20 ADD SWAP1 DUP2 MSTORE PUSH1 0x20 ADD PUSH1 0x0 KECCAK256 PUSH1 0x40 MLOAD DUP1 PUSH1 0x80 ADD PUSH1 0x40 MSTORE SWAP1 DUP2 PUSH1 0x0 DUP3 ADD SLOAD DUP2 MSTORE PUSH1 0x20 ADD PUSH1 0x1 DUP3 ADD DUP1 SLOAD PUSH2 0x561 SWAP1 PUSH2 0x1034 JUMP JUMPDEST DUP1 PUSH1 0x1F ADD PUSH1 0x20 DUP1 SWAP2 DIV MUL PUSH1 0x20 ADD PUSH1 0x40 MLOAD SWAP1 DUP2 ADD PUSH1 0x40 MSTORE DUP1 SWAP3 SWAP2 SWAP1 DUP2 DUP2 MSTORE PUSH1 0x20 ADD DUP3 DUP1 SLOAD PUSH2 0x58D SWAP1 PUSH2 0x1034 JUMP JUMPDEST DUP1 ISZERO PUSH2 0x5DA JUMPI DUP1 PUSH1 0x1F LT PUSH2 0x5AF JUMPI PUSH2 0x100 DUP1 DUP4 SLOAD DIV MUL DUP4 MSTORE SWAP2 PUSH1 0x20 ADD SWAP2 PUSH2 0x5DA JUMP JUMPDEST DUP3 ADD SWAP2 SWAP1 PUSH1 0x0 MSTORE PUSH1 0x20 PUSH1 0x0 KECCAK256 SWAP1 JUMPDEST DUP2 SLOAD DUP2 MSTORE SWAP1 PUSH1 0x1 ADD SWAP1 PUSH1 0x20 ADD DUP1 DUP4 GT PUSH2 0x5BD JUMPI DUP3 SWAP1 SUB PUSH1 0x1F AND DUP3 ADD SWAP2 JUMPDEST POP POP POP POP POP DUP2 MSTORE PUSH1 0x20 ADD PUSH1 0x2 DUP3 ADD SLOAD DUP2 MSTORE PUSH1 0x20 ADD PUSH1 0x3 DUP3 ADD SLOAD DUP2 MSTORE POP POP SWAP1 POP PUSH2 0x602 CALLVALUE PUSH2 0x922 JUMP JUMPDEST DUP2 PUSH1 0x60 ADD MLOAD DUP4 PUSH2 0x612 SWAP2 SWAP1 PUSH2 0xF1C JUMP JUMPDEST GT ISZERO PUSH2 0x653 JUMPI PUSH1 0x40 MLOAD PUSH32 0x8C379A000000000000000000000000000000000000000000000000000000000 DUP2 MSTORE PUSH1 0x4 ADD PUSH2 0x64A SWAP1 PUSH2 0xDB7 JUMP JUMPDEST PUSH1 0x40 MLOAD DUP1 SWAP2 SUB SWAP1 REVERT JUMPDEST DUP1 PUSH1 0x40 ADD MLOAD DUP3 GT ISZERO PUSH2 0x69A JUMPI PUSH1 0x40 MLOAD PUSH32 0x8C379A000000000000000000000000000000000000000000000000000000000 DUP2 MSTORE PUSH1 0x4 ADD PUSH2 0x691 SWAP1 PUSH2 0xD77 JUMP JUMPDEST PUSH1 0x40 MLOAD DUP1 SWAP2 SUB SWAP1 REVERT JUMPDEST DUP2 PUSH1 0x1 PUSH1 0x0 DUP4 PUSH1 0x0 ADD MLOAD DUP2 MSTORE PUSH1 0x20 ADD SWAP1 DUP2 MSTORE PUSH1 0x20 ADD PUSH1 0x0 KECCAK256 PUSH1 0x2 ADD PUSH1 0x0 DUP3 DUP3 SLOAD PUSH2 0x6C4 SWAP2 SWAP1 PUSH2 0xF76 JUMP JUMPDEST SWAP3 POP POP DUP2 SWAP1 SSTORE POP PUSH32 0x49459A34D954BB15A30777556AA1BB797CCF585EC805324053AA26CAD3C71C7F DUP2 PUSH1 0x20 ADD MLOAD CALLER DUP5 PUSH1 0x40 MLOAD PUSH2 0x702 SWAP4 SWAP3 SWAP2 SWAP1 PUSH2 0xCF9 JUMP JUMPDEST PUSH1 0x40 MLOAD DUP1 SWAP2 SUB SWAP1 LOG1 PUSH1 0xA DUP3 GT ISZERO PUSH2 0x75F JUMPI CALLER PUSH20 0xFFFFFFFFFFFFFFFFFFFFFFFFFFFFFFFFFFFFFFFF AND PUSH2 0x8FC DUP3 PUSH1 0x60 ADD MLOAD SWAP1 DUP2 ISZERO MUL SWAP1 PUSH1 0x40 MLOAD PUSH1 0x0 PUSH1 0x40 MLOAD DUP1 DUP4 SUB DUP2 DUP6 DUP9 DUP9 CALL SWAP4 POP POP POP POP ISZERO DUP1 ISZERO PUSH2 0x75D JUMPI RETURNDATASIZE PUSH1 0x0 DUP1 RETURNDATACOPY RETURNDATASIZE PUSH1 0x0 REVERT JUMPDEST POP JUMPDEST POP POP POP JUMP JUMPDEST CALLER DUP1 PUSH20 0xFFFFFFFFFFFFFFFFFFFFFFFFFFFFFFFFFFFFFFFF AND PUSH1 0x0 DUP1 SLOAD SWAP1 PUSH2 0x100 EXP SWAP1 DIV PUSH20 0xFFFFFFFFFFFFFFFFFFFFFFFFFFFFFFFFFFFFFFFF AND PUSH20 0xFFFFFFFFFFFFFFFFFFFFFFFFFFFFFFFFFFFFFFFF AND EQ PUSH2 0x7F3 JUMPI PUSH1 0x40 MLOAD PUSH32 0x8C379A000000000000000000000000000000000000000000000000000000000 DUP2 MSTORE PUSH1 0x4 ADD PUSH2 0x7EA SWAP1 PUSH2 0xD57 JUMP JUMPDEST PUSH1 0x40 MLOAD DUP1 SWAP2 SUB SWAP1 REVERT JUMPDEST PUSH1 0x0 PUSH1 0x14 SWAP1 SLOAD SWAP1 PUSH2 0x100 EXP SWAP1 DIV PUSH1 0xFF AND ISZERO PUSH2 0x843 JUMPI PUSH1 0x40 MLOAD PUSH32 0x8C379A000000000000000000000000000000000000000000000000000000000 DUP2 MSTORE PUSH1 0x4 ADD PUSH2 0x83A SWAP1 PUSH2 0xD37 JUMP JUMPDEST PUSH1 0x40 MLOAD DUP1 SWAP2 SUB SWAP1 REVERT JUMPDEST DUP2 PUSH1 0x1 PUSH1 0x0 DUP6 DUP2 MSTORE PUSH1 0x20 ADD SWAP1 DUP2 MSTORE PUSH1 0x20 ADD PUSH1 0x0 KECCAK256 PUSH1 0x2 ADD PUSH1 0x0 DUP3 DUP3 SLOAD PUSH2 0x869 SWAP2 SWAP1 PUSH2 0xE95 JUMP JUMPDEST SWAP3 POP POP DUP2 SWAP1 SSTORE POP POP POP POP JUMP JUMPDEST CALLER DUP1 PUSH20 0xFFFFFFFFFFFFFFFFFFFFFFFFFFFFFFFFFFFFFFFF AND PUSH1 0x0 DUP1 SLOAD SWAP1 PUSH2 0x100 EXP SWAP1 DIV PUSH20 0xFFFFFFFFFFFFFFFFFFFFFFFFFFFFFFFFFFFFFFFF AND PUSH20 0xFFFFFFFFFFFFFFFFFFFFFFFFFFFFFFFFFFFFFFFF AND EQ PUSH2 0x904 JUMPI PUSH1 0x40 MLOAD PUSH32 0x8C379A000000000000000000000000000000000000000000000000000000000 DUP2 MSTORE PUSH1 0x4 ADD PUSH2 0x8FB SWAP1 PUSH2 0xD57 JUMP JUMPDEST PUSH1 0x40 MLOAD DUP1 SWAP2 SUB SWAP1 REVERT JUMPDEST DUP2 PUSH1 0x0 PUSH1 0x14 PUSH2 0x100 EXP DUP2 SLOAD DUP2 PUSH1 0xFF MUL NOT AND SWAP1 DUP4 ISZERO ISZERO MUL OR SWAP1 SSTORE POP POP POP JUMP JUMPDEST PUSH1 0x0 PUSH8 0xDE0B6B3A7640000 DUP3 PUSH2 0x938 SWAP2 SWAP1 PUSH2 0xEEB JUMP JUMPDEST SWAP1 POP SWAP2 SWAP1 POP JUMP JUMPDEST DUP3 DUP1 SLOAD PUSH2 0x94B SWAP1 PUSH2 0x1034 JUMP JUMPDEST SWAP1 PUSH1 0x0 MSTORE PUSH1 0x20 PUSH1 0x0 KECCAK256 SWAP1 PUSH1 0x1F ADD PUSH1 0x20 SWAP1 DIV DUP2 ADD SWAP3 DUP3 PUSH2 0x96D JUMPI PUSH1 0x0 DUP6 SSTORE PUSH2 0x9B4 JUMP JUMPDEST DUP3 PUSH1 0x1F LT PUSH2 0x986 JUMPI DUP1 MLOAD PUSH1 0xFF NOT AND DUP4 DUP1 ADD OR DUP6 SSTORE PUSH2 0x9B4 JUMP JUMPDEST DUP3 DUP1 ADD PUSH1 0x1 ADD DUP6 SSTORE DUP3 ISZERO PUSH2 0x9B4 JUMPI SWAP2 DUP3 ADD JUMPDEST DUP3 DUP2 GT ISZERO PUSH2 0x9B3 JUMPI DUP3 MLOAD DUP3 SSTORE SWAP2 PUSH1 0x20 ADD SWAP2 SWAP1 PUSH1 0x1 ADD SWAP1 PUSH2 0x998 JUMP JUMPDEST JUMPDEST POP SWAP1 POP PUSH2 0x9C1 SWAP2 SWAP1 PUSH2 0x9C5 JUMP JUMPDEST POP SWAP1 JUMP JUMPDEST JUMPDEST DUP1 DUP3 GT ISZERO PUSH2 0x9DE JUMPI PUSH1 0x0 DUP2 PUSH1 0x0 SWAP1 SSTORE POP PUSH1 0x1 ADD PUSH2 0x9C6 JUMP JUMPDEST POP SWAP1 JUMP JUMPDEST PUSH1 0x0 PUSH2 0x9F5 PUSH2 0x9F0 DUP5 PUSH2 0xE48 JUMP JUMPDEST PUSH2 0xE23 JUMP JUMPDEST SWAP1 POP DUP3 DUP2 MSTORE PUSH1 0x20 DUP2 ADD DUP5 DUP5 DUP5 ADD GT ISZERO PUSH2 0xA11 JUMPI PUSH2 0xA10 PUSH2 0x1162 JUMP JUMPDEST JUMPDEST PUSH2 0xA1C DUP5 DUP3 DUP6 PUSH2 0xFF2 JUMP JUMPDEST POP SWAP4 SWAP3 POP POP POP JUMP JUMPDEST PUSH1 0x0 DUP2 CALLDATALOAD SWAP1 POP PUSH2 0xA33 DUP2 PUSH2 0x129B JUMP JUMPDEST SWAP3 SWAP2 POP POP JUMP JUMPDEST PUSH1 0x0 DUP3 PUSH1 0x1F DUP4 ADD SLT PUSH2 0xA4E JUMPI PUSH2 0xA4D PUSH2 0x1153 JUMP JUMPDEST JUMPDEST DUP2 CALLDATALOAD PUSH2 0xA5E DUP5 DUP3 PUSH1 0x20 DUP7 ADD PUSH2 0x9E2 JUMP JUMPDEST SWAP2 POP POP SWAP3 SWAP2 POP POP JUMP JUMPDEST PUSH1 0x0 PUSH1 0x80 DUP3 DUP5 SUB SLT ISZERO PUSH2 0xA7D JUMPI PUSH2 0xA7C PUSH2 0x1158 JUMP JUMPDEST JUMPDEST PUSH2 0xA87 PUSH1 0x80 PUSH2 0xE23 JUMP JUMPDEST SWAP1 POP PUSH1 0x0 PUSH2 0xA97 DUP5 DUP3 DUP6 ADD PUSH2 0xAFB JUMP JUMPDEST PUSH1 0x0 DUP4 ADD MSTORE POP PUSH1 0x20 DUP3 ADD CALLDATALOAD PUSH8 0xFFFFFFFFFFFFFFFF DUP2 GT ISZERO PUSH2 0xABB JUMPI PUSH2 0xABA PUSH2 0x115D JUMP JUMPDEST JUMPDEST PUSH2 0xAC7 DUP5 DUP3 DUP6 ADD PUSH2 0xA39 JUMP JUMPDEST PUSH1 0x20 DUP4 ADD MSTORE POP PUSH1 0x40 PUSH2 0xADB DUP5 DUP3 DUP6 ADD PUSH2 0xAFB JUMP JUMPDEST PUSH1 0x40 DUP4 ADD MSTORE POP PUSH1 0x60 PUSH2 0xAEF DUP5 DUP3 DUP6 ADD PUSH2 0xAFB JUMP JUMPDEST PUSH1 0x60 DUP4 ADD MSTORE POP SWAP3 SWAP2 POP POP JUMP JUMPDEST PUSH1 0x0 DUP2 CALLDATALOAD SWAP1 POP PUSH2 0xB0A DUP2 PUSH2 0x12B2 JUMP JUMPDEST SWAP3 SWAP2 POP POP JUMP JUMPDEST PUSH1 0x0 PUSH1 0x20 DUP3 DUP5 SUB SLT ISZERO PUSH2 0xB26 JUMPI PUSH2 0xB25 PUSH2 0x116C JUMP JUMPDEST JUMPDEST PUSH1 0x0 PUSH2 0xB34 DUP5 DUP3 DUP6 ADD PUSH2 0xA24 JUMP JUMPDEST SWAP2 POP POP SWAP3 SWAP2 POP POP JUMP JUMPDEST PUSH1 0x0 PUSH1 0x20 DUP3 DUP5 SUB SLT ISZERO PUSH2 0xB53 JUMPI PUSH2 0xB52 PUSH2 0x116C JUMP JUMPDEST JUMPDEST PUSH1 0x0 DUP3 ADD CALLDATALOAD PUSH8 0xFFFFFFFFFFFFFFFF DUP2 GT ISZERO PUSH2 0xB71 JUMPI PUSH2 0xB70 PUSH2 0x1167 JUMP JUMPDEST JUMPDEST PUSH2 0xB7D DUP5 DUP3 DUP6 ADD PUSH2 0xA67 JUMP JUMPDEST SWAP2 POP POP SWAP3 SWAP2 POP POP JUMP JUMPDEST PUSH1 0x0 PUSH1 0x20 DUP3 DUP5 SUB SLT ISZERO PUSH2 0xB9C JUMPI PUSH2 0xB9B PUSH2 0x116C JUMP JUMPDEST JUMPDEST PUSH1 0x0 PUSH2 0xBAA DUP5 DUP3 DUP6 ADD PUSH2 0xAFB JUMP JUMPDEST SWAP2 POP POP SWAP3 SWAP2 POP POP JUMP JUMPDEST PUSH1 0x0 DUP1 PUSH1 0x40 DUP4 DUP6 SUB SLT ISZERO PUSH2 0xBCA JUMPI PUSH2 0xBC9 PUSH2 0x116C JUMP JUMPDEST JUMPDEST PUSH1 0x0 PUSH2 0xBD8 DUP6 DUP3 DUP7 ADD PUSH2 0xAFB JUMP JUMPDEST SWAP3 POP POP PUSH1 0x20 PUSH2 0xBE9 DUP6 DUP3 DUP7 ADD PUSH2 0xAFB JUMP JUMPDEST SWAP2 POP POP SWAP3 POP SWAP3 SWAP1 POP JUMP JUMPDEST PUSH2 0xBFC DUP2 PUSH2 0xFAA JUMP JUMPDEST DUP3 MSTORE POP POP JUMP JUMPDEST PUSH1 0x0 PUSH2 0xC0D DUP3 PUSH2 0xE79 JUMP JUMPDEST PUSH2 0xC17 DUP2 DUP6 PUSH2 0xE84 JUMP JUMPDEST SWAP4 POP PUSH2 0xC27 DUP2 DUP6 PUSH1 0x20 DUP7 ADD PUSH2 0x1001 JUMP JUMPDEST PUSH2 0xC30 DUP2 PUSH2 0x1171 JUMP JUMPDEST DUP5 ADD SWAP2 POP POP SWAP3 SWAP2 POP POP JUMP JUMPDEST PUSH1 0x0 PUSH2 0xC48 PUSH1 0x11 DUP4 PUSH2 0xE84 JUMP JUMPDEST SWAP2 POP PUSH2 0xC53 DUP3 PUSH2 0x1182 JUMP JUMPDEST PUSH1 0x20 DUP3 ADD SWAP1 POP SWAP2 SWAP1 POP JUMP JUMPDEST PUSH1 0x0 PUSH2 0xC6B PUSH1 0x16 DUP4 PUSH2 0xE84 JUMP JUMPDEST SWAP2 POP PUSH2 0xC76 DUP3 PUSH2 0x11AB JUMP JUMPDEST PUSH1 0x20 DUP3 ADD SWAP1 POP SWAP2 SWAP1 POP JUMP JUMPDEST PUSH1 0x0 PUSH2 0xC8E PUSH1 0x22 DUP4 PUSH2 0xE84 JUMP JUMPDEST SWAP2 POP PUSH2 0xC99 DUP3 PUSH2 0x11D4 JUMP JUMPDEST PUSH1 0x40 DUP3 ADD SWAP1 POP SWAP2 SWAP1 POP JUMP JUMPDEST PUSH1 0x0 PUSH2 0xCB1 PUSH1 0x2A DUP4 PUSH2 0xE84 JUMP JUMPDEST SWAP2 POP PUSH2 0xCBC DUP3 PUSH2 0x1223 JUMP JUMPDEST PUSH1 0x40 DUP3 ADD SWAP1 POP SWAP2 SWAP1 POP JUMP JUMPDEST PUSH1 0x0 PUSH2 0xCD4 PUSH1 0x1D DUP4 PUSH2 0xE84 JUMP JUMPDEST SWAP2 POP PUSH2 0xCDF DUP3 PUSH2 0x1272 JUMP JUMPDEST PUSH1 0x20 DUP3 ADD SWAP1 POP SWAP2 SWAP1 POP JUMP JUMPDEST PUSH2 0xCF3 DUP2 PUSH2 0xFE8 JUMP JUMPDEST DUP3 MSTORE POP POP JUMP JUMPDEST PUSH1 0x0 PUSH1 0x60 DUP3 ADD SWAP1 POP DUP2 DUP2 SUB PUSH1 0x0 DUP4 ADD MSTORE PUSH2 0xD13 DUP2 DUP7 PUSH2 0xC02 JUMP JUMPDEST SWAP1 POP PUSH2 0xD22 PUSH1 0x20 DUP4 ADD DUP6 PUSH2 0xBF3 JUMP JUMPDEST PUSH2 0xD2F PUSH1 0x40 DUP4 ADD DUP5 PUSH2 0xCEA JUMP JUMPDEST SWAP5 SWAP4 POP POP POP POP JUMP JUMPDEST PUSH1 0x0 PUSH1 0x20 DUP3 ADD SWAP1 POP DUP2 DUP2 SUB PUSH1 0x0 DUP4 ADD MSTORE PUSH2 0xD50 DUP2 PUSH2 0xC3B JUMP JUMPDEST SWAP1 POP SWAP2 SWAP1 POP JUMP JUMPDEST PUSH1 0x0 PUSH1 0x20 DUP3 ADD SWAP1 POP DUP2 DUP2 SUB PUSH1 0x0 DUP4 ADD MSTORE PUSH2 0xD70 DUP2 PUSH2 0xC5E JUMP JUMPDEST SWAP1 POP SWAP2 SWAP1 POP JUMP JUMPDEST PUSH1 0x0 PUSH1 0x20 DUP3 ADD SWAP1 POP DUP2 DUP2 SUB PUSH1 0x0 DUP4 ADD MSTORE PUSH2 0xD90 DUP2 PUSH2 0xC81 JUMP JUMPDEST SWAP1 POP SWAP2 SWAP1 POP JUMP JUMPDEST PUSH1 0x0 PUSH1 0x20 DUP3 ADD SWAP1 POP DUP2 DUP2 SUB PUSH1 0x0 DUP4 ADD MSTORE PUSH2 0xDB0 DUP2 PUSH2 0xCA4 JUMP JUMPDEST SWAP1 POP SWAP2 SWAP1 POP JUMP JUMPDEST PUSH1 0x0 PUSH1 0x20 DUP3 ADD SWAP1 POP DUP2 DUP2 SUB PUSH1 0x0 DUP4 ADD MSTORE PUSH2 0xDD0 DUP2 PUSH2 0xCC7 JUMP JUMPDEST SWAP1 POP SWAP2 SWAP1 POP JUMP JUMPDEST PUSH1 0x0 PUSH1 0x80 DUP3 ADD SWAP1 POP PUSH2 0xDEC PUSH1 0x0 DUP4 ADD DUP8 PUSH2 0xCEA JUMP JUMPDEST DUP2 DUP2 SUB PUSH1 0x20 DUP4 ADD MSTORE PUSH2 0xDFE DUP2 DUP7 PUSH2 0xC02 JUMP JUMPDEST SWAP1 POP PUSH2 0xE0D PUSH1 0x40 DUP4 ADD DUP6 PUSH2 0xCEA JUMP JUMPDEST PUSH2 0xE1A PUSH1 0x60 DUP4 ADD DUP5 PUSH2 0xCEA JUMP JUMPDEST SWAP6 SWAP5 POP POP POP POP POP JUMP JUMPDEST PUSH1 0x0 PUSH2 0xE2D PUSH2 0xE3E JUMP JUMPDEST SWAP1 POP PUSH2 0xE39 DUP3 DUP3 PUSH2 0x1066 JUMP JUMPDEST SWAP2 SWAP1 POP JUMP JUMPDEST PUSH1 0x0 PUSH1 0x40 MLOAD SWAP1 POP SWAP1 JUMP JUMPDEST PUSH1 0x0 PUSH8 0xFFFFFFFFFFFFFFFF DUP3 GT ISZERO PUSH2 0xE63 JUMPI PUSH2 0xE62 PUSH2 0x1124 JUMP JUMPDEST JUMPDEST PUSH2 0xE6C DUP3 PUSH2 0x1171 JUMP JUMPDEST SWAP1 POP PUSH1 0x20 DUP2 ADD SWAP1 POP SWAP2 SWAP1 POP JUMP JUMPDEST PUSH1 0x0 DUP2 MLOAD SWAP1 POP SWAP2 SWAP1 POP JUMP JUMPDEST PUSH1 0x0 DUP3 DUP3 MSTORE PUSH1 0x20 DUP3 ADD SWAP1 POP SWAP3 SWAP2 POP POP JUMP JUMPDEST PUSH1 0x0 PUSH2 0xEA0 DUP3 PUSH2 0xFE8 JUMP JUMPDEST SWAP2 POP PUSH2 0xEAB DUP4 PUSH2 0xFE8 JUMP JUMPDEST SWAP3 POP DUP3 PUSH32 0xFFFFFFFFFFFFFFFFFFFFFFFFFFFFFFFFFFFFFFFFFFFFFFFFFFFFFFFFFFFFFFFF SUB DUP3 GT ISZERO PUSH2 0xEE0 JUMPI PUSH2 0xEDF PUSH2 0x1097 JUMP JUMPDEST JUMPDEST DUP3 DUP3 ADD SWAP1 POP SWAP3 SWAP2 POP POP JUMP JUMPDEST PUSH1 0x0 PUSH2 0xEF6 DUP3 PUSH2 0xFE8 JUMP JUMPDEST SWAP2 POP PUSH2 0xF01 DUP4 PUSH2 0xFE8 JUMP JUMPDEST SWAP3 POP DUP3 PUSH2 0xF11 JUMPI PUSH2 0xF10 PUSH2 0x10C6 JUMP JUMPDEST JUMPDEST DUP3 DUP3 DIV SWAP1 POP SWAP3 SWAP2 POP POP JUMP JUMPDEST PUSH1 0x0 PUSH2 0xF27 DUP3 PUSH2 0xFE8 JUMP JUMPDEST SWAP2 POP PUSH2 0xF32 DUP4 PUSH2 0xFE8 JUMP JUMPDEST SWAP3 POP DUP2 PUSH32 0xFFFFFFFFFFFFFFFFFFFFFFFFFFFFFFFFFFFFFFFFFFFFFFFFFFFFFFFFFFFFFFFF DIV DUP4 GT DUP3 ISZERO ISZERO AND ISZERO PUSH2 0xF6B JUMPI PUSH2 0xF6A PUSH2 0x1097 JUMP JUMPDEST JUMPDEST DUP3 DUP3 MUL SWAP1 POP SWAP3 SWAP2 POP POP JUMP JUMPDEST PUSH1 0x0 PUSH2 0xF81 DUP3 PUSH2 0xFE8 JUMP JUMPDEST SWAP2 POP PUSH2 0xF8C DUP4 PUSH2 0xFE8 JUMP JUMPDEST SWAP3 POP DUP3 DUP3 LT ISZERO PUSH2 0xF9F JUMPI PUSH2 0xF9E PUSH2 0x1097 JUMP JUMPDEST JUMPDEST DUP3 DUP3 SUB SWAP1 POP SWAP3 SWAP2 POP POP JUMP JUMPDEST PUSH1 0x0 PUSH2 0xFB5 DUP3 PUSH2 0xFC8 JUMP JUMPDEST SWAP1 POP SWAP2 SWAP1 POP JUMP JUMPDEST PUSH1 0x0 DUP2 ISZERO ISZERO SWAP1 POP SWAP2 SWAP1 POP JUMP JUMPDEST PUSH1 0x0 PUSH20 0xFFFFFFFFFFFFFFFFFFFFFFFFFFFFFFFFFFFFFFFF DUP3 AND SWAP1 POP SWAP2 SWAP1 POP JUMP JUMPDEST PUSH1 0x0 DUP2 SWAP1 POP SWAP2 SWAP1 POP JUMP JUMPDEST DUP3 DUP2 DUP4 CALLDATACOPY PUSH1 0x0 DUP4 DUP4 ADD MSTORE POP POP POP JUMP JUMPDEST PUSH1 0x0 JUMPDEST DUP4 DUP2 LT ISZERO PUSH2 0x101F JUMPI DUP1 DUP3 ADD MLOAD DUP2 DUP5 ADD MSTORE PUSH1 0x20 DUP2 ADD SWAP1 POP PUSH2 0x1004 JUMP JUMPDEST DUP4 DUP2 GT ISZERO PUSH2 0x102E JUMPI PUSH1 0x0 DUP5 DUP5 ADD MSTORE JUMPDEST POP POP POP POP JUMP JUMPDEST PUSH1 0x0 PUSH1 0x2 DUP3 DIV SWAP1 POP PUSH1 0x1 DUP3 AND DUP1 PUSH2 0x104C JUMPI PUSH1 0x7F DUP3 AND SWAP2 POP JUMPDEST PUSH1 0x20 DUP3 LT DUP2 EQ ISZERO PUSH2 0x1060 JUMPI PUSH2 0x105F PUSH2 0x10F5 JUMP JUMPDEST JUMPDEST POP SWAP2 SWAP1 POP JUMP JUMPDEST PUSH2 0x106F DUP3 PUSH2 0x1171 JUMP JUMPDEST DUP2 ADD DUP2 DUP2 LT PUSH8 0xFFFFFFFFFFFFFFFF DUP3 GT OR ISZERO PUSH2 0x108E JUMPI PUSH2 0x108D PUSH2 0x1124 JUMP JUMPDEST JUMPDEST DUP1 PUSH1 0x40 MSTORE POP POP POP JUMP JUMPDEST PUSH32 0x4E487B7100000000000000000000000000000000000000000000000000000000 PUSH1 0x0 MSTORE PUSH1 0x11 PUSH1 0x4 MSTORE PUSH1 0x24 PUSH1 0x0 REVERT JUMPDEST PUSH32 0x4E487B7100000000000000000000000000000000000000000000000000000000 PUSH1 0x0 MSTORE PUSH1 0x12 PUSH1 0x4 MSTORE PUSH1 0x24 PUSH1 0x0 REVERT JUMPDEST PUSH32 0x4E487B7100000000000000000000000000000000000000000000000000000000 PUSH1 0x0 MSTORE PUSH1 0x22 PUSH1 0x4 MSTORE PUSH1 0x24 PUSH1 0x0 REVERT JUMPDEST PUSH32 0x4E487B7100000000000000000000000000000000000000000000000000000000 PUSH1 0x0 MSTORE PUSH1 0x41 PUSH1 0x4 MSTORE PUSH1 0x24 PUSH1 0x0 REVERT JUMPDEST PUSH1 0x0 DUP1 REVERT JUMPDEST PUSH1 0x0 DUP1 REVERT JUMPDEST PUSH1 0x0 DUP1 REVERT JUMPDEST PUSH1 0x0 DUP1 REVERT JUMPDEST PUSH1 0x0 DUP1 REVERT JUMPDEST PUSH1 0x0 DUP1 REVERT JUMPDEST PUSH1 0x0 PUSH1 0x1F NOT PUSH1 0x1F DUP4 ADD AND SWAP1 POP SWAP2 SWAP1 POP JUMP JUMPDEST PUSH32 0x416D617A6F6E20697320636C6F7365642E000000000000000000000000000000 PUSH1 0x0 DUP3 ADD MSTORE POP JUMP JUMPDEST PUSH32 0x796F7520617265206E6F7420746865206F776E65722E00000000000000000000 PUSH1 0x0 DUP3 ADD MSTORE POP JUMP JUMPDEST PUSH32 0x7468657265206973206E6F74207468652073746F636B20696E2070726F647563 PUSH1 0x0 DUP3 ADD MSTORE PUSH32 0x742E000000000000000000000000000000000000000000000000000000000000 PUSH1 0x20 DUP3 ADD MSTORE POP JUMP JUMPDEST PUSH32 0x746865206E616D65206F662070726F647563742073686F756C64206265206D6F PUSH1 0x0 DUP3 ADD MSTORE PUSH32 0x7265207468616E20352E00000000000000000000000000000000000000000000 PUSH1 0x20 DUP3 ADD MSTORE POP JUMP JUMPDEST PUSH32 0x796F7520646F6E2774206861766520656E6F75676874206D6F6E65792E000000 PUSH1 0x0 DUP3 ADD MSTORE POP JUMP JUMPDEST PUSH2 0x12A4 DUP2 PUSH2 0xFBC JUMP JUMPDEST DUP2 EQ PUSH2 0x12AF JUMPI PUSH1 0x0 DUP1 REVERT JUMPDEST POP JUMP JUMPDEST PUSH2 0x12BB DUP2 PUSH2 0xFE8 JUMP JUMPDEST DUP2 EQ PUSH2 0x12C6 JUMPI PUSH1 0x0 DUP1 REVERT JUMPDEST POP JUMP INVALID LOG2 PUSH5 0x6970667358 0x22 SLT KECCAK256 0xE1 0x27 0xEC RETURNDATASIZE PUSH12 0xB7ECB00170CBF9A4682AC4F5 0xC2 PUSH6 0x77E63A7EDE31 SWAP13 0xB3 JUMP DUP2 SMOD 0x26 0xCC PUSH5 0x736F6C6343 STOP ADDMOD SMOD STOP CALLER "
				},
				"gasEstimates": {
					"creation": {
						"codeDepositCost": "972600",
						"executionCost": "49591",
						"totalCost": "1022191"
					},
					"external": {
						"addProduct((uint256,string,uint256,uint256))": "infinite",
						"addQuantity(uint256,uint256)": "infinite",
						"buyProduct(uint256,uint256)": "infinite",
						"closeOrOpenAmazon(bool)": "26989",
						"listProducts(uint256)": "infinite",
						"withdrawAllMoney()": "infinite"
					},
					"internal": {
						"convertWeiToEther(uint256)": "infinite"
					}
				},
				"methodIdentifiers": {
					"addProduct((uint256,string,uint256,uint256))": "408b464b",
					"addQuantity(uint256,uint256)": "9d64871c",
					"buyProduct(uint256,uint256)": "53b62866",
					"closeOrOpenAmazon(bool)": "bc32caad",
					"listProducts(uint256)": "34d53366",
					"withdrawAllMoney()": "1b52b9de"
				}
			},
			"storageLayout": {
				"storage": [
					{
						"astId": 3,
						"contract": "Examen 1/PrimerParcial.sol:PrimerParcial",
						"label": "owner",
						"offset": 0,
						"slot": "0",
						"type": "t_address"
					},
					{
						"astId": 6,
						"contract": "Examen 1/PrimerParcial.sol:PrimerParcial",
						"label": "closed",
						"offset": 20,
						"slot": "0",
						"type": "t_bool"
					},
					{
						"astId": 28,
						"contract": "Examen 1/PrimerParcial.sol:PrimerParcial",
						"label": "listProducts",
						"offset": 0,
						"slot": "1",
						"type": "t_mapping(t_uint256,t_struct(Product)23_storage)"
					}
				],
				"types": {
					"t_address": {
						"encoding": "inplace",
						"label": "address",
						"numberOfBytes": "20"
					},
					"t_bool": {
						"encoding": "inplace",
						"label": "bool",
						"numberOfBytes": "1"
					},
					"t_mapping(t_uint256,t_struct(Product)23_storage)": {
						"encoding": "mapping",
						"key": "t_uint256",
						"label": "mapping(uint256 => struct PrimerParcial.Product)",
						"numberOfBytes": "32",
						"value": "t_struct(Product)23_storage"
					},
					"t_string_storage": {
						"encoding": "bytes",
						"label": "string",
						"numberOfBytes": "32"
					},
					"t_struct(Product)23_storage": {
						"encoding": "inplace",
						"label": "struct PrimerParcial.Product",
						"members": [
							{
								"astId": 16,
								"contract": "Examen 1/PrimerParcial.sol:PrimerParcial",
								"label": "id",
								"offset": 0,
								"slot": "0",
								"type": "t_uint256"
							},
							{
								"astId": 18,
								"contract": "Examen 1/PrimerParcial.sol:PrimerParcial",
								"label": "name",
								"offset": 0,
								"slot": "1",
								"type": "t_string_storage"
							},
							{
								"astId": 20,
								"contract": "Examen 1/PrimerParcial.sol:PrimerParcial",
								"label": "stock",
								"offset": 0,
								"slot": "2",
								"type": "t_uint256"
							},
							{
								"astId": 22,
								"contract": "Examen 1/PrimerParcial.sol:PrimerParcial",
								"label": "price",
								"offset": 0,
								"slot": "3",
								"type": "t_uint256"
							}
						],
						"numberOfBytes": "128"
					},
					"t_uint256": {
						"encoding": "inplace",
						"label": "uint256",
						"numberOfBytes": "32"
					}
				}
			},
			"userdoc": {
				"kind": "user",
				"methods": {},
				"version": 1
			}
		}
	}
}